{
  "_format": "hh-sol-artifact-1",
  "contractName": "ComputeRoot",
  "sourceName": "@unirep/contracts/contracts/ComputeRoot.sol",
  "abi": [
    {
      "inputs": [
        {
          "internalType": "uint8",
          "name": "_treeLevels",
          "type": "uint8"
        },
        {
          "internalType": "uint256",
          "name": "_zeroValue",
          "type": "uint256"
        }
      ],
      "name": "computeEmptyRoot",
      "outputs": [
        {
          "internalType": "uint256",
          "name": "",
          "type": "uint256"
        }
      ],
      "stateMutability": "pure",
      "type": "function"
    },
    {
      "inputs": [
        {
          "internalType": "uint8",
          "name": "_treeLevels",
          "type": "uint8"
        },
        {
          "internalType": "uint256",
          "name": "_leafIndex",
          "type": "uint256"
        },
        {
          "internalType": "uint256",
          "name": "_leafValue",
          "type": "uint256"
        },
        {
          "internalType": "uint256",
          "name": "_zeroValue",
          "type": "uint256"
        }
      ],
      "name": "computeOneNonZeroLeafRoot",
      "outputs": [
        {
          "internalType": "uint256",
          "name": "",
          "type": "uint256"
        }
      ],
      "stateMutability": "pure",
      "type": "function"
    },
    {
      "inputs": [
        {
          "internalType": "uint256[5]",
          "name": "array",
          "type": "uint256[5]"
        }
      ],
      "name": "hash5",
      "outputs": [
        {
          "internalType": "uint256",
          "name": "",
          "type": "uint256"
        }
      ],
      "stateMutability": "pure",
      "type": "function"
    },
    {
      "inputs": [
        {
          "internalType": "uint256",
          "name": "_left",
          "type": "uint256"
        },
        {
          "internalType": "uint256",
          "name": "_right",
          "type": "uint256"
        }
      ],
      "name": "hashLeftRight",
      "outputs": [
        {
          "internalType": "uint256",
          "name": "",
          "type": "uint256"
        }
      ],
      "stateMutability": "pure",
      "type": "function"
    }
  ],
  "bytecode": "0x608060405234801561001057600080fd5b50610608806100206000396000f3fe608060405234801561001057600080fd5b506004361061004c5760003560e01c80634edc9ace146100515780635bb939951461007a57806383e168ad1461008d5780639cfced97146100a0575b600080fd5b61006461005f36600461040e565b6100b3565b604051610071919061051a565b60405180910390f35b6100646100883660046103ed565b610138565b61006461009b366004610437565b6101d3565b6100646100ae366004610353565b610292565b6000808360ff161180156100cc57506101008360ff1611155b6100f15760405162461bcd60e51b81526004016100e8906104c8565b60405180910390fd5b8160015b8460ff168160ff16101561012557600061010f8384610138565b925081905061011d8161055c565b9150506100f5565b506101308182610138565b949350505050565b6000610142610324565b838152602081018390526040516314d2f97b60e11b815273__$0098a6e9267037f9f6df61985348dda7d9$__906329a5f2f69061018390849060040161046f565b60206040518083038186803b15801561019b57600080fd5b505af41580156101af573d6000803e3d6000fd5b505050506040513d601f19601f8201168201806040525081019061013091906103d5565b6000808560ff161180156101ec57506101008560ff1611155b6102085760405162461bcd60e51b81526004016100e8906104c8565b82828560015b610219896001610523565b60ff168160ff1610156102855760006102328485610138565b905061023f60028461057c565b6102545761024d8585610138565b9450610261565b61025e8486610138565b94505b92508261026f600284610548565b925050808061027d9061055c565b91505061020e565b5091979650505050505050565b604051630926f44b60e31b815260009073__$61800e922196a95eb70dc1bd65191ef757$__90634937a258906102cc9085906004016104a0565b60206040518083038186803b1580156102e457600080fd5b505af41580156102f8573d6000803e3d6000fd5b505050506040513d601f19601f8201168201806040525081019061031c91906103d5565b90505b919050565b60405180604001604052806002906020820280368337509192915050565b803560ff8116811461031f57600080fd5b600060a08284031215610364578081fd5b82601f830112610372578081fd5b60405160a0810181811067ffffffffffffffff82111715610395576103956105bc565b604052808360a081018610156103a9578384fd5b835b60058110156103ca5781358352602092830192909101906001016103ab565b509195945050505050565b6000602082840312156103e6578081fd5b5051919050565b600080604083850312156103ff578081fd5b50508035926020909101359150565b60008060408385031215610420578182fd5b61042983610342565b946020939093013593505050565b6000806000806080858703121561044c578182fd5b61045585610342565b966020860135965060408601359560600135945092505050565b60408101818360005b6002811015610497578151835260209283019290910190600101610478565b50505092915050565b60a08101818360005b60058110156104975781518352602092830192909101906001016104a9565b60208082526032908201527f436f6d70757465526f6f743a205f747265654c6576656c73206d757374206265604082015271103132ba3bb2b2b710181030b73210191a9b60711b606082015260800190565b90815260200190565b600060ff821660ff84168060ff0382111561054057610540610590565b019392505050565b600082610557576105576105a6565b500490565b600060ff821660ff81141561057357610573610590565b60010192915050565b60008261058b5761058b6105a6565b500690565b634e487b7160e01b600052601160045260246000fd5b634e487b7160e01b600052601260045260246000fd5b634e487b7160e01b600052604160045260246000fdfea26469706673582212201a761884c957b7578401971c28bb25a104f3dd1eac7cc86e9c47983ff0e7294d64736f6c63430008000033",
  "linkReferences": {
    "@unirep/contracts/contracts/Poseidon.sol": {
      "PoseidonT3": [
        {
          "length": 20,
          "start": 379
        }
      ],
      "PoseidonT6": [
        {
          "length": 20,
          "start": 708
        }
      ]
    }
  },
  "deployedLinkReferences": {
    "@unirep/contracts/contracts/Poseidon.sol": {
      "PoseidonT3": [
        {
          "length": 20,
          "start": 347
        }
      ],
      "PoseidonT6": [
        {
          "length": 20,
          "start": 676
        }
      ]
    }
  }
}