{
  "_format": "hh-sol-artifact-1",
  "contractName": "Hasher",
  "sourceName": "@unirep/contracts/contracts/Hasher.sol",
  "abi": [
    {
      "inputs": [
        {
          "internalType": "uint256[5]",
          "name": "array",
          "type": "uint256[5]"
        }
      ],
      "name": "hash5",
      "outputs": [
        {
          "internalType": "uint256",
          "name": "",
          "type": "uint256"
        }
      ],
      "stateMutability": "pure",
      "type": "function"
    },
    {
      "inputs": [
        {
          "internalType": "uint256",
          "name": "_left",
          "type": "uint256"
        },
        {
          "internalType": "uint256",
          "name": "_right",
          "type": "uint256"
        }
      ],
      "name": "hashLeftRight",
      "outputs": [
        {
          "internalType": "uint256",
          "name": "",
          "type": "uint256"
        }
      ],
      "stateMutability": "pure",
      "type": "function"
    }
  ],
  "bytecode": "0x608060405234801561001057600080fd5b50610331806100206000396000f3fe608060405234801561001057600080fd5b50600436106100365760003560e01c80635bb939951461003b5780639cfced9714610064575b600080fd5b61004e610049366004610262565b610077565b60405161005b91906102dc565b60405180910390f35b61004e6100723660046101c8565b61011a565b60006100816101aa565b838152602081018390526040516314d2f97b60e11b815273__$0098a6e9267037f9f6df61985348dda7d9$__906329a5f2f6906100c2908490600401610283565b60206040518083038186803b1580156100da57600080fd5b505af41580156100ee573d6000803e3d6000fd5b505050506040513d601f19601f82011682018060405250810190610112919061024a565b949350505050565b604051630926f44b60e31b815260009073__$61800e922196a95eb70dc1bd65191ef757$__90634937a258906101549085906004016102b4565b60206040518083038186803b15801561016c57600080fd5b505af4158015610180573d6000803e3d6000fd5b505050506040513d601f19601f820116820180604052508101906101a4919061024a565b92915050565b60405180604001604052806002906020820280368337509192915050565b600060a082840312156101d9578081fd5b82601f8301126101e7578081fd5b60405160a0810181811067ffffffffffffffff8211171561020a5761020a6102e5565b604052808360a0810186101561021e578384fd5b835b600581101561023f578135835260209283019290910190600101610220565b509195945050505050565b60006020828403121561025b578081fd5b5051919050565b60008060408385031215610274578081fd5b50508035926020909101359150565b60408101818360005b60028110156102ab57815183526020928301929091019060010161028c565b50505092915050565b60a08101818360005b60058110156102ab5781518352602092830192909101906001016102bd565b90815260200190565b634e487b7160e01b600052604160045260246000fdfea2646970667358221220805e9dd9b4221ae617f22178ba8d5e15343650d84ca7dd03811903de9845919464736f6c63430008000033",
  "linkReferences": {
    "@unirep/contracts/contracts/Poseidon.sol": {
      "PoseidonT3": [
        {
          "length": 20,
          "start": 186
        }
      ],
      "PoseidonT6": [
        {
          "length": 20,
          "start": 332
        }
      ]
    }
  },
  "deployedLinkReferences": {
    "@unirep/contracts/contracts/Poseidon.sol": {
      "PoseidonT3": [
        {
          "length": 20,
          "start": 154
        }
      ],
      "PoseidonT6": [
        {
          "length": 20,
          "start": 300
        }
      ]
    }
  }
}