{
  "_format": "hh-sol-artifact-1",
  "contractName": "UserSignUpVerifier",
  "sourceName": "@unirep/contracts/contracts/UserSignUpVerifier.sol",
  "abi": [
    {
      "inputs": [
        {
          "internalType": "uint256[2]",
          "name": "a",
          "type": "uint256[2]"
        },
        {
          "internalType": "uint256[2][2]",
          "name": "b",
          "type": "uint256[2][2]"
        },
        {
          "internalType": "uint256[2]",
          "name": "c",
          "type": "uint256[2]"
        },
        {
          "internalType": "uint256[]",
          "name": "input",
          "type": "uint256[]"
        }
      ],
      "name": "verifyProof",
      "outputs": [
        {
          "internalType": "bool",
          "name": "",
          "type": "bool"
        }
      ],
      "stateMutability": "view",
      "type": "function"
    }
  ],
  "bytecode": "0x608060405234801561001057600080fd5b50611356806100206000396000f3fe608060405234801561001057600080fd5b506004361061002b5760003560e01c8063c32e370e14610030575b600080fd5b61004361003e366004610eb6565b610059565b6040516100509190610f7f565b60405180910390f35b6000610063610c67565b6040805180820182528751815260208089015181830152908352815160808101835287515181840190815288518301516060830152815282518084018452888301805151825251830151818401528183015283820152815180830183528651815286820151918101919091529082015260006100dd6103e2565b6040805180820190915260008082526020820152835151919250906000805160206113018339815191521161012d5760405162461bcd60e51b815260040161012490610fc1565b60405180910390fd5b8251602001516000805160206113018339815191521161015f5760405162461bcd60e51b815260040161012490611137565b60208301515151600080516020611301833981519152116101925760405162461bcd60e51b815260040161012490610f8a565b602083810151015151600080516020611301833981519152116101c75760405162461bcd60e51b815260040161012490611100565b602083810151510151600080516020611301833981519152116101fc5760405162461bcd60e51b81526004016101249061102f565b6020838101518101510151600080516020611301833981519152116102335760405162461bcd60e51b815260040161012490610ff8565b604083015151600080516020611301833981519152116102655760405162461bcd60e51b81526004016101249061119a565b6000805160206113018339815191528360400151602001511061029a5760405162461bcd60e51b815260040161012490611092565b60005b600481101561038e577f30644e72e131a029b85045b68181585d2833e84879b9709143e1f593f00000018682815181106102e757634e487b7160e01b600052603260045260246000fd5b60200260200101511061030c5760405162461bcd60e51b8152600401610124906110c9565b61037a826103758560800151846001610325919061124b565b6005811061034357634e487b7160e01b600052603260045260246000fd5b602002015189858151811061036857634e487b7160e01b600052603260045260246000fd5b6020026020010151610796565b610801565b91508061038681611299565b91505061029d565b506080820151516103a0908290610801565b90506103d66103b28460000151610868565b846020015184600001518560200151858760400151896040015189606001516108f5565b98975050505050505050565b6103ea610c99565b6040805180820182527f2d4d9aa7e302d9df41749d5507949d05dbea33fbb16c643b22f599a2be6df2e281527f14bedd503c37ceb061d8ec60209fe345ce89830a19230301f076caff004d19266020808301919091529083528151608080820184527f0967032fcbf776d1afc985f88877f182d38480a653f2decaa9794cbc3bf3060c8285019081527f0e187847ad4c798374d0d6732bf501847dd68bc0e071241e0213bc7fc13db7ab606080850191909152908352845180860186527f304cfbd1e08a704a99f5e847d93f8c3caafddec46b7a0d379da69a4d112346a781527f1739c1b1a457a8c7313123d24d2f9192f896b7c63eea05a9d57f06547ad0cec8818601528385015285840192909252835180820185527f198e9393920d483a7260bfb731fb5d25f1aa493335a9e71297e485b7aef312c28186018181527f1800deef121f1e76426a00665e5c4479674322d4f75edadd46debd5cd992f6ed838601819052908352865180880188527f090689d0585ff075ec9e99ad690c3395bc4b313370b38ef355acdadcd122975b8082527f12c85ea5db8c6deb4aab71808dcb408fe3d1e7690c43d37b4ce6cc0166fa7daa8289018190528589019290925289890194909452875180860189528089019384528087019290925291815286518088018852928352828601919091528085019190915282860152835180850185527f2a292141a4fd8913029122352f2682c8ada6037b3f9e98581b0053333f753e9781527f073a6c8eba53182d86c6db70a09adbc17bcce4dd0418c5964d44789ac3e26bab81850152818601805191909152845180860186527f1eb31a8aaac440e0ac07bba28671d758e195cfb4cc5d1289b11d6610b0eafb1981527f128dd17a16bf704a5ec11d65a74f704182897f91c96683c7b05102a5ef5049eb818601528151850152845180860186527f2c507ef59d0d475c1ccf5883ee0460703fa30f0704dbe1410975a4f158c9fdf381527f2b31c5c6bc14a33a9dd35a9c14e1ff9578f1be1e6dba681afc23b680f25d04ec818601528151860152845180860186527f084cae19297f48c4b758c00917f1cef3715d5c72600c8ebbe98778e35f8ddbe781527f046138660cdb5107e7b28d7343d470a62ec808b14d75e2627a5488818cba49778186015281519093019290925283518085019094527f209f1bc129ccd9f9c92452c2448bb0c685050e8057ea63e9f3b6e91af5cad13384527f2178b5c686e3560c5d723a3f04a9f68701aeb3bb98c2a79443a007e31e97023d9284019290925251015290565b61079e610ce0565b6107a6610cfa565b835181526020808501519082015260408101839052600060608360808460076107d05a03fa90508080156107d9576107db565bfe5b50806107f95760405162461bcd60e51b815260040161012490611066565b505092915050565b610809610ce0565b610811610d18565b8351815260208085015181830152835160408301528301516060808301919091526000908360c08460066107d05a03fa90508080156107d95750806107f95760405162461bcd60e51b81526004016101249061116e565b610870610ce0565b815115801561088157506020820151155b156108a0575060408051808201909152600080825260208201526108f0565b60405180604001604052808360000151815260200160008051602061130183398151915284602001516108d391906112b4565b6108eb90600080516020611301833981519152611282565b905290505b919050565b60408051608080820183528a825260208083018a90528284018890526060808401879052845192830185528b83528282018a9052828501889052820185905283516018808252610320820190955260009491859190839082016103008036833701905050905060005b6004811015610c0d576000610974826006611263565b905085826004811061099657634e487b7160e01b600052603260045260246000fd5b602002015151836109a883600061124b565b815181106109c657634e487b7160e01b600052603260045260246000fd5b6020026020010181815250508582600481106109f257634e487b7160e01b600052603260045260246000fd5b60200201516020015183826001610a09919061124b565b81518110610a2757634e487b7160e01b600052603260045260246000fd5b602002602001018181525050848260048110610a5357634e487b7160e01b600052603260045260246000fd5b6020020151515183610a6683600261124b565b81518110610a8457634e487b7160e01b600052603260045260246000fd5b602002602001018181525050848260048110610ab057634e487b7160e01b600052603260045260246000fd5b6020020151516001602002015183610ac983600361124b565b81518110610ae757634e487b7160e01b600052603260045260246000fd5b602002602001018181525050848260048110610b1357634e487b7160e01b600052603260045260246000fd5b602002015160200151600060028110610b3c57634e487b7160e01b600052603260045260246000fd5b602002015183610b4d83600461124b565b81518110610b6b57634e487b7160e01b600052603260045260246000fd5b602002602001018181525050848260048110610b9757634e487b7160e01b600052603260045260246000fd5b602002015160200151600160028110610bc057634e487b7160e01b600052603260045260246000fd5b602002015183610bd183600561124b565b81518110610bef57634e487b7160e01b600052603260045260246000fd5b60209081029190910101525080610c0581611299565b91505061095e565b50610c16610d36565b6000602082602086026020860160086107d05a03fa90508080156107d9575080610c525760405162461bcd60e51b8152600401610124906111d1565b505115159d9c50505050505050505050505050565b6040518060600160405280610c7a610ce0565b8152602001610c87610d54565b8152602001610c94610ce0565b905290565b6040518060a00160405280610cac610ce0565b8152602001610cb9610d54565b8152602001610cc6610d54565b8152602001610cd3610d54565b8152602001610c94610d74565b604051806040016040528060008152602001600081525090565b60405180606001604052806003906020820280368337509192915050565b60405180608001604052806004906020820280368337509192915050565b60405180602001604052806001906020820280368337509192915050565b6040518060400160405280610d67610da1565b8152602001610c94610da1565b6040518060a001604052806005905b610d8b610ce0565b815260200190600190039081610d835790505090565b60405180604001604052806002906020820280368337509192915050565b600082601f830112610dcf578081fd5b6040516040810181811067ffffffffffffffff82111715610df257610df26112ea565b8060405250808385604086011115610e08578384fd5b835b6002811015610e29578135835260209283019290910190600101610e0a565b509195945050505050565b600082601f830112610e44578081fd5b8135602067ffffffffffffffff821115610e6057610e606112ea565b808202610e6e828201611200565b838152828101908684018388018501891015610e88578687fd5b8693505b85841015610eaa578035835260019390930192918401918401610e8c565b50979650505050505050565b6000806000806101208587031215610ecc578384fd5b610ed68686610dbf565b9350604086605f870112610ee8578384fd5b6002610efb610ef68261122a565b611200565b8083890160c08a018b811115610f0f578889fd5b885b85811015610f3757610f238d84610dbf565b855260209094019391860191600101610f11565b50829850610f458c82610dbf565b975050505050505061010085013567ffffffffffffffff811115610f67578182fd5b610f7387828801610e34565b91505092959194509250565b901515815260200190565b60208082526018908201527f76657269666965722d6258302d6774652d7072696d652d710000000000000000604082015260600190565b60208082526017908201527f76657269666965722d61582d6774652d7072696d652d71000000000000000000604082015260600190565b60208082526018908201527f76657269666965722d6259312d6774652d7072696d652d710000000000000000604082015260600190565b60208082526018908201527f76657269666965722d6258312d6774652d7072696d652d710000000000000000604082015260600190565b6020808252601290820152711c185a5c9a5b99cb5b5d5b0b59985a5b195960721b604082015260600190565b60208082526017908201527f76657269666965722d63592d6774652d7072696d652d71000000000000000000604082015260600190565b6020808252601f908201527f76657269666965722d6774652d736e61726b2d7363616c61722d6669656c6400604082015260600190565b60208082526018908201527f76657269666965722d6259302d6774652d7072696d652d710000000000000000604082015260600190565b60208082526017908201527f76657269666965722d61592d6774652d7072696d652d71000000000000000000604082015260600190565b6020808252601290820152711c185a5c9a5b99cb5859190b59985a5b195960721b604082015260600190565b60208082526017908201527f76657269666965722d63582d6774652d7072696d652d71000000000000000000604082015260600190565b6020808252601590820152741c185a5c9a5b99cb5bdc18dbd9194b59985a5b1959605a1b604082015260600190565b60405181810167ffffffffffffffff81118282101715611222576112226112ea565b604052919050565b600067ffffffffffffffff821115611244576112446112ea565b5060200290565b6000821982111561125e5761125e6112d4565b500190565b600081600019048311821515161561127d5761127d6112d4565b500290565b600082821015611294576112946112d4565b500390565b60006000198214156112ad576112ad6112d4565b5060010190565b6000826112cf57634e487b7160e01b81526012600452602481fd5b500690565b634e487b7160e01b600052601160045260246000fd5b634e487b7160e01b600052604160045260246000fdfe30644e72e131a029b85045b68181585d97816a916871ca8d3c208c16d87cfd47a2646970667358221220e9a4175ba420b082cef8c94c9906be04001654ee9d530b67f8972cb426ba930164736f6c63430008000033",
  "linkReferences": {},
  "deployedLinkReferences": {}
}