{
    "_format": "hh-sol-artifact-1",
    "contractName": "UnirepSocial",
    "sourceName": "contracts/UnirepSocial.sol",
    "abi": [
        {
            "inputs": [
                {
                    "internalType": "contract Unirep",
                    "name": "_unirepContract",
                    "type": "address"
                },
                {
                    "internalType": "uint256",
                    "name": "_postReputation",
                    "type": "uint256"
                },
                {
                    "internalType": "uint256",
                    "name": "_commentReputation",
                    "type": "uint256"
                },
                {
                    "internalType": "uint256",
                    "name": "_airdroppedReputation",
                    "type": "uint256"
                }
            ],
            "stateMutability": "nonpayable",
            "type": "constructor"
        },
        {
            "anonymous": false,
            "inputs": [
                {
                    "indexed": true,
                    "internalType": "uint256",
                    "name": "_epoch",
                    "type": "uint256"
                },
                {
                    "indexed": true,
                    "internalType": "uint256",
                    "name": "_epochKey",
                    "type": "uint256"
                },
                {
                    "components": [
                        {
                            "internalType": "uint256",
                            "name": "epoch",
                            "type": "uint256"
                        },
                        {
                            "internalType": "uint256",
                            "name": "epochKey",
                            "type": "uint256"
                        },
                        {
                            "internalType": "uint256",
                            "name": "globalStateTree",
                            "type": "uint256"
                        },
                        {
                            "internalType": "uint256",
                            "name": "attesterId",
                            "type": "uint256"
                        },
                        {
                            "internalType": "uint256[8]",
                            "name": "proof",
                            "type": "uint256[8]"
                        }
                    ],
                    "indexed": false,
                    "internalType": "struct UnirepParameters.SignUpProofRelated",
                    "name": "proofRelated",
                    "type": "tuple"
                }
            ],
            "name": "AirdropSubmitted",
            "type": "event"
        },
        {
            "anonymous": false,
            "inputs": [
                {
                    "indexed": true,
                    "internalType": "uint256",
                    "name": "_epoch",
                    "type": "uint256"
                },
                {
                    "indexed": true,
                    "internalType": "uint256",
                    "name": "_postId",
                    "type": "uint256"
                },
                {
                    "indexed": true,
                    "internalType": "uint256",
                    "name": "_epochKey",
                    "type": "uint256"
                },
                {
                    "indexed": false,
                    "internalType": "uint256",
                    "name": "_commentId",
                    "type": "uint256"
                },
                {
                    "indexed": false,
                    "internalType": "string",
                    "name": "_hahsedContent",
                    "type": "string"
                },
                {
                    "components": [
                        {
                            "internalType": "uint256[]",
                            "name": "repNullifiers",
                            "type": "uint256[]"
                        },
                        {
                            "internalType": "uint256",
                            "name": "epoch",
                            "type": "uint256"
                        },
                        {
                            "internalType": "uint256",
                            "name": "epochKey",
                            "type": "uint256"
                        },
                        {
                            "internalType": "uint256",
                            "name": "globalStateTree",
                            "type": "uint256"
                        },
                        {
                            "internalType": "uint256",
                            "name": "attesterId",
                            "type": "uint256"
                        },
                        {
                            "internalType": "uint256",
                            "name": "proveReputationAmount",
                            "type": "uint256"
                        },
                        {
                            "internalType": "uint256",
                            "name": "minRep",
                            "type": "uint256"
                        },
                        {
                            "internalType": "uint256",
                            "name": "proveGraffiti",
                            "type": "uint256"
                        },
                        {
                            "internalType": "uint256",
                            "name": "graffitiPreImage",
                            "type": "uint256"
                        },
                        {
                            "internalType": "uint256[8]",
                            "name": "proof",
                            "type": "uint256[8]"
                        }
                    ],
                    "indexed": false,
                    "internalType": "struct UnirepParameters.ReputationProofRelated",
                    "name": "proofRelated",
                    "type": "tuple"
                }
            ],
            "name": "CommentSubmitted",
            "type": "event"
        },
        {
            "anonymous": false,
            "inputs": [
                {
                    "indexed": true,
                    "internalType": "uint256",
                    "name": "_epoch",
                    "type": "uint256"
                },
                {
                    "indexed": true,
                    "internalType": "uint256",
                    "name": "_postId",
                    "type": "uint256"
                },
                {
                    "indexed": true,
                    "internalType": "uint256",
                    "name": "_epochKey",
                    "type": "uint256"
                },
                {
                    "indexed": false,
                    "internalType": "string",
                    "name": "_hahsedContent",
                    "type": "string"
                },
                {
                    "components": [
                        {
                            "internalType": "uint256[]",
                            "name": "repNullifiers",
                            "type": "uint256[]"
                        },
                        {
                            "internalType": "uint256",
                            "name": "epoch",
                            "type": "uint256"
                        },
                        {
                            "internalType": "uint256",
                            "name": "epochKey",
                            "type": "uint256"
                        },
                        {
                            "internalType": "uint256",
                            "name": "globalStateTree",
                            "type": "uint256"
                        },
                        {
                            "internalType": "uint256",
                            "name": "attesterId",
                            "type": "uint256"
                        },
                        {
                            "internalType": "uint256",
                            "name": "proveReputationAmount",
                            "type": "uint256"
                        },
                        {
                            "internalType": "uint256",
                            "name": "minRep",
                            "type": "uint256"
                        },
                        {
                            "internalType": "uint256",
                            "name": "proveGraffiti",
                            "type": "uint256"
                        },
                        {
                            "internalType": "uint256",
                            "name": "graffitiPreImage",
                            "type": "uint256"
                        },
                        {
                            "internalType": "uint256[8]",
                            "name": "proof",
                            "type": "uint256[8]"
                        }
                    ],
                    "indexed": false,
                    "internalType": "struct UnirepParameters.ReputationProofRelated",
                    "name": "proofRelated",
                    "type": "tuple"
                }
            ],
            "name": "PostSubmitted",
            "type": "event"
        },
        {
            "anonymous": false,
            "inputs": [
                {
                    "indexed": true,
                    "internalType": "uint256",
                    "name": "_epoch",
                    "type": "uint256"
                },
                {
                    "indexed": true,
                    "internalType": "uint256",
                    "name": "_identityCommitment",
                    "type": "uint256"
                }
            ],
            "name": "UserSignedUp",
            "type": "event"
        },
        {
            "anonymous": false,
            "inputs": [
                {
                    "indexed": true,
                    "internalType": "uint256",
                    "name": "_epoch",
                    "type": "uint256"
                },
                {
                    "indexed": true,
                    "internalType": "uint256",
                    "name": "_fromEpochKey",
                    "type": "uint256"
                },
                {
                    "indexed": true,
                    "internalType": "uint256",
                    "name": "_toEpochKey",
                    "type": "uint256"
                },
                {
                    "indexed": false,
                    "internalType": "uint256",
                    "name": "upvoteValue",
                    "type": "uint256"
                },
                {
                    "indexed": false,
                    "internalType": "uint256",
                    "name": "downvoteValue",
                    "type": "uint256"
                },
                {
                    "components": [
                        {
                            "internalType": "uint256[]",
                            "name": "repNullifiers",
                            "type": "uint256[]"
                        },
                        {
                            "internalType": "uint256",
                            "name": "epoch",
                            "type": "uint256"
                        },
                        {
                            "internalType": "uint256",
                            "name": "epochKey",
                            "type": "uint256"
                        },
                        {
                            "internalType": "uint256",
                            "name": "globalStateTree",
                            "type": "uint256"
                        },
                        {
                            "internalType": "uint256",
                            "name": "attesterId",
                            "type": "uint256"
                        },
                        {
                            "internalType": "uint256",
                            "name": "proveReputationAmount",
                            "type": "uint256"
                        },
                        {
                            "internalType": "uint256",
                            "name": "minRep",
                            "type": "uint256"
                        },
                        {
                            "internalType": "uint256",
                            "name": "proveGraffiti",
                            "type": "uint256"
                        },
                        {
                            "internalType": "uint256",
                            "name": "graffitiPreImage",
                            "type": "uint256"
                        },
                        {
                            "internalType": "uint256[8]",
                            "name": "proof",
                            "type": "uint256[8]"
                        }
                    ],
                    "indexed": false,
                    "internalType": "struct UnirepParameters.ReputationProofRelated",
                    "name": "proofRelated",
                    "type": "tuple"
                }
            ],
            "name": "VoteSubmitted",
            "type": "event"
        },
        {
            "inputs": [
                {
                    "components": [
                        {
                            "internalType": "uint256",
                            "name": "epoch",
                            "type": "uint256"
                        },
                        {
                            "internalType": "uint256",
                            "name": "epochKey",
                            "type": "uint256"
                        },
                        {
                            "internalType": "uint256",
                            "name": "globalStateTree",
                            "type": "uint256"
                        },
                        {
                            "internalType": "uint256",
                            "name": "attesterId",
                            "type": "uint256"
                        },
                        {
                            "internalType": "uint256[8]",
                            "name": "proof",
                            "type": "uint256[8]"
                        }
                    ],
                    "internalType": "struct UnirepParameters.SignUpProofRelated",
                    "name": "_signUpProofData",
                    "type": "tuple"
                }
            ],
            "name": "airdrop",
            "outputs": [],
            "stateMutability": "payable",
            "type": "function"
        },
        {
            "inputs": [],
            "name": "airdroppedReputation",
            "outputs": [
                {
                    "internalType": "uint256",
                    "name": "",
                    "type": "uint256"
                }
            ],
            "stateMutability": "view",
            "type": "function"
        },
        {
            "inputs": [],
            "name": "attesterId",
            "outputs": [
                {
                    "internalType": "uint256",
                    "name": "",
                    "type": "uint256"
                }
            ],
            "stateMutability": "view",
            "type": "function"
        },
        {
            "inputs": [],
            "name": "commentReputation",
            "outputs": [
                {
                    "internalType": "uint256",
                    "name": "",
                    "type": "uint256"
                }
            ],
            "stateMutability": "view",
            "type": "function"
        },
        {
            "inputs": [
                {
                    "internalType": "uint256",
                    "name": "",
                    "type": "uint256"
                }
            ],
            "name": "isCommentIDSubmitted",
            "outputs": [
                {
                    "internalType": "bool",
                    "name": "",
                    "type": "bool"
                }
            ],
            "stateMutability": "view",
            "type": "function"
        },
        {
            "inputs": [
                {
                    "internalType": "uint256",
                    "name": "",
                    "type": "uint256"
                }
            ],
            "name": "isEpochKeyGotAirdrop",
            "outputs": [
                {
                    "internalType": "bool",
                    "name": "",
                    "type": "bool"
                }
            ],
            "stateMutability": "view",
            "type": "function"
        },
        {
            "inputs": [
                {
                    "internalType": "uint256",
                    "name": "",
                    "type": "uint256"
                }
            ],
            "name": "isPostIDSubmitted",
            "outputs": [
                {
                    "internalType": "bool",
                    "name": "",
                    "type": "bool"
                }
            ],
            "stateMutability": "view",
            "type": "function"
        },
        {
            "inputs": [
                {
                    "internalType": "uint256",
                    "name": "postId",
                    "type": "uint256"
                },
                {
                    "internalType": "uint256",
                    "name": "commentId",
                    "type": "uint256"
                },
                {
                    "internalType": "string",
                    "name": "hashedContent",
                    "type": "string"
                },
                {
                    "components": [
                        {
                            "internalType": "uint256[]",
                            "name": "repNullifiers",
                            "type": "uint256[]"
                        },
                        {
                            "internalType": "uint256",
                            "name": "epoch",
                            "type": "uint256"
                        },
                        {
                            "internalType": "uint256",
                            "name": "epochKey",
                            "type": "uint256"
                        },
                        {
                            "internalType": "uint256",
                            "name": "globalStateTree",
                            "type": "uint256"
                        },
                        {
                            "internalType": "uint256",
                            "name": "attesterId",
                            "type": "uint256"
                        },
                        {
                            "internalType": "uint256",
                            "name": "proveReputationAmount",
                            "type": "uint256"
                        },
                        {
                            "internalType": "uint256",
                            "name": "minRep",
                            "type": "uint256"
                        },
                        {
                            "internalType": "uint256",
                            "name": "proveGraffiti",
                            "type": "uint256"
                        },
                        {
                            "internalType": "uint256",
                            "name": "graffitiPreImage",
                            "type": "uint256"
                        },
                        {
                            "internalType": "uint256[8]",
                            "name": "proof",
                            "type": "uint256[8]"
                        }
                    ],
                    "internalType": "struct UnirepParameters.ReputationProofRelated",
                    "name": "_proofRelated",
                    "type": "tuple"
                }
            ],
            "name": "leaveComment",
            "outputs": [],
            "stateMutability": "payable",
            "type": "function"
        },
        {
            "inputs": [],
            "name": "postReputation",
            "outputs": [
                {
                    "internalType": "uint256",
                    "name": "",
                    "type": "uint256"
                }
            ],
            "stateMutability": "view",
            "type": "function"
        },
        {
            "inputs": [
                {
                    "internalType": "uint256",
                    "name": "_outputBlindedUserState",
                    "type": "uint256"
                },
                {
                    "internalType": "uint256",
                    "name": "_outputBlindedHashChain",
                    "type": "uint256"
                },
                {
                    "internalType": "uint256",
                    "name": "_inputBlindedUserState",
                    "type": "uint256"
                },
                {
                    "internalType": "uint256[8]",
                    "name": "_proof",
                    "type": "uint256[8]"
                }
            ],
            "name": "processAttestations",
            "outputs": [],
            "stateMutability": "nonpayable",
            "type": "function"
        },
        {
            "inputs": [
                {
                    "internalType": "uint256",
                    "name": "postId",
                    "type": "uint256"
                },
                {
                    "internalType": "string",
                    "name": "hashedContent",
                    "type": "string"
                },
                {
                    "components": [
                        {
                            "internalType": "uint256[]",
                            "name": "repNullifiers",
                            "type": "uint256[]"
                        },
                        {
                            "internalType": "uint256",
                            "name": "epoch",
                            "type": "uint256"
                        },
                        {
                            "internalType": "uint256",
                            "name": "epochKey",
                            "type": "uint256"
                        },
                        {
                            "internalType": "uint256",
                            "name": "globalStateTree",
                            "type": "uint256"
                        },
                        {
                            "internalType": "uint256",
                            "name": "attesterId",
                            "type": "uint256"
                        },
                        {
                            "internalType": "uint256",
                            "name": "proveReputationAmount",
                            "type": "uint256"
                        },
                        {
                            "internalType": "uint256",
                            "name": "minRep",
                            "type": "uint256"
                        },
                        {
                            "internalType": "uint256",
                            "name": "proveGraffiti",
                            "type": "uint256"
                        },
                        {
                            "internalType": "uint256",
                            "name": "graffitiPreImage",
                            "type": "uint256"
                        },
                        {
                            "internalType": "uint256[8]",
                            "name": "proof",
                            "type": "uint256[8]"
                        }
                    ],
                    "internalType": "struct UnirepParameters.ReputationProofRelated",
                    "name": "_proofRelated",
                    "type": "tuple"
                }
            ],
            "name": "publishPost",
            "outputs": [],
            "stateMutability": "payable",
            "type": "function"
        },
        {
            "inputs": [
                {
                    "internalType": "uint256",
                    "name": "_blindedUserState",
                    "type": "uint256"
                },
                {
                    "internalType": "uint256",
                    "name": "_blindedHashChain",
                    "type": "uint256"
                },
                {
                    "internalType": "uint256",
                    "name": "_GSTRoot",
                    "type": "uint256"
                },
                {
                    "internalType": "uint256[8]",
                    "name": "_proof",
                    "type": "uint256[8]"
                }
            ],
            "name": "startUserStateTransition",
            "outputs": [],
            "stateMutability": "nonpayable",
            "type": "function"
        },
        {
            "inputs": [],
            "name": "unirep",
            "outputs": [
                {
                    "internalType": "contract Unirep",
                    "name": "",
                    "type": "address"
                }
            ],
            "stateMutability": "view",
            "type": "function"
        },
        {
            "inputs": [
                {
                    "components": [
                        {
                            "internalType": "uint256",
                            "name": "newGlobalStateTreeLeaf",
                            "type": "uint256"
                        },
                        {
                            "internalType": "uint256[]",
                            "name": "epkNullifiers",
                            "type": "uint256[]"
                        },
                        {
                            "internalType": "uint256",
                            "name": "transitionFromEpoch",
                            "type": "uint256"
                        },
                        {
                            "internalType": "uint256[]",
                            "name": "blindedUserStates",
                            "type": "uint256[]"
                        },
                        {
                            "internalType": "uint256",
                            "name": "fromGlobalStateTree",
                            "type": "uint256"
                        },
                        {
                            "internalType": "uint256[]",
                            "name": "blindedHashChains",
                            "type": "uint256[]"
                        },
                        {
                            "internalType": "uint256",
                            "name": "fromEpochTree",
                            "type": "uint256"
                        },
                        {
                            "internalType": "uint256[8]",
                            "name": "proof",
                            "type": "uint256[8]"
                        }
                    ],
                    "internalType": "struct UnirepParameters.UserTransitionedRelated",
                    "name": "userTransitionedData",
                    "type": "tuple"
                },
                {
                    "internalType": "uint256[]",
                    "name": "proofIndexes",
                    "type": "uint256[]"
                }
            ],
            "name": "updateUserStateRoot",
            "outputs": [],
            "stateMutability": "nonpayable",
            "type": "function"
        },
        {
            "inputs": [
                {
                    "internalType": "uint256",
                    "name": "_identityCommitment",
                    "type": "uint256"
                }
            ],
            "name": "userSignUp",
            "outputs": [],
            "stateMutability": "nonpayable",
            "type": "function"
        },
        {
            "inputs": [
                {
                    "internalType": "uint256",
                    "name": "_globalStateTree",
                    "type": "uint256"
                },
                {
                    "internalType": "uint256",
                    "name": "_epoch",
                    "type": "uint256"
                },
                {
                    "internalType": "uint256",
                    "name": "_epochKey",
                    "type": "uint256"
                },
                {
                    "internalType": "uint256[8]",
                    "name": "_proof",
                    "type": "uint256[8]"
                }
            ],
            "name": "verifyEpochKeyValidity",
            "outputs": [
                {
                    "internalType": "bool",
                    "name": "",
                    "type": "bool"
                }
            ],
            "stateMutability": "view",
            "type": "function"
        },
        {
            "inputs": [
                {
                    "internalType": "uint256",
                    "name": "_outputBlindedUserState",
                    "type": "uint256"
                },
                {
                    "internalType": "uint256",
                    "name": "_outputBlindedHashChain",
                    "type": "uint256"
                },
                {
                    "internalType": "uint256",
                    "name": "_inputBlindedUserState",
                    "type": "uint256"
                },
                {
                    "internalType": "uint256[8]",
                    "name": "_proof",
                    "type": "uint256[8]"
                }
            ],
            "name": "verifyProcessAttestationProof",
            "outputs": [
                {
                    "internalType": "bool",
                    "name": "",
                    "type": "bool"
                }
            ],
            "stateMutability": "view",
            "type": "function"
        },
        {
            "inputs": [
                {
                    "internalType": "uint256[]",
                    "name": "_repNullifiers",
                    "type": "uint256[]"
                },
                {
                    "internalType": "uint256",
                    "name": "_epoch",
                    "type": "uint256"
                },
                {
                    "internalType": "uint256",
                    "name": "_epochKey",
                    "type": "uint256"
                },
                {
                    "internalType": "uint256",
                    "name": "_globalStateTree",
                    "type": "uint256"
                },
                {
                    "internalType": "uint256",
                    "name": "_attesterId",
                    "type": "uint256"
                },
                {
                    "internalType": "uint256",
                    "name": "_proveReputationAmount",
                    "type": "uint256"
                },
                {
                    "internalType": "uint256",
                    "name": "_minRep",
                    "type": "uint256"
                },
                {
                    "internalType": "uint256",
                    "name": "_proveGraffiti",
                    "type": "uint256"
                },
                {
                    "internalType": "uint256",
                    "name": "_graffitiPreImage",
                    "type": "uint256"
                },
                {
                    "internalType": "uint256[8]",
                    "name": "_proof",
                    "type": "uint256[8]"
                }
            ],
            "name": "verifyReputation",
            "outputs": [
                {
                    "internalType": "bool",
                    "name": "",
                    "type": "bool"
                }
            ],
            "stateMutability": "view",
            "type": "function"
        },
        {
            "inputs": [
                {
                    "internalType": "uint256",
                    "name": "_blindedUserState",
                    "type": "uint256"
                },
                {
                    "internalType": "uint256",
                    "name": "_blindedHashChain",
                    "type": "uint256"
                },
                {
                    "internalType": "uint256",
                    "name": "_GSTRoot",
                    "type": "uint256"
                },
                {
                    "internalType": "uint256[8]",
                    "name": "_proof",
                    "type": "uint256[8]"
                }
            ],
            "name": "verifyStartTransitionProof",
            "outputs": [
                {
                    "internalType": "bool",
                    "name": "",
                    "type": "bool"
                }
            ],
            "stateMutability": "view",
            "type": "function"
        },
        {
            "inputs": [
                {
                    "internalType": "uint256",
                    "name": "_epoch",
                    "type": "uint256"
                },
                {
                    "internalType": "uint256",
                    "name": "_epochKey",
                    "type": "uint256"
                },
                {
                    "internalType": "uint256",
                    "name": "_globalStateTree",
                    "type": "uint256"
                },
                {
                    "internalType": "uint256",
                    "name": "_attesterId",
                    "type": "uint256"
                },
                {
                    "internalType": "uint256[8]",
                    "name": "_proof",
                    "type": "uint256[8]"
                }
            ],
            "name": "verifyUserSignUp",
            "outputs": [
                {
                    "internalType": "bool",
                    "name": "",
                    "type": "bool"
                }
            ],
            "stateMutability": "view",
            "type": "function"
        },
        {
            "inputs": [
                {
                    "internalType": "uint256",
                    "name": "_newGlobalStateTreeLeaf",
                    "type": "uint256"
                },
                {
                    "internalType": "uint256[]",
                    "name": "_epkNullifiers",
                    "type": "uint256[]"
                },
                {
                    "internalType": "uint256",
                    "name": "_transitionFromEpoch",
                    "type": "uint256"
                },
                {
                    "internalType": "uint256[]",
                    "name": "_blindedUserStates",
                    "type": "uint256[]"
                },
                {
                    "internalType": "uint256",
                    "name": "_fromGlobalStateTree",
                    "type": "uint256"
                },
                {
                    "internalType": "uint256[]",
                    "name": "_blindedHashChains",
                    "type": "uint256[]"
                },
                {
                    "internalType": "uint256",
                    "name": "_fromEpochTree",
                    "type": "uint256"
                },
                {
                    "internalType": "uint256[8]",
                    "name": "_proof",
                    "type": "uint256[8]"
                }
            ],
            "name": "verifyUserStateTransition",
            "outputs": [
                {
                    "internalType": "bool",
                    "name": "",
                    "type": "bool"
                }
            ],
            "stateMutability": "view",
            "type": "function"
        },
        {
            "inputs": [
                {
                    "internalType": "uint256",
                    "name": "upvoteValue",
                    "type": "uint256"
                },
                {
                    "internalType": "uint256",
                    "name": "downvoteValue",
                    "type": "uint256"
                },
                {
                    "internalType": "uint256",
                    "name": "toEpochKey",
                    "type": "uint256"
                },
                {
                    "internalType": "uint256",
                    "name": "toEpochKeyProofIndex",
                    "type": "uint256"
                },
                {
                    "components": [
                        {
                            "internalType": "uint256[]",
                            "name": "repNullifiers",
                            "type": "uint256[]"
                        },
                        {
                            "internalType": "uint256",
                            "name": "epoch",
                            "type": "uint256"
                        },
                        {
                            "internalType": "uint256",
                            "name": "epochKey",
                            "type": "uint256"
                        },
                        {
                            "internalType": "uint256",
                            "name": "globalStateTree",
                            "type": "uint256"
                        },
                        {
                            "internalType": "uint256",
                            "name": "attesterId",
                            "type": "uint256"
                        },
                        {
                            "internalType": "uint256",
                            "name": "proveReputationAmount",
                            "type": "uint256"
                        },
                        {
                            "internalType": "uint256",
                            "name": "minRep",
                            "type": "uint256"
                        },
                        {
                            "internalType": "uint256",
                            "name": "proveGraffiti",
                            "type": "uint256"
                        },
                        {
                            "internalType": "uint256",
                            "name": "graffitiPreImage",
                            "type": "uint256"
                        },
                        {
                            "internalType": "uint256[8]",
                            "name": "proof",
                            "type": "uint256[8]"
                        }
                    ],
                    "internalType": "struct UnirepParameters.ReputationProofRelated",
                    "name": "_proofRelated",
                    "type": "tuple"
                }
            ],
            "name": "vote",
            "outputs": [],
            "stateMutability": "payable",
            "type": "function"
        }
    ],
    "bytecode": "0x6101006040523480156200001257600080fd5b5060405162002738380380620027388339810160408190526200003591620001a8565b600080546001600160a01b0319166001600160a01b0386811691909117808355604080516315b7d18d60e21b8152905191909216926356df4634926004808201939182900301818387803b1580156200008d57600080fd5b505af1158015620000a2573d6000803e3d6000fd5b5050600054604051630a5500c360e41b81526001600160a01b03909116925063a5500c309150620000d890849060040162000220565b600060405180830381600087803b158015620000f357600080fd5b505af115801562000108573d6000803e3d6000fd5b505060005460405163131a91ad60e01b81526001600160a01b03909116925063131a91ad91506200013e9030906004016200020c565b60206040518083038186803b1580156200015757600080fd5b505afa1580156200016c573d6000803e3d6000fd5b505050506040513d601f19601f82011682018060405250810190620001929190620001f3565b60805260a09290925260c05260e0525062000229565b60008060008060808587031215620001be578384fd5b84516001600160a01b0381168114620001d5578485fd5b60208601516040870151606090970151919890975090945092505050565b60006020828403121562000205578081fd5b5051919050565b6001600160a01b0391909116815260200190565b90815260200190565b60805160a05160c05160e0516124a46200029460003960006103c3015260008181610db901526110b601526000818161049e0152610b260152600081816107e10152818161085001528181610b6901528181610dfc01528181610fed015261110f01526124a46000f3fe6080604052600436106101355760003560e01c806392389453116100ab578063ef3b14071161006f578063ef3b1407146102ff578063f20ca7ff1461031f578063f488ea301461033f578063f73c8ebb1461035f578063f85ec78f1461037f578063fc14478a146103a157610135565b80639238945314610282578063a710d60f14610297578063b876ed71146102b7578063bf8036ba146102d7578063eefd016d146102ec57610135565b8063436b32d8116100fd578063436b32d8146101e9578063494e2171146102095780635b3745b5146102295780637efef9c8146102495780637fad3c4a1461025c5780638edd4a881461026f57610135565b8063297905bb1461013a5780632caf5ef8146101655780633334dc5b14610192578063350f1ba6146101b2578063417b16e3146101c7575b600080fd5b34801561014657600080fd5b5061014f6103c1565b60405161015c91906122c9565b60405180910390f35b34801561017157600080fd5b506101856101803660046118dd565b6103e5565b60405161015c9190611d31565b34801561019e57600080fd5b506101856101ad366004611694565b6103fa565b3480156101be57600080fd5b5061014f61049c565b3480156101d357600080fd5b506101e76101e23660046118dd565b6104c0565b005b3480156101f557600080fd5b50610185610204366004611ae8565b6105d3565b34801561021557600080fd5b506101e76102243660046117cc565b610666565b34801561023557600080fd5b50610185610244366004611aa8565b6106ce565b6101e7610257366004611b32565b61075e565b6101e761026a3660046119ca565b610af5565b6101e761027d366004611a34565b610d55565b34801561028e57600080fd5b5061014f610feb565b3480156102a357600080fd5b506101856102b2366004611aa8565b61100f565b3480156102c357600080fd5b506101e76102d2366004611aa8565b611046565b3480156102e357600080fd5b5061014f6110b4565b6101e76102fa366004611757565b6110d8565b34801561030b57600080fd5b5061018561031a3660046118dd565b6112f7565b34801561032b57600080fd5b5061018561033a36600461190d565b61130c565b34801561034b57600080fd5b5061018561035a3660046118dd565b6113a8565b34801561036b57600080fd5b506101e761037a366004611aa8565b6113bd565b34801561038b57600080fd5b506103946113f3565b60405161015c9190611d3c565b3480156103ad57600080fd5b506101856103bc366004611aa8565b611402565b7f000000000000000000000000000000000000000000000000000000000000000081565b60016020526000908152604090205460ff1681565b60008054604051633334dc5b60e01b81526001600160a01b0390911690633334dc5b9061043d908e908e908e908e908e908e908e908e908e908e90600401611cca565b60206040518083038186803b15801561045557600080fd5b505afa158015610469573d6000803e3d6000fd5b505050506040513d601f19601f8201168201806040525081019061048d9190611730565b9b9a5050505050505050505050565b7f000000000000000000000000000000000000000000000000000000000000000081565b60005460405163417b16e360e01b81526001600160a01b039091169063417b16e3906104f09084906004016122c9565b600060405180830381600087803b15801561050a57600080fd5b505af115801561051e573d6000803e3d6000fd5b505050508060008054906101000a90046001600160a01b03166001600160a01b031663766718086040518163ffffffff1660e01b815260040160206040518083038186803b15801561056f57600080fd5b505afa158015610583573d6000803e3d6000fd5b505050506040513d601f19601f820116820180604052508101906105a791906118f5565b6040517fe43c2a2d0ba801f72bfb7df8c728919e1886a4d9a6a12d45eeee7417bae2f15590600090a350565b6000805460405163086d665b60e31b81526001600160a01b039091169063436b32d89061060c90899089908990899089906004016123ac565b60206040518083038186803b15801561062457600080fd5b505afa158015610638573d6000803e3d6000fd5b505050506040513d601f19601f8201168201806040525081019061065c9190611730565b9695505050505050565b60005460405163494e217160e01b81526001600160a01b039091169063494e217190610698908590859060040161221d565b600060405180830381600087803b1580156106b257600080fd5b505af11580156106c6573d6000803e3d6000fd5b505050505050565b60008054604051635b3745b560e01b81526001600160a01b0390911690635b3745b590610705908890889088908890600401612380565b60206040518083038186803b15801561071d57600080fd5b505afa158015610731573d6000803e3d6000fd5b505050506040513d601f19601f820116820180604052508101906107559190611730565b95945050505050565b600061076a858761240b565b9050600081116107955760405162461bcd60e51b815260040161078c90611d75565b60405180910390fd5b61079f8587612423565b156107bc5760405162461bcd60e51b815260040161078c90611fad565b808260a00151146107df5760405162461bcd60e51b815260040161078c90611e38565b7f00000000000000000000000000000000000000000000000000000000000000008260800151146108225760405162461bcd60e51b815260040161078c90611dc7565b81604001518414156108465760405162461bcd60e51b815260040161078c9061200a565b61084e611439565b7f000000000000000000000000000000000000000000000000000000000000000081526020808201889052604080830188905260005481516310737dd760e31b815291516001600160a01b03909116926385c053ae92849263839beeb892600480840193919291829003018186803b1580156108c957600080fd5b505afa1580156108dd573d6000803e3d6000fd5b505050506040513d601f19601f8201168201806040525081019061090191906118f5565b8388886040518563ffffffff1660e01b815260040161092293929190612184565b6000604051808303818588803b15801561093b57600080fd5b505af115801561094f573d6000803e3d6000fd5b5050600054604080516310737dd760e31b815290516001600160a01b03909216945063606736fb935084925063839beeb8916004808301926020929190829003018186803b1580156109a057600080fd5b505afa1580156109b4573d6000803e3d6000fd5b505050506040513d601f19601f820116820180604052508101906109d891906118f5565b856040518363ffffffff1660e01b81526004016109f591906121c6565b6000604051808303818588803b158015610a0e57600080fd5b505af1158015610a22573d6000803e3d6000fd5b505050505084836040015160008054906101000a90046001600160a01b03166001600160a01b031663766718086040518163ffffffff1660e01b815260040160206040518083038186803b158015610a7957600080fd5b505afa158015610a8d573d6000803e3d6000fd5b505050506040513d601f19601f82011682018060405250810190610ab191906118f5565b7f731a73efdffa7012ae9555a57a4d4695affe9ebbc4c1c502671a5266ce07b7188a8a88604051610ae493929190612361565b60405180910390a450505050505050565b60008381526002602052604090205460ff1615610b245760405162461bcd60e51b815260040161078c90611f1c565b7f00000000000000000000000000000000000000000000000000000000000000008160a0015114610b675760405162461bcd60e51b815260040161078c90611ea3565b7f0000000000000000000000000000000000000000000000000000000000000000816080015114610baa5760405162461bcd60e51b815260040161078c90611dc7565b600054604080516310737dd760e31b815290516001600160a01b039092169163606736fb91839163839beeb891600480820192602092909190829003018186803b158015610bf757600080fd5b505afa158015610c0b573d6000803e3d6000fd5b505050506040513d601f19601f82011682018060405250810190610c2f91906118f5565b836040518363ffffffff1660e01b8152600401610c4c91906121c6565b6000604051808303818588803b158015610c6557600080fd5b505af1158015610c79573d6000803e3d6000fd5b5050506000858152600260209081526040808320805460ff191660011790558581015192548151630ecce30160e31b815291519395508894506001600160a01b031692637667180892600480840193919291829003018186803b158015610cdf57600080fd5b505afa158015610cf3573d6000803e3d6000fd5b505050506040513d601f19601f82011682018060405250810190610d1791906118f5565b7f75e73523c6e553cd453bf96364f0c2a742339f9ce3556904ce56b16a3fb5b2d18585604051610d48929190611d50565b60405180910390a4505050565b60008481526002602052604090205460ff161515600114610d885760405162461bcd60e51b815260040161078c906120ab565b60008381526003602052604090205460ff1615610db75760405162461bcd60e51b815260040161078c90612067565b7f00000000000000000000000000000000000000000000000000000000000000008160a0015114610dfa5760405162461bcd60e51b815260040161078c90612108565b7f0000000000000000000000000000000000000000000000000000000000000000816080015114610e3d5760405162461bcd60e51b815260040161078c90611dc7565b600054604080516310737dd760e31b815290516001600160a01b039092169163606736fb91839163839beeb891600480820192602092909190829003018186803b158015610e8a57600080fd5b505afa158015610e9e573d6000803e3d6000fd5b505050506040513d601f19601f82011682018060405250810190610ec291906118f5565b836040518363ffffffff1660e01b8152600401610edf91906121c6565b6000604051808303818588803b158015610ef857600080fd5b505af1158015610f0c573d6000803e3d6000fd5b5050506000858152600360209081526040808320805460ff191660011790558581015192548151630ecce30160e31b815291519395508994506001600160a01b031692637667180892600480840193919291829003018186803b158015610f7257600080fd5b505afa158015610f86573d6000803e3d6000fd5b505050506040513d601f19601f82011682018060405250810190610faa91906118f5565b7f61df249775ea9dc39887e4de8e40151b679389aae51c429f0dd83d3a94b97fe2868686604051610fdd93929190612336565b60405180910390a450505050565b7f000000000000000000000000000000000000000000000000000000000000000081565b6000805460405163a710d60f60e01b81526001600160a01b039091169063a710d60f90610705908890889088908890600401612380565b60005460405163b876ed7160e01b81526001600160a01b039091169063b876ed719061107c908790879087908790600401612380565b600060405180830381600087803b15801561109657600080fd5b505af11580156110aa573d6000803e3d6000fd5b5050505050505050565b7f000000000000000000000000000000000000000000000000000000000000000081565b60208082015160009081526001909152604090205460ff161561110d5760405162461bcd60e51b815260040161078c90611f5d565b7f00000000000000000000000000000000000000000000000000000000000000008160600151146111505760405162461bcd60e51b815260040161078c90611dc7565b600054604080516310737dd760e31b815290516001600160a01b0390921691632c6eb17f91839163839beeb891600480820192602092909190829003018186803b15801561119d57600080fd5b505afa1580156111b1573d6000803e3d6000fd5b505050506040513d601f19601f820116820180604052508101906111d591906118f5565b836040518363ffffffff1660e01b81526004016111f291906121d9565b6000604051808303818588803b15801561120b57600080fd5b505af115801561121f573d6000803e3d6000fd5b5050505060208281018051600090815260018084526040808320805460ff1916909217909155915190548251630ecce30160e31b815292519194506001600160a01b03169263766718089260048082019391829003018186803b15801561128557600080fd5b505afa158015611299573d6000803e3d6000fd5b505050506040513d601f19601f820116820180604052508101906112bd91906118f5565b7f0a913de801af2244a77885388a89022ad2e337bfd2c8f2eeb9d6e05e9d3e6ef1836040516112ec91906121d9565b60405180910390a350565b60026020526000908152604090205460ff1681565b6000805460405163f20ca7ff60e01b81526001600160a01b039091169063f20ca7ff9061134b908c908c908c908c908c908c908c908c906004016122d2565b60206040518083038186803b15801561136357600080fd5b505afa158015611377573d6000803e3d6000fd5b505050506040513d601f19601f8201168201806040525081019061139b9190611730565b9998505050505050505050565b60036020526000908152604090205460ff1681565b60005460405163f73c8ebb60e01b81526001600160a01b039091169063f73c8ebb9061107c908790879087908790600401612380565b6000546001600160a01b031681565b60008054604051637e0a23c560e11b81526001600160a01b039091169063fc14478a90610705908890889088908890600401612380565b6040518060a0016040528060008152602001600081526020016000815260200160008152602001600081525090565b80610100810183101561147a57600080fd5b92915050565b600082601f830112611490578081fd5b60405161010080820182811067ffffffffffffffff821117156114b5576114b5612458565b60405281848281018710156114c8578485fd5b8492505b60088310156114ec578035825260019290920191602091820191016114cc565b509195945050505050565b600082601f830112611507578081fd5b8135602067ffffffffffffffff82111561152357611523612458565b8082026115318282016123e1565b83815282810190868401838801850189101561154b578687fd5b8693505b8584101561156d57803583526001939093019291840191840161154f565b50979650505050505050565b600082601f830112611589578081fd5b813567ffffffffffffffff8111156115a3576115a3612458565b6115b6601f8201601f19166020016123e1565b8181528460208386010111156115ca578283fd5b816020850160208301379081016020019190915292915050565b600061022082840312156115f6578081fd5b6116016101406123e1565b9050813567ffffffffffffffff81111561161a57600080fd5b611626848285016114f7565b8252506020820135602082015260408201356040820152606082013560608201526080820135608082015260a082013560a082015260c082013560c082015260e082013560e082015261010080830135818301525061012061168a84828501611480565b9082015292915050565b6000806000806000806000806000806102208b8d0312156116b3578586fd5b8a3567ffffffffffffffff8111156116c9578687fd5b6116d58d828e016114f7565b9a505060208b0135985060408b0135975060608b0135965060808b0135955060a08b0135945060c08b0135935060e08b013592506101008b0135915061171f8c6101208d01611468565b90509295989b9194979a5092959850565b600060208284031215611741578081fd5b81518015158114611750578182fd5b9392505050565b60006101808284031215611769578081fd5b60405160a0810181811067ffffffffffffffff8211171561178c5761178c612458565b8060405250823581526020830135602082015260408301356040820152606083013560608201526117c08460808501611480565b60808201529392505050565b600080604083850312156117de578182fd5b823567ffffffffffffffff808211156117f5578384fd5b908401906101e08287031215611809578384fd5b6118146101006123e1565b82358152602083013582811115611829578586fd5b611835888286016114f7565b60208301525060408301356040820152606083013582811115611856578586fd5b611862888286016114f7565b6060830152506080830135608082015260a083013582811115611883578586fd5b61188f888286016114f7565b60a08301525060c083013560c08201526118ac8760e08501611480565b60e0820152935060208501359150808211156118c6578283fd5b506118d3858286016114f7565b9150509250929050565b6000602082840312156118ee578081fd5b5035919050565b600060208284031215611906578081fd5b5051919050565b6000806000806000806000806101e0898b031215611929578182fd5b88359750602089013567ffffffffffffffff80821115611947578384fd5b6119538c838d016114f7565b985060408b0135975060608b013591508082111561196f578384fd5b61197b8c838d016114f7565b965060808b0135955060a08b0135915080821115611997578384fd5b506119a48b828c016114f7565b93505060c089013591506119bb8a60e08b01611480565b90509295985092959890939650565b6000806000606084860312156119de578081fd5b83359250602084013567ffffffffffffffff808211156119fc578283fd5b611a0887838801611579565b93506040860135915080821115611a1d578283fd5b50611a2a868287016115e4565b9150509250925092565b60008060008060808587031215611a49578182fd5b8435935060208501359250604085013567ffffffffffffffff80821115611a6e578384fd5b611a7a88838901611579565b93506060870135915080821115611a8f578283fd5b50611a9c878288016115e4565b91505092959194509250565b6000806000806101608587031215611abe578182fd5b843593506020850135925060408501359150611add8660608701611468565b905092959194509250565b60008060008060006101808688031215611b00578283fd5b85359450602086013593506040860135925060608601359150611b268760808801611468565b90509295509295909350565b600080600080600060a08688031215611b49578283fd5b85359450602086013593506040860135925060608601359150608086013567ffffffffffffffff811115611b7b578182fd5b611b87888289016115e4565b9150509295509295909350565b8060005b6008811015611bb7578151845260209384019390910190600101611b98565b50505050565b6000815180845260208085019450808401835b83811015611bec57815187529582019590820190600101611bd0565b509495945050505050565b60008151808452815b81811015611c1c57602081850181015186830182015201611c00565b81811115611c2d5782602083870101525b50601f01601f19169290920160200192915050565b60006102208251818552611c5882860182611bbd565b9150506020830151602085015260408301516040850152606083015160608501526080830151608085015260a083015160a085015260c083015160c085015260e083015160e085015261010080840151818601525061012080840151611cc082870182611b94565b5090949350505050565b6000610220808301818452611cdf818f611bbd565b92508c60208501528b60408501528a60608501528960808501528860a08501528760c08501528660e085015261010091508582850152818561012086013760009052509b9a5050505050505050505050565b901515815260200190565b6001600160a01b0391909116815260200190565b600060408252611d636040830185611bf7565b82810360208401526107558185611c42565b60208082526032908201527f556e6972657020536f6369616c3a2073686f756c64207375626d6974206120706040820152716f73697469766520766f74652076616c756560701b606082015260800190565b6020808252604b908201527f556e6972657020536f6369616c3a207375626d697420612070726f6f6620776960408201527f746820646966666572656e742061747465737465722049442066726f6d20556e60608201526a1a5c995c0814dbd8da585b60aa1b608082015260a00190565b60208082526045908201527f556e6972657020536f6369616c3a207375626d697420646966666572656e742060408201527f6e756c6c69666965727320616d6f756e742066726f6d2074686520766f74652060608201526476616c756560d81b608082015260a00190565b60208082526053908201527f556e6972657020536f6369616c3a207375626d697420646966666572656e742060408201527f6e756c6c69666965727320616d6f756e742066726f6d207468652072657175696060820152721c995908185b5bdd5b9d08199bdc881c1bdcdd606a1b608082015260a00190565b60208082526021908201527f556e6972657020536f6369616c3a206475706c69636174656420706f737420496040820152601160fa1b606082015260800190565b60208082526030908201527f556e6972657020536f6369616c3a207468652065706f6368206b65792068617360408201526f081899595b88185a5c991c9bdc1c195960821b606082015260800190565b6020808252603a908201527f556e6972657020536f6369616c3a2073686f756c64206f6e6c792063686f6f7360408201527f6520746f207570766f7465206f7220746f20646f776e766f7465000000000000606082015260800190565b6020808252603f908201527f556e6972657020536f6369616c3a2065706f6368206b65792073656e6465722060408201527f616e642072656365697665722063616e6e6f74206265207468652073616d6500606082015260800190565b60208082526024908201527f556e6972657020536f6369616c3a206475706c69636174656420636f6d6d656e6040820152631d08125160e21b606082015260800190565b60208082526037908201527f556e6972657020536f6369616c3a2073686f756c64206c6561766520636f6d6d60408201527f656e7420746f2061207375626d696974656420706f7374000000000000000000606082015260800190565b60208082526056908201527f556e6972657020536f6369616c3a207375626d697420646966666572656e742060408201527f6e756c6c69666965727320616d6f756e742066726f6d207468652072657175696060820152751c995908185b5bdd5b9d08199bdc8818dbdb5b595b9d60521b608082015260a00190565b835181526020808501519082015260408085015190820152606080850151908201526080938401519381019390935260a083019190915260c082015260e00190565b6000602082526117506020830184611c42565b6000610180820190508251825260208301516020830152604083015160408301526060830151606083015260808301516122166080840182611b94565b5092915050565b6000604082528351604083015260208401516101e06060840152612245610220840182611bbd565b9050604085015160808401526060850151603f19808584030160a086015261226d8383611bbd565b9250608087015160c086015260a08701519150808584030160e0860152506122958282611bbd565b91505060c085015161010084015260e08501516122b6610120850182611b94565b5082810360208401526107558185611bbd565b90815260200190565b60006101e08a83528060208401526122ec8184018b611bbd565b905088604084015282810360608401526123068189611bbd565b905086608084015282810360a08401526123208187611bbd565b9150508360c083015261139b60e0830184611b94565b60008482526060602083015261234f6060830185611bf7565b828103604084015261065c8185611c42565b6000848252836020830152606060408301526107556060830184611c42565b848152602081018490526040810183905261016081016101008360608401376000815295945050505050565b600061018082019050868252856020830152846040830152836060830152610100836080840137600081529695505050505050565b60405181810167ffffffffffffffff8111828210171561240357612403612458565b604052919050565b6000821982111561241e5761241e612442565b500190565b600081600019048311821515161561243d5761243d612442565b500290565b634e487b7160e01b600052601160045260246000fd5b634e487b7160e01b600052604160045260246000fdfea2646970667358221220bd2af0987e9d3a4c25124f71cd2d5c30772eb8e2978e4997057c3d1ac711aaf764736f6c63430008000033",
    "linkReferences": {},
    "deployedLinkReferences": {}
}