{
    "_format": "hh-sol-artifact-1",
    "contractName": "UnirepSocial",
    "sourceName": "contracts/UnirepSocial.sol",
    "abi": [
        {
            "inputs": [
                {
                    "internalType": "contract Unirep",
                    "name": "_unirepContract",
                    "type": "address"
                },
                {
                    "internalType": "uint256",
                    "name": "_postReputation",
                    "type": "uint256"
                },
                {
                    "internalType": "uint256",
                    "name": "_commentReputation",
                    "type": "uint256"
                },
                {
                    "internalType": "uint256",
                    "name": "_airdroppedReputation",
                    "type": "uint256"
                }
            ],
            "stateMutability": "nonpayable",
            "type": "constructor"
        },
        {
            "anonymous": false,
            "inputs": [
                {
                    "indexed": true,
                    "internalType": "uint256",
                    "name": "_epoch",
                    "type": "uint256"
                },
                {
                    "indexed": true,
                    "internalType": "uint256",
                    "name": "_epochKey",
                    "type": "uint256"
                },
                {
                    "components": [
                        {
                            "internalType": "uint256",
                            "name": "epoch",
                            "type": "uint256"
                        },
                        {
                            "internalType": "uint256",
                            "name": "epochKey",
                            "type": "uint256"
                        },
                        {
                            "internalType": "uint256",
                            "name": "globalStateTree",
                            "type": "uint256"
                        },
                        {
                            "internalType": "uint256",
                            "name": "attesterId",
                            "type": "uint256"
                        },
                        {
                            "internalType": "uint256",
                            "name": "userHasSignedUp",
                            "type": "uint256"
                        },
                        {
                            "internalType": "uint256[8]",
                            "name": "proof",
                            "type": "uint256[8]"
                        }
                    ],
                    "indexed": false,
                    "internalType": "struct UnirepObjs.SignUpProof",
                    "name": "proofRelated",
                    "type": "tuple"
                }
            ],
            "name": "AirdropSubmitted",
            "type": "event"
        },
        {
            "anonymous": false,
            "inputs": [
                {
                    "indexed": true,
                    "internalType": "uint256",
                    "name": "_epoch",
                    "type": "uint256"
                },
                {
                    "indexed": true,
                    "internalType": "uint256",
                    "name": "_postId",
                    "type": "uint256"
                },
                {
                    "indexed": true,
                    "internalType": "uint256",
                    "name": "_epochKey",
                    "type": "uint256"
                },
                {
                    "indexed": false,
                    "internalType": "string",
                    "name": "_commentContent",
                    "type": "string"
                },
                {
                    "components": [
                        {
                            "internalType": "uint256[]",
                            "name": "repNullifiers",
                            "type": "uint256[]"
                        },
                        {
                            "internalType": "uint256",
                            "name": "epoch",
                            "type": "uint256"
                        },
                        {
                            "internalType": "uint256",
                            "name": "epochKey",
                            "type": "uint256"
                        },
                        {
                            "internalType": "uint256",
                            "name": "globalStateTree",
                            "type": "uint256"
                        },
                        {
                            "internalType": "uint256",
                            "name": "attesterId",
                            "type": "uint256"
                        },
                        {
                            "internalType": "uint256",
                            "name": "proveReputationAmount",
                            "type": "uint256"
                        },
                        {
                            "internalType": "uint256",
                            "name": "minRep",
                            "type": "uint256"
                        },
                        {
                            "internalType": "uint256",
                            "name": "proveGraffiti",
                            "type": "uint256"
                        },
                        {
                            "internalType": "uint256",
                            "name": "graffitiPreImage",
                            "type": "uint256"
                        },
                        {
                            "internalType": "uint256[8]",
                            "name": "proof",
                            "type": "uint256[8]"
                        }
                    ],
                    "indexed": false,
                    "internalType": "struct UnirepObjs.ReputationProof",
                    "name": "proofRelated",
                    "type": "tuple"
                }
            ],
            "name": "CommentSubmitted",
            "type": "event"
        },
        {
            "anonymous": false,
            "inputs": [
                {
                    "indexed": true,
                    "internalType": "uint256",
                    "name": "_epoch",
                    "type": "uint256"
                },
                {
                    "indexed": true,
                    "internalType": "uint256",
                    "name": "_epochKey",
                    "type": "uint256"
                },
                {
                    "indexed": false,
                    "internalType": "string",
                    "name": "_postContent",
                    "type": "string"
                },
                {
                    "components": [
                        {
                            "internalType": "uint256[]",
                            "name": "repNullifiers",
                            "type": "uint256[]"
                        },
                        {
                            "internalType": "uint256",
                            "name": "epoch",
                            "type": "uint256"
                        },
                        {
                            "internalType": "uint256",
                            "name": "epochKey",
                            "type": "uint256"
                        },
                        {
                            "internalType": "uint256",
                            "name": "globalStateTree",
                            "type": "uint256"
                        },
                        {
                            "internalType": "uint256",
                            "name": "attesterId",
                            "type": "uint256"
                        },
                        {
                            "internalType": "uint256",
                            "name": "proveReputationAmount",
                            "type": "uint256"
                        },
                        {
                            "internalType": "uint256",
                            "name": "minRep",
                            "type": "uint256"
                        },
                        {
                            "internalType": "uint256",
                            "name": "proveGraffiti",
                            "type": "uint256"
                        },
                        {
                            "internalType": "uint256",
                            "name": "graffitiPreImage",
                            "type": "uint256"
                        },
                        {
                            "internalType": "uint256[8]",
                            "name": "proof",
                            "type": "uint256[8]"
                        }
                    ],
                    "indexed": false,
                    "internalType": "struct UnirepObjs.ReputationProof",
                    "name": "proofRelated",
                    "type": "tuple"
                }
            ],
            "name": "PostSubmitted",
            "type": "event"
        },
        {
            "anonymous": false,
            "inputs": [
                {
                    "indexed": true,
                    "internalType": "uint256",
                    "name": "_epoch",
                    "type": "uint256"
                },
                {
                    "indexed": true,
                    "internalType": "uint256",
                    "name": "_identityCommitment",
                    "type": "uint256"
                }
            ],
            "name": "UserSignedUp",
            "type": "event"
        },
        {
            "anonymous": false,
            "inputs": [
                {
                    "indexed": true,
                    "internalType": "uint256",
                    "name": "_epoch",
                    "type": "uint256"
                },
                {
                    "indexed": true,
                    "internalType": "uint256",
                    "name": "_fromEpochKey",
                    "type": "uint256"
                },
                {
                    "indexed": true,
                    "internalType": "uint256",
                    "name": "_toEpochKey",
                    "type": "uint256"
                },
                {
                    "indexed": false,
                    "internalType": "uint256",
                    "name": "upvoteValue",
                    "type": "uint256"
                },
                {
                    "indexed": false,
                    "internalType": "uint256",
                    "name": "downvoteValue",
                    "type": "uint256"
                },
                {
                    "components": [
                        {
                            "internalType": "uint256[]",
                            "name": "repNullifiers",
                            "type": "uint256[]"
                        },
                        {
                            "internalType": "uint256",
                            "name": "epoch",
                            "type": "uint256"
                        },
                        {
                            "internalType": "uint256",
                            "name": "epochKey",
                            "type": "uint256"
                        },
                        {
                            "internalType": "uint256",
                            "name": "globalStateTree",
                            "type": "uint256"
                        },
                        {
                            "internalType": "uint256",
                            "name": "attesterId",
                            "type": "uint256"
                        },
                        {
                            "internalType": "uint256",
                            "name": "proveReputationAmount",
                            "type": "uint256"
                        },
                        {
                            "internalType": "uint256",
                            "name": "minRep",
                            "type": "uint256"
                        },
                        {
                            "internalType": "uint256",
                            "name": "proveGraffiti",
                            "type": "uint256"
                        },
                        {
                            "internalType": "uint256",
                            "name": "graffitiPreImage",
                            "type": "uint256"
                        },
                        {
                            "internalType": "uint256[8]",
                            "name": "proof",
                            "type": "uint256[8]"
                        }
                    ],
                    "indexed": false,
                    "internalType": "struct UnirepObjs.ReputationProof",
                    "name": "proofRelated",
                    "type": "tuple"
                }
            ],
            "name": "VoteSubmitted",
            "type": "event"
        },
        {
            "inputs": [
                {
                    "components": [
                        {
                            "internalType": "uint256",
                            "name": "epoch",
                            "type": "uint256"
                        },
                        {
                            "internalType": "uint256",
                            "name": "epochKey",
                            "type": "uint256"
                        },
                        {
                            "internalType": "uint256",
                            "name": "globalStateTree",
                            "type": "uint256"
                        },
                        {
                            "internalType": "uint256",
                            "name": "attesterId",
                            "type": "uint256"
                        },
                        {
                            "internalType": "uint256",
                            "name": "userHasSignedUp",
                            "type": "uint256"
                        },
                        {
                            "internalType": "uint256[8]",
                            "name": "proof",
                            "type": "uint256[8]"
                        }
                    ],
                    "internalType": "struct UnirepObjs.SignUpProof",
                    "name": "_signUpProofData",
                    "type": "tuple"
                }
            ],
            "name": "airdrop",
            "outputs": [],
            "stateMutability": "payable",
            "type": "function"
        },
        {
            "inputs": [],
            "name": "airdroppedReputation",
            "outputs": [
                {
                    "internalType": "uint256",
                    "name": "",
                    "type": "uint256"
                }
            ],
            "stateMutability": "view",
            "type": "function"
        },
        {
            "inputs": [],
            "name": "attesterId",
            "outputs": [
                {
                    "internalType": "uint256",
                    "name": "",
                    "type": "uint256"
                }
            ],
            "stateMutability": "view",
            "type": "function"
        },
        {
            "inputs": [],
            "name": "commentReputation",
            "outputs": [
                {
                    "internalType": "uint256",
                    "name": "",
                    "type": "uint256"
                }
            ],
            "stateMutability": "view",
            "type": "function"
        },
        {
            "inputs": [
                {
                    "internalType": "uint256",
                    "name": "",
                    "type": "uint256"
                }
            ],
            "name": "isEpochKeyGotAirdrop",
            "outputs": [
                {
                    "internalType": "bool",
                    "name": "",
                    "type": "bool"
                }
            ],
            "stateMutability": "view",
            "type": "function"
        },
        {
            "inputs": [
                {
                    "internalType": "uint256",
                    "name": "postId",
                    "type": "uint256"
                },
                {
                    "internalType": "string",
                    "name": "content",
                    "type": "string"
                },
                {
                    "components": [
                        {
                            "internalType": "uint256[]",
                            "name": "repNullifiers",
                            "type": "uint256[]"
                        },
                        {
                            "internalType": "uint256",
                            "name": "epoch",
                            "type": "uint256"
                        },
                        {
                            "internalType": "uint256",
                            "name": "epochKey",
                            "type": "uint256"
                        },
                        {
                            "internalType": "uint256",
                            "name": "globalStateTree",
                            "type": "uint256"
                        },
                        {
                            "internalType": "uint256",
                            "name": "attesterId",
                            "type": "uint256"
                        },
                        {
                            "internalType": "uint256",
                            "name": "proveReputationAmount",
                            "type": "uint256"
                        },
                        {
                            "internalType": "uint256",
                            "name": "minRep",
                            "type": "uint256"
                        },
                        {
                            "internalType": "uint256",
                            "name": "proveGraffiti",
                            "type": "uint256"
                        },
                        {
                            "internalType": "uint256",
                            "name": "graffitiPreImage",
                            "type": "uint256"
                        },
                        {
                            "internalType": "uint256[8]",
                            "name": "proof",
                            "type": "uint256[8]"
                        }
                    ],
                    "internalType": "struct UnirepObjs.ReputationProof",
                    "name": "_proofRelated",
                    "type": "tuple"
                }
            ],
            "name": "leaveComment",
            "outputs": [],
            "stateMutability": "payable",
            "type": "function"
        },
        {
            "inputs": [],
            "name": "postReputation",
            "outputs": [
                {
                    "internalType": "uint256",
                    "name": "",
                    "type": "uint256"
                }
            ],
            "stateMutability": "view",
            "type": "function"
        },
        {
            "inputs": [
                {
                    "internalType": "uint256",
                    "name": "_outputBlindedUserState",
                    "type": "uint256"
                },
                {
                    "internalType": "uint256",
                    "name": "_outputBlindedHashChain",
                    "type": "uint256"
                },
                {
                    "internalType": "uint256",
                    "name": "_inputBlindedUserState",
                    "type": "uint256"
                },
                {
                    "internalType": "uint256[8]",
                    "name": "_proof",
                    "type": "uint256[8]"
                }
            ],
            "name": "processAttestations",
            "outputs": [],
            "stateMutability": "nonpayable",
            "type": "function"
        },
        {
            "inputs": [
                {
                    "internalType": "string",
                    "name": "content",
                    "type": "string"
                },
                {
                    "components": [
                        {
                            "internalType": "uint256[]",
                            "name": "repNullifiers",
                            "type": "uint256[]"
                        },
                        {
                            "internalType": "uint256",
                            "name": "epoch",
                            "type": "uint256"
                        },
                        {
                            "internalType": "uint256",
                            "name": "epochKey",
                            "type": "uint256"
                        },
                        {
                            "internalType": "uint256",
                            "name": "globalStateTree",
                            "type": "uint256"
                        },
                        {
                            "internalType": "uint256",
                            "name": "attesterId",
                            "type": "uint256"
                        },
                        {
                            "internalType": "uint256",
                            "name": "proveReputationAmount",
                            "type": "uint256"
                        },
                        {
                            "internalType": "uint256",
                            "name": "minRep",
                            "type": "uint256"
                        },
                        {
                            "internalType": "uint256",
                            "name": "proveGraffiti",
                            "type": "uint256"
                        },
                        {
                            "internalType": "uint256",
                            "name": "graffitiPreImage",
                            "type": "uint256"
                        },
                        {
                            "internalType": "uint256[8]",
                            "name": "proof",
                            "type": "uint256[8]"
                        }
                    ],
                    "internalType": "struct UnirepObjs.ReputationProof",
                    "name": "_proofRelated",
                    "type": "tuple"
                }
            ],
            "name": "publishPost",
            "outputs": [],
            "stateMutability": "payable",
            "type": "function"
        },
        {
            "inputs": [
                {
                    "internalType": "uint256",
                    "name": "_blindedUserState",
                    "type": "uint256"
                },
                {
                    "internalType": "uint256",
                    "name": "_blindedHashChain",
                    "type": "uint256"
                },
                {
                    "internalType": "uint256",
                    "name": "_GSTRoot",
                    "type": "uint256"
                },
                {
                    "internalType": "uint256[8]",
                    "name": "_proof",
                    "type": "uint256[8]"
                }
            ],
            "name": "startUserStateTransition",
            "outputs": [],
            "stateMutability": "nonpayable",
            "type": "function"
        },
        {
            "inputs": [],
            "name": "unirep",
            "outputs": [
                {
                    "internalType": "contract Unirep",
                    "name": "",
                    "type": "address"
                }
            ],
            "stateMutability": "view",
            "type": "function"
        },
        {
            "inputs": [
                {
                    "components": [
                        {
                            "internalType": "uint256",
                            "name": "newGlobalStateTreeLeaf",
                            "type": "uint256"
                        },
                        {
                            "internalType": "uint256[]",
                            "name": "epkNullifiers",
                            "type": "uint256[]"
                        },
                        {
                            "internalType": "uint256",
                            "name": "transitionFromEpoch",
                            "type": "uint256"
                        },
                        {
                            "internalType": "uint256[]",
                            "name": "blindedUserStates",
                            "type": "uint256[]"
                        },
                        {
                            "internalType": "uint256",
                            "name": "fromGlobalStateTree",
                            "type": "uint256"
                        },
                        {
                            "internalType": "uint256[]",
                            "name": "blindedHashChains",
                            "type": "uint256[]"
                        },
                        {
                            "internalType": "uint256",
                            "name": "fromEpochTree",
                            "type": "uint256"
                        },
                        {
                            "internalType": "uint256[8]",
                            "name": "proof",
                            "type": "uint256[8]"
                        }
                    ],
                    "internalType": "struct UnirepObjs.UserTransitionProof",
                    "name": "userTransitionedData",
                    "type": "tuple"
                },
                {
                    "internalType": "uint256[]",
                    "name": "proofIndexes",
                    "type": "uint256[]"
                }
            ],
            "name": "updateUserStateRoot",
            "outputs": [],
            "stateMutability": "nonpayable",
            "type": "function"
        },
        {
            "inputs": [
                {
                    "internalType": "uint256",
                    "name": "_identityCommitment",
                    "type": "uint256"
                }
            ],
            "name": "userSignUp",
            "outputs": [],
            "stateMutability": "nonpayable",
            "type": "function"
        },
        {
            "inputs": [
                {
                    "internalType": "uint256",
                    "name": "upvoteValue",
                    "type": "uint256"
                },
                {
                    "internalType": "uint256",
                    "name": "downvoteValue",
                    "type": "uint256"
                },
                {
                    "internalType": "uint256",
                    "name": "toEpochKey",
                    "type": "uint256"
                },
                {
                    "internalType": "uint256",
                    "name": "toEpochKeyProofIndex",
                    "type": "uint256"
                },
                {
                    "components": [
                        {
                            "internalType": "uint256[]",
                            "name": "repNullifiers",
                            "type": "uint256[]"
                        },
                        {
                            "internalType": "uint256",
                            "name": "epoch",
                            "type": "uint256"
                        },
                        {
                            "internalType": "uint256",
                            "name": "epochKey",
                            "type": "uint256"
                        },
                        {
                            "internalType": "uint256",
                            "name": "globalStateTree",
                            "type": "uint256"
                        },
                        {
                            "internalType": "uint256",
                            "name": "attesterId",
                            "type": "uint256"
                        },
                        {
                            "internalType": "uint256",
                            "name": "proveReputationAmount",
                            "type": "uint256"
                        },
                        {
                            "internalType": "uint256",
                            "name": "minRep",
                            "type": "uint256"
                        },
                        {
                            "internalType": "uint256",
                            "name": "proveGraffiti",
                            "type": "uint256"
                        },
                        {
                            "internalType": "uint256",
                            "name": "graffitiPreImage",
                            "type": "uint256"
                        },
                        {
                            "internalType": "uint256[8]",
                            "name": "proof",
                            "type": "uint256[8]"
                        }
                    ],
                    "internalType": "struct UnirepObjs.ReputationProof",
                    "name": "_proofRelated",
                    "type": "tuple"
                }
            ],
            "name": "vote",
            "outputs": [],
            "stateMutability": "payable",
            "type": "function"
        }
    ],
    "bytecode": "0x6101006040523480156200001257600080fd5b5060405162001ecd38038062001ecd8339810160408190526200003591620001b2565b600080546001600160a01b038087166001600160a01b031992831617808455600180549093163317909255604080516315b7d18d60e21b8152905192909116926356df46349260048084019382900301818387803b1580156200009757600080fd5b505af1158015620000ac573d6000803e3d6000fd5b5050600054604051630a5500c360e41b81526001600160a01b03909116925063a5500c309150620000e29084906004016200022a565b600060405180830381600087803b158015620000fd57600080fd5b505af115801562000112573d6000803e3d6000fd5b505060005460405163131a91ad60e01b81526001600160a01b03909116925063131a91ad91506200014890309060040162000216565b60206040518083038186803b1580156200016157600080fd5b505afa15801562000176573d6000803e3d6000fd5b505050506040513d601f19601f820116820180604052508101906200019c9190620001fd565b60805260a09290925260c05260e0525062000233565b60008060008060808587031215620001c8578384fd5b84516001600160a01b0381168114620001df578485fd5b60208601516040870151606090970151919890975090945092505050565b6000602082840312156200020f578081fd5b5051919050565b6001600160a01b0391909116815260200190565b90815260200190565b60805160a05160c05160e051611c2f6200029e600039600061049601526000818161026b0152610cb40152600081816104cf01526106980152600081816102b7015281816106db015281816109300152818161097b01528181610c220152610d0d0152611c2f6000f3fe6080604052600436106100dd5760003560e01c80637efef9c81161007f578063bf8036ba11610059578063bf8036ba146101ff578063f2800cc914610214578063f73c8ebb14610227578063f85ec78f14610247576100dd565b80637efef9c8146101b757806392389453146101ca578063b876ed71146101df576100dd565b8063350f1ba6116100bb578063350f1ba61461014f578063417b16e314610164578063494e2171146101845780635e888136146101a4576100dd565b8063047f4abc146100e2578063297905bb146100f75780632caf5ef814610122575b600080fd5b6100f56100f03660046113b8565b610269565b005b34801561010357600080fd5b5061010c610494565b6040516101199190611b18565b60405180910390f35b34801561012e57600080fd5b5061014261013d366004611388565b6104b8565b60405161011991906115b4565b34801561015b57600080fd5b5061010c6104cd565b34801561017057600080fd5b506100f561017f366004611388565b6104f1565b34801561019057600080fd5b506100f561019f366004611281565b61062e565b6100f56101b23660046111a1565b610696565b6100f56101c5366004611467565b6108b6565b3480156101d657600080fd5b5061010c610c20565b3480156101eb57600080fd5b506100f56101fa366004611422565b610c44565b34801561020b57600080fd5b5061010c610cb2565b6100f5610222366004611202565b610cd6565b34801561023357600080fd5b506100f5610242366004611422565b610f19565b34801561025357600080fd5b5061025c610f4f565b60405161011991906115bf565b7f00000000000000000000000000000000000000000000000000000000000000008160a00151146102b55760405162461bcd60e51b81526004016102ac90611946565b60405180910390fd5b7f00000000000000000000000000000000000000000000000000000000000000008160800151146102f85760405162461bcd60e51b81526004016102ac906116dd565b600054604080516310737dd760e31b815290516001600160a01b039092169163606736fb91839163839beeb891600480820192602092909190829003018186803b15801561034557600080fd5b505afa158015610359573d6000803e3d6000fd5b505050506040513d601f19601f8201168201806040525081019061037d91906113a0565b836040518363ffffffff1660e01b815260040161039a9190611a04565b6000604051808303818588803b1580156103b357600080fd5b505af11580156103c7573d6000803e3d6000fd5b505050505080604001518360008054906101000a90046001600160a01b03166001600160a01b031663766718086040518163ffffffff1660e01b815260040160206040518083038186803b15801561041e57600080fd5b505afa158015610432573d6000803e3d6000fd5b505050506040513d601f19601f8201168201806040525081019061045691906113a0565b7f49b90d3022da381379a9322dd5c48fb3b2dabc811dd97afd94e8e0c3625093b985856040516104879291906115d3565b60405180910390a4505050565b7f000000000000000000000000000000000000000000000000000000000000000081565b60026020526000908152604090205460ff1681565b7f000000000000000000000000000000000000000000000000000000000000000081565b6001546001600160a01b0316331461051b5760405162461bcd60e51b81526004016102ac9061168f565b60005460405163417b16e360e01b81526001600160a01b039091169063417b16e39061054b908490600401611b18565b600060405180830381600087803b15801561056557600080fd5b505af1158015610579573d6000803e3d6000fd5b505050508060008054906101000a90046001600160a01b03166001600160a01b031663766718086040518163ffffffff1660e01b815260040160206040518083038186803b1580156105ca57600080fd5b505afa1580156105de573d6000803e3d6000fd5b505050506040513d601f19601f8201168201806040525081019061060291906113a0565b6040517fe43c2a2d0ba801f72bfb7df8c728919e1886a4d9a6a12d45eeee7417bae2f15590600090a350565b60005460405163494e217160e01b81526001600160a01b039091169063494e2171906106609085908590600401611a6c565b600060405180830381600087803b15801561067a57600080fd5b505af115801561068e573d6000803e3d6000fd5b505050505050565b7f00000000000000000000000000000000000000000000000000000000000000008160a00151146106d95760405162461bcd60e51b81526004016102ac906117b9565b7f000000000000000000000000000000000000000000000000000000000000000081608001511461071c5760405162461bcd60e51b81526004016102ac906116dd565b600054604080516310737dd760e31b815290516001600160a01b039092169163606736fb91839163839beeb891600480820192602092909190829003018186803b15801561076957600080fd5b505afa15801561077d573d6000803e3d6000fd5b505050506040513d601f19601f820116820180604052508101906107a191906113a0565b836040518363ffffffff1660e01b81526004016107be9190611a04565b6000604051808303818588803b1580156107d757600080fd5b505af11580156107eb573d6000803e3d6000fd5b5050505050806040015160008054906101000a90046001600160a01b03166001600160a01b031663766718086040518163ffffffff1660e01b815260040160206040518083038186803b15801561084157600080fd5b505afa158015610855573d6000803e3d6000fd5b505050506040513d601f19601f8201168201806040525081019061087991906113a0565b7f6da51c4a7f6055cf90f927a5dd196677509f6bff613f1087859c131e54d45ba884846040516108aa9291906115d3565b60405180910390a35050565b60006108c28587611b96565b9050600081116108e45760405162461bcd60e51b81526004016102ac9061163d565b6108ee8587611bae565b1561090b5760405162461bcd60e51b81526004016102ac90611882565b808260a001511461092e5760405162461bcd60e51b81526004016102ac9061174e565b7f00000000000000000000000000000000000000000000000000000000000000008260800151146109715760405162461bcd60e51b81526004016102ac906116dd565b610979610f5e565b7f000000000000000000000000000000000000000000000000000000000000000081526020808201889052604080830188905260005481516310737dd760e31b815291516001600160a01b03909116926385c053ae92849263839beeb892600480840193919291829003018186803b1580156109f457600080fd5b505afa158015610a08573d6000803e3d6000fd5b505050506040513d601f19601f82011682018060405250810190610a2c91906113a0565b8388886040518563ffffffff1660e01b8152600401610a4d939291906119c2565b6000604051808303818588803b158015610a6657600080fd5b505af1158015610a7a573d6000803e3d6000fd5b5050600054604080516310737dd760e31b815290516001600160a01b03909216945063606736fb935084925063839beeb8916004808301926020929190829003018186803b158015610acb57600080fd5b505afa158015610adf573d6000803e3d6000fd5b505050506040513d601f19601f82011682018060405250810190610b0391906113a0565b856040518363ffffffff1660e01b8152600401610b209190611a04565b6000604051808303818588803b158015610b3957600080fd5b505af1158015610b4d573d6000803e3d6000fd5b505050505084836040015160008054906101000a90046001600160a01b03166001600160a01b031663766718086040518163ffffffff1660e01b815260040160206040518083038186803b158015610ba457600080fd5b505afa158015610bb8573d6000803e3d6000fd5b505050506040513d601f19601f82011682018060405250810190610bdc91906113a0565b7f731a73efdffa7012ae9555a57a4d4695affe9ebbc4c1c502671a5266ce07b7188a8a88604051610c0f93929190611b21565b60405180910390a450505050505050565b7f000000000000000000000000000000000000000000000000000000000000000081565b60005460405163b876ed7160e01b81526001600160a01b039091169063b876ed7190610c7a908790879087908790600401611b40565b600060405180830381600087803b158015610c9457600080fd5b505af1158015610ca8573d6000803e3d6000fd5b5050505050505050565b7f000000000000000000000000000000000000000000000000000000000000000081565b60208082015160009081526002909152604090205460ff1615610d0b5760405162461bcd60e51b81526004016102ac90611832565b7f0000000000000000000000000000000000000000000000000000000000000000816060015114610d4e5760405162461bcd60e51b81526004016102ac906116dd565b8060800151600114610d725760405162461bcd60e51b81526004016102ac906118df565b600054604080516310737dd760e31b815290516001600160a01b039092169163bff3df4191839163839beeb891600480820192602092909190829003018186803b158015610dbf57600080fd5b505afa158015610dd3573d6000803e3d6000fd5b505050506040513d601f19601f82011682018060405250810190610df791906113a0565b836040518363ffffffff1660e01b8152600401610e149190611a1e565b6000604051808303818588803b158015610e2d57600080fd5b505af1158015610e41573d6000803e3d6000fd5b505050602080840180516000908152600283526040808220805460ff19166001179055915190548251630ecce30160e31b815292519195506001600160a01b03169350637667180892600480840193919291829003018186803b158015610ea757600080fd5b505afa158015610ebb573d6000803e3d6000fd5b505050506040513d601f19601f82011682018060405250810190610edf91906113a0565b7fcdc7a13869e4f8a627dbe2aaaf80ccb2acf27bea2ab437cd6de6d6789d1697bb83604051610f0e9190611a1e565b60405180910390a350565b60005460405163f73c8ebb60e01b81526001600160a01b039091169063f73c8ebb90610c7a908790879087908790600401611b40565b6000546001600160a01b031681565b6040518060a0016040528060008152602001600081526020016000815260200160008152602001600081525090565b600082601f830112610f9d578081fd5b60405161010080820182811067ffffffffffffffff82111715610fc257610fc2611be3565b6040528184828101871015610fd5578485fd5b8492505b6008831015610ff957803582526001929092019160209182019101610fd9565b509195945050505050565b600082601f830112611014578081fd5b8135602067ffffffffffffffff82111561103057611030611be3565b80820261103e828201611b6c565b838152828101908684018388018501891015611058578687fd5b8693505b8584101561107a57803583526001939093019291840191840161105c565b50979650505050505050565b600082601f830112611096578081fd5b813567ffffffffffffffff8111156110b0576110b0611be3565b6110c3601f8201601f1916602001611b6c565b8181528460208386010111156110d7578283fd5b816020850160208301379081016020019190915292915050565b60006102208284031215611103578081fd5b61110e610140611b6c565b9050813567ffffffffffffffff81111561112757600080fd5b61113384828501611004565b8252506020820135602082015260408201356040820152606082013560608201526080820135608082015260a082013560a082015260c082013560c082015260e082013560e082015261010080830135818301525061012061119784828501610f8d565b9082015292915050565b600080604083850312156111b3578182fd5b823567ffffffffffffffff808211156111ca578384fd5b6111d686838701611086565b935060208501359150808211156111eb578283fd5b506111f8858286016110f1565b9150509250929050565b60006101a08284031215611214578081fd5b60405160c0810181811067ffffffffffffffff8211171561123757611237611be3565b806040525082358152602083013560208201526040830135604082015260608301356060820152608083013560808201526112758460a08501610f8d565b60a08201529392505050565b60008060408385031215611293578182fd5b823567ffffffffffffffff808211156112aa578384fd5b908401906101e082870312156112be578384fd5b6112c9610100611b6c565b823581526020830135828111156112de578586fd5b6112ea88828601611004565b6020830152506040830135604082015260608301358281111561130b578586fd5b61131788828601611004565b6060830152506080830135608082015260a083013582811115611338578586fd5b61134488828601611004565b60a08301525060c083013560c08201526113618760e08501610f8d565b60e08201529350602085013591508082111561137b578283fd5b506111f885828601611004565b600060208284031215611399578081fd5b5035919050565b6000602082840312156113b1578081fd5b5051919050565b6000806000606084860312156113cc578081fd5b83359250602084013567ffffffffffffffff808211156113ea578283fd5b6113f687838801611086565b9350604086013591508082111561140b578283fd5b50611418868287016110f1565b9150509250925092565b600080600080610160808688031215611439578182fd5b853594506020860135935060408601359250868187011115611459578182fd5b509295919450926060019150565b600080600080600060a0868803121561147e578283fd5b85359450602086013593506040860135925060608601359150608086013567ffffffffffffffff8111156114b0578182fd5b6114bc888289016110f1565b9150509295509295909350565b8060005b60088110156114ec5781518452602093840193909101906001016114cd565b50505050565b6000815180845260208085019450808401835b8381101561152157815187529582019590820190600101611505565b509495945050505050565b60006102208251818552611542828601826114f2565b9150506020830151602085015260408301516040850152606083015160608501526080830151608085015260a083015160a085015260c083015160c085015260e083015160e0850152610100808401518186015250610120808401516115aa828701826114c9565b5090949350505050565b901515815260200190565b6001600160a01b0391909116815260200190565b6000604082528351806040840152815b8181101561160057602081870181015160608684010152016115e3565b818111156116115782606083860101525b50601f01601f19168201828103606090810160208501526116349082018561152c565b95945050505050565b60208082526032908201527f556e6972657020536f6369616c3a2073686f756c64207375626d6974206120706040820152716f73697469766520766f74652076616c756560701b606082015260800190565b6020808252602e908201527f556e6972657020536f6369616c3a207369676e2075702073686f756c6420746860408201526d3937bab3b41030b71030b236b4b760911b606082015260800190565b6020808252604b908201527f556e6972657020536f6369616c3a207375626d697420612070726f6f6620776960408201527f746820646966666572656e742061747465737465722049442066726f6d20556e60608201526a1a5c995c0814dbd8da585b60aa1b608082015260a00190565b60208082526045908201527f556e6972657020536f6369616c3a207375626d697420646966666572656e742060408201527f6e756c6c69666965727320616d6f756e742066726f6d2074686520766f74652060608201526476616c756560d81b608082015260a00190565b60208082526053908201527f556e6972657020536f6369616c3a207375626d697420646966666572656e742060408201527f6e756c6c69666965727320616d6f756e742066726f6d207468652072657175696060820152721c995908185b5bdd5b9d08199bdc881c1bdcdd606a1b608082015260a00190565b60208082526030908201527f556e6972657020536f6369616c3a207468652065706f6368206b65792068617360408201526f081899595b88185a5c991c9bdc1c195960821b606082015260800190565b6020808252603a908201527f556e6972657020536f6369616c3a2073686f756c64206f6e6c792063686f6f7360408201527f6520746f207570766f7465206f7220746f20646f776e766f7465000000000000606082015260800190565b60208082526041908201527f556e6972657020536f6369616c3a20757365722073686f756c6420686176652060408201527f7369676e656420757020696e20556e6972657020536f6369616c206265666f726060820152606560f81b608082015260a00190565b60208082526056908201527f556e6972657020536f6369616c3a207375626d697420646966666572656e742060408201527f6e756c6c69666965727320616d6f756e742066726f6d207468652072657175696060820152751c995908185b5bdd5b9d08199bdc8818dbdb5b595b9d60521b608082015260a00190565b835181526020808501519082015260408085015190820152606080850151908201526080938401519381019390935260a083019190915260c082015260e00190565b600060208252611a17602083018461152c565b9392505050565b60006101a082019050825182526020830151602083015260408301516040830152606083015160608301526080830151608083015260a0830151611a6560a08401826114c9565b5092915050565b6000604082528351604083015260208401516101e06060840152611a946102208401826114f2565b9050604085015160808401526060850151603f19808584030160a0860152611abc83836114f2565b9250608087015160c086015260a08701519150808584030160e086015250611ae482826114f2565b91505060c085015161010084015260e0850151611b056101208501826114c9565b50828103602084015261163481856114f2565b90815260200190565b600084825283602083015260606040830152611634606083018461152c565b848152602081018490526040810183905261016081016101008360608401376000815295945050505050565b60405181810167ffffffffffffffff81118282101715611b8e57611b8e611be3565b604052919050565b60008219821115611ba957611ba9611bcd565b500190565b6000816000190483118215151615611bc857611bc8611bcd565b500290565b634e487b7160e01b600052601160045260246000fd5b634e487b7160e01b600052604160045260246000fdfea26469706673582212209dfcb072b56ec82b0cb0b317d514a6dbaa62eca0a76030aef3faaae8e565e3fe64736f6c63430008000033",
    "linkReferences": {},
    "deployedLinkReferences": {}
}