{
  "_format": "hh-sol-artifact-1",
  "contractName": "EpochKeyValidityVerifier",
  "sourceName": "@unirep/contracts/contracts/EpochKeyValidityVerifier.sol",
  "abi": [
    {
      "inputs": [
        {
          "internalType": "uint256[2]",
          "name": "a",
          "type": "uint256[2]"
        },
        {
          "internalType": "uint256[2][2]",
          "name": "b",
          "type": "uint256[2][2]"
        },
        {
          "internalType": "uint256[2]",
          "name": "c",
          "type": "uint256[2]"
        },
        {
          "internalType": "uint256[]",
          "name": "input",
          "type": "uint256[]"
        }
      ],
      "name": "verifyProof",
      "outputs": [
        {
          "internalType": "bool",
          "name": "",
          "type": "bool"
        }
      ],
      "stateMutability": "view",
      "type": "function"
    }
  ],
  "bytecode": "0x608060405234801561001057600080fd5b506112fe806100206000396000f3fe608060405234801561001057600080fd5b506004361061002b5760003560e01c8063c32e370e14610030575b600080fd5b61004361003e366004610e5e565b610059565b6040516100509190610f27565b60405180910390f35b6000610063610c0f565b6040805180820182528751815260208089015181830152908352815160808101835287515181840190815288518301516060830152815282518084018452888301805151825251830151818401528183015283820152815180830183528651815286820151918101919091529082015260006100dd6103e2565b6040805180820190915260008082526020820152835151919250906000805160206112a98339815191521161012d5760405162461bcd60e51b815260040161012490610f69565b60405180910390fd5b8251602001516000805160206112a98339815191521161015f5760405162461bcd60e51b8152600401610124906110df565b602083015151516000805160206112a9833981519152116101925760405162461bcd60e51b815260040161012490610f32565b6020838101510151516000805160206112a9833981519152116101c75760405162461bcd60e51b8152600401610124906110a8565b6020838101515101516000805160206112a9833981519152116101fc5760405162461bcd60e51b815260040161012490610fd7565b60208381015181015101516000805160206112a9833981519152116102335760405162461bcd60e51b815260040161012490610fa0565b6040830151516000805160206112a9833981519152116102655760405162461bcd60e51b815260040161012490611142565b6000805160206112a98339815191528360400151602001511061029a5760405162461bcd60e51b81526004016101249061103a565b60005b600381101561038e577f30644e72e131a029b85045b68181585d2833e84879b9709143e1f593f00000018682815181106102e757634e487b7160e01b600052603260045260246000fd5b60200260200101511061030c5760405162461bcd60e51b815260040161012490611071565b61037a82610375856080015184600161032591906111f3565b6004811061034357634e487b7160e01b600052603260045260246000fd5b602002015189858151811061036857634e487b7160e01b600052603260045260246000fd5b602002602001015161073e565b6107a9565b91508061038681611241565b91505061029d565b506080820151516103a09082906107a9565b90506103d66103b28460000151610810565b8460200151846000015185602001518587604001518960400151896060015161089d565b98975050505050505050565b6103ea610c41565b6040805180820182527f2d4d9aa7e302d9df41749d5507949d05dbea33fbb16c643b22f599a2be6df2e281527f14bedd503c37ceb061d8ec60209fe345ce89830a19230301f076caff004d19266020808301919091529083528151608080820184527f0967032fcbf776d1afc985f88877f182d38480a653f2decaa9794cbc3bf3060c8285019081527f0e187847ad4c798374d0d6732bf501847dd68bc0e071241e0213bc7fc13db7ab606080850191909152908352845180860186527f304cfbd1e08a704a99f5e847d93f8c3caafddec46b7a0d379da69a4d112346a781527f1739c1b1a457a8c7313123d24d2f9192f896b7c63eea05a9d57f06547ad0cec8818601528385015285840192909252835180820185527f198e9393920d483a7260bfb731fb5d25f1aa493335a9e71297e485b7aef312c28186018181527f1800deef121f1e76426a00665e5c4479674322d4f75edadd46debd5cd992f6ed838601819052908352865180880188527f090689d0585ff075ec9e99ad690c3395bc4b313370b38ef355acdadcd122975b8082527f12c85ea5db8c6deb4aab71808dcb408fe3d1e7690c43d37b4ce6cc0166fa7daa8289018190528589019290925289890194909452875180860189528089019384528087019290925291815286518088018852928352828601919091528085019190915282860152835180850185527f0a4cb2648b71cffc03f9eceec3ac4aa6a8533e6b9b57f8ff5d3ba0a1f915771b81527f06b8e0598af2fe353dcece8b731ba63a69a5aa4c5699d85bfe7a0db8d98ff3f881850152908501805191909152835180850185527e23f373216feafa42fedd9771ccd4b0a87ef661bf7f241d17dcab468453d72c81527f13f15a0f07998bdee79b4af7a2083b91037fb2717cfacdccd81a7ba9d51f215e818501528151840152835180850185527f1adf21e38bbbb03b98c7d80c323a792bf697f792a8920baac14ba044a594171181527f06936102f915b2d167e57e756c1a0f0dc98dc5bfeb280e065b7697237e3b0b4181850152815185015283518085019094527f1492211e285781a349438227e2f53713ab98be196d5e710bb8792c4433a3d1b184527f2b4e32d1be7a86e81e61800cfca3ebc146c00ff1ee29096e3d7cca2cdfb49545928401929092529051015290565b610746610c88565b61074e610ca2565b835181526020808501519082015260408101839052600060608360808460076107d05a03fa905080801561078157610783565bfe5b50806107a15760405162461bcd60e51b81526004016101249061100e565b505092915050565b6107b1610c88565b6107b9610cc0565b8351815260208085015181830152835160408301528301516060808301919091526000908360c08460066107d05a03fa90508080156107815750806107a15760405162461bcd60e51b815260040161012490611116565b610818610c88565b815115801561082957506020820151155b1561084857506040805180820190915260008082526020820152610898565b6040518060400160405280836000015181526020016000805160206112a9833981519152846020015161087b919061125c565b610893906000805160206112a983398151915261122a565b905290505b919050565b60408051608080820183528a825260208083018a90528284018890526060808401879052845192830185528b83528282018a9052828501889052820185905283516018808252610320820190955260009491859190839082016103008036833701905050905060005b6004811015610bb557600061091c82600661120b565b905085826004811061093e57634e487b7160e01b600052603260045260246000fd5b602002015151836109508360006111f3565b8151811061096e57634e487b7160e01b600052603260045260246000fd5b60200260200101818152505085826004811061099a57634e487b7160e01b600052603260045260246000fd5b602002015160200151838260016109b191906111f3565b815181106109cf57634e487b7160e01b600052603260045260246000fd5b6020026020010181815250508482600481106109fb57634e487b7160e01b600052603260045260246000fd5b6020020151515183610a0e8360026111f3565b81518110610a2c57634e487b7160e01b600052603260045260246000fd5b602002602001018181525050848260048110610a5857634e487b7160e01b600052603260045260246000fd5b6020020151516001602002015183610a718360036111f3565b81518110610a8f57634e487b7160e01b600052603260045260246000fd5b602002602001018181525050848260048110610abb57634e487b7160e01b600052603260045260246000fd5b602002015160200151600060028110610ae457634e487b7160e01b600052603260045260246000fd5b602002015183610af58360046111f3565b81518110610b1357634e487b7160e01b600052603260045260246000fd5b602002602001018181525050848260048110610b3f57634e487b7160e01b600052603260045260246000fd5b602002015160200151600160028110610b6857634e487b7160e01b600052603260045260246000fd5b602002015183610b798360056111f3565b81518110610b9757634e487b7160e01b600052603260045260246000fd5b60209081029190910101525080610bad81611241565b915050610906565b50610bbe610cde565b6000602082602086026020860160086107d05a03fa9050808015610781575080610bfa5760405162461bcd60e51b815260040161012490611179565b505115159d9c50505050505050505050505050565b6040518060600160405280610c22610c88565b8152602001610c2f610cfc565b8152602001610c3c610c88565b905290565b6040518060a00160405280610c54610c88565b8152602001610c61610cfc565b8152602001610c6e610cfc565b8152602001610c7b610cfc565b8152602001610c3c610d1c565b604051806040016040528060008152602001600081525090565b60405180606001604052806003906020820280368337509192915050565b60405180608001604052806004906020820280368337509192915050565b60405180602001604052806001906020820280368337509192915050565b6040518060400160405280610d0f610d49565b8152602001610c3c610d49565b60405180608001604052806004905b610d33610c88565b815260200190600190039081610d2b5790505090565b60405180604001604052806002906020820280368337509192915050565b600082601f830112610d77578081fd5b6040516040810181811067ffffffffffffffff82111715610d9a57610d9a611292565b8060405250808385604086011115610db0578384fd5b835b6002811015610dd1578135835260209283019290910190600101610db2565b509195945050505050565b600082601f830112610dec578081fd5b8135602067ffffffffffffffff821115610e0857610e08611292565b808202610e168282016111a8565b838152828101908684018388018501891015610e30578687fd5b8693505b85841015610e52578035835260019390930192918401918401610e34565b50979650505050505050565b6000806000806101208587031215610e74578384fd5b610e7e8686610d67565b9350604086605f870112610e90578384fd5b6002610ea3610e9e826111d2565b6111a8565b8083890160c08a018b811115610eb7578889fd5b885b85811015610edf57610ecb8d84610d67565b855260209094019391860191600101610eb9565b50829850610eed8c82610d67565b975050505050505061010085013567ffffffffffffffff811115610f0f578182fd5b610f1b87828801610ddc565b91505092959194509250565b901515815260200190565b60208082526018908201527f76657269666965722d6258302d6774652d7072696d652d710000000000000000604082015260600190565b60208082526017908201527f76657269666965722d61582d6774652d7072696d652d71000000000000000000604082015260600190565b60208082526018908201527f76657269666965722d6259312d6774652d7072696d652d710000000000000000604082015260600190565b60208082526018908201527f76657269666965722d6258312d6774652d7072696d652d710000000000000000604082015260600190565b6020808252601290820152711c185a5c9a5b99cb5b5d5b0b59985a5b195960721b604082015260600190565b60208082526017908201527f76657269666965722d63592d6774652d7072696d652d71000000000000000000604082015260600190565b6020808252601f908201527f76657269666965722d6774652d736e61726b2d7363616c61722d6669656c6400604082015260600190565b60208082526018908201527f76657269666965722d6259302d6774652d7072696d652d710000000000000000604082015260600190565b60208082526017908201527f76657269666965722d61592d6774652d7072696d652d71000000000000000000604082015260600190565b6020808252601290820152711c185a5c9a5b99cb5859190b59985a5b195960721b604082015260600190565b60208082526017908201527f76657269666965722d63582d6774652d7072696d652d71000000000000000000604082015260600190565b6020808252601590820152741c185a5c9a5b99cb5bdc18dbd9194b59985a5b1959605a1b604082015260600190565b60405181810167ffffffffffffffff811182821017156111ca576111ca611292565b604052919050565b600067ffffffffffffffff8211156111ec576111ec611292565b5060200290565b600082198211156112065761120661127c565b500190565b60008160001904831182151516156112255761122561127c565b500290565b60008282101561123c5761123c61127c565b500390565b60006000198214156112555761125561127c565b5060010190565b60008261127757634e487b7160e01b81526012600452602481fd5b500690565b634e487b7160e01b600052601160045260246000fd5b634e487b7160e01b600052604160045260246000fdfe30644e72e131a029b85045b68181585d97816a916871ca8d3c208c16d87cfd47a2646970667358221220b90cc40507dfe8dfa0cfe9856cb1752cdf61781fda99d3d9428753514fc9eb0664736f6c63430008000033",
  "linkReferences": {},
  "deployedLinkReferences": {}
}