{
  "_format": "hh-sol-artifact-1",
  "contractName": "UnirepSocial",
  "sourceName": "contracts/UnirepSocial.sol",
  "abi": [
    {
      "inputs": [
        {
          "internalType": "contract Unirep",
          "name": "_unirepContract",
          "type": "address"
        },
        {
          "internalType": "uint256",
          "name": "_postReputation",
          "type": "uint256"
        },
        {
          "internalType": "uint256",
          "name": "_commentReputation",
          "type": "uint256"
        },
        {
          "internalType": "uint256",
          "name": "_airdroppedReputation",
          "type": "uint256"
        }
      ],
      "stateMutability": "nonpayable",
      "type": "constructor"
    },
    {
      "anonymous": false,
      "inputs": [
        {
          "indexed": true,
          "internalType": "uint256",
          "name": "_epoch",
          "type": "uint256"
        },
        {
          "indexed": true,
          "internalType": "uint256",
          "name": "_epochKey",
          "type": "uint256"
        },
        {
          "components": [
            {
              "internalType": "uint256",
              "name": "epoch",
              "type": "uint256"
            },
            {
              "internalType": "uint256",
              "name": "epochKey",
              "type": "uint256"
            },
            {
              "internalType": "uint256",
              "name": "globalStateTree",
              "type": "uint256"
            },
            {
              "internalType": "uint256",
              "name": "attesterId",
              "type": "uint256"
            },
            {
              "internalType": "uint256",
              "name": "userHasSignedUp",
              "type": "uint256"
            },
            {
              "internalType": "uint256[8]",
              "name": "proof",
              "type": "uint256[8]"
            }
          ],
          "indexed": false,
          "internalType": "struct UnirepObjs.SignUpProof",
          "name": "proofRelated",
          "type": "tuple"
        }
      ],
      "name": "AirdropSubmitted",
      "type": "event"
    },
    {
      "anonymous": false,
      "inputs": [
        {
          "indexed": true,
          "internalType": "uint256",
          "name": "_epoch",
          "type": "uint256"
        },
        {
          "indexed": true,
          "internalType": "uint256",
          "name": "_epochKey",
          "type": "uint256"
        },
        {
          "indexed": false,
          "internalType": "string",
          "name": "_commentContent",
          "type": "string"
        },
        {
          "components": [
            {
              "internalType": "uint256[]",
              "name": "repNullifiers",
              "type": "uint256[]"
            },
            {
              "internalType": "uint256",
              "name": "epoch",
              "type": "uint256"
            },
            {
              "internalType": "uint256",
              "name": "epochKey",
              "type": "uint256"
            },
            {
              "internalType": "uint256",
              "name": "globalStateTree",
              "type": "uint256"
            },
            {
              "internalType": "uint256",
              "name": "attesterId",
              "type": "uint256"
            },
            {
              "internalType": "uint256",
              "name": "proveReputationAmount",
              "type": "uint256"
            },
            {
              "internalType": "uint256",
              "name": "minRep",
              "type": "uint256"
            },
            {
              "internalType": "uint256",
              "name": "proveGraffiti",
              "type": "uint256"
            },
            {
              "internalType": "uint256",
              "name": "graffitiPreImage",
              "type": "uint256"
            },
            {
              "internalType": "uint256[8]",
              "name": "proof",
              "type": "uint256[8]"
            }
          ],
          "indexed": false,
          "internalType": "struct UnirepObjs.ReputationProof",
          "name": "proofRelated",
          "type": "tuple"
        }
      ],
      "name": "CommentSubmitted",
      "type": "event"
    },
    {
      "anonymous": false,
      "inputs": [
        {
          "indexed": true,
          "internalType": "uint256",
          "name": "_epoch",
          "type": "uint256"
        },
        {
          "indexed": true,
          "internalType": "uint256",
          "name": "_epochKey",
          "type": "uint256"
        },
        {
          "indexed": false,
          "internalType": "string",
          "name": "_postContent",
          "type": "string"
        },
        {
          "components": [
            {
              "internalType": "uint256[]",
              "name": "repNullifiers",
              "type": "uint256[]"
            },
            {
              "internalType": "uint256",
              "name": "epoch",
              "type": "uint256"
            },
            {
              "internalType": "uint256",
              "name": "epochKey",
              "type": "uint256"
            },
            {
              "internalType": "uint256",
              "name": "globalStateTree",
              "type": "uint256"
            },
            {
              "internalType": "uint256",
              "name": "attesterId",
              "type": "uint256"
            },
            {
              "internalType": "uint256",
              "name": "proveReputationAmount",
              "type": "uint256"
            },
            {
              "internalType": "uint256",
              "name": "minRep",
              "type": "uint256"
            },
            {
              "internalType": "uint256",
              "name": "proveGraffiti",
              "type": "uint256"
            },
            {
              "internalType": "uint256",
              "name": "graffitiPreImage",
              "type": "uint256"
            },
            {
              "internalType": "uint256[8]",
              "name": "proof",
              "type": "uint256[8]"
            }
          ],
          "indexed": false,
          "internalType": "struct UnirepObjs.ReputationProof",
          "name": "proofRelated",
          "type": "tuple"
        }
      ],
      "name": "PostSubmitted",
      "type": "event"
    },
    {
      "anonymous": false,
      "inputs": [
        {
          "indexed": true,
          "internalType": "uint256",
          "name": "_epoch",
          "type": "uint256"
        },
        {
          "indexed": true,
          "internalType": "uint256",
          "name": "_identityCommitment",
          "type": "uint256"
        }
      ],
      "name": "UserSignedUp",
      "type": "event"
    },
    {
      "anonymous": false,
      "inputs": [
        {
          "indexed": true,
          "internalType": "uint256",
          "name": "_epoch",
          "type": "uint256"
        },
        {
          "indexed": true,
          "internalType": "uint256",
          "name": "_fromEpochKey",
          "type": "uint256"
        },
        {
          "indexed": true,
          "internalType": "uint256",
          "name": "_toEpochKey",
          "type": "uint256"
        },
        {
          "indexed": false,
          "internalType": "uint256",
          "name": "upvoteValue",
          "type": "uint256"
        },
        {
          "indexed": false,
          "internalType": "uint256",
          "name": "downvoteValue",
          "type": "uint256"
        },
        {
          "components": [
            {
              "internalType": "uint256[]",
              "name": "repNullifiers",
              "type": "uint256[]"
            },
            {
              "internalType": "uint256",
              "name": "epoch",
              "type": "uint256"
            },
            {
              "internalType": "uint256",
              "name": "epochKey",
              "type": "uint256"
            },
            {
              "internalType": "uint256",
              "name": "globalStateTree",
              "type": "uint256"
            },
            {
              "internalType": "uint256",
              "name": "attesterId",
              "type": "uint256"
            },
            {
              "internalType": "uint256",
              "name": "proveReputationAmount",
              "type": "uint256"
            },
            {
              "internalType": "uint256",
              "name": "minRep",
              "type": "uint256"
            },
            {
              "internalType": "uint256",
              "name": "proveGraffiti",
              "type": "uint256"
            },
            {
              "internalType": "uint256",
              "name": "graffitiPreImage",
              "type": "uint256"
            },
            {
              "internalType": "uint256[8]",
              "name": "proof",
              "type": "uint256[8]"
            }
          ],
          "indexed": false,
          "internalType": "struct UnirepObjs.ReputationProof",
          "name": "proofRelated",
          "type": "tuple"
        }
      ],
      "name": "VoteSubmitted",
      "type": "event"
    },
    {
      "inputs": [
        {
          "components": [
            {
              "internalType": "uint256",
              "name": "epoch",
              "type": "uint256"
            },
            {
              "internalType": "uint256",
              "name": "epochKey",
              "type": "uint256"
            },
            {
              "internalType": "uint256",
              "name": "globalStateTree",
              "type": "uint256"
            },
            {
              "internalType": "uint256",
              "name": "attesterId",
              "type": "uint256"
            },
            {
              "internalType": "uint256",
              "name": "userHasSignedUp",
              "type": "uint256"
            },
            {
              "internalType": "uint256[8]",
              "name": "proof",
              "type": "uint256[8]"
            }
          ],
          "internalType": "struct UnirepObjs.SignUpProof",
          "name": "_signUpProofData",
          "type": "tuple"
        }
      ],
      "name": "airdrop",
      "outputs": [],
      "stateMutability": "payable",
      "type": "function"
    },
    {
      "inputs": [],
      "name": "airdroppedReputation",
      "outputs": [
        {
          "internalType": "uint256",
          "name": "",
          "type": "uint256"
        }
      ],
      "stateMutability": "view",
      "type": "function"
    },
    {
      "inputs": [],
      "name": "attesterId",
      "outputs": [
        {
          "internalType": "uint256",
          "name": "",
          "type": "uint256"
        }
      ],
      "stateMutability": "view",
      "type": "function"
    },
    {
      "inputs": [],
      "name": "commentReputation",
      "outputs": [
        {
          "internalType": "uint256",
          "name": "",
          "type": "uint256"
        }
      ],
      "stateMutability": "view",
      "type": "function"
    },
    {
      "inputs": [
        {
          "internalType": "uint256",
          "name": "",
          "type": "uint256"
        }
      ],
      "name": "isEpochKeyGotAirdrop",
      "outputs": [
        {
          "internalType": "bool",
          "name": "",
          "type": "bool"
        }
      ],
      "stateMutability": "view",
      "type": "function"
    },
    {
      "inputs": [
        {
          "internalType": "string",
          "name": "content",
          "type": "string"
        },
        {
          "components": [
            {
              "internalType": "uint256[]",
              "name": "repNullifiers",
              "type": "uint256[]"
            },
            {
              "internalType": "uint256",
              "name": "epoch",
              "type": "uint256"
            },
            {
              "internalType": "uint256",
              "name": "epochKey",
              "type": "uint256"
            },
            {
              "internalType": "uint256",
              "name": "globalStateTree",
              "type": "uint256"
            },
            {
              "internalType": "uint256",
              "name": "attesterId",
              "type": "uint256"
            },
            {
              "internalType": "uint256",
              "name": "proveReputationAmount",
              "type": "uint256"
            },
            {
              "internalType": "uint256",
              "name": "minRep",
              "type": "uint256"
            },
            {
              "internalType": "uint256",
              "name": "proveGraffiti",
              "type": "uint256"
            },
            {
              "internalType": "uint256",
              "name": "graffitiPreImage",
              "type": "uint256"
            },
            {
              "internalType": "uint256[8]",
              "name": "proof",
              "type": "uint256[8]"
            }
          ],
          "internalType": "struct UnirepObjs.ReputationProof",
          "name": "_proofRelated",
          "type": "tuple"
        }
      ],
      "name": "leaveComment",
      "outputs": [],
      "stateMutability": "payable",
      "type": "function"
    },
    {
      "inputs": [],
      "name": "postReputation",
      "outputs": [
        {
          "internalType": "uint256",
          "name": "",
          "type": "uint256"
        }
      ],
      "stateMutability": "view",
      "type": "function"
    },
    {
      "inputs": [
        {
          "internalType": "uint256",
          "name": "_outputBlindedUserState",
          "type": "uint256"
        },
        {
          "internalType": "uint256",
          "name": "_outputBlindedHashChain",
          "type": "uint256"
        },
        {
          "internalType": "uint256",
          "name": "_inputBlindedUserState",
          "type": "uint256"
        },
        {
          "internalType": "uint256[8]",
          "name": "_proof",
          "type": "uint256[8]"
        }
      ],
      "name": "processAttestations",
      "outputs": [],
      "stateMutability": "nonpayable",
      "type": "function"
    },
    {
      "inputs": [
        {
          "internalType": "string",
          "name": "content",
          "type": "string"
        },
        {
          "components": [
            {
              "internalType": "uint256[]",
              "name": "repNullifiers",
              "type": "uint256[]"
            },
            {
              "internalType": "uint256",
              "name": "epoch",
              "type": "uint256"
            },
            {
              "internalType": "uint256",
              "name": "epochKey",
              "type": "uint256"
            },
            {
              "internalType": "uint256",
              "name": "globalStateTree",
              "type": "uint256"
            },
            {
              "internalType": "uint256",
              "name": "attesterId",
              "type": "uint256"
            },
            {
              "internalType": "uint256",
              "name": "proveReputationAmount",
              "type": "uint256"
            },
            {
              "internalType": "uint256",
              "name": "minRep",
              "type": "uint256"
            },
            {
              "internalType": "uint256",
              "name": "proveGraffiti",
              "type": "uint256"
            },
            {
              "internalType": "uint256",
              "name": "graffitiPreImage",
              "type": "uint256"
            },
            {
              "internalType": "uint256[8]",
              "name": "proof",
              "type": "uint256[8]"
            }
          ],
          "internalType": "struct UnirepObjs.ReputationProof",
          "name": "_proofRelated",
          "type": "tuple"
        }
      ],
      "name": "publishPost",
      "outputs": [],
      "stateMutability": "payable",
      "type": "function"
    },
    {
      "inputs": [
        {
          "internalType": "uint256",
          "name": "_blindedUserState",
          "type": "uint256"
        },
        {
          "internalType": "uint256",
          "name": "_blindedHashChain",
          "type": "uint256"
        },
        {
          "internalType": "uint256",
          "name": "_GSTRoot",
          "type": "uint256"
        },
        {
          "internalType": "uint256[8]",
          "name": "_proof",
          "type": "uint256[8]"
        }
      ],
      "name": "startUserStateTransition",
      "outputs": [],
      "stateMutability": "nonpayable",
      "type": "function"
    },
    {
      "inputs": [],
      "name": "unirep",
      "outputs": [
        {
          "internalType": "contract Unirep",
          "name": "",
          "type": "address"
        }
      ],
      "stateMutability": "view",
      "type": "function"
    },
    {
      "inputs": [
        {
          "components": [
            {
              "internalType": "uint256",
              "name": "newGlobalStateTreeLeaf",
              "type": "uint256"
            },
            {
              "internalType": "uint256[]",
              "name": "epkNullifiers",
              "type": "uint256[]"
            },
            {
              "internalType": "uint256",
              "name": "transitionFromEpoch",
              "type": "uint256"
            },
            {
              "internalType": "uint256[]",
              "name": "blindedUserStates",
              "type": "uint256[]"
            },
            {
              "internalType": "uint256",
              "name": "fromGlobalStateTree",
              "type": "uint256"
            },
            {
              "internalType": "uint256[]",
              "name": "blindedHashChains",
              "type": "uint256[]"
            },
            {
              "internalType": "uint256",
              "name": "fromEpochTree",
              "type": "uint256"
            },
            {
              "internalType": "uint256[8]",
              "name": "proof",
              "type": "uint256[8]"
            }
          ],
          "internalType": "struct UnirepObjs.UserTransitionProof",
          "name": "userTransitionedData",
          "type": "tuple"
        },
        {
          "internalType": "uint256[]",
          "name": "proofIndexes",
          "type": "uint256[]"
        }
      ],
      "name": "updateUserStateRoot",
      "outputs": [],
      "stateMutability": "nonpayable",
      "type": "function"
    },
    {
      "inputs": [
        {
          "internalType": "uint256",
          "name": "_identityCommitment",
          "type": "uint256"
        }
      ],
      "name": "userSignUp",
      "outputs": [],
      "stateMutability": "nonpayable",
      "type": "function"
    },
    {
      "inputs": [
        {
          "internalType": "uint256",
          "name": "upvoteValue",
          "type": "uint256"
        },
        {
          "internalType": "uint256",
          "name": "downvoteValue",
          "type": "uint256"
        },
        {
          "internalType": "uint256",
          "name": "toEpochKey",
          "type": "uint256"
        },
        {
          "internalType": "uint256",
          "name": "toEpochKeyProofIndex",
          "type": "uint256"
        },
        {
          "components": [
            {
              "internalType": "uint256[]",
              "name": "repNullifiers",
              "type": "uint256[]"
            },
            {
              "internalType": "uint256",
              "name": "epoch",
              "type": "uint256"
            },
            {
              "internalType": "uint256",
              "name": "epochKey",
              "type": "uint256"
            },
            {
              "internalType": "uint256",
              "name": "globalStateTree",
              "type": "uint256"
            },
            {
              "internalType": "uint256",
              "name": "attesterId",
              "type": "uint256"
            },
            {
              "internalType": "uint256",
              "name": "proveReputationAmount",
              "type": "uint256"
            },
            {
              "internalType": "uint256",
              "name": "minRep",
              "type": "uint256"
            },
            {
              "internalType": "uint256",
              "name": "proveGraffiti",
              "type": "uint256"
            },
            {
              "internalType": "uint256",
              "name": "graffitiPreImage",
              "type": "uint256"
            },
            {
              "internalType": "uint256[8]",
              "name": "proof",
              "type": "uint256[8]"
            }
          ],
          "internalType": "struct UnirepObjs.ReputationProof",
          "name": "_proofRelated",
          "type": "tuple"
        }
      ],
      "name": "vote",
      "outputs": [],
      "stateMutability": "payable",
      "type": "function"
    }
  ],
  "bytecode": "0x6101006040523480156200001257600080fd5b5060405162001e3738038062001e378339810160408190526200003591620001a8565b600080546001600160a01b0319166001600160a01b0386811691909117808355604080516315b7d18d60e21b8152905191909216926356df4634926004808201939182900301818387803b1580156200008d57600080fd5b505af1158015620000a2573d6000803e3d6000fd5b5050600054604051630a5500c360e41b81526001600160a01b03909116925063a5500c309150620000d890849060040162000220565b600060405180830381600087803b158015620000f357600080fd5b505af115801562000108573d6000803e3d6000fd5b505060005460405163131a91ad60e01b81526001600160a01b03909116925063131a91ad91506200013e9030906004016200020c565b60206040518083038186803b1580156200015757600080fd5b505afa1580156200016c573d6000803e3d6000fd5b505050506040513d601f19601f82011682018060405250810190620001929190620001f3565b60805260a09290925260c05260e0525062000229565b60008060008060808587031215620001be578384fd5b84516001600160a01b0381168114620001d5578485fd5b60208601516040870151606090970151919890975090945092505050565b60006020828403121562000205578081fd5b5051919050565b6001600160a01b0391909116815260200190565b90815260200190565b60805160a05160c05160e051611ba362000294600039600061026b0152600081816104430152610ca00152600081816102a4015261066c01526000818161048f015281816106af015281816108f80152818161096701528181610c0e0152610cf90152611ba36000f3fe6080604052600436106100dd5760003560e01c80637efef9c81161007f578063bf8036ba11610059578063bf8036ba146101ff578063f2800cc914610214578063f73c8ebb14610227578063f85ec78f14610247576100dd565b80637efef9c8146101b757806392389453146101ca578063b876ed71146101df576100dd565b8063417b16e3116100bb578063417b16e31461014f578063494e217114610171578063549c516b146101915780635e888136146101a4576100dd565b8063297905bb146100e25780632caf5ef81461010d578063350f1ba61461013a575b600080fd5b3480156100ee57600080fd5b506100f7610269565b6040516101049190611a8c565b60405180910390f35b34801561011957600080fd5b5061012d610128366004611357565b61028d565b6040516101049190611519565b34801561014657600080fd5b506100f76102a2565b34801561015b57600080fd5b5061016f61016a366004611357565b6102c6565b005b34801561017d57600080fd5b5061016f61018c366004611250565b6103d9565b61016f61019f366004611122565b610441565b61016f6101b2366004611122565b61066a565b61016f6101c53660046113cc565b61087e565b3480156101d657600080fd5b506100f7610c0c565b3480156101eb57600080fd5b5061016f6101fa366004611387565b610c30565b34801561020b57600080fd5b506100f7610c9e565b61016f6102223660046111d1565b610cc2565b34801561023357600080fd5b5061016f610242366004611387565b610f05565b34801561025357600080fd5b5061025c610f3b565b6040516101049190611524565b7f000000000000000000000000000000000000000000000000000000000000000081565b60016020526000908152604090205460ff1681565b7f000000000000000000000000000000000000000000000000000000000000000081565b60005460405163417b16e360e01b81526001600160a01b039091169063417b16e3906102f6908490600401611a8c565b600060405180830381600087803b15801561031057600080fd5b505af1158015610324573d6000803e3d6000fd5b505050508060008054906101000a90046001600160a01b03166001600160a01b031663766718086040518163ffffffff1660e01b815260040160206040518083038186803b15801561037557600080fd5b505afa158015610389573d6000803e3d6000fd5b505050506040513d601f19601f820116820180604052508101906103ad919061136f565b6040517fe43c2a2d0ba801f72bfb7df8c728919e1886a4d9a6a12d45eeee7417bae2f15590600090a350565b60005460405163494e217160e01b81526001600160a01b039091169063494e21719061040b90859085906004016119e0565b600060405180830381600087803b15801561042557600080fd5b505af1158015610439573d6000803e3d6000fd5b505050505050565b7f00000000000000000000000000000000000000000000000000000000000000008160a001511461048d5760405162461bcd60e51b8152600401610484906118ba565b60405180910390fd5b7f00000000000000000000000000000000000000000000000000000000000000008160800151146104d05760405162461bcd60e51b8152600401610484906115f4565b600054604080516310737dd760e31b815290516001600160a01b039092169163606736fb91839163839beeb891600480820192602092909190829003018186803b15801561051d57600080fd5b505afa158015610531573d6000803e3d6000fd5b505050506040513d601f19601f82011682018060405250810190610555919061136f565b836040518363ffffffff1660e01b81526004016105729190611978565b6000604051808303818588803b15801561058b57600080fd5b505af115801561059f573d6000803e3d6000fd5b5050505050806040015160008054906101000a90046001600160a01b03166001600160a01b031663766718086040518163ffffffff1660e01b815260040160206040518083038186803b1580156105f557600080fd5b505afa158015610609573d6000803e3d6000fd5b505050506040513d601f19601f8201168201806040525081019061062d919061136f565b7f69ab7912a1ed8734f32ab0248727b23e30c2fd0c74f73fe08c0fbe6eb22e37a8848460405161065e929190611538565b60405180910390a35050565b7f00000000000000000000000000000000000000000000000000000000000000008160a00151146106ad5760405162461bcd60e51b8152600401610484906116d0565b7f00000000000000000000000000000000000000000000000000000000000000008160800151146106f05760405162461bcd60e51b8152600401610484906115f4565b600054604080516310737dd760e31b815290516001600160a01b039092169163606736fb91839163839beeb891600480820192602092909190829003018186803b15801561073d57600080fd5b505afa158015610751573d6000803e3d6000fd5b505050506040513d601f19601f82011682018060405250810190610775919061136f565b836040518363ffffffff1660e01b81526004016107929190611978565b6000604051808303818588803b1580156107ab57600080fd5b505af11580156107bf573d6000803e3d6000fd5b5050505050806040015160008054906101000a90046001600160a01b03166001600160a01b031663766718086040518163ffffffff1660e01b815260040160206040518083038186803b15801561081557600080fd5b505afa158015610829573d6000803e3d6000fd5b505050506040513d601f19601f8201168201806040525081019061084d919061136f565b7f6da51c4a7f6055cf90f927a5dd196677509f6bff613f1087859c131e54d45ba8848460405161065e929190611538565b600061088a8587611b0a565b9050600081116108ac5760405162461bcd60e51b8152600401610484906115a2565b6108b68587611b22565b156108d35760405162461bcd60e51b815260040161048490611799565b808260a00151146108f65760405162461bcd60e51b815260040161048490611665565b7f00000000000000000000000000000000000000000000000000000000000000008260800151146109395760405162461bcd60e51b8152600401610484906115f4565b816040015184141561095d5760405162461bcd60e51b81526004016104849061185d565b610965610f4a565b7f000000000000000000000000000000000000000000000000000000000000000081526020808201889052604080830188905260005481516310737dd760e31b815291516001600160a01b03909116926385c053ae92849263839beeb892600480840193919291829003018186803b1580156109e057600080fd5b505afa1580156109f4573d6000803e3d6000fd5b505050506040513d601f19601f82011682018060405250810190610a18919061136f565b8388886040518563ffffffff1660e01b8152600401610a3993929190611936565b6000604051808303818588803b158015610a5257600080fd5b505af1158015610a66573d6000803e3d6000fd5b5050600054604080516310737dd760e31b815290516001600160a01b03909216945063606736fb935084925063839beeb8916004808301926020929190829003018186803b158015610ab757600080fd5b505afa158015610acb573d6000803e3d6000fd5b505050506040513d601f19601f82011682018060405250810190610aef919061136f565b856040518363ffffffff1660e01b8152600401610b0c9190611978565b6000604051808303818588803b158015610b2557600080fd5b505af1158015610b39573d6000803e3d6000fd5b505050505084836040015160008054906101000a90046001600160a01b03166001600160a01b031663766718086040518163ffffffff1660e01b815260040160206040518083038186803b158015610b9057600080fd5b505afa158015610ba4573d6000803e3d6000fd5b505050506040513d601f19601f82011682018060405250810190610bc8919061136f565b7f731a73efdffa7012ae9555a57a4d4695affe9ebbc4c1c502671a5266ce07b7188a8a88604051610bfb93929190611a95565b60405180910390a450505050505050565b7f000000000000000000000000000000000000000000000000000000000000000081565b60005460405163b876ed7160e01b81526001600160a01b039091169063b876ed7190610c66908790879087908790600401611ab4565b600060405180830381600087803b158015610c8057600080fd5b505af1158015610c94573d6000803e3d6000fd5b5050505050505050565b7f000000000000000000000000000000000000000000000000000000000000000081565b60208082015160009081526001909152604090205460ff1615610cf75760405162461bcd60e51b815260040161048490611749565b7f0000000000000000000000000000000000000000000000000000000000000000816060015114610d3a5760405162461bcd60e51b8152600401610484906115f4565b8060800151600114610d5e5760405162461bcd60e51b8152600401610484906117f6565b600054604080516310737dd760e31b815290516001600160a01b039092169163bff3df4191839163839beeb891600480820192602092909190829003018186803b158015610dab57600080fd5b505afa158015610dbf573d6000803e3d6000fd5b505050506040513d601f19601f82011682018060405250810190610de3919061136f565b836040518363ffffffff1660e01b8152600401610e009190611992565b6000604051808303818588803b158015610e1957600080fd5b505af1158015610e2d573d6000803e3d6000fd5b5050505060208281018051600090815260018084526040808320805460ff1916909217909155915190548251630ecce30160e31b815292519194506001600160a01b03169263766718089260048082019391829003018186803b158015610e9357600080fd5b505afa158015610ea7573d6000803e3d6000fd5b505050506040513d601f19601f82011682018060405250810190610ecb919061136f565b7fcdc7a13869e4f8a627dbe2aaaf80ccb2acf27bea2ab437cd6de6d6789d1697bb83604051610efa9190611992565b60405180910390a350565b60005460405163f73c8ebb60e01b81526001600160a01b039091169063f73c8ebb90610c66908790879087908790600401611ab4565b6000546001600160a01b031681565b6040518060a0016040528060008152602001600081526020016000815260200160008152602001600081525090565b600082601f830112610f89578081fd5b60405161010080820182811067ffffffffffffffff82111715610fae57610fae611b57565b6040528184828101871015610fc1578485fd5b8492505b6008831015610fe557803582526001929092019160209182019101610fc5565b509195945050505050565b600082601f830112611000578081fd5b8135602067ffffffffffffffff82111561101c5761101c611b57565b80820261102a828201611ae0565b838152828101908684018388018501891015611044578687fd5b8693505b85841015611066578035835260019390930192918401918401611048565b50979650505050505050565b60006102208284031215611084578081fd5b61108f610140611ae0565b9050813567ffffffffffffffff8111156110a857600080fd5b6110b484828501610ff0565b8252506020820135602082015260408201356040820152606082013560608201526080820135608082015260a082013560a082015260c082013560c082015260e082013560e082015261010080830135818301525061012061111884828501610f79565b9082015292915050565b60008060408385031215611134578182fd5b823567ffffffffffffffff8082111561114b578384fd5b818501915085601f83011261115e578384fd5b813560208282111561117257611172611b57565b611184601f8301601f19168201611ae0565b8281528882848701011115611197578687fd5b8282860183830137918201810195909552938501359150808211156111ba578283fd5b506111c785828601611072565b9150509250929050565b60006101a082840312156111e3578081fd5b60405160c0810181811067ffffffffffffffff8211171561120657611206611b57565b806040525082358152602083013560208201526040830135604082015260608301356060820152608083013560808201526112448460a08501610f79565b60a08201529392505050565b60008060408385031215611262578182fd5b823567ffffffffffffffff80821115611279578384fd5b908401906101e0828703121561128d578384fd5b611298610100611ae0565b823581526020830135828111156112ad578586fd5b6112b988828601610ff0565b602083015250604083013560408201526060830135828111156112da578586fd5b6112e688828601610ff0565b6060830152506080830135608082015260a083013582811115611307578586fd5b61131388828601610ff0565b60a08301525060c083013560c08201526113308760e08501610f79565b60e08201529350602085013591508082111561134a578283fd5b506111c785828601610ff0565b600060208284031215611368578081fd5b5035919050565b600060208284031215611380578081fd5b5051919050565b60008060008061016080868803121561139e578283fd5b8535945060208601359350604086013592508681870111156113be578182fd5b509295919450926060019150565b600080600080600060a086880312156113e3578081fd5b85359450602086013593506040860135925060608601359150608086013567ffffffffffffffff811115611415578182fd5b61142188828901611072565b9150509295509295909350565b8060005b6008811015611451578151845260209384019390910190600101611432565b50505050565b6000815180845260208085019450808401835b838110156114865781518752958201959082019060010161146a565b509495945050505050565b600061022082518185526114a782860182611457565b9150506020830151602085015260408301516040850152606083015160608501526080830151608085015260a083015160a085015260c083015160c085015260e083015160e08501526101008084015181860152506101208084015161150f8287018261142e565b5090949350505050565b901515815260200190565b6001600160a01b0391909116815260200190565b6000604082528351806040840152815b818110156115655760208187018101516060868401015201611548565b818111156115765782606083860101525b50601f01601f191682018281036060908101602085015261159990820185611491565b95945050505050565b60208082526032908201527f556e6972657020536f6369616c3a2073686f756c64207375626d6974206120706040820152716f73697469766520766f74652076616c756560701b606082015260800190565b6020808252604b908201527f556e6972657020536f6369616c3a207375626d697420612070726f6f6620776960408201527f746820646966666572656e742061747465737465722049442066726f6d20556e60608201526a1a5c995c0814dbd8da585b60aa1b608082015260a00190565b60208082526045908201527f556e6972657020536f6369616c3a207375626d697420646966666572656e742060408201527f6e756c6c69666965727320616d6f756e742066726f6d2074686520766f74652060608201526476616c756560d81b608082015260a00190565b60208082526053908201527f556e6972657020536f6369616c3a207375626d697420646966666572656e742060408201527f6e756c6c69666965727320616d6f756e742066726f6d207468652072657175696060820152721c995908185b5bdd5b9d08199bdc881c1bdcdd606a1b608082015260a00190565b60208082526030908201527f556e6972657020536f6369616c3a207468652065706f6368206b65792068617360408201526f081899595b88185a5c991c9bdc1c195960821b606082015260800190565b6020808252603a908201527f556e6972657020536f6369616c3a2073686f756c64206f6e6c792063686f6f7360408201527f6520746f207570766f7465206f7220746f20646f776e766f7465000000000000606082015260800190565b60208082526041908201527f556e6972657020536f6369616c3a20757365722073686f756c6420686176652060408201527f7369676e656420757020696e20556e6972657020536f6369616c206265666f726060820152606560f81b608082015260a00190565b6020808252603f908201527f556e6972657020536f6369616c3a2065706f6368206b65792073656e6465722060408201527f616e642072656365697665722063616e6e6f74206265207468652073616d6500606082015260800190565b60208082526056908201527f556e6972657020536f6369616c3a207375626d697420646966666572656e742060408201527f6e756c6c69666965727320616d6f756e742066726f6d207468652072657175696060820152751c995908185b5bdd5b9d08199bdc8818dbdb5b595b9d60521b608082015260a00190565b835181526020808501519082015260408085015190820152606080850151908201526080938401519381019390935260a083019190915260c082015260e00190565b60006020825261198b6020830184611491565b9392505050565b60006101a082019050825182526020830151602083015260408301516040830152606083015160608301526080830151608083015260a08301516119d960a084018261142e565b5092915050565b6000604082528351604083015260208401516101e06060840152611a08610220840182611457565b9050604085015160808401526060850151603f19808584030160a0860152611a308383611457565b9250608087015160c086015260a08701519150808584030160e086015250611a588282611457565b91505060c085015161010084015260e0850151611a7961012085018261142e565b5082810360208401526115998185611457565b90815260200190565b6000848252836020830152606060408301526115996060830184611491565b848152602081018490526040810183905261016081016101008360608401376000815295945050505050565b60405181810167ffffffffffffffff81118282101715611b0257611b02611b57565b604052919050565b60008219821115611b1d57611b1d611b41565b500190565b6000816000190483118215151615611b3c57611b3c611b41565b500290565b634e487b7160e01b600052601160045260246000fd5b634e487b7160e01b600052604160045260246000fdfea264697066735822122090debc3045fb4df2cb81a73180a2bc8de47dcd22db5fc4526c9a96a79fbc86a464736f6c63430008000033",
  "linkReferences": {},
  "deployedLinkReferences": {}
}