{
  "_format": "hh-sol-artifact-1",
  "contractName": "UnirepSocial",
  "sourceName": "contracts/UnirepSocial.sol",
  "abi": [
    {
      "inputs": [
        {
          "internalType": "contract Unirep",
          "name": "_unirepContract",
          "type": "address"
        },
        {
          "internalType": "uint256",
          "name": "_postReputation",
          "type": "uint256"
        },
        {
          "internalType": "uint256",
          "name": "_commentReputation",
          "type": "uint256"
        },
        {
          "internalType": "uint256",
          "name": "_airdroppedReputation",
          "type": "uint256"
        }
      ],
      "stateMutability": "nonpayable",
      "type": "constructor"
    },
    {
      "anonymous": false,
      "inputs": [
        {
          "indexed": true,
          "internalType": "uint256",
          "name": "_epoch",
          "type": "uint256"
        },
        {
          "indexed": true,
          "internalType": "uint256",
          "name": "_postId",
          "type": "uint256"
        },
        {
          "indexed": true,
          "internalType": "uint256",
          "name": "_epochKey",
          "type": "uint256"
        },
        {
          "indexed": false,
          "internalType": "uint256",
          "name": "_commentId",
          "type": "uint256"
        },
        {
          "indexed": false,
          "internalType": "string",
          "name": "_hahsedContent",
          "type": "string"
        },
        {
          "components": [
            {
              "internalType": "uint256[]",
              "name": "repNullifiers",
              "type": "uint256[]"
            },
            {
              "internalType": "uint256",
              "name": "epoch",
              "type": "uint256"
            },
            {
              "internalType": "uint256",
              "name": "epochKey",
              "type": "uint256"
            },
            {
              "internalType": "uint256",
              "name": "globalStateTree",
              "type": "uint256"
            },
            {
              "internalType": "uint256",
              "name": "attesterId",
              "type": "uint256"
            },
            {
              "internalType": "uint256",
              "name": "proveReputationAmount",
              "type": "uint256"
            },
            {
              "internalType": "uint256",
              "name": "minRep",
              "type": "uint256"
            },
            {
              "internalType": "uint256",
              "name": "proveGraffiti",
              "type": "uint256"
            },
            {
              "internalType": "uint256",
              "name": "graffitiPreImage",
              "type": "uint256"
            },
            {
              "internalType": "uint256[8]",
              "name": "proof",
              "type": "uint256[8]"
            }
          ],
          "indexed": false,
          "internalType": "struct UnirepParameters.ReputationProofRelated",
          "name": "proofRelated",
          "type": "tuple"
        }
      ],
      "name": "CommentSubmitted",
      "type": "event"
    },
    {
      "anonymous": false,
      "inputs": [
        {
          "indexed": true,
          "internalType": "uint256",
          "name": "_epoch",
          "type": "uint256"
        },
        {
          "indexed": true,
          "internalType": "uint256",
          "name": "_postId",
          "type": "uint256"
        },
        {
          "indexed": true,
          "internalType": "uint256",
          "name": "_epochKey",
          "type": "uint256"
        },
        {
          "indexed": false,
          "internalType": "string",
          "name": "_hahsedContent",
          "type": "string"
        },
        {
          "components": [
            {
              "internalType": "uint256[]",
              "name": "repNullifiers",
              "type": "uint256[]"
            },
            {
              "internalType": "uint256",
              "name": "epoch",
              "type": "uint256"
            },
            {
              "internalType": "uint256",
              "name": "epochKey",
              "type": "uint256"
            },
            {
              "internalType": "uint256",
              "name": "globalStateTree",
              "type": "uint256"
            },
            {
              "internalType": "uint256",
              "name": "attesterId",
              "type": "uint256"
            },
            {
              "internalType": "uint256",
              "name": "proveReputationAmount",
              "type": "uint256"
            },
            {
              "internalType": "uint256",
              "name": "minRep",
              "type": "uint256"
            },
            {
              "internalType": "uint256",
              "name": "proveGraffiti",
              "type": "uint256"
            },
            {
              "internalType": "uint256",
              "name": "graffitiPreImage",
              "type": "uint256"
            },
            {
              "internalType": "uint256[8]",
              "name": "proof",
              "type": "uint256[8]"
            }
          ],
          "indexed": false,
          "internalType": "struct UnirepParameters.ReputationProofRelated",
          "name": "proofRelated",
          "type": "tuple"
        }
      ],
      "name": "PostSubmitted",
      "type": "event"
    },
    {
      "anonymous": false,
      "inputs": [
        {
          "indexed": true,
          "internalType": "uint256",
          "name": "_epoch",
          "type": "uint256"
        },
        {
          "indexed": true,
          "internalType": "uint256",
          "name": "_identityCommitment",
          "type": "uint256"
        }
      ],
      "name": "UserSignedUp",
      "type": "event"
    },
    {
      "anonymous": false,
      "inputs": [
        {
          "indexed": true,
          "internalType": "uint256",
          "name": "_epoch",
          "type": "uint256"
        },
        {
          "indexed": true,
          "internalType": "uint256",
          "name": "_fromEpochKey",
          "type": "uint256"
        },
        {
          "indexed": true,
          "internalType": "uint256",
          "name": "_toEpochKey",
          "type": "uint256"
        },
        {
          "indexed": false,
          "internalType": "uint256",
          "name": "upvoteValue",
          "type": "uint256"
        },
        {
          "indexed": false,
          "internalType": "uint256",
          "name": "downvoteValue",
          "type": "uint256"
        },
        {
          "components": [
            {
              "internalType": "uint256[]",
              "name": "repNullifiers",
              "type": "uint256[]"
            },
            {
              "internalType": "uint256",
              "name": "epoch",
              "type": "uint256"
            },
            {
              "internalType": "uint256",
              "name": "epochKey",
              "type": "uint256"
            },
            {
              "internalType": "uint256",
              "name": "globalStateTree",
              "type": "uint256"
            },
            {
              "internalType": "uint256",
              "name": "attesterId",
              "type": "uint256"
            },
            {
              "internalType": "uint256",
              "name": "proveReputationAmount",
              "type": "uint256"
            },
            {
              "internalType": "uint256",
              "name": "minRep",
              "type": "uint256"
            },
            {
              "internalType": "uint256",
              "name": "proveGraffiti",
              "type": "uint256"
            },
            {
              "internalType": "uint256",
              "name": "graffitiPreImage",
              "type": "uint256"
            },
            {
              "internalType": "uint256[8]",
              "name": "proof",
              "type": "uint256[8]"
            }
          ],
          "indexed": false,
          "internalType": "struct UnirepParameters.ReputationProofRelated",
          "name": "proofRelated",
          "type": "tuple"
        }
      ],
      "name": "VoteSubmitted",
      "type": "event"
    },
    {
      "inputs": [
        {
          "components": [
            {
              "internalType": "uint256",
              "name": "epoch",
              "type": "uint256"
            },
            {
              "internalType": "uint256",
              "name": "epochKey",
              "type": "uint256"
            },
            {
              "internalType": "uint256",
              "name": "globalStateTree",
              "type": "uint256"
            },
            {
              "internalType": "uint256",
              "name": "attesterId",
              "type": "uint256"
            },
            {
              "internalType": "uint256[8]",
              "name": "proof",
              "type": "uint256[8]"
            }
          ],
          "internalType": "struct UnirepParameters.SignUpProofRelated",
          "name": "_signUpProofData",
          "type": "tuple"
        }
      ],
      "name": "airdrop",
      "outputs": [],
      "stateMutability": "payable",
      "type": "function"
    },
    {
      "inputs": [],
      "name": "airdroppedReputation",
      "outputs": [
        {
          "internalType": "uint256",
          "name": "",
          "type": "uint256"
        }
      ],
      "stateMutability": "view",
      "type": "function"
    },
    {
      "inputs": [],
      "name": "attesterId",
      "outputs": [
        {
          "internalType": "uint256",
          "name": "",
          "type": "uint256"
        }
      ],
      "stateMutability": "view",
      "type": "function"
    },
    {
      "inputs": [],
      "name": "commentReputation",
      "outputs": [
        {
          "internalType": "uint256",
          "name": "",
          "type": "uint256"
        }
      ],
      "stateMutability": "view",
      "type": "function"
    },
    {
      "inputs": [
        {
          "internalType": "uint256",
          "name": "",
          "type": "uint256"
        }
      ],
      "name": "isEpochKeyGotAirdrop",
      "outputs": [
        {
          "internalType": "bool",
          "name": "",
          "type": "bool"
        }
      ],
      "stateMutability": "view",
      "type": "function"
    },
    {
      "inputs": [
        {
          "internalType": "uint256",
          "name": "postId",
          "type": "uint256"
        },
        {
          "internalType": "uint256",
          "name": "commentId",
          "type": "uint256"
        },
        {
          "internalType": "string",
          "name": "hashedContent",
          "type": "string"
        },
        {
          "components": [
            {
              "internalType": "uint256[]",
              "name": "repNullifiers",
              "type": "uint256[]"
            },
            {
              "internalType": "uint256",
              "name": "epoch",
              "type": "uint256"
            },
            {
              "internalType": "uint256",
              "name": "epochKey",
              "type": "uint256"
            },
            {
              "internalType": "uint256",
              "name": "globalStateTree",
              "type": "uint256"
            },
            {
              "internalType": "uint256",
              "name": "attesterId",
              "type": "uint256"
            },
            {
              "internalType": "uint256",
              "name": "proveReputationAmount",
              "type": "uint256"
            },
            {
              "internalType": "uint256",
              "name": "minRep",
              "type": "uint256"
            },
            {
              "internalType": "uint256",
              "name": "proveGraffiti",
              "type": "uint256"
            },
            {
              "internalType": "uint256",
              "name": "graffitiPreImage",
              "type": "uint256"
            },
            {
              "internalType": "uint256[8]",
              "name": "proof",
              "type": "uint256[8]"
            }
          ],
          "internalType": "struct UnirepParameters.ReputationProofRelated",
          "name": "_proofRelated",
          "type": "tuple"
        }
      ],
      "name": "leaveComment",
      "outputs": [],
      "stateMutability": "payable",
      "type": "function"
    },
    {
      "inputs": [],
      "name": "postReputation",
      "outputs": [
        {
          "internalType": "uint256",
          "name": "",
          "type": "uint256"
        }
      ],
      "stateMutability": "view",
      "type": "function"
    },
    {
      "inputs": [
        {
          "internalType": "uint256",
          "name": "_outputBlindedUserState",
          "type": "uint256"
        },
        {
          "internalType": "uint256",
          "name": "_outputBlindedHashChain",
          "type": "uint256"
        },
        {
          "internalType": "uint256",
          "name": "_inputBlindedUserState",
          "type": "uint256"
        },
        {
          "internalType": "uint256[8]",
          "name": "_proof",
          "type": "uint256[8]"
        }
      ],
      "name": "processAttestations",
      "outputs": [],
      "stateMutability": "nonpayable",
      "type": "function"
    },
    {
      "inputs": [
        {
          "internalType": "uint256",
          "name": "postId",
          "type": "uint256"
        },
        {
          "internalType": "string",
          "name": "hashedContent",
          "type": "string"
        },
        {
          "components": [
            {
              "internalType": "uint256[]",
              "name": "repNullifiers",
              "type": "uint256[]"
            },
            {
              "internalType": "uint256",
              "name": "epoch",
              "type": "uint256"
            },
            {
              "internalType": "uint256",
              "name": "epochKey",
              "type": "uint256"
            },
            {
              "internalType": "uint256",
              "name": "globalStateTree",
              "type": "uint256"
            },
            {
              "internalType": "uint256",
              "name": "attesterId",
              "type": "uint256"
            },
            {
              "internalType": "uint256",
              "name": "proveReputationAmount",
              "type": "uint256"
            },
            {
              "internalType": "uint256",
              "name": "minRep",
              "type": "uint256"
            },
            {
              "internalType": "uint256",
              "name": "proveGraffiti",
              "type": "uint256"
            },
            {
              "internalType": "uint256",
              "name": "graffitiPreImage",
              "type": "uint256"
            },
            {
              "internalType": "uint256[8]",
              "name": "proof",
              "type": "uint256[8]"
            }
          ],
          "internalType": "struct UnirepParameters.ReputationProofRelated",
          "name": "_proofRelated",
          "type": "tuple"
        }
      ],
      "name": "publishPost",
      "outputs": [],
      "stateMutability": "payable",
      "type": "function"
    },
    {
      "inputs": [
        {
          "internalType": "uint256",
          "name": "_blindedUserState",
          "type": "uint256"
        },
        {
          "internalType": "uint256",
          "name": "_blindedHashChain",
          "type": "uint256"
        },
        {
          "internalType": "uint256",
          "name": "_GSTRoot",
          "type": "uint256"
        },
        {
          "internalType": "uint256[8]",
          "name": "_proof",
          "type": "uint256[8]"
        }
      ],
      "name": "startUserStateTransition",
      "outputs": [],
      "stateMutability": "nonpayable",
      "type": "function"
    },
    {
      "inputs": [],
      "name": "unirep",
      "outputs": [
        {
          "internalType": "contract Unirep",
          "name": "",
          "type": "address"
        }
      ],
      "stateMutability": "view",
      "type": "function"
    },
    {
      "inputs": [
        {
          "components": [
            {
              "internalType": "uint256",
              "name": "newGlobalStateTreeLeaf",
              "type": "uint256"
            },
            {
              "internalType": "uint256[]",
              "name": "epkNullifiers",
              "type": "uint256[]"
            },
            {
              "internalType": "uint256",
              "name": "transitionFromEpoch",
              "type": "uint256"
            },
            {
              "internalType": "uint256[]",
              "name": "blindedUserStates",
              "type": "uint256[]"
            },
            {
              "internalType": "uint256",
              "name": "fromGlobalStateTree",
              "type": "uint256"
            },
            {
              "internalType": "uint256[]",
              "name": "blindedHashChains",
              "type": "uint256[]"
            },
            {
              "internalType": "uint256",
              "name": "fromEpochTree",
              "type": "uint256"
            },
            {
              "internalType": "uint256[8]",
              "name": "proof",
              "type": "uint256[8]"
            }
          ],
          "internalType": "struct UnirepParameters.UserTransitionedRelated",
          "name": "userTransitionedData",
          "type": "tuple"
        },
        {
          "internalType": "uint256[]",
          "name": "proofIndexes",
          "type": "uint256[]"
        }
      ],
      "name": "updateUserStateRoot",
      "outputs": [],
      "stateMutability": "nonpayable",
      "type": "function"
    },
    {
      "inputs": [
        {
          "internalType": "uint256",
          "name": "_identityCommitment",
          "type": "uint256"
        }
      ],
      "name": "userSignUp",
      "outputs": [],
      "stateMutability": "nonpayable",
      "type": "function"
    },
    {
      "inputs": [
        {
          "internalType": "uint256",
          "name": "_globalStateTree",
          "type": "uint256"
        },
        {
          "internalType": "uint256",
          "name": "_epoch",
          "type": "uint256"
        },
        {
          "internalType": "uint256",
          "name": "_epochKey",
          "type": "uint256"
        },
        {
          "internalType": "uint256[8]",
          "name": "_proof",
          "type": "uint256[8]"
        }
      ],
      "name": "verifyEpochKeyValidity",
      "outputs": [
        {
          "internalType": "bool",
          "name": "",
          "type": "bool"
        }
      ],
      "stateMutability": "view",
      "type": "function"
    },
    {
      "inputs": [
        {
          "internalType": "uint256",
          "name": "_outputBlindedUserState",
          "type": "uint256"
        },
        {
          "internalType": "uint256",
          "name": "_outputBlindedHashChain",
          "type": "uint256"
        },
        {
          "internalType": "uint256",
          "name": "_inputBlindedUserState",
          "type": "uint256"
        },
        {
          "internalType": "uint256[8]",
          "name": "_proof",
          "type": "uint256[8]"
        }
      ],
      "name": "verifyProcessAttestationProof",
      "outputs": [
        {
          "internalType": "bool",
          "name": "",
          "type": "bool"
        }
      ],
      "stateMutability": "view",
      "type": "function"
    },
    {
      "inputs": [
        {
          "internalType": "uint256[]",
          "name": "_repNullifiers",
          "type": "uint256[]"
        },
        {
          "internalType": "uint256",
          "name": "_epoch",
          "type": "uint256"
        },
        {
          "internalType": "uint256",
          "name": "_epochKey",
          "type": "uint256"
        },
        {
          "internalType": "uint256",
          "name": "_globalStateTree",
          "type": "uint256"
        },
        {
          "internalType": "uint256",
          "name": "_attesterId",
          "type": "uint256"
        },
        {
          "internalType": "uint256",
          "name": "_proveReputationAmount",
          "type": "uint256"
        },
        {
          "internalType": "uint256",
          "name": "_minRep",
          "type": "uint256"
        },
        {
          "internalType": "uint256",
          "name": "_proveGraffiti",
          "type": "uint256"
        },
        {
          "internalType": "uint256",
          "name": "_graffitiPreImage",
          "type": "uint256"
        },
        {
          "internalType": "uint256[8]",
          "name": "_proof",
          "type": "uint256[8]"
        }
      ],
      "name": "verifyReputation",
      "outputs": [
        {
          "internalType": "bool",
          "name": "",
          "type": "bool"
        }
      ],
      "stateMutability": "view",
      "type": "function"
    },
    {
      "inputs": [
        {
          "internalType": "uint256",
          "name": "_blindedUserState",
          "type": "uint256"
        },
        {
          "internalType": "uint256",
          "name": "_blindedHashChain",
          "type": "uint256"
        },
        {
          "internalType": "uint256",
          "name": "_GSTRoot",
          "type": "uint256"
        },
        {
          "internalType": "uint256[8]",
          "name": "_proof",
          "type": "uint256[8]"
        }
      ],
      "name": "verifyStartTransitionProof",
      "outputs": [
        {
          "internalType": "bool",
          "name": "",
          "type": "bool"
        }
      ],
      "stateMutability": "view",
      "type": "function"
    },
    {
      "inputs": [
        {
          "internalType": "uint256",
          "name": "_epoch",
          "type": "uint256"
        },
        {
          "internalType": "uint256",
          "name": "_epochKey",
          "type": "uint256"
        },
        {
          "internalType": "uint256",
          "name": "_globalStateTree",
          "type": "uint256"
        },
        {
          "internalType": "uint256",
          "name": "_attesterId",
          "type": "uint256"
        },
        {
          "internalType": "uint256[8]",
          "name": "_proof",
          "type": "uint256[8]"
        }
      ],
      "name": "verifyUserSignUp",
      "outputs": [
        {
          "internalType": "bool",
          "name": "",
          "type": "bool"
        }
      ],
      "stateMutability": "view",
      "type": "function"
    },
    {
      "inputs": [
        {
          "internalType": "uint256",
          "name": "_newGlobalStateTreeLeaf",
          "type": "uint256"
        },
        {
          "internalType": "uint256[]",
          "name": "_epkNullifiers",
          "type": "uint256[]"
        },
        {
          "internalType": "uint256",
          "name": "_transitionFromEpoch",
          "type": "uint256"
        },
        {
          "internalType": "uint256[]",
          "name": "_blindedUserStates",
          "type": "uint256[]"
        },
        {
          "internalType": "uint256",
          "name": "_fromGlobalStateTree",
          "type": "uint256"
        },
        {
          "internalType": "uint256[]",
          "name": "_blindedHashChains",
          "type": "uint256[]"
        },
        {
          "internalType": "uint256",
          "name": "_fromEpochTree",
          "type": "uint256"
        },
        {
          "internalType": "uint256[8]",
          "name": "_proof",
          "type": "uint256[8]"
        }
      ],
      "name": "verifyUserStateTransition",
      "outputs": [
        {
          "internalType": "bool",
          "name": "",
          "type": "bool"
        }
      ],
      "stateMutability": "view",
      "type": "function"
    },
    {
      "inputs": [
        {
          "internalType": "uint256",
          "name": "upvoteValue",
          "type": "uint256"
        },
        {
          "internalType": "uint256",
          "name": "downvoteValue",
          "type": "uint256"
        },
        {
          "internalType": "uint256",
          "name": "toEpochKey",
          "type": "uint256"
        },
        {
          "internalType": "uint256",
          "name": "toEpochKeyProofIndex",
          "type": "uint256"
        },
        {
          "components": [
            {
              "internalType": "uint256[]",
              "name": "repNullifiers",
              "type": "uint256[]"
            },
            {
              "internalType": "uint256",
              "name": "epoch",
              "type": "uint256"
            },
            {
              "internalType": "uint256",
              "name": "epochKey",
              "type": "uint256"
            },
            {
              "internalType": "uint256",
              "name": "globalStateTree",
              "type": "uint256"
            },
            {
              "internalType": "uint256",
              "name": "attesterId",
              "type": "uint256"
            },
            {
              "internalType": "uint256",
              "name": "proveReputationAmount",
              "type": "uint256"
            },
            {
              "internalType": "uint256",
              "name": "minRep",
              "type": "uint256"
            },
            {
              "internalType": "uint256",
              "name": "proveGraffiti",
              "type": "uint256"
            },
            {
              "internalType": "uint256",
              "name": "graffitiPreImage",
              "type": "uint256"
            },
            {
              "internalType": "uint256[8]",
              "name": "proof",
              "type": "uint256[8]"
            }
          ],
          "internalType": "struct UnirepParameters.ReputationProofRelated",
          "name": "_proofRelated",
          "type": "tuple"
        }
      ],
      "name": "vote",
      "outputs": [],
      "stateMutability": "payable",
      "type": "function"
    }
  ],
  "bytecode": "0x6101006040523480156200001257600080fd5b5060405162002477380380620024778339810160408190526200003591620001a8565b600080546001600160a01b0319166001600160a01b0386811691909117808355604080516315b7d18d60e21b8152905191909216926356df4634926004808201939182900301818387803b1580156200008d57600080fd5b505af1158015620000a2573d6000803e3d6000fd5b5050600054604051630a5500c360e41b81526001600160a01b03909116925063a5500c309150620000d890849060040162000220565b600060405180830381600087803b158015620000f357600080fd5b505af115801562000108573d6000803e3d6000fd5b505060005460405163131a91ad60e01b81526001600160a01b03909116925063131a91ad91506200013e9030906004016200020c565b60206040518083038186803b1580156200015757600080fd5b505afa1580156200016c573d6000803e3d6000fd5b505050506040513d601f19601f82011682018060405250810190620001929190620001f3565b60805260a09290925260c05260e0525062000229565b60008060008060808587031215620001be578384fd5b84516001600160a01b0381168114620001d5578485fd5b60208601516040870151606090970151919890975090945092505050565b60006020828403121562000205578081fd5b5051919050565b6001600160a01b0391909116815260200190565b90815260200190565b60805160a05160c05160e0516121e362000294600039600061036d015260008181610cc30152610fb10152600081816104480152610aa101526000818161078b015281816107fa01528181610ae401528181610d0601528181610ee8015261100a01526121e36000f3fe60806040526004361061011f5760003560e01c80638edd4a88116100a0578063eefd016d11610064578063eefd016d146102d6578063f20ca7ff146102e9578063f73c8ebb14610309578063f85ec78f14610329578063fc14478a1461034b5761011f565b80638edd4a8814610259578063923894531461026c578063a710d60f14610281578063b876ed71146102a1578063bf8036ba146102c15761011f565b8063436b32d8116100e7578063436b32d8146101d3578063494e2171146101f35780635b3745b5146102135780637efef9c8146102335780637fad3c4a146102465761011f565b8063297905bb146101245780632caf5ef81461014f5780633334dc5b1461017c578063350f1ba61461019c578063417b16e3146101b1575b600080fd5b34801561013057600080fd5b5061013961036b565b6040516101469190612008565b60405180910390f35b34801561015b57600080fd5b5061016f61016a3660046116fe565b61038f565b6040516101469190611b52565b34801561018857600080fd5b5061016f6101973660046114b5565b6103a4565b3480156101a857600080fd5b50610139610446565b3480156101bd57600080fd5b506101d16101cc3660046116fe565b61046a565b005b3480156101df57600080fd5b5061016f6101ee366004611909565b61057d565b3480156101ff57600080fd5b506101d161020e3660046115ed565b610610565b34801561021f57600080fd5b5061016f61022e3660046118c9565b610678565b6101d1610241366004611953565b610708565b6101d16102543660046117eb565b610a9f565b6101d1610267366004611855565b610cc1565b34801561027857600080fd5b50610139610ee6565b34801561028d57600080fd5b5061016f61029c3660046118c9565b610f0a565b3480156102ad57600080fd5b506101d16102bc3660046118c9565b610f41565b3480156102cd57600080fd5b50610139610faf565b6101d16102e4366004611578565b610fd3565b3480156102f557600080fd5b5061016f61030436600461172e565b611142565b34801561031557600080fd5b506101d16103243660046118c9565b6111de565b34801561033557600080fd5b5061033e611214565b6040516101469190611b5d565b34801561035757600080fd5b5061016f6103663660046118c9565b611223565b7f000000000000000000000000000000000000000000000000000000000000000081565b60016020526000908152604090205460ff1681565b60008054604051633334dc5b60e01b81526001600160a01b0390911690633334dc5b906103e7908e908e908e908e908e908e908e908e908e908e90600401611aeb565b60206040518083038186803b1580156103ff57600080fd5b505afa158015610413573d6000803e3d6000fd5b505050506040513d601f19601f820116820180604052508101906104379190611551565b9b9a5050505050505050505050565b7f000000000000000000000000000000000000000000000000000000000000000081565b60005460405163417b16e360e01b81526001600160a01b039091169063417b16e39061049a908490600401612008565b600060405180830381600087803b1580156104b457600080fd5b505af11580156104c8573d6000803e3d6000fd5b505050508060008054906101000a90046001600160a01b03166001600160a01b031663766718086040518163ffffffff1660e01b815260040160206040518083038186803b15801561051957600080fd5b505afa15801561052d573d6000803e3d6000fd5b505050506040513d601f19601f820116820180604052508101906105519190611716565b6040517fe43c2a2d0ba801f72bfb7df8c728919e1886a4d9a6a12d45eeee7417bae2f15590600090a350565b6000805460405163086d665b60e31b81526001600160a01b039091169063436b32d8906105b690899089908990899089906004016120eb565b60206040518083038186803b1580156105ce57600080fd5b505afa1580156105e2573d6000803e3d6000fd5b505050506040513d601f19601f820116820180604052508101906106069190611551565b9695505050505050565b60005460405163494e217160e01b81526001600160a01b039091169063494e2171906106429085908590600401611f5c565b600060405180830381600087803b15801561065c57600080fd5b505af1158015610670573d6000803e3d6000fd5b505050505050565b60008054604051635b3745b560e01b81526001600160a01b0390911690635b3745b5906106af9088908890889088906004016120bf565b60206040518083038186803b1580156106c757600080fd5b505afa1580156106db573d6000803e3d6000fd5b505050506040513d601f19601f820116820180604052508101906106ff9190611551565b95945050505050565b6000610714858761214a565b90506000811161073f5760405162461bcd60e51b815260040161073690611b96565b60405180910390fd5b6107498587612162565b156107665760405162461bcd60e51b815260040161073690611d8d565b808260a00151146107895760405162461bcd60e51b815260040161073690611c59565b7f00000000000000000000000000000000000000000000000000000000000000008260800151146107cc5760405162461bcd60e51b815260040161073690611be8565b81604001518414156107f05760405162461bcd60e51b815260040161073690611dea565b6107f861125a565b7f000000000000000000000000000000000000000000000000000000000000000081526020808201889052604080830188905260005481516310737dd760e31b815291516001600160a01b03909116926385c053ae92849263839beeb892600480840193919291829003018186803b15801561087357600080fd5b505afa158015610887573d6000803e3d6000fd5b505050506040513d601f19601f820116820180604052508101906108ab9190611716565b8388886040518563ffffffff1660e01b81526004016108cc93929190611ec3565b6000604051808303818588803b1580156108e557600080fd5b505af11580156108f9573d6000803e3d6000fd5b5050600054604080516310737dd760e31b815290516001600160a01b03909216945063606736fb935084925063839beeb8916004808301926020929190829003018186803b15801561094a57600080fd5b505afa15801561095e573d6000803e3d6000fd5b505050506040513d601f19601f820116820180604052508101906109829190611716565b856040518363ffffffff1660e01b815260040161099f9190611f05565b6000604051808303818588803b1580156109b857600080fd5b505af11580156109cc573d6000803e3d6000fd5b505050505084836040015160008054906101000a90046001600160a01b03166001600160a01b031663766718086040518163ffffffff1660e01b815260040160206040518083038186803b158015610a2357600080fd5b505afa158015610a37573d6000803e3d6000fd5b505050506040513d601f19601f82011682018060405250810190610a5b9190611716565b7f731a73efdffa7012ae9555a57a4d4695affe9ebbc4c1c502671a5266ce07b7188a8a88604051610a8e939291906120a0565b60405180910390a450505050505050565b7f00000000000000000000000000000000000000000000000000000000000000008160a0015114610ae25760405162461bcd60e51b815260040161073690611cc4565b7f0000000000000000000000000000000000000000000000000000000000000000816080015114610b255760405162461bcd60e51b815260040161073690611be8565b600054604080516310737dd760e31b815290516001600160a01b039092169163606736fb91839163839beeb891600480820192602092909190829003018186803b158015610b7257600080fd5b505afa158015610b86573d6000803e3d6000fd5b505050506040513d601f19601f82011682018060405250810190610baa9190611716565b836040518363ffffffff1660e01b8152600401610bc79190611f05565b6000604051808303818588803b158015610be057600080fd5b505af1158015610bf4573d6000803e3d6000fd5b505050505080604001518360008054906101000a90046001600160a01b03166001600160a01b031663766718086040518163ffffffff1660e01b815260040160206040518083038186803b158015610c4b57600080fd5b505afa158015610c5f573d6000803e3d6000fd5b505050506040513d601f19601f82011682018060405250810190610c839190611716565b7f75e73523c6e553cd453bf96364f0c2a742339f9ce3556904ce56b16a3fb5b2d18585604051610cb4929190611b71565b60405180910390a4505050565b7f00000000000000000000000000000000000000000000000000000000000000008160a0015114610d045760405162461bcd60e51b815260040161073690611e47565b7f0000000000000000000000000000000000000000000000000000000000000000816080015114610d475760405162461bcd60e51b815260040161073690611be8565b600054604080516310737dd760e31b815290516001600160a01b039092169163606736fb91839163839beeb891600480820192602092909190829003018186803b158015610d9457600080fd5b505afa158015610da8573d6000803e3d6000fd5b505050506040513d601f19601f82011682018060405250810190610dcc9190611716565b836040518363ffffffff1660e01b8152600401610de99190611f05565b6000604051808303818588803b158015610e0257600080fd5b505af1158015610e16573d6000803e3d6000fd5b505050505080604001518460008054906101000a90046001600160a01b03166001600160a01b031663766718086040518163ffffffff1660e01b815260040160206040518083038186803b158015610e6d57600080fd5b505afa158015610e81573d6000803e3d6000fd5b505050506040513d601f19601f82011682018060405250810190610ea59190611716565b7f61df249775ea9dc39887e4de8e40151b679389aae51c429f0dd83d3a94b97fe2868686604051610ed893929190612075565b60405180910390a450505050565b7f000000000000000000000000000000000000000000000000000000000000000081565b6000805460405163a710d60f60e01b81526001600160a01b039091169063a710d60f906106af9088908890889088906004016120bf565b60005460405163b876ed7160e01b81526001600160a01b039091169063b876ed7190610f779087908790879087906004016120bf565b600060405180830381600087803b158015610f9157600080fd5b505af1158015610fa5573d6000803e3d6000fd5b5050505050505050565b7f000000000000000000000000000000000000000000000000000000000000000081565b60208082015160009081526001909152604090205460ff16156110085760405162461bcd60e51b815260040161073690611d3d565b7f000000000000000000000000000000000000000000000000000000000000000081606001511461104b5760405162461bcd60e51b815260040161073690611be8565b600054604080516310737dd760e31b815290516001600160a01b0390921691632c6eb17f91839163839beeb891600480820192602092909190829003018186803b15801561109857600080fd5b505afa1580156110ac573d6000803e3d6000fd5b505050506040513d601f19601f820116820180604052508101906110d09190611716565b836040518363ffffffff1660e01b81526004016110ed9190611f18565b6000604051808303818588803b15801561110657600080fd5b505af115801561111a573d6000803e3d6000fd5b505050602092830151600090815260019384905260409020805460ff19169093179092555050565b6000805460405163f20ca7ff60e01b81526001600160a01b039091169063f20ca7ff90611181908c908c908c908c908c908c908c908c90600401612011565b60206040518083038186803b15801561119957600080fd5b505afa1580156111ad573d6000803e3d6000fd5b505050506040513d601f19601f820116820180604052508101906111d19190611551565b9998505050505050505050565b60005460405163f73c8ebb60e01b81526001600160a01b039091169063f73c8ebb90610f779087908790879087906004016120bf565b6000546001600160a01b031681565b60008054604051637e0a23c560e11b81526001600160a01b039091169063fc14478a906106af9088908890889088906004016120bf565b6040518060a0016040528060008152602001600081526020016000815260200160008152602001600081525090565b80610100810183101561129b57600080fd5b92915050565b600082601f8301126112b1578081fd5b60405161010080820182811067ffffffffffffffff821117156112d6576112d6612197565b60405281848281018710156112e9578485fd5b8492505b600883101561130d578035825260019290920191602091820191016112ed565b509195945050505050565b600082601f830112611328578081fd5b8135602067ffffffffffffffff82111561134457611344612197565b808202611352828201612120565b83815282810190868401838801850189101561136c578687fd5b8693505b8584101561138e578035835260019390930192918401918401611370565b50979650505050505050565b600082601f8301126113aa578081fd5b813567ffffffffffffffff8111156113c4576113c4612197565b6113d7601f8201601f1916602001612120565b8181528460208386010111156113eb578283fd5b816020850160208301379081016020019190915292915050565b60006102208284031215611417578081fd5b611422610140612120565b9050813567ffffffffffffffff81111561143b57600080fd5b61144784828501611318565b8252506020820135602082015260408201356040820152606082013560608201526080820135608082015260a082013560a082015260c082013560c082015260e082013560e08201526101008083013581830152506101206114ab848285016112a1565b9082015292915050565b6000806000806000806000806000806102208b8d0312156114d4578586fd5b8a3567ffffffffffffffff8111156114ea578687fd5b6114f68d828e01611318565b9a505060208b0135985060408b0135975060608b0135965060808b0135955060a08b0135945060c08b0135935060e08b013592506101008b013591506115408c6101208d01611289565b90509295989b9194979a5092959850565b600060208284031215611562578081fd5b81518015158114611571578182fd5b9392505050565b6000610180828403121561158a578081fd5b60405160a0810181811067ffffffffffffffff821117156115ad576115ad612197565b8060405250823581526020830135602082015260408301356040820152606083013560608201526115e184608085016112a1565b60808201529392505050565b600080604083850312156115ff578182fd5b823567ffffffffffffffff80821115611616578384fd5b908401906101e0828703121561162a578384fd5b611635610100612120565b8235815260208301358281111561164a578586fd5b61165688828601611318565b60208301525060408301356040820152606083013582811115611677578586fd5b61168388828601611318565b6060830152506080830135608082015260a0830135828111156116a4578586fd5b6116b088828601611318565b60a08301525060c083013560c08201526116cd8760e085016112a1565b60e0820152935060208501359150808211156116e7578283fd5b506116f485828601611318565b9150509250929050565b60006020828403121561170f578081fd5b5035919050565b600060208284031215611727578081fd5b5051919050565b6000806000806000806000806101e0898b03121561174a578182fd5b88359750602089013567ffffffffffffffff80821115611768578384fd5b6117748c838d01611318565b985060408b0135975060608b0135915080821115611790578384fd5b61179c8c838d01611318565b965060808b0135955060a08b01359150808211156117b8578384fd5b506117c58b828c01611318565b93505060c089013591506117dc8a60e08b016112a1565b90509295985092959890939650565b6000806000606084860312156117ff578081fd5b83359250602084013567ffffffffffffffff8082111561181d578283fd5b6118298783880161139a565b9350604086013591508082111561183e578283fd5b5061184b86828701611405565b9150509250925092565b6000806000806080858703121561186a578182fd5b8435935060208501359250604085013567ffffffffffffffff8082111561188f578384fd5b61189b8883890161139a565b935060608701359150808211156118b0578283fd5b506118bd87828801611405565b91505092959194509250565b60008060008061016085870312156118df578182fd5b8435935060208501359250604085013591506118fe8660608701611289565b905092959194509250565b60008060008060006101808688031215611921578283fd5b853594506020860135935060408601359250606086013591506119478760808801611289565b90509295509295909350565b600080600080600060a0868803121561196a578283fd5b85359450602086013593506040860135925060608601359150608086013567ffffffffffffffff81111561199c578182fd5b6119a888828901611405565b9150509295509295909350565b8060005b60088110156119d85781518452602093840193909101906001016119b9565b50505050565b6000815180845260208085019450808401835b83811015611a0d578151875295820195908201906001016119f1565b509495945050505050565b60008151808452815b81811015611a3d57602081850181015186830182015201611a21565b81811115611a4e5782602083870101525b50601f01601f19169290920160200192915050565b60006102208251818552611a79828601826119de565b9150506020830151602085015260408301516040850152606083015160608501526080830151608085015260a083015160a085015260c083015160c085015260e083015160e085015261010080840151818601525061012080840151611ae1828701826119b5565b5090949350505050565b6000610220808301818452611b00818f6119de565b92508c60208501528b60408501528a60608501528960808501528860a08501528760c08501528660e085015261010091508582850152818561012086013760009052509b9a5050505050505050505050565b901515815260200190565b6001600160a01b0391909116815260200190565b600060408252611b846040830185611a18565b82810360208401526106ff8185611a63565b60208082526032908201527f556e6972657020536f6369616c3a2073686f756c64207375626d6974206120706040820152716f73697469766520766f74652076616c756560701b606082015260800190565b6020808252604b908201527f556e6972657020536f6369616c3a207375626d697420612070726f6f6620776960408201527f746820646966666572656e742061747465737465722049442066726f6d20556e60608201526a1a5c995c0814dbd8da585b60aa1b608082015260a00190565b60208082526045908201527f556e6972657020536f6369616c3a207375626d697420646966666572656e742060408201527f6e756c6c69666965727320616d6f756e742066726f6d2074686520766f74652060608201526476616c756560d81b608082015260a00190565b60208082526053908201527f556e6972657020536f6369616c3a207375626d697420646966666572656e742060408201527f6e756c6c69666965727320616d6f756e742066726f6d207468652072657175696060820152721c995908185b5bdd5b9d08199bdc881c1bdcdd606a1b608082015260a00190565b60208082526030908201527f556e6972657020536f6369616c3a207468652065706f6368206b65792068617360408201526f081899595b88185a5c991c9bdc1c195960821b606082015260800190565b6020808252603a908201527f556e6972657020536f6369616c3a2073686f756c64206f6e6c792063686f6f7360408201527f6520746f207570766f7465206f7220746f20646f776e766f7465000000000000606082015260800190565b6020808252603f908201527f556e6972657020536f6369616c3a2065706f6368206b65792073656e6465722060408201527f616e642072656365697665722063616e6e6f74206265207468652073616d6500606082015260800190565b60208082526056908201527f556e6972657020536f6369616c3a207375626d697420646966666572656e742060408201527f6e756c6c69666965727320616d6f756e742066726f6d207468652072657175696060820152751c995908185b5bdd5b9d08199bdc8818dbdb5b595b9d60521b608082015260a00190565b835181526020808501519082015260408085015190820152606080850151908201526080938401519381019390935260a083019190915260c082015260e00190565b6000602082526115716020830184611a63565b600061018082019050825182526020830151602083015260408301516040830152606083015160608301526080830151611f5560808401826119b5565b5092915050565b6000604082528351604083015260208401516101e06060840152611f846102208401826119de565b9050604085015160808401526060850151603f19808584030160a0860152611fac83836119de565b9250608087015160c086015260a08701519150808584030160e086015250611fd482826119de565b91505060c085015161010084015260e0850151611ff56101208501826119b5565b5082810360208401526106ff81856119de565b90815260200190565b60006101e08a835280602084015261202b8184018b6119de565b9050886040840152828103606084015261204581896119de565b905086608084015282810360a084015261205f81876119de565b9150508360c08301526111d160e08301846119b5565b60008482526060602083015261208e6060830185611a18565b82810360408401526106068185611a63565b6000848252836020830152606060408301526106ff6060830184611a63565b848152602081018490526040810183905261016081016101008360608401376000815295945050505050565b600061018082019050868252856020830152846040830152836060830152610100836080840137600081529695505050505050565b60405181810167ffffffffffffffff8111828210171561214257612142612197565b604052919050565b6000821982111561215d5761215d612181565b500190565b600081600019048311821515161561217c5761217c612181565b500290565b634e487b7160e01b600052601160045260246000fd5b634e487b7160e01b600052604160045260246000fdfea26469706673582212208df46d2013c86293ef3e32ea2f326146a9d0b861a20edce3a8e103e6035635c364736f6c63430008000033",
  "linkReferences": {},
  "deployedLinkReferences": {}
}