{
  "_format": "hh-sol-artifact-1",
  "contractName": "UnirepSocial",
  "sourceName": "contracts/UnirepSocial.sol",
  "abi": [
    {
      "inputs": [
        {
          "internalType": "contract Unirep",
          "name": "_unirepContract",
          "type": "address"
        },
        {
          "internalType": "uint256",
          "name": "_postReputation",
          "type": "uint256"
        },
        {
          "internalType": "uint256",
          "name": "_commentReputation",
          "type": "uint256"
        },
        {
          "internalType": "uint256",
          "name": "_airdroppedReputation",
          "type": "uint256"
        }
      ],
      "stateMutability": "nonpayable",
      "type": "constructor"
    },
    {
      "anonymous": false,
      "inputs": [
        {
          "indexed": true,
          "internalType": "uint256",
          "name": "_epoch",
          "type": "uint256"
        },
        {
          "indexed": true,
          "internalType": "uint256",
          "name": "_epochKey",
          "type": "uint256"
        },
        {
          "components": [
            {
              "internalType": "uint256",
              "name": "epoch",
              "type": "uint256"
            },
            {
              "internalType": "uint256",
              "name": "epochKey",
              "type": "uint256"
            },
            {
              "internalType": "uint256",
              "name": "globalStateTree",
              "type": "uint256"
            },
            {
              "internalType": "uint256",
              "name": "attesterId",
              "type": "uint256"
            },
            {
              "internalType": "uint256",
              "name": "userHasSignedUp",
              "type": "uint256"
            },
            {
              "internalType": "uint256[8]",
              "name": "proof",
              "type": "uint256[8]"
            }
          ],
          "indexed": false,
          "internalType": "struct UnirepParameters.SignUpProofRelated",
          "name": "proofRelated",
          "type": "tuple"
        }
      ],
      "name": "AirdropSubmitted",
      "type": "event"
    },
    {
      "anonymous": false,
      "inputs": [
        {
          "indexed": true,
          "internalType": "uint256",
          "name": "_epoch",
          "type": "uint256"
        },
        {
          "indexed": true,
          "internalType": "uint256",
          "name": "_postId",
          "type": "uint256"
        },
        {
          "indexed": true,
          "internalType": "uint256",
          "name": "_epochKey",
          "type": "uint256"
        },
        {
          "indexed": false,
          "internalType": "uint256",
          "name": "_commentId",
          "type": "uint256"
        },
        {
          "indexed": false,
          "internalType": "string",
          "name": "_hahsedContent",
          "type": "string"
        },
        {
          "components": [
            {
              "internalType": "uint256[]",
              "name": "repNullifiers",
              "type": "uint256[]"
            },
            {
              "internalType": "uint256",
              "name": "epoch",
              "type": "uint256"
            },
            {
              "internalType": "uint256",
              "name": "epochKey",
              "type": "uint256"
            },
            {
              "internalType": "uint256",
              "name": "globalStateTree",
              "type": "uint256"
            },
            {
              "internalType": "uint256",
              "name": "attesterId",
              "type": "uint256"
            },
            {
              "internalType": "uint256",
              "name": "proveReputationAmount",
              "type": "uint256"
            },
            {
              "internalType": "uint256",
              "name": "minRep",
              "type": "uint256"
            },
            {
              "internalType": "uint256",
              "name": "proveGraffiti",
              "type": "uint256"
            },
            {
              "internalType": "uint256",
              "name": "graffitiPreImage",
              "type": "uint256"
            },
            {
              "internalType": "uint256[8]",
              "name": "proof",
              "type": "uint256[8]"
            }
          ],
          "indexed": false,
          "internalType": "struct UnirepParameters.ReputationProofRelated",
          "name": "proofRelated",
          "type": "tuple"
        }
      ],
      "name": "CommentSubmitted",
      "type": "event"
    },
    {
      "anonymous": false,
      "inputs": [
        {
          "indexed": true,
          "internalType": "uint256",
          "name": "_epoch",
          "type": "uint256"
        },
        {
          "indexed": true,
          "internalType": "uint256",
          "name": "_postId",
          "type": "uint256"
        },
        {
          "indexed": true,
          "internalType": "uint256",
          "name": "_epochKey",
          "type": "uint256"
        },
        {
          "indexed": false,
          "internalType": "string",
          "name": "_hahsedContent",
          "type": "string"
        },
        {
          "components": [
            {
              "internalType": "uint256[]",
              "name": "repNullifiers",
              "type": "uint256[]"
            },
            {
              "internalType": "uint256",
              "name": "epoch",
              "type": "uint256"
            },
            {
              "internalType": "uint256",
              "name": "epochKey",
              "type": "uint256"
            },
            {
              "internalType": "uint256",
              "name": "globalStateTree",
              "type": "uint256"
            },
            {
              "internalType": "uint256",
              "name": "attesterId",
              "type": "uint256"
            },
            {
              "internalType": "uint256",
              "name": "proveReputationAmount",
              "type": "uint256"
            },
            {
              "internalType": "uint256",
              "name": "minRep",
              "type": "uint256"
            },
            {
              "internalType": "uint256",
              "name": "proveGraffiti",
              "type": "uint256"
            },
            {
              "internalType": "uint256",
              "name": "graffitiPreImage",
              "type": "uint256"
            },
            {
              "internalType": "uint256[8]",
              "name": "proof",
              "type": "uint256[8]"
            }
          ],
          "indexed": false,
          "internalType": "struct UnirepParameters.ReputationProofRelated",
          "name": "proofRelated",
          "type": "tuple"
        }
      ],
      "name": "PostSubmitted",
      "type": "event"
    },
    {
      "anonymous": false,
      "inputs": [
        {
          "indexed": true,
          "internalType": "uint256",
          "name": "_epoch",
          "type": "uint256"
        },
        {
          "indexed": true,
          "internalType": "uint256",
          "name": "_identityCommitment",
          "type": "uint256"
        }
      ],
      "name": "UserSignedUp",
      "type": "event"
    },
    {
      "anonymous": false,
      "inputs": [
        {
          "indexed": true,
          "internalType": "uint256",
          "name": "_epoch",
          "type": "uint256"
        },
        {
          "indexed": true,
          "internalType": "uint256",
          "name": "_fromEpochKey",
          "type": "uint256"
        },
        {
          "indexed": true,
          "internalType": "uint256",
          "name": "_toEpochKey",
          "type": "uint256"
        },
        {
          "indexed": false,
          "internalType": "uint256",
          "name": "upvoteValue",
          "type": "uint256"
        },
        {
          "indexed": false,
          "internalType": "uint256",
          "name": "downvoteValue",
          "type": "uint256"
        },
        {
          "components": [
            {
              "internalType": "uint256[]",
              "name": "repNullifiers",
              "type": "uint256[]"
            },
            {
              "internalType": "uint256",
              "name": "epoch",
              "type": "uint256"
            },
            {
              "internalType": "uint256",
              "name": "epochKey",
              "type": "uint256"
            },
            {
              "internalType": "uint256",
              "name": "globalStateTree",
              "type": "uint256"
            },
            {
              "internalType": "uint256",
              "name": "attesterId",
              "type": "uint256"
            },
            {
              "internalType": "uint256",
              "name": "proveReputationAmount",
              "type": "uint256"
            },
            {
              "internalType": "uint256",
              "name": "minRep",
              "type": "uint256"
            },
            {
              "internalType": "uint256",
              "name": "proveGraffiti",
              "type": "uint256"
            },
            {
              "internalType": "uint256",
              "name": "graffitiPreImage",
              "type": "uint256"
            },
            {
              "internalType": "uint256[8]",
              "name": "proof",
              "type": "uint256[8]"
            }
          ],
          "indexed": false,
          "internalType": "struct UnirepParameters.ReputationProofRelated",
          "name": "proofRelated",
          "type": "tuple"
        }
      ],
      "name": "VoteSubmitted",
      "type": "event"
    },
    {
      "inputs": [
        {
          "components": [
            {
              "internalType": "uint256",
              "name": "epoch",
              "type": "uint256"
            },
            {
              "internalType": "uint256",
              "name": "epochKey",
              "type": "uint256"
            },
            {
              "internalType": "uint256",
              "name": "globalStateTree",
              "type": "uint256"
            },
            {
              "internalType": "uint256",
              "name": "attesterId",
              "type": "uint256"
            },
            {
              "internalType": "uint256",
              "name": "userHasSignedUp",
              "type": "uint256"
            },
            {
              "internalType": "uint256[8]",
              "name": "proof",
              "type": "uint256[8]"
            }
          ],
          "internalType": "struct UnirepParameters.SignUpProofRelated",
          "name": "_signUpProofData",
          "type": "tuple"
        }
      ],
      "name": "airdrop",
      "outputs": [],
      "stateMutability": "payable",
      "type": "function"
    },
    {
      "inputs": [],
      "name": "airdroppedReputation",
      "outputs": [
        {
          "internalType": "uint256",
          "name": "",
          "type": "uint256"
        }
      ],
      "stateMutability": "view",
      "type": "function"
    },
    {
      "inputs": [],
      "name": "attesterId",
      "outputs": [
        {
          "internalType": "uint256",
          "name": "",
          "type": "uint256"
        }
      ],
      "stateMutability": "view",
      "type": "function"
    },
    {
      "inputs": [],
      "name": "commentReputation",
      "outputs": [
        {
          "internalType": "uint256",
          "name": "",
          "type": "uint256"
        }
      ],
      "stateMutability": "view",
      "type": "function"
    },
    {
      "inputs": [
        {
          "internalType": "uint256",
          "name": "",
          "type": "uint256"
        }
      ],
      "name": "isCommentIDSubmitted",
      "outputs": [
        {
          "internalType": "bool",
          "name": "",
          "type": "bool"
        }
      ],
      "stateMutability": "view",
      "type": "function"
    },
    {
      "inputs": [
        {
          "internalType": "uint256",
          "name": "",
          "type": "uint256"
        }
      ],
      "name": "isEpochKeyGotAirdrop",
      "outputs": [
        {
          "internalType": "bool",
          "name": "",
          "type": "bool"
        }
      ],
      "stateMutability": "view",
      "type": "function"
    },
    {
      "inputs": [
        {
          "internalType": "uint256",
          "name": "",
          "type": "uint256"
        }
      ],
      "name": "isPostIDSubmitted",
      "outputs": [
        {
          "internalType": "bool",
          "name": "",
          "type": "bool"
        }
      ],
      "stateMutability": "view",
      "type": "function"
    },
    {
      "inputs": [
        {
          "internalType": "uint256",
          "name": "postId",
          "type": "uint256"
        },
        {
          "internalType": "uint256",
          "name": "commentId",
          "type": "uint256"
        },
        {
          "internalType": "string",
          "name": "content",
          "type": "string"
        },
        {
          "components": [
            {
              "internalType": "uint256[]",
              "name": "repNullifiers",
              "type": "uint256[]"
            },
            {
              "internalType": "uint256",
              "name": "epoch",
              "type": "uint256"
            },
            {
              "internalType": "uint256",
              "name": "epochKey",
              "type": "uint256"
            },
            {
              "internalType": "uint256",
              "name": "globalStateTree",
              "type": "uint256"
            },
            {
              "internalType": "uint256",
              "name": "attesterId",
              "type": "uint256"
            },
            {
              "internalType": "uint256",
              "name": "proveReputationAmount",
              "type": "uint256"
            },
            {
              "internalType": "uint256",
              "name": "minRep",
              "type": "uint256"
            },
            {
              "internalType": "uint256",
              "name": "proveGraffiti",
              "type": "uint256"
            },
            {
              "internalType": "uint256",
              "name": "graffitiPreImage",
              "type": "uint256"
            },
            {
              "internalType": "uint256[8]",
              "name": "proof",
              "type": "uint256[8]"
            }
          ],
          "internalType": "struct UnirepParameters.ReputationProofRelated",
          "name": "_proofRelated",
          "type": "tuple"
        }
      ],
      "name": "leaveComment",
      "outputs": [],
      "stateMutability": "payable",
      "type": "function"
    },
    {
      "inputs": [],
      "name": "postReputation",
      "outputs": [
        {
          "internalType": "uint256",
          "name": "",
          "type": "uint256"
        }
      ],
      "stateMutability": "view",
      "type": "function"
    },
    {
      "inputs": [
        {
          "internalType": "uint256",
          "name": "_outputBlindedUserState",
          "type": "uint256"
        },
        {
          "internalType": "uint256",
          "name": "_outputBlindedHashChain",
          "type": "uint256"
        },
        {
          "internalType": "uint256",
          "name": "_inputBlindedUserState",
          "type": "uint256"
        },
        {
          "internalType": "uint256[8]",
          "name": "_proof",
          "type": "uint256[8]"
        }
      ],
      "name": "processAttestations",
      "outputs": [],
      "stateMutability": "nonpayable",
      "type": "function"
    },
    {
      "inputs": [
        {
          "internalType": "uint256",
          "name": "postId",
          "type": "uint256"
        },
        {
          "internalType": "string",
          "name": "content",
          "type": "string"
        },
        {
          "components": [
            {
              "internalType": "uint256[]",
              "name": "repNullifiers",
              "type": "uint256[]"
            },
            {
              "internalType": "uint256",
              "name": "epoch",
              "type": "uint256"
            },
            {
              "internalType": "uint256",
              "name": "epochKey",
              "type": "uint256"
            },
            {
              "internalType": "uint256",
              "name": "globalStateTree",
              "type": "uint256"
            },
            {
              "internalType": "uint256",
              "name": "attesterId",
              "type": "uint256"
            },
            {
              "internalType": "uint256",
              "name": "proveReputationAmount",
              "type": "uint256"
            },
            {
              "internalType": "uint256",
              "name": "minRep",
              "type": "uint256"
            },
            {
              "internalType": "uint256",
              "name": "proveGraffiti",
              "type": "uint256"
            },
            {
              "internalType": "uint256",
              "name": "graffitiPreImage",
              "type": "uint256"
            },
            {
              "internalType": "uint256[8]",
              "name": "proof",
              "type": "uint256[8]"
            }
          ],
          "internalType": "struct UnirepParameters.ReputationProofRelated",
          "name": "_proofRelated",
          "type": "tuple"
        }
      ],
      "name": "publishPost",
      "outputs": [],
      "stateMutability": "payable",
      "type": "function"
    },
    {
      "inputs": [
        {
          "internalType": "uint256",
          "name": "_blindedUserState",
          "type": "uint256"
        },
        {
          "internalType": "uint256",
          "name": "_blindedHashChain",
          "type": "uint256"
        },
        {
          "internalType": "uint256",
          "name": "_GSTRoot",
          "type": "uint256"
        },
        {
          "internalType": "uint256[8]",
          "name": "_proof",
          "type": "uint256[8]"
        }
      ],
      "name": "startUserStateTransition",
      "outputs": [],
      "stateMutability": "nonpayable",
      "type": "function"
    },
    {
      "inputs": [],
      "name": "unirep",
      "outputs": [
        {
          "internalType": "contract Unirep",
          "name": "",
          "type": "address"
        }
      ],
      "stateMutability": "view",
      "type": "function"
    },
    {
      "inputs": [
        {
          "components": [
            {
              "internalType": "uint256",
              "name": "newGlobalStateTreeLeaf",
              "type": "uint256"
            },
            {
              "internalType": "uint256[]",
              "name": "epkNullifiers",
              "type": "uint256[]"
            },
            {
              "internalType": "uint256",
              "name": "transitionFromEpoch",
              "type": "uint256"
            },
            {
              "internalType": "uint256[]",
              "name": "blindedUserStates",
              "type": "uint256[]"
            },
            {
              "internalType": "uint256",
              "name": "fromGlobalStateTree",
              "type": "uint256"
            },
            {
              "internalType": "uint256[]",
              "name": "blindedHashChains",
              "type": "uint256[]"
            },
            {
              "internalType": "uint256",
              "name": "fromEpochTree",
              "type": "uint256"
            },
            {
              "internalType": "uint256[8]",
              "name": "proof",
              "type": "uint256[8]"
            }
          ],
          "internalType": "struct UnirepParameters.UserTransitionedRelated",
          "name": "userTransitionedData",
          "type": "tuple"
        },
        {
          "internalType": "uint256[]",
          "name": "proofIndexes",
          "type": "uint256[]"
        }
      ],
      "name": "updateUserStateRoot",
      "outputs": [],
      "stateMutability": "nonpayable",
      "type": "function"
    },
    {
      "inputs": [
        {
          "internalType": "uint256",
          "name": "_identityCommitment",
          "type": "uint256"
        }
      ],
      "name": "userSignUp",
      "outputs": [],
      "stateMutability": "nonpayable",
      "type": "function"
    },
    {
      "inputs": [
        {
          "components": [
            {
              "internalType": "uint256",
              "name": "epoch",
              "type": "uint256"
            },
            {
              "internalType": "uint256",
              "name": "epochKey",
              "type": "uint256"
            },
            {
              "internalType": "uint256",
              "name": "globalStateTree",
              "type": "uint256"
            },
            {
              "internalType": "uint256",
              "name": "attesterId",
              "type": "uint256"
            },
            {
              "internalType": "uint256",
              "name": "userHasSignedUp",
              "type": "uint256"
            },
            {
              "internalType": "uint256[8]",
              "name": "proof",
              "type": "uint256[8]"
            }
          ],
          "internalType": "struct UnirepParameters.SignUpProofRelated",
          "name": "_signUpProofData",
          "type": "tuple"
        }
      ],
      "name": "userSignUpWithProof",
      "outputs": [],
      "stateMutability": "payable",
      "type": "function"
    },
    {
      "inputs": [
        {
          "internalType": "uint256",
          "name": "_globalStateTree",
          "type": "uint256"
        },
        {
          "internalType": "uint256",
          "name": "_epoch",
          "type": "uint256"
        },
        {
          "internalType": "uint256",
          "name": "_epochKey",
          "type": "uint256"
        },
        {
          "internalType": "uint256[8]",
          "name": "_proof",
          "type": "uint256[8]"
        }
      ],
      "name": "verifyEpochKeyValidity",
      "outputs": [
        {
          "internalType": "bool",
          "name": "",
          "type": "bool"
        }
      ],
      "stateMutability": "view",
      "type": "function"
    },
    {
      "inputs": [
        {
          "internalType": "uint256",
          "name": "_outputBlindedUserState",
          "type": "uint256"
        },
        {
          "internalType": "uint256",
          "name": "_outputBlindedHashChain",
          "type": "uint256"
        },
        {
          "internalType": "uint256",
          "name": "_inputBlindedUserState",
          "type": "uint256"
        },
        {
          "internalType": "uint256[8]",
          "name": "_proof",
          "type": "uint256[8]"
        }
      ],
      "name": "verifyProcessAttestationProof",
      "outputs": [
        {
          "internalType": "bool",
          "name": "",
          "type": "bool"
        }
      ],
      "stateMutability": "view",
      "type": "function"
    },
    {
      "inputs": [
        {
          "internalType": "uint256[]",
          "name": "_repNullifiers",
          "type": "uint256[]"
        },
        {
          "internalType": "uint256",
          "name": "_epoch",
          "type": "uint256"
        },
        {
          "internalType": "uint256",
          "name": "_epochKey",
          "type": "uint256"
        },
        {
          "internalType": "uint256",
          "name": "_globalStateTree",
          "type": "uint256"
        },
        {
          "internalType": "uint256",
          "name": "_attesterId",
          "type": "uint256"
        },
        {
          "internalType": "uint256",
          "name": "_proveReputationAmount",
          "type": "uint256"
        },
        {
          "internalType": "uint256",
          "name": "_minRep",
          "type": "uint256"
        },
        {
          "internalType": "uint256",
          "name": "_proveGraffiti",
          "type": "uint256"
        },
        {
          "internalType": "uint256",
          "name": "_graffitiPreImage",
          "type": "uint256"
        },
        {
          "internalType": "uint256[8]",
          "name": "_proof",
          "type": "uint256[8]"
        }
      ],
      "name": "verifyReputation",
      "outputs": [
        {
          "internalType": "bool",
          "name": "",
          "type": "bool"
        }
      ],
      "stateMutability": "view",
      "type": "function"
    },
    {
      "inputs": [
        {
          "internalType": "uint256",
          "name": "_blindedUserState",
          "type": "uint256"
        },
        {
          "internalType": "uint256",
          "name": "_blindedHashChain",
          "type": "uint256"
        },
        {
          "internalType": "uint256",
          "name": "_GSTRoot",
          "type": "uint256"
        },
        {
          "internalType": "uint256[8]",
          "name": "_proof",
          "type": "uint256[8]"
        }
      ],
      "name": "verifyStartTransitionProof",
      "outputs": [
        {
          "internalType": "bool",
          "name": "",
          "type": "bool"
        }
      ],
      "stateMutability": "view",
      "type": "function"
    },
    {
      "inputs": [
        {
          "internalType": "uint256",
          "name": "_epoch",
          "type": "uint256"
        },
        {
          "internalType": "uint256",
          "name": "_epochKey",
          "type": "uint256"
        },
        {
          "internalType": "uint256",
          "name": "_globalStateTree",
          "type": "uint256"
        },
        {
          "internalType": "uint256",
          "name": "_attesterId",
          "type": "uint256"
        },
        {
          "internalType": "uint256",
          "name": "_userHasSignedUp",
          "type": "uint256"
        },
        {
          "internalType": "uint256[8]",
          "name": "_proof",
          "type": "uint256[8]"
        }
      ],
      "name": "verifyUserSignUp",
      "outputs": [
        {
          "internalType": "bool",
          "name": "",
          "type": "bool"
        }
      ],
      "stateMutability": "view",
      "type": "function"
    },
    {
      "inputs": [
        {
          "internalType": "uint256",
          "name": "_newGlobalStateTreeLeaf",
          "type": "uint256"
        },
        {
          "internalType": "uint256[]",
          "name": "_epkNullifiers",
          "type": "uint256[]"
        },
        {
          "internalType": "uint256",
          "name": "_transitionFromEpoch",
          "type": "uint256"
        },
        {
          "internalType": "uint256[]",
          "name": "_blindedUserStates",
          "type": "uint256[]"
        },
        {
          "internalType": "uint256",
          "name": "_fromGlobalStateTree",
          "type": "uint256"
        },
        {
          "internalType": "uint256[]",
          "name": "_blindedHashChains",
          "type": "uint256[]"
        },
        {
          "internalType": "uint256",
          "name": "_fromEpochTree",
          "type": "uint256"
        },
        {
          "internalType": "uint256[8]",
          "name": "_proof",
          "type": "uint256[8]"
        }
      ],
      "name": "verifyUserStateTransition",
      "outputs": [
        {
          "internalType": "bool",
          "name": "",
          "type": "bool"
        }
      ],
      "stateMutability": "view",
      "type": "function"
    },
    {
      "inputs": [
        {
          "internalType": "uint256",
          "name": "upvoteValue",
          "type": "uint256"
        },
        {
          "internalType": "uint256",
          "name": "downvoteValue",
          "type": "uint256"
        },
        {
          "internalType": "uint256",
          "name": "toEpochKey",
          "type": "uint256"
        },
        {
          "internalType": "uint256",
          "name": "toEpochKeyProofIndex",
          "type": "uint256"
        },
        {
          "components": [
            {
              "internalType": "uint256[]",
              "name": "repNullifiers",
              "type": "uint256[]"
            },
            {
              "internalType": "uint256",
              "name": "epoch",
              "type": "uint256"
            },
            {
              "internalType": "uint256",
              "name": "epochKey",
              "type": "uint256"
            },
            {
              "internalType": "uint256",
              "name": "globalStateTree",
              "type": "uint256"
            },
            {
              "internalType": "uint256",
              "name": "attesterId",
              "type": "uint256"
            },
            {
              "internalType": "uint256",
              "name": "proveReputationAmount",
              "type": "uint256"
            },
            {
              "internalType": "uint256",
              "name": "minRep",
              "type": "uint256"
            },
            {
              "internalType": "uint256",
              "name": "proveGraffiti",
              "type": "uint256"
            },
            {
              "internalType": "uint256",
              "name": "graffitiPreImage",
              "type": "uint256"
            },
            {
              "internalType": "uint256[8]",
              "name": "proof",
              "type": "uint256[8]"
            }
          ],
          "internalType": "struct UnirepParameters.ReputationProofRelated",
          "name": "_proofRelated",
          "type": "tuple"
        }
      ],
      "name": "vote",
      "outputs": [],
      "stateMutability": "payable",
      "type": "function"
    }
  ],
  "bytecode": "0x6101006040523480156200001257600080fd5b506040516200290f3803806200290f8339810160408190526200003591620001a8565b600080546001600160a01b0319166001600160a01b0386811691909117808355604080516315b7d18d60e21b8152905191909216926356df4634926004808201939182900301818387803b1580156200008d57600080fd5b505af1158015620000a2573d6000803e3d6000fd5b5050600054604051630a5500c360e41b81526001600160a01b03909116925063a5500c309150620000d890849060040162000220565b600060405180830381600087803b158015620000f357600080fd5b505af115801562000108573d6000803e3d6000fd5b505060005460405163131a91ad60e01b81526001600160a01b03909116925063131a91ad91506200013e9030906004016200020c565b60206040518083038186803b1580156200015757600080fd5b505afa1580156200016c573d6000803e3d6000fd5b505050506040513d601f19601f82011682018060405250810190620001929190620001f3565b60805260a09290925260c05260e0525062000229565b60008060008060808587031215620001be578384fd5b84516001600160a01b0381168114620001d5578485fd5b60208601516040870151606090970151919890975090945092505050565b60006020828403121562000205578081fd5b5051919050565b6001600160a01b0391909116815260200190565b90815260200190565b60805160a05160c05160e0516126746200029b600039600061062b015260008181610f8501526113180152600081816107060152610cf201526000818161041f015281816109ad01528181610a1c01528181610d3501528181610fc8015281816111b9015261142201526126746000f3fe6080604052600436106101405760003560e01c806392389453116100b6578063f20ca7ff1161006f578063f20ca7ff1461032a578063f2800cc91461034a578063f488ea301461035d578063f73c8ebb1461037d578063f85ec78f1461039d578063fc14478a146103bf57610140565b80639238945314610280578063a710d60f14610295578063b876ed71146102b5578063be997571146102d5578063bf8036ba146102f5578063ef3b14071461030a57610140565b8063417b16e311610108578063417b16e3146101e7578063494e2171146102075780635b3745b5146102275780637efef9c8146102475780637fad3c4a1461025a5780638edd4a881461026d57610140565b806313b5360514610145578063297905bb1461015a5780632caf5ef8146101855780633334dc5b146101b2578063350f1ba6146101d2575b600080fd5b610158610153366004611836565b6103df565b005b34801561016657600080fd5b5061016f610629565b60405161017c9190612488565b60405180910390f35b34801561019157600080fd5b506101a56101a03660046119c6565b61064d565b60405161017c9190611e22565b3480156101be57600080fd5b506101a56101cd366004611773565b610662565b3480156101de57600080fd5b5061016f610704565b3480156101f357600080fd5b506101586102023660046119c6565b610728565b34801561021357600080fd5b506101586102223660046118b5565b61083b565b34801561023357600080fd5b506101a5610242366004611b91565b6108a3565b610158610255366004611bd1565b610933565b610158610268366004611ab3565b610cc1565b61015861027b366004611b1d565b610f21565b34801561028c57600080fd5b5061016f6111b7565b3480156102a157600080fd5b506101a56102b0366004611b91565b6111db565b3480156102c157600080fd5b506101586102d0366004611b91565b611212565b3480156102e157600080fd5b506101a56102f0366004611c33565b611280565b34801561030157600080fd5b5061016f611316565b34801561031657600080fd5b506101a56103253660046119c6565b61133a565b34801561033657600080fd5b506101a56103453660046119f6565b61134f565b610158610358366004611836565b6113eb565b34801561036957600080fd5b506101a56103783660046119c6565b611487565b34801561038957600080fd5b50610158610398366004611b91565b61149c565b3480156103a957600080fd5b506103b26114d2565b60405161017c9190611e2d565b3480156103cb57600080fd5b506101a56103da366004611b91565b6114e1565b60208082015160009081526001909152604090205460ff161561041d5760405162461bcd60e51b81526004016104149061204e565b60405180910390fd5b7f00000000000000000000000000000000000000000000000000000000000000008160600151146104605760405162461bcd60e51b815260040161041490611eb8565b6080810151156104825760405162461bcd60e51b8152600401610414906121bf565b600054604080516310737dd760e31b815290516001600160a01b039092169163bff3df4191839163839beeb891600480820192602092909190829003018186803b1580156104cf57600080fd5b505afa1580156104e3573d6000803e3d6000fd5b505050506040513d601f19601f8201168201806040525081019061050791906119de565b836040518363ffffffff1660e01b8152600401610524919061238e565b6000604051808303818588803b15801561053d57600080fd5b505af1158015610551573d6000803e3d6000fd5b5050505060208281018051600090815260018084526040808320805460ff1916909217909155915190548251630ecce30160e31b815292519194506001600160a01b03169263766718089260048082019391829003018186803b1580156105b757600080fd5b505afa1580156105cb573d6000803e3d6000fd5b505050506040513d601f19601f820116820180604052508101906105ef91906119de565b7fcdc7a13869e4f8a627dbe2aaaf80ccb2acf27bea2ab437cd6de6d6789d1697bb8360405161061e919061238e565b60405180910390a350565b7f000000000000000000000000000000000000000000000000000000000000000081565b60016020526000908152604090205460ff1681565b60008054604051633334dc5b60e01b81526001600160a01b0390911690633334dc5b906106a5908e908e908e908e908e908e908e908e908e908e90600401611dbb565b60206040518083038186803b1580156106bd57600080fd5b505afa1580156106d1573d6000803e3d6000fd5b505050506040513d601f19601f820116820180604052508101906106f5919061180f565b9b9a5050505050505050505050565b7f000000000000000000000000000000000000000000000000000000000000000081565b60005460405163417b16e360e01b81526001600160a01b039091169063417b16e390610758908490600401612488565b600060405180830381600087803b15801561077257600080fd5b505af1158015610786573d6000803e3d6000fd5b505050508060008054906101000a90046001600160a01b03166001600160a01b031663766718086040518163ffffffff1660e01b815260040160206040518083038186803b1580156107d757600080fd5b505afa1580156107eb573d6000803e3d6000fd5b505050506040513d601f19601f8201168201806040525081019061080f91906119de565b6040517fe43c2a2d0ba801f72bfb7df8c728919e1886a4d9a6a12d45eeee7417bae2f15590600090a350565b60005460405163494e217160e01b81526001600160a01b039091169063494e21719061086d90859085906004016123dc565b600060405180830381600087803b15801561088757600080fd5b505af115801561089b573d6000803e3d6000fd5b505050505050565b60008054604051635b3745b560e01b81526001600160a01b0390911690635b3745b5906108da908890889088908890600401612549565b60206040518083038186803b1580156108f257600080fd5b505afa158015610906573d6000803e3d6000fd5b505050506040513d601f19601f8201168201806040525081019061092a919061180f565b95945050505050565b600061093f85876125db565b9050600081116109615760405162461bcd60e51b815260040161041490611e66565b61096b85876125f3565b156109885760405162461bcd60e51b81526004016104149061209e565b808260a00151146109ab5760405162461bcd60e51b815260040161041490611f29565b7f00000000000000000000000000000000000000000000000000000000000000008260800151146109ee5760405162461bcd60e51b815260040161041490611eb8565b8160400151841415610a125760405162461bcd60e51b815260040161041490612162565b610a1a611518565b7f000000000000000000000000000000000000000000000000000000000000000081526020808201889052604080830188905260005481516310737dd760e31b815291516001600160a01b03909116926385c053ae92849263839beeb892600480840193919291829003018186803b158015610a9557600080fd5b505afa158015610aa9573d6000803e3d6000fd5b505050506040513d601f19601f82011682018060405250810190610acd91906119de565b8388886040518563ffffffff1660e01b8152600401610aee93929190612339565b6000604051808303818588803b158015610b0757600080fd5b505af1158015610b1b573d6000803e3d6000fd5b5050600054604080516310737dd760e31b815290516001600160a01b03909216945063606736fb935084925063839beeb8916004808301926020929190829003018186803b158015610b6c57600080fd5b505afa158015610b80573d6000803e3d6000fd5b505050506040513d601f19601f82011682018060405250810190610ba491906119de565b856040518363ffffffff1660e01b8152600401610bc1919061237b565b6000604051808303818588803b158015610bda57600080fd5b505af1158015610bee573d6000803e3d6000fd5b505050505084836040015160008054906101000a90046001600160a01b03166001600160a01b031663766718086040518163ffffffff1660e01b815260040160206040518083038186803b158015610c4557600080fd5b505afa158015610c59573d6000803e3d6000fd5b505050506040513d601f19601f82011682018060405250810190610c7d91906119de565b7f731a73efdffa7012ae9555a57a4d4695affe9ebbc4c1c502671a5266ce07b7188a8a88604051610cb09392919061252a565b60405180910390a450505050505050565b60008381526002602052604090205460ff1615610cf05760405162461bcd60e51b81526004016104149061200d565b7f00000000000000000000000000000000000000000000000000000000000000008160a0015114610d335760405162461bcd60e51b815260040161041490611f94565b7f0000000000000000000000000000000000000000000000000000000000000000816080015114610d765760405162461bcd60e51b815260040161041490611eb8565b600054604080516310737dd760e31b815290516001600160a01b039092169163606736fb91839163839beeb891600480820192602092909190829003018186803b158015610dc357600080fd5b505afa158015610dd7573d6000803e3d6000fd5b505050506040513d601f19601f82011682018060405250810190610dfb91906119de565b836040518363ffffffff1660e01b8152600401610e18919061237b565b6000604051808303818588803b158015610e3157600080fd5b505af1158015610e45573d6000803e3d6000fd5b5050506000858152600260209081526040808320805460ff191660011790558581015192548151630ecce30160e31b815291519395508894506001600160a01b031692637667180892600480840193919291829003018186803b158015610eab57600080fd5b505afa158015610ebf573d6000803e3d6000fd5b505050506040513d601f19601f82011682018060405250810190610ee391906119de565b7f75e73523c6e553cd453bf96364f0c2a742339f9ce3556904ce56b16a3fb5b2d18585604051610f14929190611e41565b60405180910390a4505050565b60008481526002602052604090205460ff161515600114610f545760405162461bcd60e51b815260040161041490612260565b60008381526003602052604090205460ff1615610f835760405162461bcd60e51b81526004016104149061221c565b7f00000000000000000000000000000000000000000000000000000000000000008160a0015114610fc65760405162461bcd60e51b8152600401610414906122bd565b7f00000000000000000000000000000000000000000000000000000000000000008160800151146110095760405162461bcd60e51b815260040161041490611eb8565b600054604080516310737dd760e31b815290516001600160a01b039092169163606736fb91839163839beeb891600480820192602092909190829003018186803b15801561105657600080fd5b505afa15801561106a573d6000803e3d6000fd5b505050506040513d601f19601f8201168201806040525081019061108e91906119de565b836040518363ffffffff1660e01b81526004016110ab919061237b565b6000604051808303818588803b1580156110c457600080fd5b505af11580156110d8573d6000803e3d6000fd5b5050506000858152600360209081526040808320805460ff191660011790558581015192548151630ecce30160e31b815291519395508994506001600160a01b031692637667180892600480840193919291829003018186803b15801561113e57600080fd5b505afa158015611152573d6000803e3d6000fd5b505050506040513d601f19601f8201168201806040525081019061117691906119de565b7f61df249775ea9dc39887e4de8e40151b679389aae51c429f0dd83d3a94b97fe28686866040516111a9939291906124f5565b60405180910390a450505050565b7f000000000000000000000000000000000000000000000000000000000000000081565b6000805460405163a710d60f60e01b81526001600160a01b039091169063a710d60f906108da908890889088908890600401612549565b60005460405163b876ed7160e01b81526001600160a01b039091169063b876ed7190611248908790879087908790600401612549565b600060405180830381600087803b15801561126257600080fd5b505af1158015611276573d6000803e3d6000fd5b5050505050505050565b6000805460405163be99757160e01b81526001600160a01b039091169063be997571906112bb908a908a908a908a908a908a90600401612575565b60206040518083038186803b1580156112d357600080fd5b505afa1580156112e7573d6000803e3d6000fd5b505050506040513d601f19601f8201168201806040525081019061130b919061180f565b979650505050505050565b7f000000000000000000000000000000000000000000000000000000000000000081565b60026020526000908152604090205460ff1681565b6000805460405163f20ca7ff60e01b81526001600160a01b039091169063f20ca7ff9061138e908c908c908c908c908c908c908c908c90600401612491565b60206040518083038186803b1580156113a657600080fd5b505afa1580156113ba573d6000803e3d6000fd5b505050506040513d601f19601f820116820180604052508101906113de919061180f565b9998505050505050505050565b60208082015160009081526001909152604090205460ff16156114205760405162461bcd60e51b81526004016104149061204e565b7f00000000000000000000000000000000000000000000000000000000000000008160600151146114635760405162461bcd60e51b815260040161041490611eb8565b80608001516001146104825760405162461bcd60e51b8152600401610414906120fb565b60036020526000908152604090205460ff1681565b60005460405163f73c8ebb60e01b81526001600160a01b039091169063f73c8ebb90611248908790879087908790600401612549565b6000546001600160a01b031681565b60008054604051637e0a23c560e11b81526001600160a01b039091169063fc14478a906108da908890889088908890600401612549565b6040518060a0016040528060008152602001600081526020016000815260200160008152602001600081525090565b80610100810183101561155957600080fd5b92915050565b600082601f83011261156f578081fd5b60405161010080820182811067ffffffffffffffff8211171561159457611594612628565b60405281848281018710156115a7578485fd5b8492505b60088310156115cb578035825260019290920191602091820191016115ab565b509195945050505050565b600082601f8301126115e6578081fd5b8135602067ffffffffffffffff82111561160257611602612628565b8082026116108282016125b1565b83815282810190868401838801850189101561162a578687fd5b8693505b8584101561164c57803583526001939093019291840191840161162e565b50979650505050505050565b600082601f830112611668578081fd5b813567ffffffffffffffff81111561168257611682612628565b611695601f8201601f19166020016125b1565b8181528460208386010111156116a9578283fd5b816020850160208301379081016020019190915292915050565b600061022082840312156116d5578081fd5b6116e06101406125b1565b9050813567ffffffffffffffff8111156116f957600080fd5b611705848285016115d6565b8252506020820135602082015260408201356040820152606082013560608201526080820135608082015260a082013560a082015260c082013560c082015260e082013560e08201526101008083013581830152506101206117698482850161155f565b9082015292915050565b6000806000806000806000806000806102208b8d031215611792578586fd5b8a3567ffffffffffffffff8111156117a8578687fd5b6117b48d828e016115d6565b9a505060208b0135985060408b0135975060608b0135965060808b0135955060a08b0135945060c08b0135935060e08b013592506101008b013591506117fe8c6101208d01611547565b90509295989b9194979a5092959850565b600060208284031215611820578081fd5b8151801515811461182f578182fd5b9392505050565b60006101a08284031215611848578081fd5b60405160c0810181811067ffffffffffffffff8211171561186b5761186b612628565b806040525082358152602083013560208201526040830135604082015260608301356060820152608083013560808201526118a98460a0850161155f565b60a08201529392505050565b600080604083850312156118c7578182fd5b823567ffffffffffffffff808211156118de578384fd5b908401906101e082870312156118f2578384fd5b6118fd6101006125b1565b82358152602083013582811115611912578586fd5b61191e888286016115d6565b6020830152506040830135604082015260608301358281111561193f578586fd5b61194b888286016115d6565b6060830152506080830135608082015260a08301358281111561196c578586fd5b611978888286016115d6565b60a08301525060c083013560c08201526119958760e0850161155f565b60e0820152935060208501359150808211156119af578283fd5b506119bc858286016115d6565b9150509250929050565b6000602082840312156119d7578081fd5b5035919050565b6000602082840312156119ef578081fd5b5051919050565b6000806000806000806000806101e0898b031215611a12578182fd5b88359750602089013567ffffffffffffffff80821115611a30578384fd5b611a3c8c838d016115d6565b985060408b0135975060608b0135915080821115611a58578384fd5b611a648c838d016115d6565b965060808b0135955060a08b0135915080821115611a80578384fd5b50611a8d8b828c016115d6565b93505060c08901359150611aa48a60e08b0161155f565b90509295985092959890939650565b600080600060608486031215611ac7578081fd5b83359250602084013567ffffffffffffffff80821115611ae5578283fd5b611af187838801611658565b93506040860135915080821115611b06578283fd5b50611b13868287016116c3565b9150509250925092565b60008060008060808587031215611b32578182fd5b8435935060208501359250604085013567ffffffffffffffff80821115611b57578384fd5b611b6388838901611658565b93506060870135915080821115611b78578283fd5b50611b85878288016116c3565b91505092959194509250565b6000806000806101608587031215611ba7578182fd5b843593506020850135925060408501359150611bc68660608701611547565b905092959194509250565b600080600080600060a08688031215611be8578283fd5b85359450602086013593506040860135925060608601359150608086013567ffffffffffffffff811115611c1a578182fd5b611c26888289016116c3565b9150509295509295909350565b6000806000806000806101a08789031215611c4c578384fd5b8635955060208701359450604087013593506060870135925060808701359150611c798860a08901611547565b90509295509295509295565b8060005b6008811015611ca8578151845260209384019390910190600101611c89565b50505050565b6000815180845260208085019450808401835b83811015611cdd57815187529582019590820190600101611cc1565b509495945050505050565b60008151808452815b81811015611d0d57602081850181015186830182015201611cf1565b81811115611d1e5782602083870101525b50601f01601f19169290920160200192915050565b60006102208251818552611d4982860182611cae565b9150506020830151602085015260408301516040850152606083015160608501526080830151608085015260a083015160a085015260c083015160c085015260e083015160e085015261010080840151818601525061012080840151611db182870182611c85565b5090949350505050565b6000610220808301818452611dd0818f611cae565b92508c60208501528b60408501528a60608501528960808501528860a08501528760c08501528660e085015261010091508582850152818561012086013760009052509b9a5050505050505050505050565b901515815260200190565b6001600160a01b0391909116815260200190565b600060408252611e546040830185611ce8565b828103602084015261092a8185611d33565b60208082526032908201527f556e6972657020536f6369616c3a2073686f756c64207375626d6974206120706040820152716f73697469766520766f74652076616c756560701b606082015260800190565b6020808252604b908201527f556e6972657020536f6369616c3a207375626d697420612070726f6f6620776960408201527f746820646966666572656e742061747465737465722049442066726f6d20556e60608201526a1a5c995c0814dbd8da585b60aa1b608082015260a00190565b60208082526045908201527f556e6972657020536f6369616c3a207375626d697420646966666572656e742060408201527f6e756c6c69666965727320616d6f756e742066726f6d2074686520766f74652060608201526476616c756560d81b608082015260a00190565b60208082526053908201527f556e6972657020536f6369616c3a207375626d697420646966666572656e742060408201527f6e756c6c69666965727320616d6f756e742066726f6d207468652072657175696060820152721c995908185b5bdd5b9d08199bdc881c1bdcdd606a1b608082015260a00190565b60208082526021908201527f556e6972657020536f6369616c3a206475706c69636174656420706f737420496040820152601160fa1b606082015260800190565b60208082526030908201527f556e6972657020536f6369616c3a207468652065706f6368206b65792068617360408201526f081899595b88185a5c991c9bdc1c195960821b606082015260800190565b6020808252603a908201527f556e6972657020536f6369616c3a2073686f756c64206f6e6c792063686f6f7360408201527f6520746f207570766f7465206f7220746f20646f776e766f7465000000000000606082015260800190565b60208082526041908201527f556e6972657020536f6369616c3a20757365722073686f756c6420686176652060408201527f7369676e656420757020696e20556e6972657020536f6369616c206265666f726060820152606560f81b608082015260a00190565b6020808252603f908201527f556e6972657020536f6369616c3a2065706f6368206b65792073656e6465722060408201527f616e642072656365697665722063616e6e6f74206265207468652073616d6500606082015260800190565b6020808252603e908201527f556e6972657020536f6369616c3a20757365722073686f756c64206e6f74207360408201527f69676e20757020696e20556e6972657020536f6369616c206265666f72650000606082015260800190565b60208082526024908201527f556e6972657020536f6369616c3a206475706c69636174656420636f6d6d656e6040820152631d08125160e21b606082015260800190565b60208082526037908201527f556e6972657020536f6369616c3a2073686f756c64206c6561766520636f6d6d60408201527f656e7420746f2061207375626d696974656420706f7374000000000000000000606082015260800190565b60208082526056908201527f556e6972657020536f6369616c3a207375626d697420646966666572656e742060408201527f6e756c6c69666965727320616d6f756e742066726f6d207468652072657175696060820152751c995908185b5bdd5b9d08199bdc8818dbdb5b595b9d60521b608082015260a00190565b835181526020808501519082015260408085015190820152606080850151908201526080938401519381019390935260a083019190915260c082015260e00190565b60006020825261182f6020830184611d33565b60006101a082019050825182526020830151602083015260408301516040830152606083015160608301526080830151608083015260a08301516123d560a0840182611c85565b5092915050565b6000604082528351604083015260208401516101e06060840152612404610220840182611cae565b9050604085015160808401526060850151603f19808584030160a086015261242c8383611cae565b9250608087015160c086015260a08701519150808584030160e0860152506124548282611cae565b91505060c085015161010084015260e0850151612475610120850182611c85565b50828103602084015261092a8185611cae565b90815260200190565b60006101e08a83528060208401526124ab8184018b611cae565b905088604084015282810360608401526124c58189611cae565b905086608084015282810360a08401526124df8187611cae565b9150508360c08301526113de60e0830184611c85565b60008482526060602083015261250e6060830185611ce8565b82810360408401526125208185611d33565b9695505050505050565b60008482528360208301526060604083015261092a6060830184611d33565b848152602081018490526040810183905261016081016101008360608401376000815295945050505050565b60006101a0820190508782528660208301528560408301528460608301528360808301526101008360a084013760008152979650505050505050565b60405181810167ffffffffffffffff811182821017156125d3576125d3612628565b604052919050565b600082198211156125ee576125ee612612565b500190565b600081600019048311821515161561260d5761260d612612565b500290565b634e487b7160e01b600052601160045260246000fd5b634e487b7160e01b600052604160045260246000fdfea264697066735822122076d2befd7058fdfe51a68094d41cf8575452f537c5ccc72cbf6d41c2b35caba164736f6c63430008000033",
  "linkReferences": {},
  "deployedLinkReferences": {}
}