{
  "_format": "hh-sol-artifact-1",
  "contractName": "UnirepSocial",
  "sourceName": "contracts/UnirepSocial.sol",
  "abi": [
    {
      "inputs": [
        {
          "internalType": "contract Unirep",
          "name": "_unirepContract",
          "type": "address"
        },
        {
          "internalType": "uint256",
          "name": "_postReputation",
          "type": "uint256"
        },
        {
          "internalType": "uint256",
          "name": "_commentReputation",
          "type": "uint256"
        },
        {
          "internalType": "uint256",
          "name": "_airdroppedReputation",
          "type": "uint256"
        }
      ],
      "stateMutability": "nonpayable",
      "type": "constructor"
    },
    {
      "anonymous": false,
      "inputs": [
        {
          "indexed": true,
          "internalType": "uint256",
          "name": "_epoch",
          "type": "uint256"
        },
        {
          "indexed": true,
          "internalType": "uint256",
          "name": "_epochKey",
          "type": "uint256"
        },
        {
          "components": [
            {
              "internalType": "uint256",
              "name": "epoch",
              "type": "uint256"
            },
            {
              "internalType": "uint256",
              "name": "epochKey",
              "type": "uint256"
            },
            {
              "internalType": "uint256",
              "name": "globalStateTree",
              "type": "uint256"
            },
            {
              "internalType": "uint256",
              "name": "attesterId",
              "type": "uint256"
            },
            {
              "internalType": "uint256",
              "name": "userHasSignedUp",
              "type": "uint256"
            },
            {
              "internalType": "uint256[8]",
              "name": "proof",
              "type": "uint256[8]"
            }
          ],
          "indexed": false,
          "internalType": "struct UnirepParameters.SignUpProofRelated",
          "name": "proofRelated",
          "type": "tuple"
        }
      ],
      "name": "AirdropSubmitted",
      "type": "event"
    },
    {
      "anonymous": false,
      "inputs": [
        {
          "indexed": true,
          "internalType": "uint256",
          "name": "_epoch",
          "type": "uint256"
        },
        {
          "indexed": true,
          "internalType": "uint256",
          "name": "_postId",
          "type": "uint256"
        },
        {
          "indexed": true,
          "internalType": "uint256",
          "name": "_epochKey",
          "type": "uint256"
        },
        {
          "indexed": false,
          "internalType": "uint256",
          "name": "_commentId",
          "type": "uint256"
        },
        {
          "indexed": false,
          "internalType": "string",
          "name": "_hahsedContent",
          "type": "string"
        },
        {
          "components": [
            {
              "internalType": "uint256[]",
              "name": "repNullifiers",
              "type": "uint256[]"
            },
            {
              "internalType": "uint256",
              "name": "epoch",
              "type": "uint256"
            },
            {
              "internalType": "uint256",
              "name": "epochKey",
              "type": "uint256"
            },
            {
              "internalType": "uint256",
              "name": "globalStateTree",
              "type": "uint256"
            },
            {
              "internalType": "uint256",
              "name": "attesterId",
              "type": "uint256"
            },
            {
              "internalType": "uint256",
              "name": "proveReputationAmount",
              "type": "uint256"
            },
            {
              "internalType": "uint256",
              "name": "minRep",
              "type": "uint256"
            },
            {
              "internalType": "uint256",
              "name": "proveGraffiti",
              "type": "uint256"
            },
            {
              "internalType": "uint256",
              "name": "graffitiPreImage",
              "type": "uint256"
            },
            {
              "internalType": "uint256[8]",
              "name": "proof",
              "type": "uint256[8]"
            }
          ],
          "indexed": false,
          "internalType": "struct UnirepParameters.ReputationProofRelated",
          "name": "proofRelated",
          "type": "tuple"
        }
      ],
      "name": "CommentSubmitted",
      "type": "event"
    },
    {
      "anonymous": false,
      "inputs": [
        {
          "indexed": true,
          "internalType": "uint256",
          "name": "_epoch",
          "type": "uint256"
        },
        {
          "indexed": true,
          "internalType": "uint256",
          "name": "_postId",
          "type": "uint256"
        },
        {
          "indexed": true,
          "internalType": "uint256",
          "name": "_epochKey",
          "type": "uint256"
        },
        {
          "indexed": false,
          "internalType": "string",
          "name": "_hahsedContent",
          "type": "string"
        },
        {
          "components": [
            {
              "internalType": "uint256[]",
              "name": "repNullifiers",
              "type": "uint256[]"
            },
            {
              "internalType": "uint256",
              "name": "epoch",
              "type": "uint256"
            },
            {
              "internalType": "uint256",
              "name": "epochKey",
              "type": "uint256"
            },
            {
              "internalType": "uint256",
              "name": "globalStateTree",
              "type": "uint256"
            },
            {
              "internalType": "uint256",
              "name": "attesterId",
              "type": "uint256"
            },
            {
              "internalType": "uint256",
              "name": "proveReputationAmount",
              "type": "uint256"
            },
            {
              "internalType": "uint256",
              "name": "minRep",
              "type": "uint256"
            },
            {
              "internalType": "uint256",
              "name": "proveGraffiti",
              "type": "uint256"
            },
            {
              "internalType": "uint256",
              "name": "graffitiPreImage",
              "type": "uint256"
            },
            {
              "internalType": "uint256[8]",
              "name": "proof",
              "type": "uint256[8]"
            }
          ],
          "indexed": false,
          "internalType": "struct UnirepParameters.ReputationProofRelated",
          "name": "proofRelated",
          "type": "tuple"
        }
      ],
      "name": "PostSubmitted",
      "type": "event"
    },
    {
      "anonymous": false,
      "inputs": [
        {
          "indexed": true,
          "internalType": "uint256",
          "name": "_epoch",
          "type": "uint256"
        },
        {
          "indexed": true,
          "internalType": "uint256",
          "name": "_identityCommitment",
          "type": "uint256"
        }
      ],
      "name": "UserSignedUp",
      "type": "event"
    },
    {
      "anonymous": false,
      "inputs": [
        {
          "indexed": true,
          "internalType": "uint256",
          "name": "_epoch",
          "type": "uint256"
        },
        {
          "indexed": true,
          "internalType": "uint256",
          "name": "_fromEpochKey",
          "type": "uint256"
        },
        {
          "indexed": true,
          "internalType": "uint256",
          "name": "_toEpochKey",
          "type": "uint256"
        },
        {
          "indexed": false,
          "internalType": "uint256",
          "name": "upvoteValue",
          "type": "uint256"
        },
        {
          "indexed": false,
          "internalType": "uint256",
          "name": "downvoteValue",
          "type": "uint256"
        },
        {
          "components": [
            {
              "internalType": "uint256[]",
              "name": "repNullifiers",
              "type": "uint256[]"
            },
            {
              "internalType": "uint256",
              "name": "epoch",
              "type": "uint256"
            },
            {
              "internalType": "uint256",
              "name": "epochKey",
              "type": "uint256"
            },
            {
              "internalType": "uint256",
              "name": "globalStateTree",
              "type": "uint256"
            },
            {
              "internalType": "uint256",
              "name": "attesterId",
              "type": "uint256"
            },
            {
              "internalType": "uint256",
              "name": "proveReputationAmount",
              "type": "uint256"
            },
            {
              "internalType": "uint256",
              "name": "minRep",
              "type": "uint256"
            },
            {
              "internalType": "uint256",
              "name": "proveGraffiti",
              "type": "uint256"
            },
            {
              "internalType": "uint256",
              "name": "graffitiPreImage",
              "type": "uint256"
            },
            {
              "internalType": "uint256[8]",
              "name": "proof",
              "type": "uint256[8]"
            }
          ],
          "indexed": false,
          "internalType": "struct UnirepParameters.ReputationProofRelated",
          "name": "proofRelated",
          "type": "tuple"
        }
      ],
      "name": "VoteSubmitted",
      "type": "event"
    },
    {
      "inputs": [
        {
          "components": [
            {
              "internalType": "uint256",
              "name": "epoch",
              "type": "uint256"
            },
            {
              "internalType": "uint256",
              "name": "epochKey",
              "type": "uint256"
            },
            {
              "internalType": "uint256",
              "name": "globalStateTree",
              "type": "uint256"
            },
            {
              "internalType": "uint256",
              "name": "attesterId",
              "type": "uint256"
            },
            {
              "internalType": "uint256",
              "name": "userHasSignedUp",
              "type": "uint256"
            },
            {
              "internalType": "uint256[8]",
              "name": "proof",
              "type": "uint256[8]"
            }
          ],
          "internalType": "struct UnirepParameters.SignUpProofRelated",
          "name": "_signUpProofData",
          "type": "tuple"
        }
      ],
      "name": "airdrop",
      "outputs": [],
      "stateMutability": "payable",
      "type": "function"
    },
    {
      "inputs": [],
      "name": "airdroppedReputation",
      "outputs": [
        {
          "internalType": "uint256",
          "name": "",
          "type": "uint256"
        }
      ],
      "stateMutability": "view",
      "type": "function"
    },
    {
      "inputs": [],
      "name": "attesterId",
      "outputs": [
        {
          "internalType": "uint256",
          "name": "",
          "type": "uint256"
        }
      ],
      "stateMutability": "view",
      "type": "function"
    },
    {
      "inputs": [],
      "name": "commentReputation",
      "outputs": [
        {
          "internalType": "uint256",
          "name": "",
          "type": "uint256"
        }
      ],
      "stateMutability": "view",
      "type": "function"
    },
    {
      "inputs": [
        {
          "internalType": "uint256",
          "name": "",
          "type": "uint256"
        }
      ],
      "name": "isCommentIDSubmitted",
      "outputs": [
        {
          "internalType": "bool",
          "name": "",
          "type": "bool"
        }
      ],
      "stateMutability": "view",
      "type": "function"
    },
    {
      "inputs": [
        {
          "internalType": "uint256",
          "name": "",
          "type": "uint256"
        }
      ],
      "name": "isEpochKeyGotAirdrop",
      "outputs": [
        {
          "internalType": "bool",
          "name": "",
          "type": "bool"
        }
      ],
      "stateMutability": "view",
      "type": "function"
    },
    {
      "inputs": [
        {
          "internalType": "uint256",
          "name": "",
          "type": "uint256"
        }
      ],
      "name": "isPostIDSubmitted",
      "outputs": [
        {
          "internalType": "bool",
          "name": "",
          "type": "bool"
        }
      ],
      "stateMutability": "view",
      "type": "function"
    },
    {
      "inputs": [
        {
          "internalType": "uint256",
          "name": "postId",
          "type": "uint256"
        },
        {
          "internalType": "uint256",
          "name": "commentId",
          "type": "uint256"
        },
        {
          "internalType": "string",
          "name": "content",
          "type": "string"
        },
        {
          "components": [
            {
              "internalType": "uint256[]",
              "name": "repNullifiers",
              "type": "uint256[]"
            },
            {
              "internalType": "uint256",
              "name": "epoch",
              "type": "uint256"
            },
            {
              "internalType": "uint256",
              "name": "epochKey",
              "type": "uint256"
            },
            {
              "internalType": "uint256",
              "name": "globalStateTree",
              "type": "uint256"
            },
            {
              "internalType": "uint256",
              "name": "attesterId",
              "type": "uint256"
            },
            {
              "internalType": "uint256",
              "name": "proveReputationAmount",
              "type": "uint256"
            },
            {
              "internalType": "uint256",
              "name": "minRep",
              "type": "uint256"
            },
            {
              "internalType": "uint256",
              "name": "proveGraffiti",
              "type": "uint256"
            },
            {
              "internalType": "uint256",
              "name": "graffitiPreImage",
              "type": "uint256"
            },
            {
              "internalType": "uint256[8]",
              "name": "proof",
              "type": "uint256[8]"
            }
          ],
          "internalType": "struct UnirepParameters.ReputationProofRelated",
          "name": "_proofRelated",
          "type": "tuple"
        }
      ],
      "name": "leaveComment",
      "outputs": [],
      "stateMutability": "payable",
      "type": "function"
    },
    {
      "inputs": [],
      "name": "postReputation",
      "outputs": [
        {
          "internalType": "uint256",
          "name": "",
          "type": "uint256"
        }
      ],
      "stateMutability": "view",
      "type": "function"
    },
    {
      "inputs": [
        {
          "internalType": "uint256",
          "name": "_outputBlindedUserState",
          "type": "uint256"
        },
        {
          "internalType": "uint256",
          "name": "_outputBlindedHashChain",
          "type": "uint256"
        },
        {
          "internalType": "uint256",
          "name": "_inputBlindedUserState",
          "type": "uint256"
        },
        {
          "internalType": "uint256[8]",
          "name": "_proof",
          "type": "uint256[8]"
        }
      ],
      "name": "processAttestations",
      "outputs": [],
      "stateMutability": "nonpayable",
      "type": "function"
    },
    {
      "inputs": [
        {
          "internalType": "uint256",
          "name": "postId",
          "type": "uint256"
        },
        {
          "internalType": "string",
          "name": "content",
          "type": "string"
        },
        {
          "components": [
            {
              "internalType": "uint256[]",
              "name": "repNullifiers",
              "type": "uint256[]"
            },
            {
              "internalType": "uint256",
              "name": "epoch",
              "type": "uint256"
            },
            {
              "internalType": "uint256",
              "name": "epochKey",
              "type": "uint256"
            },
            {
              "internalType": "uint256",
              "name": "globalStateTree",
              "type": "uint256"
            },
            {
              "internalType": "uint256",
              "name": "attesterId",
              "type": "uint256"
            },
            {
              "internalType": "uint256",
              "name": "proveReputationAmount",
              "type": "uint256"
            },
            {
              "internalType": "uint256",
              "name": "minRep",
              "type": "uint256"
            },
            {
              "internalType": "uint256",
              "name": "proveGraffiti",
              "type": "uint256"
            },
            {
              "internalType": "uint256",
              "name": "graffitiPreImage",
              "type": "uint256"
            },
            {
              "internalType": "uint256[8]",
              "name": "proof",
              "type": "uint256[8]"
            }
          ],
          "internalType": "struct UnirepParameters.ReputationProofRelated",
          "name": "_proofRelated",
          "type": "tuple"
        }
      ],
      "name": "publishPost",
      "outputs": [],
      "stateMutability": "payable",
      "type": "function"
    },
    {
      "inputs": [
        {
          "internalType": "uint256",
          "name": "_blindedUserState",
          "type": "uint256"
        },
        {
          "internalType": "uint256",
          "name": "_blindedHashChain",
          "type": "uint256"
        },
        {
          "internalType": "uint256",
          "name": "_GSTRoot",
          "type": "uint256"
        },
        {
          "internalType": "uint256[8]",
          "name": "_proof",
          "type": "uint256[8]"
        }
      ],
      "name": "startUserStateTransition",
      "outputs": [],
      "stateMutability": "nonpayable",
      "type": "function"
    },
    {
      "inputs": [],
      "name": "unirep",
      "outputs": [
        {
          "internalType": "contract Unirep",
          "name": "",
          "type": "address"
        }
      ],
      "stateMutability": "view",
      "type": "function"
    },
    {
      "inputs": [
        {
          "components": [
            {
              "internalType": "uint256",
              "name": "newGlobalStateTreeLeaf",
              "type": "uint256"
            },
            {
              "internalType": "uint256[]",
              "name": "epkNullifiers",
              "type": "uint256[]"
            },
            {
              "internalType": "uint256",
              "name": "transitionFromEpoch",
              "type": "uint256"
            },
            {
              "internalType": "uint256[]",
              "name": "blindedUserStates",
              "type": "uint256[]"
            },
            {
              "internalType": "uint256",
              "name": "fromGlobalStateTree",
              "type": "uint256"
            },
            {
              "internalType": "uint256[]",
              "name": "blindedHashChains",
              "type": "uint256[]"
            },
            {
              "internalType": "uint256",
              "name": "fromEpochTree",
              "type": "uint256"
            },
            {
              "internalType": "uint256[8]",
              "name": "proof",
              "type": "uint256[8]"
            }
          ],
          "internalType": "struct UnirepParameters.UserTransitionedRelated",
          "name": "userTransitionedData",
          "type": "tuple"
        },
        {
          "internalType": "uint256[]",
          "name": "proofIndexes",
          "type": "uint256[]"
        }
      ],
      "name": "updateUserStateRoot",
      "outputs": [],
      "stateMutability": "nonpayable",
      "type": "function"
    },
    {
      "inputs": [
        {
          "internalType": "uint256",
          "name": "_identityCommitment",
          "type": "uint256"
        }
      ],
      "name": "userSignUp",
      "outputs": [],
      "stateMutability": "nonpayable",
      "type": "function"
    },
    {
      "inputs": [
        {
          "internalType": "uint256",
          "name": "_globalStateTree",
          "type": "uint256"
        },
        {
          "internalType": "uint256",
          "name": "_epoch",
          "type": "uint256"
        },
        {
          "internalType": "uint256",
          "name": "_epochKey",
          "type": "uint256"
        },
        {
          "internalType": "uint256[8]",
          "name": "_proof",
          "type": "uint256[8]"
        }
      ],
      "name": "verifyEpochKeyValidity",
      "outputs": [
        {
          "internalType": "bool",
          "name": "",
          "type": "bool"
        }
      ],
      "stateMutability": "view",
      "type": "function"
    },
    {
      "inputs": [
        {
          "internalType": "uint256",
          "name": "_outputBlindedUserState",
          "type": "uint256"
        },
        {
          "internalType": "uint256",
          "name": "_outputBlindedHashChain",
          "type": "uint256"
        },
        {
          "internalType": "uint256",
          "name": "_inputBlindedUserState",
          "type": "uint256"
        },
        {
          "internalType": "uint256[8]",
          "name": "_proof",
          "type": "uint256[8]"
        }
      ],
      "name": "verifyProcessAttestationProof",
      "outputs": [
        {
          "internalType": "bool",
          "name": "",
          "type": "bool"
        }
      ],
      "stateMutability": "view",
      "type": "function"
    },
    {
      "inputs": [
        {
          "internalType": "uint256[]",
          "name": "_repNullifiers",
          "type": "uint256[]"
        },
        {
          "internalType": "uint256",
          "name": "_epoch",
          "type": "uint256"
        },
        {
          "internalType": "uint256",
          "name": "_epochKey",
          "type": "uint256"
        },
        {
          "internalType": "uint256",
          "name": "_globalStateTree",
          "type": "uint256"
        },
        {
          "internalType": "uint256",
          "name": "_attesterId",
          "type": "uint256"
        },
        {
          "internalType": "uint256",
          "name": "_proveReputationAmount",
          "type": "uint256"
        },
        {
          "internalType": "uint256",
          "name": "_minRep",
          "type": "uint256"
        },
        {
          "internalType": "uint256",
          "name": "_proveGraffiti",
          "type": "uint256"
        },
        {
          "internalType": "uint256",
          "name": "_graffitiPreImage",
          "type": "uint256"
        },
        {
          "internalType": "uint256[8]",
          "name": "_proof",
          "type": "uint256[8]"
        }
      ],
      "name": "verifyReputation",
      "outputs": [
        {
          "internalType": "bool",
          "name": "",
          "type": "bool"
        }
      ],
      "stateMutability": "view",
      "type": "function"
    },
    {
      "inputs": [
        {
          "internalType": "uint256",
          "name": "_blindedUserState",
          "type": "uint256"
        },
        {
          "internalType": "uint256",
          "name": "_blindedHashChain",
          "type": "uint256"
        },
        {
          "internalType": "uint256",
          "name": "_GSTRoot",
          "type": "uint256"
        },
        {
          "internalType": "uint256[8]",
          "name": "_proof",
          "type": "uint256[8]"
        }
      ],
      "name": "verifyStartTransitionProof",
      "outputs": [
        {
          "internalType": "bool",
          "name": "",
          "type": "bool"
        }
      ],
      "stateMutability": "view",
      "type": "function"
    },
    {
      "inputs": [
        {
          "internalType": "uint256",
          "name": "_epoch",
          "type": "uint256"
        },
        {
          "internalType": "uint256",
          "name": "_epochKey",
          "type": "uint256"
        },
        {
          "internalType": "uint256",
          "name": "_globalStateTree",
          "type": "uint256"
        },
        {
          "internalType": "uint256",
          "name": "_attesterId",
          "type": "uint256"
        },
        {
          "internalType": "uint256",
          "name": "_userHasSignedUp",
          "type": "uint256"
        },
        {
          "internalType": "uint256[8]",
          "name": "_proof",
          "type": "uint256[8]"
        }
      ],
      "name": "verifyUserSignUp",
      "outputs": [
        {
          "internalType": "bool",
          "name": "",
          "type": "bool"
        }
      ],
      "stateMutability": "view",
      "type": "function"
    },
    {
      "inputs": [
        {
          "internalType": "uint256",
          "name": "_newGlobalStateTreeLeaf",
          "type": "uint256"
        },
        {
          "internalType": "uint256[]",
          "name": "_epkNullifiers",
          "type": "uint256[]"
        },
        {
          "internalType": "uint256",
          "name": "_transitionFromEpoch",
          "type": "uint256"
        },
        {
          "internalType": "uint256[]",
          "name": "_blindedUserStates",
          "type": "uint256[]"
        },
        {
          "internalType": "uint256",
          "name": "_fromGlobalStateTree",
          "type": "uint256"
        },
        {
          "internalType": "uint256[]",
          "name": "_blindedHashChains",
          "type": "uint256[]"
        },
        {
          "internalType": "uint256",
          "name": "_fromEpochTree",
          "type": "uint256"
        },
        {
          "internalType": "uint256[8]",
          "name": "_proof",
          "type": "uint256[8]"
        }
      ],
      "name": "verifyUserStateTransition",
      "outputs": [
        {
          "internalType": "bool",
          "name": "",
          "type": "bool"
        }
      ],
      "stateMutability": "view",
      "type": "function"
    },
    {
      "inputs": [
        {
          "internalType": "uint256",
          "name": "upvoteValue",
          "type": "uint256"
        },
        {
          "internalType": "uint256",
          "name": "downvoteValue",
          "type": "uint256"
        },
        {
          "internalType": "uint256",
          "name": "toEpochKey",
          "type": "uint256"
        },
        {
          "internalType": "uint256",
          "name": "toEpochKeyProofIndex",
          "type": "uint256"
        },
        {
          "components": [
            {
              "internalType": "uint256[]",
              "name": "repNullifiers",
              "type": "uint256[]"
            },
            {
              "internalType": "uint256",
              "name": "epoch",
              "type": "uint256"
            },
            {
              "internalType": "uint256",
              "name": "epochKey",
              "type": "uint256"
            },
            {
              "internalType": "uint256",
              "name": "globalStateTree",
              "type": "uint256"
            },
            {
              "internalType": "uint256",
              "name": "attesterId",
              "type": "uint256"
            },
            {
              "internalType": "uint256",
              "name": "proveReputationAmount",
              "type": "uint256"
            },
            {
              "internalType": "uint256",
              "name": "minRep",
              "type": "uint256"
            },
            {
              "internalType": "uint256",
              "name": "proveGraffiti",
              "type": "uint256"
            },
            {
              "internalType": "uint256",
              "name": "graffitiPreImage",
              "type": "uint256"
            },
            {
              "internalType": "uint256[8]",
              "name": "proof",
              "type": "uint256[8]"
            }
          ],
          "internalType": "struct UnirepParameters.ReputationProofRelated",
          "name": "_proofRelated",
          "type": "tuple"
        }
      ],
      "name": "vote",
      "outputs": [],
      "stateMutability": "payable",
      "type": "function"
    }
  ],
  "bytecode": "0x6101006040523480156200001257600080fd5b50604051620027f3380380620027f38339810160408190526200003591620001a8565b600080546001600160a01b0319166001600160a01b0386811691909117808355604080516315b7d18d60e21b8152905191909216926356df4634926004808201939182900301818387803b1580156200008d57600080fd5b505af1158015620000a2573d6000803e3d6000fd5b5050600054604051630a5500c360e41b81526001600160a01b03909116925063a5500c309150620000d890849060040162000220565b600060405180830381600087803b158015620000f357600080fd5b505af115801562000108573d6000803e3d6000fd5b505060005460405163131a91ad60e01b81526001600160a01b03909116925063131a91ad91506200013e9030906004016200020c565b60206040518083038186803b1580156200015757600080fd5b505afa1580156200016c573d6000803e3d6000fd5b505050506040513d601f19601f82011682018060405250810190620001929190620001f3565b60805260a09290925260c05260e0525062000229565b60008060008060808587031215620001be578384fd5b84516001600160a01b0381168114620001d5578485fd5b60208601516040870151606090970151919890975090945092505050565b60006020828403121562000205578081fd5b5051919050565b6001600160a01b0391909116815260200190565b90815260200190565b60805160a05160c05160e05161255f6200029460003960006103c3015260008181610d2601526110b901526000818161049e0152610a9301526000818161074e015281816107bd01528181610ad601528181610d6901528181610f5a01526111c3015261255f6000f3fe6080604052600436106101355760003560e01c8063a710d60f116100ab578063f20ca7ff1161006f578063f20ca7ff1461030c578063f2800cc91461032c578063f488ea301461033f578063f73c8ebb1461035f578063f85ec78f1461037f578063fc14478a146103a157610135565b8063a710d60f14610277578063b876ed7114610297578063be997571146102b7578063bf8036ba146102d7578063ef3b1407146102ec57610135565b8063494e2171116100fd578063494e2171146101e95780635b3745b5146102095780637efef9c8146102295780637fad3c4a1461023c5780638edd4a881461024f578063923894531461026257610135565b8063297905bb1461013a5780632caf5ef8146101655780633334dc5b14610192578063350f1ba6146101b2578063417b16e3146101c7575b600080fd5b34801561014657600080fd5b5061014f6103c1565b60405161015c9190612373565b60405180910390f35b34801561017157600080fd5b5061018561018036600461190e565b6103e5565b60405161015c9190611d6a565b34801561019e57600080fd5b506101856101ad3660046116bb565b6103fa565b3480156101be57600080fd5b5061014f61049c565b3480156101d357600080fd5b506101e76101e236600461190e565b6104c0565b005b3480156101f557600080fd5b506101e76102043660046117fd565b6105d3565b34801561021557600080fd5b50610185610224366004611ad9565b61063b565b6101e7610237366004611b19565b6106cb565b6101e761024a3660046119fb565b610a62565b6101e761025d366004611a65565b610cc2565b34801561026e57600080fd5b5061014f610f58565b34801561028357600080fd5b50610185610292366004611ad9565b610f7c565b3480156102a357600080fd5b506101e76102b2366004611ad9565b610fb3565b3480156102c357600080fd5b506101856102d2366004611b7b565b611021565b3480156102e357600080fd5b5061014f6110b7565b3480156102f857600080fd5b5061018561030736600461190e565b6110db565b34801561031857600080fd5b5061018561032736600461193e565b6110f0565b6101e761033a36600461177e565b61118c565b34801561034b57600080fd5b5061018561035a36600461190e565b6113cf565b34801561036b57600080fd5b506101e761037a366004611ad9565b6113e4565b34801561038b57600080fd5b5061039461141a565b60405161015c9190611d75565b3480156103ad57600080fd5b506101856103bc366004611ad9565b611429565b7f000000000000000000000000000000000000000000000000000000000000000081565b60016020526000908152604090205460ff1681565b60008054604051633334dc5b60e01b81526001600160a01b0390911690633334dc5b9061043d908e908e908e908e908e908e908e908e908e908e90600401611d03565b60206040518083038186803b15801561045557600080fd5b505afa158015610469573d6000803e3d6000fd5b505050506040513d601f19601f8201168201806040525081019061048d9190611757565b9b9a5050505050505050505050565b7f000000000000000000000000000000000000000000000000000000000000000081565b60005460405163417b16e360e01b81526001600160a01b039091169063417b16e3906104f0908490600401612373565b600060405180830381600087803b15801561050a57600080fd5b505af115801561051e573d6000803e3d6000fd5b505050508060008054906101000a90046001600160a01b03166001600160a01b031663766718086040518163ffffffff1660e01b815260040160206040518083038186803b15801561056f57600080fd5b505afa158015610583573d6000803e3d6000fd5b505050506040513d601f19601f820116820180604052508101906105a79190611926565b6040517fe43c2a2d0ba801f72bfb7df8c728919e1886a4d9a6a12d45eeee7417bae2f15590600090a350565b60005460405163494e217160e01b81526001600160a01b039091169063494e21719061060590859085906004016122c7565b600060405180830381600087803b15801561061f57600080fd5b505af1158015610633573d6000803e3d6000fd5b505050505050565b60008054604051635b3745b560e01b81526001600160a01b0390911690635b3745b590610672908890889088908890600401612434565b60206040518083038186803b15801561068a57600080fd5b505afa15801561069e573d6000803e3d6000fd5b505050506040513d601f19601f820116820180604052508101906106c29190611757565b95945050505050565b60006106d785876124c6565b9050600081116107025760405162461bcd60e51b81526004016106f990611dae565b60405180910390fd5b61070c85876124de565b156107295760405162461bcd60e51b81526004016106f990611fe6565b808260a001511461074c5760405162461bcd60e51b81526004016106f990611e71565b7f000000000000000000000000000000000000000000000000000000000000000082608001511461078f5760405162461bcd60e51b81526004016106f990611e00565b81604001518414156107b35760405162461bcd60e51b81526004016106f9906120aa565b6107bb611460565b7f000000000000000000000000000000000000000000000000000000000000000081526020808201889052604080830188905260005481516310737dd760e31b815291516001600160a01b03909116926385c053ae92849263839beeb892600480840193919291829003018186803b15801561083657600080fd5b505afa15801561084a573d6000803e3d6000fd5b505050506040513d601f19601f8201168201806040525081019061086e9190611926565b8388886040518563ffffffff1660e01b815260040161088f93929190612224565b6000604051808303818588803b1580156108a857600080fd5b505af11580156108bc573d6000803e3d6000fd5b5050600054604080516310737dd760e31b815290516001600160a01b03909216945063606736fb935084925063839beeb8916004808301926020929190829003018186803b15801561090d57600080fd5b505afa158015610921573d6000803e3d6000fd5b505050506040513d601f19601f820116820180604052508101906109459190611926565b856040518363ffffffff1660e01b81526004016109629190612266565b6000604051808303818588803b15801561097b57600080fd5b505af115801561098f573d6000803e3d6000fd5b505050505084836040015160008054906101000a90046001600160a01b03166001600160a01b031663766718086040518163ffffffff1660e01b815260040160206040518083038186803b1580156109e657600080fd5b505afa1580156109fa573d6000803e3d6000fd5b505050506040513d601f19601f82011682018060405250810190610a1e9190611926565b7f731a73efdffa7012ae9555a57a4d4695affe9ebbc4c1c502671a5266ce07b7188a8a88604051610a5193929190612415565b60405180910390a450505050505050565b60008381526002602052604090205460ff1615610a915760405162461bcd60e51b81526004016106f990611f55565b7f00000000000000000000000000000000000000000000000000000000000000008160a0015114610ad45760405162461bcd60e51b81526004016106f990611edc565b7f0000000000000000000000000000000000000000000000000000000000000000816080015114610b175760405162461bcd60e51b81526004016106f990611e00565b600054604080516310737dd760e31b815290516001600160a01b039092169163606736fb91839163839beeb891600480820192602092909190829003018186803b158015610b6457600080fd5b505afa158015610b78573d6000803e3d6000fd5b505050506040513d601f19601f82011682018060405250810190610b9c9190611926565b836040518363ffffffff1660e01b8152600401610bb99190612266565b6000604051808303818588803b158015610bd257600080fd5b505af1158015610be6573d6000803e3d6000fd5b5050506000858152600260209081526040808320805460ff191660011790558581015192548151630ecce30160e31b815291519395508894506001600160a01b031692637667180892600480840193919291829003018186803b158015610c4c57600080fd5b505afa158015610c60573d6000803e3d6000fd5b505050506040513d601f19601f82011682018060405250810190610c849190611926565b7f75e73523c6e553cd453bf96364f0c2a742339f9ce3556904ce56b16a3fb5b2d18585604051610cb5929190611d89565b60405180910390a4505050565b60008481526002602052604090205460ff161515600114610cf55760405162461bcd60e51b81526004016106f99061214b565b60008381526003602052604090205460ff1615610d245760405162461bcd60e51b81526004016106f990612107565b7f00000000000000000000000000000000000000000000000000000000000000008160a0015114610d675760405162461bcd60e51b81526004016106f9906121a8565b7f0000000000000000000000000000000000000000000000000000000000000000816080015114610daa5760405162461bcd60e51b81526004016106f990611e00565b600054604080516310737dd760e31b815290516001600160a01b039092169163606736fb91839163839beeb891600480820192602092909190829003018186803b158015610df757600080fd5b505afa158015610e0b573d6000803e3d6000fd5b505050506040513d601f19601f82011682018060405250810190610e2f9190611926565b836040518363ffffffff1660e01b8152600401610e4c9190612266565b6000604051808303818588803b158015610e6557600080fd5b505af1158015610e79573d6000803e3d6000fd5b5050506000858152600360209081526040808320805460ff191660011790558581015192548151630ecce30160e31b815291519395508994506001600160a01b031692637667180892600480840193919291829003018186803b158015610edf57600080fd5b505afa158015610ef3573d6000803e3d6000fd5b505050506040513d601f19601f82011682018060405250810190610f179190611926565b7f61df249775ea9dc39887e4de8e40151b679389aae51c429f0dd83d3a94b97fe2868686604051610f4a939291906123e0565b60405180910390a450505050565b7f000000000000000000000000000000000000000000000000000000000000000081565b6000805460405163a710d60f60e01b81526001600160a01b039091169063a710d60f90610672908890889088908890600401612434565b60005460405163b876ed7160e01b81526001600160a01b039091169063b876ed7190610fe9908790879087908790600401612434565b600060405180830381600087803b15801561100357600080fd5b505af1158015611017573d6000803e3d6000fd5b5050505050505050565b6000805460405163be99757160e01b81526001600160a01b039091169063be9975719061105c908a908a908a908a908a908a90600401612460565b60206040518083038186803b15801561107457600080fd5b505afa158015611088573d6000803e3d6000fd5b505050506040513d601f19601f820116820180604052508101906110ac9190611757565b979650505050505050565b7f000000000000000000000000000000000000000000000000000000000000000081565b60026020526000908152604090205460ff1681565b6000805460405163f20ca7ff60e01b81526001600160a01b039091169063f20ca7ff9061112f908c908c908c908c908c908c908c908c9060040161237c565b60206040518083038186803b15801561114757600080fd5b505afa15801561115b573d6000803e3d6000fd5b505050506040513d601f19601f8201168201806040525081019061117f9190611757565b9998505050505050505050565b60208082015160009081526001909152604090205460ff16156111c15760405162461bcd60e51b81526004016106f990611f96565b7f00000000000000000000000000000000000000000000000000000000000000008160600151146112045760405162461bcd60e51b81526004016106f990611e00565b80608001516001146112285760405162461bcd60e51b81526004016106f990612043565b600054604080516310737dd760e31b815290516001600160a01b039092169163bff3df4191839163839beeb891600480820192602092909190829003018186803b15801561127557600080fd5b505afa158015611289573d6000803e3d6000fd5b505050506040513d601f19601f820116820180604052508101906112ad9190611926565b836040518363ffffffff1660e01b81526004016112ca9190612279565b6000604051808303818588803b1580156112e357600080fd5b505af11580156112f7573d6000803e3d6000fd5b5050505060208281018051600090815260018084526040808320805460ff1916909217909155915190548251630ecce30160e31b815292519194506001600160a01b03169263766718089260048082019391829003018186803b15801561135d57600080fd5b505afa158015611371573d6000803e3d6000fd5b505050506040513d601f19601f820116820180604052508101906113959190611926565b7fcdc7a13869e4f8a627dbe2aaaf80ccb2acf27bea2ab437cd6de6d6789d1697bb836040516113c49190612279565b60405180910390a350565b60036020526000908152604090205460ff1681565b60005460405163f73c8ebb60e01b81526001600160a01b039091169063f73c8ebb90610fe9908790879087908790600401612434565b6000546001600160a01b031681565b60008054604051637e0a23c560e11b81526001600160a01b039091169063fc14478a90610672908890889088908890600401612434565b6040518060a0016040528060008152602001600081526020016000815260200160008152602001600081525090565b8061010081018310156114a157600080fd5b92915050565b600082601f8301126114b7578081fd5b60405161010080820182811067ffffffffffffffff821117156114dc576114dc612513565b60405281848281018710156114ef578485fd5b8492505b6008831015611513578035825260019290920191602091820191016114f3565b509195945050505050565b600082601f83011261152e578081fd5b8135602067ffffffffffffffff82111561154a5761154a612513565b80820261155882820161249c565b838152828101908684018388018501891015611572578687fd5b8693505b85841015611594578035835260019390930192918401918401611576565b50979650505050505050565b600082601f8301126115b0578081fd5b813567ffffffffffffffff8111156115ca576115ca612513565b6115dd601f8201601f191660200161249c565b8181528460208386010111156115f1578283fd5b816020850160208301379081016020019190915292915050565b6000610220828403121561161d578081fd5b61162861014061249c565b9050813567ffffffffffffffff81111561164157600080fd5b61164d8482850161151e565b8252506020820135602082015260408201356040820152606082013560608201526080820135608082015260a082013560a082015260c082013560c082015260e082013560e08201526101008083013581830152506101206116b1848285016114a7565b9082015292915050565b6000806000806000806000806000806102208b8d0312156116da578586fd5b8a3567ffffffffffffffff8111156116f0578687fd5b6116fc8d828e0161151e565b9a505060208b0135985060408b0135975060608b0135965060808b0135955060a08b0135945060c08b0135935060e08b013592506101008b013591506117468c6101208d0161148f565b90509295989b9194979a5092959850565b600060208284031215611768578081fd5b81518015158114611777578182fd5b9392505050565b60006101a08284031215611790578081fd5b60405160c0810181811067ffffffffffffffff821117156117b3576117b3612513565b806040525082358152602083013560208201526040830135604082015260608301356060820152608083013560808201526117f18460a085016114a7565b60a08201529392505050565b6000806040838503121561180f578182fd5b823567ffffffffffffffff80821115611826578384fd5b908401906101e0828703121561183a578384fd5b61184561010061249c565b8235815260208301358281111561185a578586fd5b6118668882860161151e565b60208301525060408301356040820152606083013582811115611887578586fd5b6118938882860161151e565b6060830152506080830135608082015260a0830135828111156118b4578586fd5b6118c08882860161151e565b60a08301525060c083013560c08201526118dd8760e085016114a7565b60e0820152935060208501359150808211156118f7578283fd5b506119048582860161151e565b9150509250929050565b60006020828403121561191f578081fd5b5035919050565b600060208284031215611937578081fd5b5051919050565b6000806000806000806000806101e0898b03121561195a578182fd5b88359750602089013567ffffffffffffffff80821115611978578384fd5b6119848c838d0161151e565b985060408b0135975060608b01359150808211156119a0578384fd5b6119ac8c838d0161151e565b965060808b0135955060a08b01359150808211156119c8578384fd5b506119d58b828c0161151e565b93505060c089013591506119ec8a60e08b016114a7565b90509295985092959890939650565b600080600060608486031215611a0f578081fd5b83359250602084013567ffffffffffffffff80821115611a2d578283fd5b611a39878388016115a0565b93506040860135915080821115611a4e578283fd5b50611a5b8682870161160b565b9150509250925092565b60008060008060808587031215611a7a578182fd5b8435935060208501359250604085013567ffffffffffffffff80821115611a9f578384fd5b611aab888389016115a0565b93506060870135915080821115611ac0578283fd5b50611acd8782880161160b565b91505092959194509250565b6000806000806101608587031215611aef578182fd5b843593506020850135925060408501359150611b0e866060870161148f565b905092959194509250565b600080600080600060a08688031215611b30578283fd5b85359450602086013593506040860135925060608601359150608086013567ffffffffffffffff811115611b62578182fd5b611b6e8882890161160b565b9150509295509295909350565b6000806000806000806101a08789031215611b94578384fd5b8635955060208701359450604087013593506060870135925060808701359150611bc18860a0890161148f565b90509295509295509295565b8060005b6008811015611bf0578151845260209384019390910190600101611bd1565b50505050565b6000815180845260208085019450808401835b83811015611c2557815187529582019590820190600101611c09565b509495945050505050565b60008151808452815b81811015611c5557602081850181015186830182015201611c39565b81811115611c665782602083870101525b50601f01601f19169290920160200192915050565b60006102208251818552611c9182860182611bf6565b9150506020830151602085015260408301516040850152606083015160608501526080830151608085015260a083015160a085015260c083015160c085015260e083015160e085015261010080840151818601525061012080840151611cf982870182611bcd565b5090949350505050565b6000610220808301818452611d18818f611bf6565b92508c60208501528b60408501528a60608501528960808501528860a08501528760c08501528660e085015261010091508582850152818561012086013760009052509b9a5050505050505050505050565b901515815260200190565b6001600160a01b0391909116815260200190565b600060408252611d9c6040830185611c30565b82810360208401526106c28185611c7b565b60208082526032908201527f556e6972657020536f6369616c3a2073686f756c64207375626d6974206120706040820152716f73697469766520766f74652076616c756560701b606082015260800190565b6020808252604b908201527f556e6972657020536f6369616c3a207375626d697420612070726f6f6620776960408201527f746820646966666572656e742061747465737465722049442066726f6d20556e60608201526a1a5c995c0814dbd8da585b60aa1b608082015260a00190565b60208082526045908201527f556e6972657020536f6369616c3a207375626d697420646966666572656e742060408201527f6e756c6c69666965727320616d6f756e742066726f6d2074686520766f74652060608201526476616c756560d81b608082015260a00190565b60208082526053908201527f556e6972657020536f6369616c3a207375626d697420646966666572656e742060408201527f6e756c6c69666965727320616d6f756e742066726f6d207468652072657175696060820152721c995908185b5bdd5b9d08199bdc881c1bdcdd606a1b608082015260a00190565b60208082526021908201527f556e6972657020536f6369616c3a206475706c69636174656420706f737420496040820152601160fa1b606082015260800190565b60208082526030908201527f556e6972657020536f6369616c3a207468652065706f6368206b65792068617360408201526f081899595b88185a5c991c9bdc1c195960821b606082015260800190565b6020808252603a908201527f556e6972657020536f6369616c3a2073686f756c64206f6e6c792063686f6f7360408201527f6520746f207570766f7465206f7220746f20646f776e766f7465000000000000606082015260800190565b60208082526041908201527f556e6972657020536f6369616c3a20757365722073686f756c6420686176652060408201527f7369676e656420757020696e20556e6972657020536f6369616c206265666f726060820152606560f81b608082015260a00190565b6020808252603f908201527f556e6972657020536f6369616c3a2065706f6368206b65792073656e6465722060408201527f616e642072656365697665722063616e6e6f74206265207468652073616d6500606082015260800190565b60208082526024908201527f556e6972657020536f6369616c3a206475706c69636174656420636f6d6d656e6040820152631d08125160e21b606082015260800190565b60208082526037908201527f556e6972657020536f6369616c3a2073686f756c64206c6561766520636f6d6d60408201527f656e7420746f2061207375626d696974656420706f7374000000000000000000606082015260800190565b60208082526056908201527f556e6972657020536f6369616c3a207375626d697420646966666572656e742060408201527f6e756c6c69666965727320616d6f756e742066726f6d207468652072657175696060820152751c995908185b5bdd5b9d08199bdc8818dbdb5b595b9d60521b608082015260a00190565b835181526020808501519082015260408085015190820152606080850151908201526080938401519381019390935260a083019190915260c082015260e00190565b6000602082526117776020830184611c7b565b60006101a082019050825182526020830151602083015260408301516040830152606083015160608301526080830151608083015260a08301516122c060a0840182611bcd565b5092915050565b6000604082528351604083015260208401516101e060608401526122ef610220840182611bf6565b9050604085015160808401526060850151603f19808584030160a08601526123178383611bf6565b9250608087015160c086015260a08701519150808584030160e08601525061233f8282611bf6565b91505060c085015161010084015260e0850151612360610120850182611bcd565b5082810360208401526106c28185611bf6565b90815260200190565b60006101e08a83528060208401526123968184018b611bf6565b905088604084015282810360608401526123b08189611bf6565b905086608084015282810360a08401526123ca8187611bf6565b9150508360c083015261117f60e0830184611bcd565b6000848252606060208301526123f96060830185611c30565b828103604084015261240b8185611c7b565b9695505050505050565b6000848252836020830152606060408301526106c26060830184611c7b565b848152602081018490526040810183905261016081016101008360608401376000815295945050505050565b60006101a0820190508782528660208301528560408301528460608301528360808301526101008360a084013760008152979650505050505050565b60405181810167ffffffffffffffff811182821017156124be576124be612513565b604052919050565b600082198211156124d9576124d96124fd565b500190565b60008160001904831182151516156124f8576124f86124fd565b500290565b634e487b7160e01b600052601160045260246000fd5b634e487b7160e01b600052604160045260246000fdfea2646970667358221220de9e8ac812b32bd550d01500d4ef83c583b54c93cada7fc16a9e53b434be4dd964736f6c63430008000033",
  "linkReferences": {},
  "deployedLinkReferences": {}
}