{
  "_format": "hh-sol-artifact-1",
  "contractName": "Unirep",
  "sourceName": "@unirep/contracts/contracts/Unirep.sol",
  "abi": [
    {
      "inputs": [
        {
          "components": [
            {
              "internalType": "uint8",
              "name": "globalStateTreeDepth",
              "type": "uint8"
            },
            {
              "internalType": "uint8",
              "name": "userStateTreeDepth",
              "type": "uint8"
            },
            {
              "internalType": "uint8",
              "name": "epochTreeDepth",
              "type": "uint8"
            }
          ],
          "internalType": "struct UnirepObjs.TreeDepths",
          "name": "_treeDepths",
          "type": "tuple"
        },
        {
          "components": [
            {
              "internalType": "uint256",
              "name": "maxUsers",
              "type": "uint256"
            },
            {
              "internalType": "uint256",
              "name": "maxAttesters",
              "type": "uint256"
            }
          ],
          "internalType": "struct UnirepObjs.MaxValues",
          "name": "_maxValues",
          "type": "tuple"
        },
        {
          "internalType": "contract EpochKeyValidityVerifier",
          "name": "_epkValidityVerifier",
          "type": "address"
        },
        {
          "internalType": "contract StartTransitionVerifier",
          "name": "_startTransitionVerifier",
          "type": "address"
        },
        {
          "internalType": "contract ProcessAttestationsVerifier",
          "name": "_processAttestationsVerifier",
          "type": "address"
        },
        {
          "internalType": "contract UserStateTransitionVerifier",
          "name": "_userStateTransitionVerifier",
          "type": "address"
        },
        {
          "internalType": "contract ReputationVerifier",
          "name": "_reputationVerifier",
          "type": "address"
        },
        {
          "internalType": "contract UserSignUpVerifier",
          "name": "_userSignUpVerifier",
          "type": "address"
        },
        {
          "internalType": "uint8",
          "name": "_numEpochKeyNoncePerEpoch",
          "type": "uint8"
        },
        {
          "internalType": "uint8",
          "name": "_maxReputationBudget",
          "type": "uint8"
        },
        {
          "internalType": "uint256",
          "name": "_epochLength",
          "type": "uint256"
        },
        {
          "internalType": "uint256",
          "name": "_attestingFee",
          "type": "uint256"
        }
      ],
      "stateMutability": "nonpayable",
      "type": "constructor"
    },
    {
      "anonymous": false,
      "inputs": [
        {
          "indexed": true,
          "internalType": "uint256",
          "name": "_epoch",
          "type": "uint256"
        },
        {
          "indexed": true,
          "internalType": "uint256",
          "name": "_epochKey",
          "type": "uint256"
        },
        {
          "indexed": true,
          "internalType": "address",
          "name": "_attester",
          "type": "address"
        },
        {
          "indexed": false,
          "internalType": "enum Unirep.AttestationEvent",
          "name": "_event",
          "type": "uint8"
        },
        {
          "components": [
            {
              "internalType": "uint256",
              "name": "attesterId",
              "type": "uint256"
            },
            {
              "internalType": "uint256",
              "name": "posRep",
              "type": "uint256"
            },
            {
              "internalType": "uint256",
              "name": "negRep",
              "type": "uint256"
            },
            {
              "internalType": "uint256",
              "name": "graffiti",
              "type": "uint256"
            },
            {
              "internalType": "uint256",
              "name": "signUp",
              "type": "uint256"
            }
          ],
          "indexed": false,
          "internalType": "struct UnirepObjs.Attestation",
          "name": "_attestation",
          "type": "tuple"
        },
        {
          "indexed": false,
          "internalType": "uint256",
          "name": "_proofIndex",
          "type": "uint256"
        }
      ],
      "name": "AttestationSubmitted",
      "type": "event"
    },
    {
      "anonymous": false,
      "inputs": [
        {
          "indexed": true,
          "internalType": "uint256",
          "name": "_epoch",
          "type": "uint256"
        }
      ],
      "name": "EpochEnded",
      "type": "event"
    },
    {
      "anonymous": false,
      "inputs": [
        {
          "indexed": true,
          "internalType": "uint256",
          "name": "_proofIndex",
          "type": "uint256"
        },
        {
          "indexed": true,
          "internalType": "uint256",
          "name": "_epoch",
          "type": "uint256"
        },
        {
          "indexed": true,
          "internalType": "uint256",
          "name": "_epochKey",
          "type": "uint256"
        },
        {
          "components": [
            {
              "internalType": "uint256",
              "name": "globalStateTree",
              "type": "uint256"
            },
            {
              "internalType": "uint256",
              "name": "epoch",
              "type": "uint256"
            },
            {
              "internalType": "uint256",
              "name": "epochKey",
              "type": "uint256"
            },
            {
              "internalType": "uint256[8]",
              "name": "proof",
              "type": "uint256[8]"
            }
          ],
          "indexed": false,
          "internalType": "struct UnirepObjs.EpochKeyProof",
          "name": "_proof",
          "type": "tuple"
        }
      ],
      "name": "IndexedEpochKeyProof",
      "type": "event"
    },
    {
      "anonymous": false,
      "inputs": [
        {
          "indexed": true,
          "internalType": "uint256",
          "name": "_proofIndex",
          "type": "uint256"
        },
        {
          "indexed": true,
          "internalType": "uint256",
          "name": "_inputBlindedUserState",
          "type": "uint256"
        },
        {
          "indexed": false,
          "internalType": "uint256",
          "name": "_outputBlindedUserState",
          "type": "uint256"
        },
        {
          "indexed": false,
          "internalType": "uint256",
          "name": "_outputBlindedHashChain",
          "type": "uint256"
        },
        {
          "indexed": false,
          "internalType": "uint256[8]",
          "name": "_proof",
          "type": "uint256[8]"
        }
      ],
      "name": "IndexedProcessedAttestationsProof",
      "type": "event"
    },
    {
      "anonymous": false,
      "inputs": [
        {
          "indexed": true,
          "internalType": "uint256",
          "name": "_proofIndex",
          "type": "uint256"
        },
        {
          "indexed": true,
          "internalType": "uint256",
          "name": "_epoch",
          "type": "uint256"
        },
        {
          "indexed": true,
          "internalType": "uint256",
          "name": "_epochKey",
          "type": "uint256"
        },
        {
          "components": [
            {
              "internalType": "uint256[]",
              "name": "repNullifiers",
              "type": "uint256[]"
            },
            {
              "internalType": "uint256",
              "name": "epoch",
              "type": "uint256"
            },
            {
              "internalType": "uint256",
              "name": "epochKey",
              "type": "uint256"
            },
            {
              "internalType": "uint256",
              "name": "globalStateTree",
              "type": "uint256"
            },
            {
              "internalType": "uint256",
              "name": "attesterId",
              "type": "uint256"
            },
            {
              "internalType": "uint256",
              "name": "proveReputationAmount",
              "type": "uint256"
            },
            {
              "internalType": "uint256",
              "name": "minRep",
              "type": "uint256"
            },
            {
              "internalType": "uint256",
              "name": "proveGraffiti",
              "type": "uint256"
            },
            {
              "internalType": "uint256",
              "name": "graffitiPreImage",
              "type": "uint256"
            },
            {
              "internalType": "uint256[8]",
              "name": "proof",
              "type": "uint256[8]"
            }
          ],
          "indexed": false,
          "internalType": "struct UnirepObjs.ReputationProof",
          "name": "_proof",
          "type": "tuple"
        }
      ],
      "name": "IndexedReputationProof",
      "type": "event"
    },
    {
      "anonymous": false,
      "inputs": [
        {
          "indexed": true,
          "internalType": "uint256",
          "name": "_proofIndex",
          "type": "uint256"
        },
        {
          "indexed": true,
          "internalType": "uint256",
          "name": "_blindedUserState",
          "type": "uint256"
        },
        {
          "indexed": true,
          "internalType": "uint256",
          "name": "_globalStateTree",
          "type": "uint256"
        },
        {
          "indexed": false,
          "internalType": "uint256",
          "name": "_blindedHashChain",
          "type": "uint256"
        },
        {
          "indexed": false,
          "internalType": "uint256[8]",
          "name": "_proof",
          "type": "uint256[8]"
        }
      ],
      "name": "IndexedStartedTransitionProof",
      "type": "event"
    },
    {
      "anonymous": false,
      "inputs": [
        {
          "indexed": true,
          "internalType": "uint256",
          "name": "_proofIndex",
          "type": "uint256"
        },
        {
          "indexed": true,
          "internalType": "uint256",
          "name": "_epoch",
          "type": "uint256"
        },
        {
          "indexed": true,
          "internalType": "uint256",
          "name": "_epochKey",
          "type": "uint256"
        },
        {
          "components": [
            {
              "internalType": "uint256",
              "name": "epoch",
              "type": "uint256"
            },
            {
              "internalType": "uint256",
              "name": "epochKey",
              "type": "uint256"
            },
            {
              "internalType": "uint256",
              "name": "globalStateTree",
              "type": "uint256"
            },
            {
              "internalType": "uint256",
              "name": "attesterId",
              "type": "uint256"
            },
            {
              "internalType": "uint256",
              "name": "userHasSignedUp",
              "type": "uint256"
            },
            {
              "internalType": "uint256[8]",
              "name": "proof",
              "type": "uint256[8]"
            }
          ],
          "indexed": false,
          "internalType": "struct UnirepObjs.SignUpProof",
          "name": "_proof",
          "type": "tuple"
        }
      ],
      "name": "IndexedUserSignedUpProof",
      "type": "event"
    },
    {
      "anonymous": false,
      "inputs": [
        {
          "indexed": true,
          "internalType": "uint256",
          "name": "_proofIndex",
          "type": "uint256"
        },
        {
          "components": [
            {
              "internalType": "uint256",
              "name": "newGlobalStateTreeLeaf",
              "type": "uint256"
            },
            {
              "internalType": "uint256[]",
              "name": "epkNullifiers",
              "type": "uint256[]"
            },
            {
              "internalType": "uint256",
              "name": "transitionFromEpoch",
              "type": "uint256"
            },
            {
              "internalType": "uint256[]",
              "name": "blindedUserStates",
              "type": "uint256[]"
            },
            {
              "internalType": "uint256",
              "name": "fromGlobalStateTree",
              "type": "uint256"
            },
            {
              "internalType": "uint256[]",
              "name": "blindedHashChains",
              "type": "uint256[]"
            },
            {
              "internalType": "uint256",
              "name": "fromEpochTree",
              "type": "uint256"
            },
            {
              "internalType": "uint256[8]",
              "name": "proof",
              "type": "uint256[8]"
            }
          ],
          "indexed": false,
          "internalType": "struct UnirepObjs.UserTransitionProof",
          "name": "_proof",
          "type": "tuple"
        },
        {
          "indexed": false,
          "internalType": "uint256[]",
          "name": "_proofIndexRecords",
          "type": "uint256[]"
        }
      ],
      "name": "IndexedUserStateTransitionProof",
      "type": "event"
    },
    {
      "anonymous": false,
      "inputs": [
        {
          "indexed": true,
          "internalType": "uint256",
          "name": "_epoch",
          "type": "uint256"
        },
        {
          "indexed": false,
          "internalType": "enum Unirep.Event",
          "name": "_event",
          "type": "uint8"
        }
      ],
      "name": "Sequencer",
      "type": "event"
    },
    {
      "anonymous": false,
      "inputs": [
        {
          "indexed": true,
          "internalType": "uint256",
          "name": "_epoch",
          "type": "uint256"
        },
        {
          "indexed": true,
          "internalType": "uint256",
          "name": "_identityCommitment",
          "type": "uint256"
        },
        {
          "indexed": false,
          "internalType": "uint256",
          "name": "_attesterId",
          "type": "uint256"
        },
        {
          "indexed": false,
          "internalType": "uint256",
          "name": "_airdropAmount",
          "type": "uint256"
        }
      ],
      "name": "UserSignedUp",
      "type": "event"
    },
    {
      "anonymous": false,
      "inputs": [
        {
          "indexed": true,
          "internalType": "uint256",
          "name": "_epoch",
          "type": "uint256"
        },
        {
          "indexed": true,
          "internalType": "uint256",
          "name": "_hashedLeaf",
          "type": "uint256"
        },
        {
          "indexed": false,
          "internalType": "uint256",
          "name": "_proofIndex",
          "type": "uint256"
        }
      ],
      "name": "UserStateTransitioned",
      "type": "event"
    },
    {
      "inputs": [
        {
          "internalType": "address",
          "name": "",
          "type": "address"
        }
      ],
      "name": "airdropAmount",
      "outputs": [
        {
          "internalType": "uint256",
          "name": "",
          "type": "uint256"
        }
      ],
      "stateMutability": "view",
      "type": "function"
    },
    {
      "inputs": [
        {
          "components": [
            {
              "internalType": "uint256",
              "name": "epoch",
              "type": "uint256"
            },
            {
              "internalType": "uint256",
              "name": "epochKey",
              "type": "uint256"
            },
            {
              "internalType": "uint256",
              "name": "globalStateTree",
              "type": "uint256"
            },
            {
              "internalType": "uint256",
              "name": "attesterId",
              "type": "uint256"
            },
            {
              "internalType": "uint256",
              "name": "userHasSignedUp",
              "type": "uint256"
            },
            {
              "internalType": "uint256[8]",
              "name": "proof",
              "type": "uint256[8]"
            }
          ],
          "internalType": "struct UnirepObjs.SignUpProof",
          "name": "_input",
          "type": "tuple"
        }
      ],
      "name": "airdropEpochKey",
      "outputs": [],
      "stateMutability": "payable",
      "type": "function"
    },
    {
      "inputs": [],
      "name": "attesterSignUp",
      "outputs": [],
      "stateMutability": "nonpayable",
      "type": "function"
    },
    {
      "inputs": [
        {
          "internalType": "address",
          "name": "attester",
          "type": "address"
        },
        {
          "internalType": "bytes",
          "name": "signature",
          "type": "bytes"
        }
      ],
      "name": "attesterSignUpViaRelayer",
      "outputs": [],
      "stateMutability": "nonpayable",
      "type": "function"
    },
    {
      "inputs": [
        {
          "internalType": "address",
          "name": "",
          "type": "address"
        }
      ],
      "name": "attesters",
      "outputs": [
        {
          "internalType": "uint256",
          "name": "",
          "type": "uint256"
        }
      ],
      "stateMutability": "view",
      "type": "function"
    },
    {
      "inputs": [],
      "name": "attestingFee",
      "outputs": [
        {
          "internalType": "uint256",
          "name": "",
          "type": "uint256"
        }
      ],
      "stateMutability": "view",
      "type": "function"
    },
    {
      "inputs": [],
      "name": "beginEpochTransition",
      "outputs": [],
      "stateMutability": "nonpayable",
      "type": "function"
    },
    {
      "inputs": [],
      "name": "burnAttestingFee",
      "outputs": [],
      "stateMutability": "nonpayable",
      "type": "function"
    },
    {
      "inputs": [],
      "name": "collectEpochTransitionCompensation",
      "outputs": [],
      "stateMutability": "nonpayable",
      "type": "function"
    },
    {
      "inputs": [],
      "name": "collectedAttestingFee",
      "outputs": [
        {
          "internalType": "uint256",
          "name": "",
          "type": "uint256"
        }
      ],
      "stateMutability": "view",
      "type": "function"
    },
    {
      "inputs": [],
      "name": "currentEpoch",
      "outputs": [
        {
          "internalType": "uint256",
          "name": "",
          "type": "uint256"
        }
      ],
      "stateMutability": "view",
      "type": "function"
    },
    {
      "inputs": [],
      "name": "epochLength",
      "outputs": [
        {
          "internalType": "uint256",
          "name": "",
          "type": "uint256"
        }
      ],
      "stateMutability": "view",
      "type": "function"
    },
    {
      "inputs": [
        {
          "internalType": "address",
          "name": "",
          "type": "address"
        }
      ],
      "name": "epochTransitionCompensation",
      "outputs": [
        {
          "internalType": "uint256",
          "name": "",
          "type": "uint256"
        }
      ],
      "stateMutability": "view",
      "type": "function"
    },
    {
      "inputs": [
        {
          "internalType": "bytes32",
          "name": "",
          "type": "bytes32"
        }
      ],
      "name": "getProofIndex",
      "outputs": [
        {
          "internalType": "uint256",
          "name": "",
          "type": "uint256"
        }
      ],
      "stateMutability": "view",
      "type": "function"
    },
    {
      "inputs": [
        {
          "internalType": "uint256",
          "name": "",
          "type": "uint256"
        }
      ],
      "name": "hasUserSignedUp",
      "outputs": [
        {
          "internalType": "bool",
          "name": "",
          "type": "bool"
        }
      ],
      "stateMutability": "view",
      "type": "function"
    },
    {
      "inputs": [
        {
          "components": [
            {
              "internalType": "uint256",
              "name": "globalStateTree",
              "type": "uint256"
            },
            {
              "internalType": "uint256",
              "name": "epoch",
              "type": "uint256"
            },
            {
              "internalType": "uint256",
              "name": "epochKey",
              "type": "uint256"
            },
            {
              "internalType": "uint256[8]",
              "name": "proof",
              "type": "uint256[8]"
            }
          ],
          "internalType": "struct UnirepObjs.EpochKeyProof",
          "name": "_input",
          "type": "tuple"
        }
      ],
      "name": "hashEpochKeyProof",
      "outputs": [
        {
          "internalType": "bytes32",
          "name": "",
          "type": "bytes32"
        }
      ],
      "stateMutability": "pure",
      "type": "function"
    },
    {
      "inputs": [
        {
          "internalType": "uint256",
          "name": "_outputBlindedUserState",
          "type": "uint256"
        },
        {
          "internalType": "uint256",
          "name": "_outputBlindedHashChain",
          "type": "uint256"
        },
        {
          "internalType": "uint256",
          "name": "_inputBlindedUserState",
          "type": "uint256"
        },
        {
          "internalType": "uint256[8]",
          "name": "_proof",
          "type": "uint256[8]"
        }
      ],
      "name": "hashProcessAttestationsProof",
      "outputs": [
        {
          "internalType": "bytes32",
          "name": "",
          "type": "bytes32"
        }
      ],
      "stateMutability": "pure",
      "type": "function"
    },
    {
      "inputs": [
        {
          "components": [
            {
              "internalType": "uint256[]",
              "name": "repNullifiers",
              "type": "uint256[]"
            },
            {
              "internalType": "uint256",
              "name": "epoch",
              "type": "uint256"
            },
            {
              "internalType": "uint256",
              "name": "epochKey",
              "type": "uint256"
            },
            {
              "internalType": "uint256",
              "name": "globalStateTree",
              "type": "uint256"
            },
            {
              "internalType": "uint256",
              "name": "attesterId",
              "type": "uint256"
            },
            {
              "internalType": "uint256",
              "name": "proveReputationAmount",
              "type": "uint256"
            },
            {
              "internalType": "uint256",
              "name": "minRep",
              "type": "uint256"
            },
            {
              "internalType": "uint256",
              "name": "proveGraffiti",
              "type": "uint256"
            },
            {
              "internalType": "uint256",
              "name": "graffitiPreImage",
              "type": "uint256"
            },
            {
              "internalType": "uint256[8]",
              "name": "proof",
              "type": "uint256[8]"
            }
          ],
          "internalType": "struct UnirepObjs.ReputationProof",
          "name": "_input",
          "type": "tuple"
        }
      ],
      "name": "hashReputationProof",
      "outputs": [
        {
          "internalType": "bytes32",
          "name": "",
          "type": "bytes32"
        }
      ],
      "stateMutability": "pure",
      "type": "function"
    },
    {
      "inputs": [
        {
          "components": [
            {
              "internalType": "uint256",
              "name": "epoch",
              "type": "uint256"
            },
            {
              "internalType": "uint256",
              "name": "epochKey",
              "type": "uint256"
            },
            {
              "internalType": "uint256",
              "name": "globalStateTree",
              "type": "uint256"
            },
            {
              "internalType": "uint256",
              "name": "attesterId",
              "type": "uint256"
            },
            {
              "internalType": "uint256",
              "name": "userHasSignedUp",
              "type": "uint256"
            },
            {
              "internalType": "uint256[8]",
              "name": "proof",
              "type": "uint256[8]"
            }
          ],
          "internalType": "struct UnirepObjs.SignUpProof",
          "name": "_input",
          "type": "tuple"
        }
      ],
      "name": "hashSignUpProof",
      "outputs": [
        {
          "internalType": "bytes32",
          "name": "",
          "type": "bytes32"
        }
      ],
      "stateMutability": "pure",
      "type": "function"
    },
    {
      "inputs": [
        {
          "internalType": "uint256",
          "name": "_blindedUserState",
          "type": "uint256"
        },
        {
          "internalType": "uint256",
          "name": "_blindedHashChain",
          "type": "uint256"
        },
        {
          "internalType": "uint256",
          "name": "_globalStateTree",
          "type": "uint256"
        },
        {
          "internalType": "uint256[8]",
          "name": "_proof",
          "type": "uint256[8]"
        }
      ],
      "name": "hashStartTransitionProof",
      "outputs": [
        {
          "internalType": "bytes32",
          "name": "",
          "type": "bytes32"
        }
      ],
      "stateMutability": "pure",
      "type": "function"
    },
    {
      "inputs": [
        {
          "components": [
            {
              "internalType": "uint256",
              "name": "newGlobalStateTreeLeaf",
              "type": "uint256"
            },
            {
              "internalType": "uint256[]",
              "name": "epkNullifiers",
              "type": "uint256[]"
            },
            {
              "internalType": "uint256",
              "name": "transitionFromEpoch",
              "type": "uint256"
            },
            {
              "internalType": "uint256[]",
              "name": "blindedUserStates",
              "type": "uint256[]"
            },
            {
              "internalType": "uint256",
              "name": "fromGlobalStateTree",
              "type": "uint256"
            },
            {
              "internalType": "uint256[]",
              "name": "blindedHashChains",
              "type": "uint256[]"
            },
            {
              "internalType": "uint256",
              "name": "fromEpochTree",
              "type": "uint256"
            },
            {
              "internalType": "uint256[8]",
              "name": "proof",
              "type": "uint256[8]"
            }
          ],
          "internalType": "struct UnirepObjs.UserTransitionProof",
          "name": "_input",
          "type": "tuple"
        }
      ],
      "name": "hashUserStateTransitionProof",
      "outputs": [
        {
          "internalType": "bytes32",
          "name": "",
          "type": "bytes32"
        }
      ],
      "stateMutability": "pure",
      "type": "function"
    },
    {
      "inputs": [],
      "name": "latestEpochTransitionTime",
      "outputs": [
        {
          "internalType": "uint256",
          "name": "",
          "type": "uint256"
        }
      ],
      "stateMutability": "view",
      "type": "function"
    },
    {
      "inputs": [],
      "name": "maxAttesters",
      "outputs": [
        {
          "internalType": "uint256",
          "name": "",
          "type": "uint256"
        }
      ],
      "stateMutability": "view",
      "type": "function"
    },
    {
      "inputs": [],
      "name": "maxReputationBudget",
      "outputs": [
        {
          "internalType": "uint8",
          "name": "",
          "type": "uint8"
        }
      ],
      "stateMutability": "view",
      "type": "function"
    },
    {
      "inputs": [],
      "name": "maxUsers",
      "outputs": [
        {
          "internalType": "uint256",
          "name": "",
          "type": "uint256"
        }
      ],
      "stateMutability": "view",
      "type": "function"
    },
    {
      "inputs": [],
      "name": "nextAttesterId",
      "outputs": [
        {
          "internalType": "uint256",
          "name": "",
          "type": "uint256"
        }
      ],
      "stateMutability": "view",
      "type": "function"
    },
    {
      "inputs": [],
      "name": "numEpochKeyNoncePerEpoch",
      "outputs": [
        {
          "internalType": "uint8",
          "name": "",
          "type": "uint8"
        }
      ],
      "stateMutability": "view",
      "type": "function"
    },
    {
      "inputs": [],
      "name": "numUserSignUps",
      "outputs": [
        {
          "internalType": "uint256",
          "name": "",
          "type": "uint256"
        }
      ],
      "stateMutability": "view",
      "type": "function"
    },
    {
      "inputs": [
        {
          "internalType": "uint256",
          "name": "_outputBlindedUserState",
          "type": "uint256"
        },
        {
          "internalType": "uint256",
          "name": "_outputBlindedHashChain",
          "type": "uint256"
        },
        {
          "internalType": "uint256",
          "name": "_inputBlindedUserState",
          "type": "uint256"
        },
        {
          "internalType": "uint256[8]",
          "name": "_proof",
          "type": "uint256[8]"
        }
      ],
      "name": "processAttestations",
      "outputs": [],
      "stateMutability": "nonpayable",
      "type": "function"
    },
    {
      "inputs": [
        {
          "internalType": "uint256",
          "name": "_airdropAmount",
          "type": "uint256"
        }
      ],
      "name": "setAirdropAmount",
      "outputs": [],
      "stateMutability": "nonpayable",
      "type": "function"
    },
    {
      "inputs": [
        {
          "components": [
            {
              "internalType": "uint256[]",
              "name": "repNullifiers",
              "type": "uint256[]"
            },
            {
              "internalType": "uint256",
              "name": "epoch",
              "type": "uint256"
            },
            {
              "internalType": "uint256",
              "name": "epochKey",
              "type": "uint256"
            },
            {
              "internalType": "uint256",
              "name": "globalStateTree",
              "type": "uint256"
            },
            {
              "internalType": "uint256",
              "name": "attesterId",
              "type": "uint256"
            },
            {
              "internalType": "uint256",
              "name": "proveReputationAmount",
              "type": "uint256"
            },
            {
              "internalType": "uint256",
              "name": "minRep",
              "type": "uint256"
            },
            {
              "internalType": "uint256",
              "name": "proveGraffiti",
              "type": "uint256"
            },
            {
              "internalType": "uint256",
              "name": "graffitiPreImage",
              "type": "uint256"
            },
            {
              "internalType": "uint256[8]",
              "name": "proof",
              "type": "uint256[8]"
            }
          ],
          "internalType": "struct UnirepObjs.ReputationProof",
          "name": "_input",
          "type": "tuple"
        }
      ],
      "name": "spendReputation",
      "outputs": [],
      "stateMutability": "payable",
      "type": "function"
    },
    {
      "inputs": [
        {
          "internalType": "uint256",
          "name": "_blindedUserState",
          "type": "uint256"
        },
        {
          "internalType": "uint256",
          "name": "_blindedHashChain",
          "type": "uint256"
        },
        {
          "internalType": "uint256",
          "name": "_globalStateTree",
          "type": "uint256"
        },
        {
          "internalType": "uint256[8]",
          "name": "_proof",
          "type": "uint256[8]"
        }
      ],
      "name": "startUserStateTransition",
      "outputs": [],
      "stateMutability": "nonpayable",
      "type": "function"
    },
    {
      "inputs": [
        {
          "components": [
            {
              "internalType": "uint256",
              "name": "attesterId",
              "type": "uint256"
            },
            {
              "internalType": "uint256",
              "name": "posRep",
              "type": "uint256"
            },
            {
              "internalType": "uint256",
              "name": "negRep",
              "type": "uint256"
            },
            {
              "internalType": "uint256",
              "name": "graffiti",
              "type": "uint256"
            },
            {
              "internalType": "uint256",
              "name": "signUp",
              "type": "uint256"
            }
          ],
          "internalType": "struct UnirepObjs.Attestation",
          "name": "attestation",
          "type": "tuple"
        },
        {
          "internalType": "uint256",
          "name": "epochKey",
          "type": "uint256"
        },
        {
          "internalType": "uint256",
          "name": "_proofIndex",
          "type": "uint256"
        }
      ],
      "name": "submitAttestation",
      "outputs": [],
      "stateMutability": "payable",
      "type": "function"
    },
    {
      "inputs": [
        {
          "internalType": "address",
          "name": "attester",
          "type": "address"
        },
        {
          "internalType": "bytes",
          "name": "signature",
          "type": "bytes"
        },
        {
          "components": [
            {
              "internalType": "uint256",
              "name": "attesterId",
              "type": "uint256"
            },
            {
              "internalType": "uint256",
              "name": "posRep",
              "type": "uint256"
            },
            {
              "internalType": "uint256",
              "name": "negRep",
              "type": "uint256"
            },
            {
              "internalType": "uint256",
              "name": "graffiti",
              "type": "uint256"
            },
            {
              "internalType": "uint256",
              "name": "signUp",
              "type": "uint256"
            }
          ],
          "internalType": "struct UnirepObjs.Attestation",
          "name": "attestation",
          "type": "tuple"
        },
        {
          "internalType": "uint256",
          "name": "epochKey",
          "type": "uint256"
        },
        {
          "internalType": "uint256",
          "name": "_proofIndex",
          "type": "uint256"
        }
      ],
      "name": "submitAttestationViaRelayer",
      "outputs": [],
      "stateMutability": "payable",
      "type": "function"
    },
    {
      "inputs": [
        {
          "components": [
            {
              "internalType": "uint256",
              "name": "globalStateTree",
              "type": "uint256"
            },
            {
              "internalType": "uint256",
              "name": "epoch",
              "type": "uint256"
            },
            {
              "internalType": "uint256",
              "name": "epochKey",
              "type": "uint256"
            },
            {
              "internalType": "uint256[8]",
              "name": "proof",
              "type": "uint256[8]"
            }
          ],
          "internalType": "struct UnirepObjs.EpochKeyProof",
          "name": "_input",
          "type": "tuple"
        }
      ],
      "name": "submitEpochKeyProof",
      "outputs": [],
      "stateMutability": "nonpayable",
      "type": "function"
    },
    {
      "inputs": [],
      "name": "treeDepths",
      "outputs": [
        {
          "internalType": "uint8",
          "name": "globalStateTreeDepth",
          "type": "uint8"
        },
        {
          "internalType": "uint8",
          "name": "userStateTreeDepth",
          "type": "uint8"
        },
        {
          "internalType": "uint8",
          "name": "epochTreeDepth",
          "type": "uint8"
        }
      ],
      "stateMutability": "view",
      "type": "function"
    },
    {
      "inputs": [
        {
          "internalType": "uint256[8]",
          "name": "_proof",
          "type": "uint256[8]"
        }
      ],
      "name": "unpackProof",
      "outputs": [
        {
          "internalType": "uint256[2]",
          "name": "",
          "type": "uint256[2]"
        },
        {
          "internalType": "uint256[2][2]",
          "name": "",
          "type": "uint256[2][2]"
        },
        {
          "internalType": "uint256[2]",
          "name": "",
          "type": "uint256[2]"
        }
      ],
      "stateMutability": "pure",
      "type": "function"
    },
    {
      "inputs": [
        {
          "components": [
            {
              "internalType": "uint256",
              "name": "newGlobalStateTreeLeaf",
              "type": "uint256"
            },
            {
              "internalType": "uint256[]",
              "name": "epkNullifiers",
              "type": "uint256[]"
            },
            {
              "internalType": "uint256",
              "name": "transitionFromEpoch",
              "type": "uint256"
            },
            {
              "internalType": "uint256[]",
              "name": "blindedUserStates",
              "type": "uint256[]"
            },
            {
              "internalType": "uint256",
              "name": "fromGlobalStateTree",
              "type": "uint256"
            },
            {
              "internalType": "uint256[]",
              "name": "blindedHashChains",
              "type": "uint256[]"
            },
            {
              "internalType": "uint256",
              "name": "fromEpochTree",
              "type": "uint256"
            },
            {
              "internalType": "uint256[8]",
              "name": "proof",
              "type": "uint256[8]"
            }
          ],
          "internalType": "struct UnirepObjs.UserTransitionProof",
          "name": "_proof",
          "type": "tuple"
        },
        {
          "internalType": "uint256[]",
          "name": "proofIndexRecords",
          "type": "uint256[]"
        }
      ],
      "name": "updateUserStateRoot",
      "outputs": [],
      "stateMutability": "nonpayable",
      "type": "function"
    },
    {
      "inputs": [
        {
          "internalType": "uint256",
          "name": "_identityCommitment",
          "type": "uint256"
        }
      ],
      "name": "userSignUp",
      "outputs": [],
      "stateMutability": "nonpayable",
      "type": "function"
    },
    {
      "inputs": [
        {
          "components": [
            {
              "internalType": "uint256",
              "name": "globalStateTree",
              "type": "uint256"
            },
            {
              "internalType": "uint256",
              "name": "epoch",
              "type": "uint256"
            },
            {
              "internalType": "uint256",
              "name": "epochKey",
              "type": "uint256"
            },
            {
              "internalType": "uint256[8]",
              "name": "proof",
              "type": "uint256[8]"
            }
          ],
          "internalType": "struct UnirepObjs.EpochKeyProof",
          "name": "_input",
          "type": "tuple"
        }
      ],
      "name": "verifyEpochKeyValidity",
      "outputs": [
        {
          "internalType": "bool",
          "name": "",
          "type": "bool"
        }
      ],
      "stateMutability": "view",
      "type": "function"
    },
    {
      "inputs": [
        {
          "internalType": "uint256",
          "name": "_outputBlindedUserState",
          "type": "uint256"
        },
        {
          "internalType": "uint256",
          "name": "_outputBlindedHashChain",
          "type": "uint256"
        },
        {
          "internalType": "uint256",
          "name": "_inputBlindedUserState",
          "type": "uint256"
        },
        {
          "internalType": "uint256[8]",
          "name": "_proof",
          "type": "uint256[8]"
        }
      ],
      "name": "verifyProcessAttestationProof",
      "outputs": [
        {
          "internalType": "bool",
          "name": "",
          "type": "bool"
        }
      ],
      "stateMutability": "view",
      "type": "function"
    },
    {
      "inputs": [
        {
          "components": [
            {
              "internalType": "uint256[]",
              "name": "repNullifiers",
              "type": "uint256[]"
            },
            {
              "internalType": "uint256",
              "name": "epoch",
              "type": "uint256"
            },
            {
              "internalType": "uint256",
              "name": "epochKey",
              "type": "uint256"
            },
            {
              "internalType": "uint256",
              "name": "globalStateTree",
              "type": "uint256"
            },
            {
              "internalType": "uint256",
              "name": "attesterId",
              "type": "uint256"
            },
            {
              "internalType": "uint256",
              "name": "proveReputationAmount",
              "type": "uint256"
            },
            {
              "internalType": "uint256",
              "name": "minRep",
              "type": "uint256"
            },
            {
              "internalType": "uint256",
              "name": "proveGraffiti",
              "type": "uint256"
            },
            {
              "internalType": "uint256",
              "name": "graffitiPreImage",
              "type": "uint256"
            },
            {
              "internalType": "uint256[8]",
              "name": "proof",
              "type": "uint256[8]"
            }
          ],
          "internalType": "struct UnirepObjs.ReputationProof",
          "name": "_input",
          "type": "tuple"
        }
      ],
      "name": "verifyReputation",
      "outputs": [
        {
          "internalType": "bool",
          "name": "",
          "type": "bool"
        }
      ],
      "stateMutability": "view",
      "type": "function"
    },
    {
      "inputs": [
        {
          "internalType": "uint256",
          "name": "_blindedUserState",
          "type": "uint256"
        },
        {
          "internalType": "uint256",
          "name": "_blindedHashChain",
          "type": "uint256"
        },
        {
          "internalType": "uint256",
          "name": "_GSTRoot",
          "type": "uint256"
        },
        {
          "internalType": "uint256[8]",
          "name": "_proof",
          "type": "uint256[8]"
        }
      ],
      "name": "verifyStartTransitionProof",
      "outputs": [
        {
          "internalType": "bool",
          "name": "",
          "type": "bool"
        }
      ],
      "stateMutability": "view",
      "type": "function"
    },
    {
      "inputs": [
        {
          "components": [
            {
              "internalType": "uint256",
              "name": "epoch",
              "type": "uint256"
            },
            {
              "internalType": "uint256",
              "name": "epochKey",
              "type": "uint256"
            },
            {
              "internalType": "uint256",
              "name": "globalStateTree",
              "type": "uint256"
            },
            {
              "internalType": "uint256",
              "name": "attesterId",
              "type": "uint256"
            },
            {
              "internalType": "uint256",
              "name": "userHasSignedUp",
              "type": "uint256"
            },
            {
              "internalType": "uint256[8]",
              "name": "proof",
              "type": "uint256[8]"
            }
          ],
          "internalType": "struct UnirepObjs.SignUpProof",
          "name": "_input",
          "type": "tuple"
        }
      ],
      "name": "verifyUserSignUp",
      "outputs": [
        {
          "internalType": "bool",
          "name": "",
          "type": "bool"
        }
      ],
      "stateMutability": "view",
      "type": "function"
    },
    {
      "inputs": [
        {
          "components": [
            {
              "internalType": "uint256",
              "name": "newGlobalStateTreeLeaf",
              "type": "uint256"
            },
            {
              "internalType": "uint256[]",
              "name": "epkNullifiers",
              "type": "uint256[]"
            },
            {
              "internalType": "uint256",
              "name": "transitionFromEpoch",
              "type": "uint256"
            },
            {
              "internalType": "uint256[]",
              "name": "blindedUserStates",
              "type": "uint256[]"
            },
            {
              "internalType": "uint256",
              "name": "fromGlobalStateTree",
              "type": "uint256"
            },
            {
              "internalType": "uint256[]",
              "name": "blindedHashChains",
              "type": "uint256[]"
            },
            {
              "internalType": "uint256",
              "name": "fromEpochTree",
              "type": "uint256"
            },
            {
              "internalType": "uint256[8]",
              "name": "proof",
              "type": "uint256[8]"
            }
          ],
          "internalType": "struct UnirepObjs.UserTransitionProof",
          "name": "_input",
          "type": "tuple"
        }
      ],
      "name": "verifyUserStateTransition",
      "outputs": [
        {
          "internalType": "bool",
          "name": "",
          "type": "bool"
        }
      ],
      "stateMutability": "view",
      "type": "function"
    }
  ],
  "bytecode": "0x6101406040527f30644e72e131a029b85045b68181585d2833e84879b9709143e1f593f0000001620000336101606200047b565b6040516020818303038152906040528051906020012060001c6200005891906200069d565b600055600160075560006009556001600a5560016010553480156200007c57600080fd5b506040516200504d3803806200504d8339810160408190526200009f9162000351565b8b601260008201518160000160006101000a81548160ff021916908360ff16021790555060208201518160000160016101000a81548160ff021916908360ff16021790555060408201518160000160026101000a81548160ff021916908360ff16021790555090505089600160006101000a8154816001600160a01b0302191690836001600160a01b0316021790555088600260006101000a8154816001600160a01b0302191690836001600160a01b0316021790555087600360006101000a8154816001600160a01b0302191690836001600160a01b0316021790555086600460006101000a8154816001600160a01b0302191690836001600160a01b0316021790555085600560006101000a8154816001600160a01b0302191690836001600160a01b0316021790555084600660006101000a8154816001600160a01b0302191690836001600160a01b031602179055508360ff1660a08160ff1660f81b815250508260ff1660c08160ff1660f81b81525050816080818152505042600881905550600060018d6000015160026200023a91906200058b565b62000246919062000683565b9050808c600001511115620002785760405162461bcd60e51b81526004016200026f906200048d565b60405180910390fd5b8b5160e05260208d0151600090600190620002959060026200058b565b620002a1919062000683565b9050808d602001511115620002ca5760405162461bcd60e51b81526004016200026f90620004c4565b50506020909a0151610100525050506101209690965250620006d495505050505050565b80516001600160a01b03811681146200030657600080fd5b919050565b6000604082840312156200031d578081fd5b62000329604062000506565b9050815181526020820151602082015292915050565b805160ff811681146200030657600080fd5b6000806000806000806000806000806000808c8e036101e081121562000375578889fd5b606081121562000383578889fd5b5062000390606062000506565b6200039b8e6200033f565b8152620003ab60208f016200033f565b6020820152620003be60408f016200033f565b60408201529b50620003d48e60608f016200030b565b9a50620003e460a08e01620002ee565b9950620003f460c08e01620002ee565b98506200040460e08e01620002ee565b9750620004156101008e01620002ee565b9650620004266101208e01620002ee565b9550620004376101408e01620002ee565b9450620004486101608e016200033f565b9350620004596101808e016200033f565b92506101a08d015191506101c08d015190509295989b509295989b509295989b565b650556e697265760d41b815260060190565b6020808252601e908201527f556e697265703a20696e76616c6964206d617855736572732076616c75650000604082015260600190565b60208082526022908201527f556e697265703a20696e76616c6964206d61784174746573746572732076616c604082015261756560f01b606082015260800190565b6040518181016001600160401b03811182821017156200053657634e487b7160e01b600052604160045260246000fd5b604052919050565b80825b600180861162000552575062000582565b818704821115620005675762000567620006be565b808616156200057557918102915b9490941c93800262000541565b94509492505050565b60006200059f60001960ff851684620005a6565b9392505050565b600082620005b7575060016200059f565b81620005c6575060006200059f565b8160018114620005df5760028114620005ea576200061e565b60019150506200059f565b60ff841115620005fe57620005fe620006be565b6001841b915084821115620006175762000617620006be565b506200059f565b5060208310610133831016604e8410600b841016171562000656575081810a83811115620006505762000650620006be565b6200059f565b6200066584848460016200053e565b8086048211156200067a576200067a620006be565b02949350505050565b600082821015620006985762000698620006be565b500390565b600082620006b957634e487b7160e01b81526012600452602481fd5b500690565b634e487b7160e01b600052601160045260246000fd5b60805160a05160f81c60c05160f81c60e0516101005161012051614858620007f56000396000818161083a0152818161147001528181611b4801528181611bc7015261275601526000818161113e015281816122170152612b2c015260008181610bb101526129c00152600081816114b4015281816116f101528181611793015281816117e901528181611846015281816118a3015281816119000152818161195d015281816119ba01528181611a180152612854015260008181610ef501528181610f6101528181611c9101528181611d4d01528181611e0001528181611e8301528181611f0b01528181611f6d01528181611fc501528181612024015281816120a3015261253c0152600081816111a801526128bf01526148586000f3fe6080604052600436106102715760003560e01c806398588c1f1161014f578063b876ed71116100c1578063e1b0e8021161007a578063e1b0e802146106d4578063e79e23e9146106e9578063e87101b114610709578063f5ab0dd61461071e578063f73c8ebb1461074d578063fadd942d1461076d57610271565b8063b876ed7114610637578063bff3df4114610657578063c26396731461066a578063cd5032e21461067f578063d3aa645b1461069f578063de723886146106bf57610271565b8063a710d60f11610113578063a710d60f1461057c578063a7c264ca1461059c578063a7ebaa75146105be578063ac98e5df146105d3578063ad944e47146105f7578063b530dc8c1461061757610271565b806398588c1f146104e75780639e2e79dc14610507578063a14a9fe214610527578063a27e572a14610547578063a5500c301461055c57610271565b806357d775f8116101e857806376671808116101ac5780637667180814610460578063839beeb81461047557806385c053ae1461048a57806386826c4d1461049d5780639109d1eb146104bd578063918f0c16146104d257610271565b806357d775f8146103d85780635b3745b5146103ed578063606736fb1461040d57806366c0f31f146104205780636e85e8141461044057610271565b80631c89e8e81161023a5780631c89e8e814610316578063410a140414610343578063417b16e314610363578063456bfc7114610383578063494e2171146103a357806356df4634146103c357610271565b806292ad661461027657806305d9ab821461028b57806307d83308146102c1578063131a91ad146102d6578063132331f2146102f6575b600080fd5b6102896102843660046133d0565b610782565b005b34801561029757600080fd5b506102ab6102a636600461353c565b610908565b6040516102b89190613b03565b60405180910390f35b3480156102cd57600080fd5b506102ab61094f565b3480156102e257600080fd5b506102ab6102f1366004613366565b610955565b34801561030257600080fd5b506102ab610311366004613483565b610967565b34801561032257600080fd5b50610336610331366004613483565b610979565b6040516102b89190613af8565b34801561034f57600080fd5b5061033661035e36600461353c565b61098e565b34801561036f57600080fd5b5061028961037e366004613483565b610b80565b34801561038f57600080fd5b5061033661039e36600461367c565b610ca0565b3480156103af57600080fd5b506102896103be36600461372c565b610e94565b3480156103cf57600080fd5b5061028961110f565b3480156103e457600080fd5b506102ab6111a6565b3480156103f957600080fd5b5061033661040836600461378c565b6111ca565b61028961041b3660046135a6565b6113d6565b34801561042c57600080fd5b5061028961043b36600461353c565b6115f5565b34801561044c57600080fd5b5061033661045b3660046135a6565b6116c4565b34801561046c57600080fd5b506102ab611b40565b34801561048157600080fd5b506102ab611b46565b61028961049836600461349b565b611b6a565b3480156104a957600080fd5b506103366104b83660046136fa565b611c89565b3480156104c957600080fd5b506102ab6121d3565b3480156104de57600080fd5b506102ab6121d9565b3480156104f357600080fd5b50610289610502366004613380565b6121df565b34801561051357600080fd5b506102ab6105223660046137d1565b6122c1565b34801561053357600080fd5b506102ab6105423660046136fa565b6122fa565b34801561055357600080fd5b50610289612334565b34801561056857600080fd5b50610289610577366004613483565b612356565b34801561058857600080fd5b5061033661059736600461378c565b612394565b3480156105a857600080fd5b506105b161253a565b6040516102b89190614675565b3480156105ca57600080fd5b5061028961255e565b3480156105df57600080fd5b506105e8612573565b6040516102b893929190614683565b34801561060357600080fd5b506102ab6106123660046135a6565b61258f565b34801561062357600080fd5b506102ab610632366004613366565b6125d5565b34801561064357600080fd5b5061028961065236600461378c565b6125e7565b61028961066536600461367c565b6126bc565b34801561067657600080fd5b506105b1612852565b34801561068b57600080fd5b506102ab61069a36600461367c565b612876565b3480156106ab57600080fd5b506102ab6106ba366004613366565b6128a6565b3480156106cb57600080fd5b506102896128b8565b3480156106e057600080fd5b506102ab6129be565b3480156106f557600080fd5b506102ab61070436600461378c565b6129e2565b34801561071557600080fd5b506102ab6129fb565b34801561072a57600080fd5b5061073e610739366004613447565b612a01565b6040516102b893929190613a88565b34801561075957600080fd5b5061028961076836600461378c565b612a8a565b34801561077957600080fd5b506102ab612b2a565b6107c28686868080601f016020809104026020016040519081016040528093929190818152602001838380828437600092019190915250612b4e92505050565b6001600160a01b0386166000908152600f60205260409020546108005760405162461bcd60e51b81526004016107f790613dc6565b60405180910390fd5b6001600160a01b0386166000908152600f60205260409020548335146108385760405162461bcd60e51b81526004016107f790614333565b7f000000000000000000000000000000000000000000000000000000000000000034146108775760405162461bcd60e51b81526004016107f790613e7a565b80158015906108875750600a5481105b6108a35760405162461bcd60e51b81526004016107f7906142ba565b608083013515806108b8575082608001356001145b6108d45760405162461bcd60e51b81526004016107f790613e43565b600d546108e19034612bdb565b600d55610900866108f7368690038601866134ce565b84846000612bee565b505050505050565b600081600001518260200151836040015184606001516040516020016109319493929190613a24565b6040516020818303038152906040528051906020012090505b919050565b600d5481565b600f6020526000908152604090205481565b600b6020526000908152604090205481565b600c6020526000908152604090205460ff1681565b60408051600380825260808201909252600091829190602082016060803683370190505090508260000151816000815181106109da57634e487b7160e01b600052603260045260246000fd5b602002602001018181525050826020015181600181518110610a0c57634e487b7160e01b600052603260045260246000fd5b602002602001018181525050826040015181600281518110610a3e57634e487b7160e01b600052603260045260246000fd5b60200260200101818152505060005b81518160ff161015610ac257600080516020614803833981519152828260ff1681518110610a8b57634e487b7160e01b600052603260045260246000fd5b602002602001015110610ab05760405162461bcd60e51b81526004016107f79061436a565b80610aba81614780565b915050610a4d565b50610acb61307e565b610ad88460600151612a01565b60408085018290526020850183905283855260015490516361971b8760e11b81526001600160a01b039091169363c32e370e93610b1e9391929091908890600401613ab1565b60206040518083038186803b158015610b3657600080fd5b505afa158015610b4a573d6000803e3d6000fd5b505050506040513d601f19601f82011682018060405250810190610b6e9190613463565b15156060909101819052915050919050565b6000818152600c602052604090205460ff1615610baf5760405162461bcd60e51b81526004016107f790614226565b7f000000000000000000000000000000000000000000000000000000000000000060095410610bf05760405162461bcd60e51b81526004016107f79061426c565b336000908152600f60209081526040808320546011835281842054858552600c909352908320805460ff19166001179055600980549193610c3083614765565b91905055506007546000805160206147e38339815191526000604051610c569190613b7e565b60405180910390a2826007547faf92f92b28945d280b51131bc986d2da66b560950f1a5126f12b7f847dae8f7d8484604051610c93929190614643565b60405180910390a3505050565b60408051600580825260c082019092526000918291906020820160a080368337019050509050826000015181600081518110610cec57634e487b7160e01b600052603260045260246000fd5b602002602001018181525050826020015181600181518110610d1e57634e487b7160e01b600052603260045260246000fd5b602002602001018181525050826040015181600281518110610d5057634e487b7160e01b600052603260045260246000fd5b602002602001018181525050826060015181600381518110610d8257634e487b7160e01b600052603260045260246000fd5b602002602001018181525050826080015181600481518110610db457634e487b7160e01b600052603260045260246000fd5b60200260200101818152505060005b81518160ff161015610e3857600080516020614803833981519152828260ff1681518110610e0157634e487b7160e01b600052603260045260246000fd5b602002602001015110610e265760405162461bcd60e51b81526004016107f79061436a565b80610e3081614780565b915050610dc3565b50610e4161307e565b610e4e8460a00151612a01565b60408085018290526020850183905283855260065490516361971b8760e11b81526001600160a01b039091169363c32e370e93610b1e9391929091908890600401613ab1565b6000610e9f836122fa565b6000818152600b602052604090205490915015610ece5760405162461bcd60e51b81526004016107f790613c15565b600754836040015110610ef35760405162461bcd60e51b81526004016107f790614097565b7f000000000000000000000000000000000000000000000000000000000000000060ff1683602001515114610f3a5760405162461bcd60e51b81526004016107f7906143c7565b826060015151600214610f5f5760405162461bcd60e51b81526004016107f790613d2f565b7f000000000000000000000000000000000000000000000000000000000000000060ff168360a001515114610fa65760405162461bcd60e51b81526004016107f790614155565b60005b825181101561104057828181518110610fd257634e487b7160e01b600052603260045260246000fd5b60200260200101516000141580156110125750600a5483828151811061100857634e487b7160e01b600052603260045260246000fd5b6020026020010151105b61102e5760405162461bcd60e51b81526004016107f7906142ba565b8061103881614765565b915050610fa9565b50600a546007546040516000805160206147e38339815191529061106690600190613b7e565b60405180910390a2807f5b552a9df44a1ab5bbe960f96fe04b35454baded1ca53c89d13903661cf9fee185856040516110a0929190614572565b60405180910390a283516007546040517f5e4945fc83b420d245560b51ac02c824732652e0552b5d8537800db0c690a663906110dd908590613b03565b60405180910390a36000828152600b60205260408120829055600a80549161110483614765565b919050555050505050565b336000908152600f60205260409020541561113c5760405162461bcd60e51b81526004016107f790613bcf565b7f00000000000000000000000000000000000000000000000000000000000000006010541061117d5760405162461bcd60e51b81526004016107f790614103565b60108054336000908152600f6020526040812082905590919061119f83614765565b9190505550565b7f000000000000000000000000000000000000000000000000000000000000000081565b6040805160038082526080820190925260009182919060208201606080368337019050509050858160008151811061121257634e487b7160e01b600052603260045260246000fd5b602002602001018181525050848160018151811061124057634e487b7160e01b600052603260045260246000fd5b602002602001018181525050838160028151811061126e57634e487b7160e01b600052603260045260246000fd5b60200260200101818152505060005b81518160ff1610156112f257600080516020614803833981519152828260ff16815181106112bb57634e487b7160e01b600052603260045260246000fd5b6020026020010151106112e05760405162461bcd60e51b81526004016107f79061436a565b806112ea81614780565b91505061127d565b506112fb61307e565b6040805161010081810190925261132a9186906008908390839080828437600092019190915250612a01915050565b60408085018290526020850183905283855260025490516361971b8760e11b81526001600160a01b039091169363c32e370e936113709391929091908890600401613ab1565b60206040518083038186803b15801561138857600080fd5b505afa15801561139c573d6000803e3d6000fd5b505050506040513d601f19601f820116820180604052508101906113c09190613463565b151560609091018190529150505b949350505050565b60006113e18261258f565b6000818152600b6020526040902054909150156114105760405162461bcd60e51b81526004016107f790613c15565b336000908152600f602052604090205461143c5760405162461bcd60e51b81526004016107f790613dc6565b6080820151336000908152600f60205260409020541461146e5760405162461bcd60e51b81526004016107f790614333565b7f000000000000000000000000000000000000000000000000000000000000000034146114ad5760405162461bcd60e51b81526004016107f790613e7a565b81515160ff7f000000000000000000000000000000000000000000000000000000000000000016146114f15760405162461bcd60e51b81526004016107f790613ff2565b6007548260200151146115165760405162461bcd60e51b81526004016107f790613ec6565b6080820151336000908152600f6020526040902054146115485760405162461bcd60e51b81526004016107f79061440f565b600d546115559034612bdb565b600d556115606130b8565b336000908152600f60205260409081902054825260a084015182820152600a548482015160075492519192909183907fb2bf4a676a6a5ef7e686a52ccf9f83f83acb1cac5d2eef1e090206a688c7777e906115bc90899061449e565b60405180910390a46115d633838660400151846002612bee565b6000838152600b60205260408120829055600a80549161110483614765565b600061160082610908565b6000818152600b60205260409020549091501561162f5760405162461bcd60e51b81526004016107f790613c15565b6007548260200151146116545760405162461bcd60e51b81526004016107f790614041565b6000600a5490508260400151600754827ff897f63ef79d1e56ab9f314e1e74d030bcd34a4f0d09ed2834f1efeebf9a4ed9866040516116939190614464565b60405180910390a46000828152600b60205260408120829055600a8054916116ba83614765565b9190505550505050565b6040805160128082526102608201909252600091829190602082016102408036833701905050905060005b7f000000000000000000000000000000000000000000000000000000000000000060ff168160ff16101561178a578351805160ff831690811061174257634e487b7160e01b600052603260045260246000fd5b6020026020010151828260ff168151811061176d57634e487b7160e01b600052603260045260246000fd5b60209081029190910101528061178281614780565b9150506116ef565b508260200151817f000000000000000000000000000000000000000000000000000000000000000060ff16815181106117d357634e487b7160e01b600052603260045260246000fd5b602090810291909101015260408301518161180f7f000000000000000000000000000000000000000000000000000000000000000060016146e1565b60ff168151811061183057634e487b7160e01b600052603260045260246000fd5b602090810291909101015260608301518161186c7f000000000000000000000000000000000000000000000000000000000000000060026146e1565b60ff168151811061188d57634e487b7160e01b600052603260045260246000fd5b60209081029190910101526080830151816118c97f000000000000000000000000000000000000000000000000000000000000000060036146e1565b60ff16815181106118ea57634e487b7160e01b600052603260045260246000fd5b602090810291909101015260a0830151816119267f000000000000000000000000000000000000000000000000000000000000000060046146e1565b60ff168151811061194757634e487b7160e01b600052603260045260246000fd5b602090810291909101015260c0830151816119837f000000000000000000000000000000000000000000000000000000000000000060056146e1565b60ff16815181106119a457634e487b7160e01b600052603260045260246000fd5b602090810291909101015260e0830151816119e07f000000000000000000000000000000000000000000000000000000000000000060066146e1565b60ff1681518110611a0157634e487b7160e01b600052603260045260246000fd5b602090810291909101015261010083015181611a3e7f000000000000000000000000000000000000000000000000000000000000000060076146e1565b60ff1681518110611a5f57634e487b7160e01b600052603260045260246000fd5b60200260200101818152505060005b81518160ff161015611ae357600080516020614803833981519152828260ff1681518110611aac57634e487b7160e01b600052603260045260246000fd5b602002602001015110611ad15760405162461bcd60e51b81526004016107f79061436a565b80611adb81614780565b915050611a6e565b50611aec61307e565b611afa846101200151612a01565b60408085018290526020850183905283855260055490516361971b8760e11b81526001600160a01b039091169363c32e370e93610b1e9391929091908890600401613ab1565b60075481565b7f000000000000000000000000000000000000000000000000000000000000000081565b336000908152600f6020526040902054611b965760405162461bcd60e51b81526004016107f790613dc6565b336000908152600f6020526040902054833514611bc55760405162461bcd60e51b81526004016107f790614333565b7f00000000000000000000000000000000000000000000000000000000000000003414611c045760405162461bcd60e51b81526004016107f790613e7a565b8015801590611c145750600a5481105b611c305760405162461bcd60e51b81526004016107f7906142ba565b60808301351580611c45575082608001356001145b611c615760405162461bcd60e51b81526004016107f790613e43565b600d54611c6e9034612bdb565b600d55611c84336108f7368690038601866134ce565b505050565b600080611cb77f00000000000000000000000000000000000000000000000000000000000000006002614725565b611cc29060066146e1565b60ff166001600160401b03811115611cea57634e487b7160e01b600052604160045260246000fd5b604051908082528060200260200182016040528015611d13578160200160208202803683370190505b509050826000015181600081518110611d3c57634e487b7160e01b600052603260045260246000fd5b60200260200101818152505060005b7f000000000000000000000000000000000000000000000000000000000000000060ff168160ff161015611df45783602001518160ff1681518110611da057634e487b7160e01b600052603260045260246000fd5b602002602001015182826001611db691906146e1565b60ff1681518110611dd757634e487b7160e01b600052603260045260246000fd5b602090810291909101015280611dec81614780565b915050611d4b565b50604083015181611e267f000000000000000000000000000000000000000000000000000000000000000060016146e1565b60ff1681518110611e4757634e487b7160e01b600052603260045260246000fd5b6020026020010181815250508260600151600081518110611e7857634e487b7160e01b600052603260045260246000fd5b6020026020010151817f00000000000000000000000000000000000000000000000000000000000000006002611eae91906146e1565b60ff1681518110611ecf57634e487b7160e01b600052603260045260246000fd5b6020026020010181815250508260600151600181518110611f0057634e487b7160e01b600052603260045260246000fd5b6020026020010151817f00000000000000000000000000000000000000000000000000000000000000006003611f3691906146e1565b60ff1681518110611f5757634e487b7160e01b600052603260045260246000fd5b6020908102919091010152608083015181611f937f000000000000000000000000000000000000000000000000000000000000000060046146e1565b60ff1681518110611fb457634e487b7160e01b600052603260045260246000fd5b60200260200101818152505060005b7f000000000000000000000000000000000000000000000000000000000000000060ff168160ff161015612097578360a001518160ff168151811061201857634e487b7160e01b600052603260045260246000fd5b602002602001015182827f0000000000000000000000000000000000000000000000000000000000000000600561204f91906146e1565b61205991906146e1565b60ff168151811061207a57634e487b7160e01b600052603260045260246000fd5b60209081029190910101528061208f81614780565b915050611fc3565b5060c0830151816120c97f00000000000000000000000000000000000000000000000000000000000000006002614725565b6120d49060056146e1565b60ff16815181106120f557634e487b7160e01b600052603260045260246000fd5b60200260200101818152505060005b81518160ff16101561217957600080516020614803833981519152828260ff168151811061214257634e487b7160e01b600052603260045260246000fd5b6020026020010151106121675760405162461bcd60e51b81526004016107f79061436a565b8061217181614780565b915050612104565b5061218261307e565b61218f8460e00151612a01565b6040808501829052602085018390528385526004805491516361971b8760e11b81526001600160a01b039092169463c32e370e94610b1e9491939092899101613ab1565b60105481565b60095481565b6001600160a01b0383166000908152600f6020526040902054156122155760405162461bcd60e51b81526004016107f790613bcf565b7f0000000000000000000000000000000000000000000000000000000000000000601054106122565760405162461bcd60e51b81526004016107f790614103565b6122968383838080601f016020809104026020016040519081016040528093929190818152602001838380828437600092019190915250612b4e92505050565b601080546001600160a01b0385166000908152600f602052604081208290559091906116ba83614765565b6000848484846040516020016122da9493929190613a24565b604051602081830303815290604052805190602001209050949350505050565b80516020808301516040808501516060860151608087015160a088015160c089015160e08a015195516000996109319990989791016139a0565b336000818152600e602052604081208054919055906123539082612cfa565b50565b336000908152600f60205260409020546123825760405162461bcd60e51b81526004016107f790613dc6565b33600090815260116020526040902055565b604080516003808252608082019092526000918291906020820160608036833701905050905085816000815181106123dc57634e487b7160e01b600052603260045260246000fd5b602002602001018181525050848160018151811061240a57634e487b7160e01b600052603260045260246000fd5b602002602001018181525050838160028151811061243857634e487b7160e01b600052603260045260246000fd5b60200260200101818152505060005b81518160ff1610156124bc57600080516020614803833981519152828260ff168151811061248557634e487b7160e01b600052603260045260246000fd5b6020026020010151106124aa5760405162461bcd60e51b81526004016107f79061436a565b806124b481614780565b915050612447565b506124c561307e565b604080516101008181019092526124f49186906008908390839080828437600092019190915250612a01915050565b60408085018290526020850183905283855260035490516361971b8760e11b81526001600160a01b039091169363c32e370e936113709391929091908890600401613ab1565b7f000000000000000000000000000000000000000000000000000000000000000081565b600d8054600091829055906123539082612cfa565b60125460ff808216916101008104821691620100009091041683565b80516020808301516040808501516060860151608087015160a088015160c089015160e08a01516101008b01516101208c0151975160009b6109319b909a999101613911565b60116020526000908152604090205481565b600061261e8585858560088060200260405190810160405280929190826008602002808284376000920191909152506122c1915050565b6000818152600b60205260409020549091501561264d5760405162461bcd60e51b81526004016107f790613c15565b6000600a5490508386827fc70a0250765c7e3a778b8771883540e979ac92fa4002835744533497db8706468887604051612688929190614627565b60405180910390a46000828152600b60205260408120829055600a8054916126af83614765565b9190505550505050505050565b60006126c782612876565b6000818152600b6020526040902054909150156126f65760405162461bcd60e51b81526004016107f790613c15565b336000908152600f60205260409020546127225760405162461bcd60e51b81526004016107f790613dc6565b6060820151336000908152600f6020526040902054146127545760405162461bcd60e51b81526004016107f790614333565b7f000000000000000000000000000000000000000000000000000000000000000034146127935760405162461bcd60e51b81526004016107f790613e7a565b6007548251146127b55760405162461bcd60e51b81526004016107f790613cdb565b600d546127c29034612bdb565b600d556127cd6130b8565b336000818152600f602090815260408083205485529282526011815290829020548382015260016080840152600a549085015160075492519192909183907f58b1080086db5bb58e2e8e2f28dc2a26b705277257655e9296c7ebfcfb8171369061283890899061452b565b60405180910390a46115d633838660200151846001612bee565b7f000000000000000000000000000000000000000000000000000000000000000081565b80516020808301516040808501516060860151608087015160a08801519351600097610931979096959101613a4f565b600e6020526000908152604090205481565b60005a90507f0000000000000000000000000000000000000000000000000000000000000000600854426128ec919061474e565b101561290a5760405162461bcd60e51b81526004016107f790613e0c565b6007546000805160206147e3833981519152600360405161292b9190613b7e565b60405180910390a26007546040517f751bb1ba7b27b3979a32844d4d05aa16a46a771b751593704834a80311e3a9b990600090a2426008556007805490600061297383614765565b919050555060006129855a8390612d96565b90506129aa612994823a612da2565b336000908152600e602052604090205490612bdb565b336000908152600e60205260409020555050565b7f000000000000000000000000000000000000000000000000000000000000000081565b6000848484846040516020016122da94939291906139f8565b60085481565b612a096130e7565b612a11613105565b612a196130e7565b50506040805180820182528351815260208085015181830152825160808082018552868501518286019081526060808901519084015282528451808601865290870151815260a08701518184015281830152835180850190945260c0860151845260e0909501519083015293909150565b6000612a98858585856129e2565b6000818152600b602052604090205490915015612ac75760405162461bcd60e51b81526004016107f790613c15565b6000600a54905083817ff32686467e2fc0ec47df070bcf076510ff790a7ec36e2c65de53ce0d17906b69888887604051612b0393929190614651565b60405180910390a36000828152600b60205260408120829055600a8054916126af83614765565b7f000000000000000000000000000000000000000000000000000000000000000081565b60008230604051602001612b639291906138ea565b60405160208183030381529060405280519060200120604051602001612b89919061396c565b604051602081830303815290604052805190602001209050826001600160a01b0316612bb58284612dae565b6001600160a01b031614611c845760405162461bcd60e51b81526004016107f790613d7c565b6000612be782846146c9565b9392505050565b600080516020614803833981519152846020015110612c1f5760405162461bcd60e51b81526004016107f7906141a2565b600080516020614803833981519152846040015110612c505760405162461bcd60e51b81526004016107f7906142f1565b600080516020614803833981519152846060015110612c815760405162461bcd60e51b81526004016107f790613c97565b6007546000805160206147e38339815191526002604051612ca29190613b7e565b60405180910390a2846001600160a01b0316836007547f3a0dabdc1ebfc4192cad296a31d4a97f1707db33942ac6f9dc78229a858f139d848887604051612ceb93929190613b2a565b60405180910390a45050505050565b80471015612d1a5760405162461bcd60e51b81526004016107f790613fbb565b6000826001600160a01b031682604051612d339061399d565b60006040518083038185875af1925050503d8060008114612d70576040519150601f19603f3d011682016040523d82523d6000602084013e612d75565b606091505b5050905080611c845760405162461bcd60e51b81526004016107f790613f1c565b6000612be7828461474e565b6000612be78284614706565b6000806000612dbd8585612dd2565b91509150612dca81612e42565b509392505050565b600080825160411415612e095760208301516040840151606085015160001a612dfd87828585612f6f565b94509450505050612e3b565b825160401415612e335760208301516040840151612e2886838361304f565b935093505050612e3b565b506000905060025b9250929050565b6000816004811115612e6457634e487b7160e01b600052602160045260246000fd5b1415612e6f57612353565b6001816004811115612e9157634e487b7160e01b600052602160045260246000fd5b1415612eaf5760405162461bcd60e51b81526004016107f790613b98565b6002816004811115612ed157634e487b7160e01b600052602160045260246000fd5b1415612eef5760405162461bcd60e51b81526004016107f790613c60565b6003816004811115612f1157634e487b7160e01b600052602160045260246000fd5b1415612f2f5760405162461bcd60e51b81526004016107f790613f79565b6004816004811115612f5157634e487b7160e01b600052602160045260246000fd5b14156123535760405162461bcd60e51b81526004016107f7906141e4565b6000807f7fffffffffffffffffffffffffffffff5d576e7357a4501ddfe92f46681b20a0831115612fa65750600090506003613046565b8460ff16601b14158015612fbe57508460ff16601c14155b15612fcf5750600090506004613046565b600060018787878760405160008152602001604052604051612ff49493929190613b0c565b6020604051602081039080840390855afa158015613016573d6000803e3d6000fd5b5050604051601f1901519150506001600160a01b03811661303f57600060019250925050613046565b9150600090505b94509492505050565b6000806001600160ff1b03831660ff84901c601b0161307087828885612f6f565b935093505050935093915050565b60405180608001604052806130916130e7565b815260200161309e613105565b81526020016130ab6130e7565b8152600060209091015290565b6040518060a0016040528060008152602001600081526020016000815260200160008152602001600081525090565b60405180604001604052806002906020820280368337509192915050565b60405180604001604052806002905b61311c6130e7565b8152602001906001900390816131145790505090565b80356001600160a01b038116811461094a57600080fd5b600082601f830112613159578081fd5b6040516101008082018281106001600160401b038211171561317d5761317d6147cc565b6040528184828101871015613190578485fd5b8492505b60088310156131b457803582526001929092019160209182019101613194565b509195945050505050565b600082601f8301126131cf578081fd5b813560206001600160401b038211156131ea576131ea6147cc565b8082026131f88282016146a0565b838152828101908684018388018501891015613212578687fd5b8693505b85841015613234578035835260019390930192918401918401613216565b50979650505050505050565b60008083601f840112613251578182fd5b5081356001600160401b03811115613267578182fd5b602083019150836020828501011115612e3b57600080fd5b600060a08284031215613290578081fd5b50919050565b60006101e082840312156132a8578081fd5b6132b36101006146a0565b90508135815260208201356001600160401b03808211156132d357600080fd5b6132df858386016131bf565b602084015260408401356040840152606084013591508082111561330257600080fd5b61330e858386016131bf565b60608401526080840135608084015260a084013591508082111561333157600080fd5b5061333e848285016131bf565b60a08301525060c082013560c082015261335b8360e08401613149565b60e082015292915050565b600060208284031215613377578081fd5b612be782613132565b600080600060408486031215613394578182fd5b61339d84613132565b925060208401356001600160401b038111156133b7578283fd5b6133c386828701613240565b9497909650939450505050565b60008060008060008061012087890312156133e9578182fd5b6133f287613132565b955060208701356001600160401b0381111561340c578283fd5b61341889828a01613240565b909650945061342c9050886040890161327f565b925060e0870135915061010087013590509295509295509295565b60006101008284031215613459578081fd5b612be78383613149565b600060208284031215613474578081fd5b81518015158114612be7578182fd5b600060208284031215613494578081fd5b5035919050565b600080600060e084860312156134af578081fd5b6134b9858561327f565b9560a0850135955060c0909401359392505050565b600060a082840312156134df578081fd5b60405160a081018181106001600160401b0382111715613501576135016147cc565b806040525082358152602083013560208201526040830135604082015260608301356060820152608083013560808201528091505092915050565b6000610160828403121561354e578081fd5b604051608081018181106001600160401b0382111715613570576135706147cc565b806040525082358152602083013560208201526040830135604082015261359a8460608501613149565b60608201529392505050565b6000602082840312156135b7578081fd5b81356001600160401b03808211156135cd578283fd5b9083019061022082860312156135e1578283fd5b6135ec6101406146a0565b8235828111156135fa578485fd5b613606878286016131bf565b8252506020830135602082015260408301356040820152606083013560608201526080830135608082015260a083013560a082015260c083013560c082015260e083013560e082015261010091508183013582820152610120915061366d86838501613149565b91810191909152949350505050565b60006101a0828403121561368e578081fd5b60405160c081018181106001600160401b03821117156136b0576136b06147cc565b806040525082358152602083013560208201526040830135604082015260608301356060820152608083013560808201526136ee8460a08501613149565b60a08201529392505050565b60006020828403121561370b578081fd5b81356001600160401b03811115613720578182fd5b6113ce84828501613296565b6000806040838503121561373e578182fd5b82356001600160401b0380821115613754578384fd5b61376086838701613296565b93506020850135915080821115613775578283fd5b50613782858286016131bf565b9150509250929050565b6000806000806101608086880312156137a3578283fd5b8535945060208601359350604086013592508681870111156137c3578182fd5b509295919450926060019150565b60008060008061016085870312156137e7578182fd5b8435935060208501359250604085013591506138068660608701613149565b905092959194509250565b8060005b600281101561383f57613829848351613845565b6040939093019260209190910190600101613815565b50505050565b8060005b600281101561383f578151845260209384019390910190600101613849565b8060005b600881101561383f57815184526020938401939091019060010161386c565b6000815180845260208085019450808401835b838110156138ba5781518752958201959082019060010161389e565b509495945050505050565b805160009060208084018383156138ba5781518752958201959082019060010161389e565b6bffffffffffffffffffffffff19606093841b811682529190921b16601482015260280190565b600061391d828d6138c5565b8b81528a60208201528960408201528860608201528760808201528660a08201528560c08201528460e0820152613958610100820185613868565b610200019c9b505050505050505050505050565b7f19457468657265756d205369676e6564204d6573736167653a0a3332000000008152601c810191909152603c0190565b90565b60008982526139b2602083018a6138c5565b8881526139c260208201896138c5565b90508681526139d460208201876138c5565b90508481526139e66020820185613868565b610120019a9950505050505050505050565b600085825284602083015283604083015261010083606084013761016091909101908152949350505050565b6000858252846020830152836040830152613a426060830184613868565b5061016001949350505050565b6000878252866020830152856040830152846060830152836080830152613a7960a0830184613868565b506101a0019695505050505050565b6101008101613a978286613845565b613aa46040830185613811565b6113ce60c0830184613845565b6000610120613ac08388613845565b613acd6040840187613811565b613ada60c0840186613845565b80610100840152613aed8184018561388b565b979650505050505050565b901515815260200190565b90815260200190565b93845260ff9290921660208401526040830152606082015260800190565b60e0810160038510613b3e57613b3e6147b6565b84825283516020830152602084015160408301526040840151606083015260608401516080830152608084015160a08301528260c0830152949350505050565b6020810160048310613b9257613b926147b6565b91905290565b60208082526018908201527f45434453413a20696e76616c6964207369676e61747572650000000000000000604082015260600190565b60208082526026908201527f556e697265703a2061747465737465722068617320616c72656164792073696760408201526506e65642075760d41b606082015260800190565b6020808252602b908201527f556e697265703a207468652070726f6f6620686173206265656e207375626d6960408201526a74746564206265666f726560a81b606082015260800190565b6020808252601f908201527f45434453413a20696e76616c6964207369676e6174757265206c656e67746800604082015260600190565b60208082526024908201527f556e697265703a20696e76616c6964206174746573746174696f6e20677261666040820152636669746960e01b606082015260800190565b60208082526034908201527f556e697265703a207375626d697420616e2061697264726f702070726f6f66206040820152730eed2e8d040d2dcc6dee4e4cac6e840cae0dec6d60631b606082015260800190565b6020808252602d908201527f556e697265703a20696e76616c6964206e756d626572206f6620626c696e646560408201526c6420757365722073746174657360981b606082015260800190565b6020808252602a908201527f556e697265703a20696e76616c6964206174746573746572207369676e207570604082015269207369676e617475726560b01b606082015260800190565b60208082526026908201527f556e697265703a20617474657374657220686173206e6f74207369676e6564206040820152651d5c081e595d60d21b606082015260800190565b6020808252601b908201527f556e697265703a2065706f6368206e6f742079657420656e6465640000000000604082015260600190565b6020808252601c908201527f556e697265703a20696e76616c6964207369676e20757020666c616700000000604082015260600190565b6020808252602c908201527f556e697265703a206e6f20617474657374696e6720666565206f7220696e636f60408201526b1c9c9958dd08185b5bdd5b9d60a21b606082015260800190565b60208082526036908201527f556e697265703a207375626d697420612072657075746174696f6e2070726f6f6040820152750cc40eed2e8d040d2dcc6dee4e4cac6e840cae0dec6d60531b606082015260800190565b6020808252603a908201527f416464726573733a20756e61626c6520746f2073656e642076616c75652c207260408201527f6563697069656e74206d61792068617665207265766572746564000000000000606082015260800190565b60208082526022908201527f45434453413a20696e76616c6964207369676e6174757265202773272076616c604082015261756560f01b606082015260800190565b6020808252601d908201527f416464726573733a20696e73756666696369656e742062616c616e6365000000604082015260600190565b6020808252602f908201527f556e697265703a20696e76616c6964206e756d626572206f662072657075746160408201526e74696f6e206e756c6c69666965727360881b606082015260800190565b60208082526036908201527f556e697265703a207375626d697420616e2065706f6368206b65792070726f6f6040820152750cc40eed2e8d040d2dcc6dee4e4cac6e840cae0dec6d60531b606082015260800190565b60208082526046908201527f43616e206e6f74207472616e736974696f6e2066726f6d2065706f636820746860408201527f617427732067726561746572206f7220657175616c20746f2063757272656e74606082015265040cae0dec6d60d31b608082015260a00190565b60208082526032908201527f556e697265703a206d6178696d756d206e756d626572206f6620617474657374604082015271195c881cda59db9d5c1cc81c995858da195960721b606082015260800190565b6020808252602d908201527f556e697265703a20696e76616c6964206e756d626572206f6620626c696e646560408201526c64206861736820636861696e7360981b606082015260800190565b60208082526022908201527f556e697265703a20696e76616c6964206174746573746174696f6e20706f7352604082015261065760f41b606082015260800190565b60208082526022908201527f45434453413a20696e76616c6964207369676e6174757265202776272076616c604082015261756560f01b606082015260800190565b60208082526026908201527f556e697265703a2074686520757365722068617320616c72656164792073696760408201526506e65642075760d41b606082015260800190565b6020808252602e908201527f556e697265703a206d6178696d756d206e756d626572206f662075736572207360408201526d1a59db9d5c1cc81c995858da195960921b606082015260800190565b6020808252601b908201527f556e697265703a20696e76616c69642070726f6f6620696e6465780000000000604082015260600190565b60208082526022908201527f556e697265703a20696e76616c6964206174746573746174696f6e206e656752604082015261065760f41b606082015260800190565b6020808252601d908201527f556e697265703a206d69736d6174636865642061747465737465724964000000604082015260600190565b6020808252603c908201527f556e697265703a2065616368207075626c6963207369676e616c206d7573742060408201527f6265206c742074686520736e61726b207363616c6172206669656c6400000000606082015260800190565b60208082526028908201527f556e697265703a20696e76616c6964206e756d626572206f662065706b206e756040820152676c6c69666965727360c01b606082015260800190565b60208082526035908201527f556e697265703a20696e636f727265637420617474657374657220494420696e604082015274103a3432903932b83aba30ba34b7b710383937b7b360591b606082015260800190565b60006101608201905082518252602083015160208301526040830151604083015260608301516144976060840182613868565b5092915050565b600060208252825161022060208401526144bc61024084018261388b565b9050602084015160408401526040840151606084015260608401516080840152608084015160a084015260a084015160c084015260c084015160e084015260e0840151610100818186015280860151915050610120818186015280860151915050612dca610140850182613868565b60006101a082019050825182526020830151602083015260408301516040830152606083015160608301526080830151608083015260a083015161449760a0840182613868565b6000604082528351604083015260208401516101e0606084015261459a61022084018261388b565b9050604085015160808401526060850151603f19808584030160a08601526145c2838361388b565b9250608087015160c086015260a08701519150808584030160e0860152506145ea828261388b565b91505060c085015161010084015260e085015161460b610120850182613868565b50828103602084015261461e818561388b565b95945050505050565b8281526101208101610100836020840137600081529392505050565b918252602082015260400190565b83815260208101839052610140810161010083604084013760008152949350505050565b60ff91909116815260200190565b60ff93841681529183166020830152909116604082015260600190565b6040518181016001600160401b03811182821017156146c1576146c16147cc565b604052919050565b600082198211156146dc576146dc6147a0565b500190565b600060ff821660ff84168060ff038211156146fe576146fe6147a0565b019392505050565b6000816000190483118215151615614720576147206147a0565b500290565b600060ff821660ff84168160ff0481118215151615614746576147466147a0565b029392505050565b600082821015614760576147606147a0565b500390565b6000600019821415614779576147796147a0565b5060010190565b600060ff821660ff811415614797576147976147a0565b60010192915050565b634e487b7160e01b600052601160045260246000fd5b634e487b7160e01b600052602160045260246000fd5b634e487b7160e01b600052604160045260246000fdfea3019980c7e9844ee00c3f7584f329ac6dae8bcc2e08a756cf9651c8d2e96a6d30644e72e131a029b85045b68181585d2833e84879b9709143e1f593f0000001a264697066735822122049f33920ca984317a014669b2f1aad4c71672c0c692380ef964227d701d4078364736f6c63430008000033",
  "linkReferences": {},
  "deployedLinkReferences": {}
}