{
  "_format": "hh-sol-artifact-1",
  "contractName": "Unirep",
  "sourceName": "@unirep/contracts/contracts/Unirep.sol",
  "abi": [
    {
      "inputs": [
        {
          "components": [
            {
              "internalType": "uint8",
              "name": "globalStateTreeDepth",
              "type": "uint8"
            },
            {
              "internalType": "uint8",
              "name": "userStateTreeDepth",
              "type": "uint8"
            },
            {
              "internalType": "uint8",
              "name": "epochTreeDepth",
              "type": "uint8"
            }
          ],
          "internalType": "struct UnirepParameters.TreeDepths",
          "name": "_treeDepths",
          "type": "tuple"
        },
        {
          "components": [
            {
              "internalType": "uint256",
              "name": "maxUsers",
              "type": "uint256"
            },
            {
              "internalType": "uint256",
              "name": "maxAttesters",
              "type": "uint256"
            }
          ],
          "internalType": "struct UnirepParameters.MaxValues",
          "name": "_maxValues",
          "type": "tuple"
        },
        {
          "internalType": "contract EpochKeyValidityVerifier",
          "name": "_epkValidityVerifier",
          "type": "address"
        },
        {
          "internalType": "contract StartTransitionVerifier",
          "name": "_startTransitionVerifier",
          "type": "address"
        },
        {
          "internalType": "contract ProcessAttestationsVerifier",
          "name": "_processAttestationsVerifier",
          "type": "address"
        },
        {
          "internalType": "contract UserStateTransitionVerifier",
          "name": "_userStateTransitionVerifier",
          "type": "address"
        },
        {
          "internalType": "contract ReputationVerifier",
          "name": "_reputationVerifier",
          "type": "address"
        },
        {
          "internalType": "contract UserSignUpVerifier",
          "name": "_userSignUpVerifier",
          "type": "address"
        },
        {
          "internalType": "uint8",
          "name": "_numEpochKeyNoncePerEpoch",
          "type": "uint8"
        },
        {
          "internalType": "uint8",
          "name": "_maxReputationBudget",
          "type": "uint8"
        },
        {
          "internalType": "uint256",
          "name": "_epochLength",
          "type": "uint256"
        },
        {
          "internalType": "uint256",
          "name": "_attestingFee",
          "type": "uint256"
        }
      ],
      "stateMutability": "nonpayable",
      "type": "constructor"
    },
    {
      "anonymous": false,
      "inputs": [
        {
          "indexed": true,
          "internalType": "uint256",
          "name": "_epoch",
          "type": "uint256"
        },
        {
          "indexed": true,
          "internalType": "uint256",
          "name": "_epochKey",
          "type": "uint256"
        },
        {
          "indexed": true,
          "internalType": "address",
          "name": "_attester",
          "type": "address"
        },
        {
          "indexed": false,
          "internalType": "string",
          "name": "_event",
          "type": "string"
        },
        {
          "components": [
            {
              "internalType": "uint256",
              "name": "attesterId",
              "type": "uint256"
            },
            {
              "internalType": "uint256",
              "name": "posRep",
              "type": "uint256"
            },
            {
              "internalType": "uint256",
              "name": "negRep",
              "type": "uint256"
            },
            {
              "internalType": "uint256",
              "name": "graffiti",
              "type": "uint256"
            },
            {
              "internalType": "uint256",
              "name": "signUp",
              "type": "uint256"
            }
          ],
          "indexed": false,
          "internalType": "struct DomainObjs.Attestation",
          "name": "attestation",
          "type": "tuple"
        },
        {
          "indexed": false,
          "internalType": "uint256",
          "name": "_proofIndex",
          "type": "uint256"
        }
      ],
      "name": "AttestationSubmitted",
      "type": "event"
    },
    {
      "anonymous": false,
      "inputs": [
        {
          "indexed": true,
          "internalType": "uint256",
          "name": "_epoch",
          "type": "uint256"
        }
      ],
      "name": "EpochEnded",
      "type": "event"
    },
    {
      "anonymous": false,
      "inputs": [
        {
          "indexed": true,
          "internalType": "uint256",
          "name": "_proofIndex",
          "type": "uint256"
        },
        {
          "indexed": true,
          "internalType": "uint256",
          "name": "_epoch",
          "type": "uint256"
        },
        {
          "indexed": true,
          "internalType": "uint256",
          "name": "_epochKey",
          "type": "uint256"
        },
        {
          "components": [
            {
              "internalType": "uint256",
              "name": "globalStateTree",
              "type": "uint256"
            },
            {
              "internalType": "uint256",
              "name": "epoch",
              "type": "uint256"
            },
            {
              "internalType": "uint256",
              "name": "epochKey",
              "type": "uint256"
            },
            {
              "internalType": "uint256[8]",
              "name": "proof",
              "type": "uint256[8]"
            }
          ],
          "indexed": false,
          "internalType": "struct UnirepParameters.EpochKeyProofRelated",
          "name": "epochKeyProofData",
          "type": "tuple"
        }
      ],
      "name": "EpochKeyProof",
      "type": "event"
    },
    {
      "anonymous": false,
      "inputs": [
        {
          "indexed": true,
          "internalType": "uint256",
          "name": "_epoch",
          "type": "uint256"
        },
        {
          "indexed": false,
          "internalType": "uint256",
          "name": "_hashedLeaf",
          "type": "uint256"
        },
        {
          "indexed": false,
          "internalType": "uint256",
          "name": "_proofIndex",
          "type": "uint256"
        }
      ],
      "name": "NewGSTLeafInserted",
      "type": "event"
    },
    {
      "anonymous": false,
      "inputs": [
        {
          "indexed": true,
          "internalType": "uint256",
          "name": "_proofIndex",
          "type": "uint256"
        },
        {
          "indexed": true,
          "internalType": "uint256",
          "name": "_inputBlindedUserState",
          "type": "uint256"
        },
        {
          "indexed": false,
          "internalType": "uint256",
          "name": "_outputBlindedUserState",
          "type": "uint256"
        },
        {
          "indexed": false,
          "internalType": "uint256",
          "name": "_outputBlindedHashChain",
          "type": "uint256"
        },
        {
          "indexed": false,
          "internalType": "uint256[8]",
          "name": "_proof",
          "type": "uint256[8]"
        }
      ],
      "name": "ProcessedAttestationsProof",
      "type": "event"
    },
    {
      "anonymous": false,
      "inputs": [
        {
          "indexed": true,
          "internalType": "uint256",
          "name": "_proofIndex",
          "type": "uint256"
        },
        {
          "indexed": true,
          "internalType": "uint256",
          "name": "_epoch",
          "type": "uint256"
        },
        {
          "indexed": true,
          "internalType": "uint256",
          "name": "_epochKey",
          "type": "uint256"
        },
        {
          "components": [
            {
              "internalType": "uint256[]",
              "name": "repNullifiers",
              "type": "uint256[]"
            },
            {
              "internalType": "uint256",
              "name": "epoch",
              "type": "uint256"
            },
            {
              "internalType": "uint256",
              "name": "epochKey",
              "type": "uint256"
            },
            {
              "internalType": "uint256",
              "name": "globalStateTree",
              "type": "uint256"
            },
            {
              "internalType": "uint256",
              "name": "attesterId",
              "type": "uint256"
            },
            {
              "internalType": "uint256",
              "name": "proveReputationAmount",
              "type": "uint256"
            },
            {
              "internalType": "uint256",
              "name": "minRep",
              "type": "uint256"
            },
            {
              "internalType": "uint256",
              "name": "proveGraffiti",
              "type": "uint256"
            },
            {
              "internalType": "uint256",
              "name": "graffitiPreImage",
              "type": "uint256"
            },
            {
              "internalType": "uint256[8]",
              "name": "proof",
              "type": "uint256[8]"
            }
          ],
          "indexed": false,
          "internalType": "struct UnirepParameters.ReputationProofRelated",
          "name": "reputationProofData",
          "type": "tuple"
        }
      ],
      "name": "ReputationNullifierProof",
      "type": "event"
    },
    {
      "anonymous": false,
      "inputs": [
        {
          "indexed": true,
          "internalType": "uint256",
          "name": "_epoch",
          "type": "uint256"
        },
        {
          "indexed": false,
          "internalType": "string",
          "name": "_event",
          "type": "string"
        }
      ],
      "name": "Sequencer",
      "type": "event"
    },
    {
      "anonymous": false,
      "inputs": [
        {
          "indexed": true,
          "internalType": "uint256",
          "name": "_proofIndex",
          "type": "uint256"
        },
        {
          "indexed": true,
          "internalType": "uint256",
          "name": "_blindedUserState",
          "type": "uint256"
        },
        {
          "indexed": true,
          "internalType": "uint256",
          "name": "_globalStateTree",
          "type": "uint256"
        },
        {
          "indexed": false,
          "internalType": "uint256",
          "name": "_blindedHashChain",
          "type": "uint256"
        },
        {
          "indexed": false,
          "internalType": "uint256[8]",
          "name": "_proof",
          "type": "uint256[8]"
        }
      ],
      "name": "StartedTransitionProof",
      "type": "event"
    },
    {
      "anonymous": false,
      "inputs": [
        {
          "indexed": true,
          "internalType": "uint256",
          "name": "_proofIndex",
          "type": "uint256"
        },
        {
          "indexed": false,
          "internalType": "uint256",
          "name": "_identityCommitment",
          "type": "uint256"
        },
        {
          "indexed": false,
          "internalType": "uint256",
          "name": "_attesterId",
          "type": "uint256"
        },
        {
          "indexed": false,
          "internalType": "uint256",
          "name": "_airdropAmount",
          "type": "uint256"
        }
      ],
      "name": "UserSignUp",
      "type": "event"
    },
    {
      "anonymous": false,
      "inputs": [
        {
          "indexed": true,
          "internalType": "uint256",
          "name": "_proofIndex",
          "type": "uint256"
        },
        {
          "indexed": true,
          "internalType": "uint256",
          "name": "_epoch",
          "type": "uint256"
        },
        {
          "indexed": true,
          "internalType": "uint256",
          "name": "_epochKey",
          "type": "uint256"
        },
        {
          "components": [
            {
              "internalType": "uint256",
              "name": "epoch",
              "type": "uint256"
            },
            {
              "internalType": "uint256",
              "name": "epochKey",
              "type": "uint256"
            },
            {
              "internalType": "uint256",
              "name": "globalStateTree",
              "type": "uint256"
            },
            {
              "internalType": "uint256",
              "name": "attesterId",
              "type": "uint256"
            },
            {
              "internalType": "uint256",
              "name": "userHasSignedUp",
              "type": "uint256"
            },
            {
              "internalType": "uint256[8]",
              "name": "proof",
              "type": "uint256[8]"
            }
          ],
          "indexed": false,
          "internalType": "struct UnirepParameters.SignUpProofRelated",
          "name": "signUpProofData",
          "type": "tuple"
        }
      ],
      "name": "UserSignedUpProof",
      "type": "event"
    },
    {
      "anonymous": false,
      "inputs": [
        {
          "indexed": true,
          "internalType": "uint256",
          "name": "_proofIndex",
          "type": "uint256"
        },
        {
          "components": [
            {
              "internalType": "uint256",
              "name": "newGlobalStateTreeLeaf",
              "type": "uint256"
            },
            {
              "internalType": "uint256[]",
              "name": "epkNullifiers",
              "type": "uint256[]"
            },
            {
              "internalType": "uint256",
              "name": "transitionFromEpoch",
              "type": "uint256"
            },
            {
              "internalType": "uint256[]",
              "name": "blindedUserStates",
              "type": "uint256[]"
            },
            {
              "internalType": "uint256",
              "name": "fromGlobalStateTree",
              "type": "uint256"
            },
            {
              "internalType": "uint256[]",
              "name": "blindedHashChains",
              "type": "uint256[]"
            },
            {
              "internalType": "uint256",
              "name": "fromEpochTree",
              "type": "uint256"
            },
            {
              "internalType": "uint256[8]",
              "name": "proof",
              "type": "uint256[8]"
            }
          ],
          "indexed": false,
          "internalType": "struct UnirepParameters.UserTransitionedRelated",
          "name": "userTransitionedData",
          "type": "tuple"
        },
        {
          "indexed": false,
          "internalType": "uint256[]",
          "name": "_proofIndexRecords",
          "type": "uint256[]"
        }
      ],
      "name": "UserStateTransitionProof",
      "type": "event"
    },
    {
      "inputs": [
        {
          "internalType": "address",
          "name": "",
          "type": "address"
        }
      ],
      "name": "airdropAmount",
      "outputs": [
        {
          "internalType": "uint256",
          "name": "",
          "type": "uint256"
        }
      ],
      "stateMutability": "view",
      "type": "function"
    },
    {
      "inputs": [
        {
          "components": [
            {
              "internalType": "uint256",
              "name": "epoch",
              "type": "uint256"
            },
            {
              "internalType": "uint256",
              "name": "epochKey",
              "type": "uint256"
            },
            {
              "internalType": "uint256",
              "name": "globalStateTree",
              "type": "uint256"
            },
            {
              "internalType": "uint256",
              "name": "attesterId",
              "type": "uint256"
            },
            {
              "internalType": "uint256",
              "name": "userHasSignedUp",
              "type": "uint256"
            },
            {
              "internalType": "uint256[8]",
              "name": "proof",
              "type": "uint256[8]"
            }
          ],
          "internalType": "struct UnirepParameters.SignUpProofRelated",
          "name": "signUpProofData",
          "type": "tuple"
        }
      ],
      "name": "airdropEpochKey",
      "outputs": [],
      "stateMutability": "payable",
      "type": "function"
    },
    {
      "inputs": [],
      "name": "attesterSignUp",
      "outputs": [],
      "stateMutability": "nonpayable",
      "type": "function"
    },
    {
      "inputs": [
        {
          "internalType": "address",
          "name": "attester",
          "type": "address"
        },
        {
          "internalType": "bytes",
          "name": "signature",
          "type": "bytes"
        }
      ],
      "name": "attesterSignUpViaRelayer",
      "outputs": [],
      "stateMutability": "nonpayable",
      "type": "function"
    },
    {
      "inputs": [
        {
          "internalType": "address",
          "name": "",
          "type": "address"
        }
      ],
      "name": "attesters",
      "outputs": [
        {
          "internalType": "uint256",
          "name": "",
          "type": "uint256"
        }
      ],
      "stateMutability": "view",
      "type": "function"
    },
    {
      "inputs": [],
      "name": "attestingFee",
      "outputs": [
        {
          "internalType": "uint256",
          "name": "",
          "type": "uint256"
        }
      ],
      "stateMutability": "view",
      "type": "function"
    },
    {
      "inputs": [],
      "name": "beginEpochTransition",
      "outputs": [],
      "stateMutability": "nonpayable",
      "type": "function"
    },
    {
      "inputs": [],
      "name": "burnAttestingFee",
      "outputs": [],
      "stateMutability": "nonpayable",
      "type": "function"
    },
    {
      "inputs": [
        {
          "internalType": "uint256",
          "name": "_leafIndex",
          "type": "uint256"
        },
        {
          "internalType": "uint256",
          "name": "_leafValue",
          "type": "uint256"
        }
      ],
      "name": "calcAirdropUSTRoot",
      "outputs": [
        {
          "internalType": "uint256",
          "name": "",
          "type": "uint256"
        }
      ],
      "stateMutability": "view",
      "type": "function"
    },
    {
      "inputs": [],
      "name": "collectEpochTransitionCompensation",
      "outputs": [],
      "stateMutability": "nonpayable",
      "type": "function"
    },
    {
      "inputs": [],
      "name": "collectedAttestingFee",
      "outputs": [
        {
          "internalType": "uint256",
          "name": "",
          "type": "uint256"
        }
      ],
      "stateMutability": "view",
      "type": "function"
    },
    {
      "inputs": [
        {
          "internalType": "uint8",
          "name": "_treeLevels",
          "type": "uint8"
        },
        {
          "internalType": "uint256",
          "name": "_zeroValue",
          "type": "uint256"
        }
      ],
      "name": "computeEmptyRoot",
      "outputs": [
        {
          "internalType": "uint256",
          "name": "",
          "type": "uint256"
        }
      ],
      "stateMutability": "pure",
      "type": "function"
    },
    {
      "inputs": [
        {
          "internalType": "uint8",
          "name": "_treeLevels",
          "type": "uint8"
        },
        {
          "internalType": "uint256",
          "name": "_leafIndex",
          "type": "uint256"
        },
        {
          "internalType": "uint256",
          "name": "_leafValue",
          "type": "uint256"
        },
        {
          "internalType": "uint256",
          "name": "_zeroValue",
          "type": "uint256"
        }
      ],
      "name": "computeOneNonZeroLeafRoot",
      "outputs": [
        {
          "internalType": "uint256",
          "name": "",
          "type": "uint256"
        }
      ],
      "stateMutability": "pure",
      "type": "function"
    },
    {
      "inputs": [],
      "name": "currentEpoch",
      "outputs": [
        {
          "internalType": "uint256",
          "name": "",
          "type": "uint256"
        }
      ],
      "stateMutability": "view",
      "type": "function"
    },
    {
      "inputs": [],
      "name": "emptyGlobalStateTreeRoot",
      "outputs": [
        {
          "internalType": "uint256",
          "name": "",
          "type": "uint256"
        }
      ],
      "stateMutability": "view",
      "type": "function"
    },
    {
      "inputs": [],
      "name": "emptyUserStateRoot",
      "outputs": [
        {
          "internalType": "uint256",
          "name": "",
          "type": "uint256"
        }
      ],
      "stateMutability": "view",
      "type": "function"
    },
    {
      "inputs": [],
      "name": "epochLength",
      "outputs": [
        {
          "internalType": "uint256",
          "name": "",
          "type": "uint256"
        }
      ],
      "stateMutability": "view",
      "type": "function"
    },
    {
      "inputs": [
        {
          "internalType": "address",
          "name": "",
          "type": "address"
        }
      ],
      "name": "epochTransitionCompensation",
      "outputs": [
        {
          "internalType": "uint256",
          "name": "",
          "type": "uint256"
        }
      ],
      "stateMutability": "view",
      "type": "function"
    },
    {
      "inputs": [
        {
          "internalType": "bytes32",
          "name": "",
          "type": "bytes32"
        }
      ],
      "name": "getProofIndex",
      "outputs": [
        {
          "internalType": "uint256",
          "name": "",
          "type": "uint256"
        }
      ],
      "stateMutability": "view",
      "type": "function"
    },
    {
      "inputs": [
        {
          "internalType": "uint256",
          "name": "",
          "type": "uint256"
        }
      ],
      "name": "hasUserSignedUp",
      "outputs": [
        {
          "internalType": "bool",
          "name": "",
          "type": "bool"
        }
      ],
      "stateMutability": "view",
      "type": "function"
    },
    {
      "inputs": [
        {
          "internalType": "uint256[5]",
          "name": "array",
          "type": "uint256[5]"
        }
      ],
      "name": "hash5",
      "outputs": [
        {
          "internalType": "uint256",
          "name": "",
          "type": "uint256"
        }
      ],
      "stateMutability": "pure",
      "type": "function"
    },
    {
      "inputs": [
        {
          "internalType": "uint256",
          "name": "airdropPosRep",
          "type": "uint256"
        }
      ],
      "name": "hashAirdroppedLeaf",
      "outputs": [
        {
          "internalType": "uint256",
          "name": "",
          "type": "uint256"
        }
      ],
      "stateMutability": "pure",
      "type": "function"
    },
    {
      "inputs": [
        {
          "components": [
            {
              "internalType": "uint256",
              "name": "globalStateTree",
              "type": "uint256"
            },
            {
              "internalType": "uint256",
              "name": "epoch",
              "type": "uint256"
            },
            {
              "internalType": "uint256",
              "name": "epochKey",
              "type": "uint256"
            },
            {
              "internalType": "uint256[8]",
              "name": "proof",
              "type": "uint256[8]"
            }
          ],
          "internalType": "struct UnirepParameters.EpochKeyProofRelated",
          "name": "epochKeyProofData",
          "type": "tuple"
        }
      ],
      "name": "hashEpochKeyProof",
      "outputs": [
        {
          "internalType": "bytes32",
          "name": "",
          "type": "bytes32"
        }
      ],
      "stateMutability": "pure",
      "type": "function"
    },
    {
      "inputs": [
        {
          "internalType": "uint256",
          "name": "_left",
          "type": "uint256"
        },
        {
          "internalType": "uint256",
          "name": "_right",
          "type": "uint256"
        }
      ],
      "name": "hashLeftRight",
      "outputs": [
        {
          "internalType": "uint256",
          "name": "",
          "type": "uint256"
        }
      ],
      "stateMutability": "pure",
      "type": "function"
    },
    {
      "inputs": [
        {
          "internalType": "uint256",
          "name": "_outputBlindedUserState",
          "type": "uint256"
        },
        {
          "internalType": "uint256",
          "name": "_outputBlindedHashChain",
          "type": "uint256"
        },
        {
          "internalType": "uint256",
          "name": "_inputBlindedUserState",
          "type": "uint256"
        },
        {
          "internalType": "uint256[8]",
          "name": "_proof",
          "type": "uint256[8]"
        }
      ],
      "name": "hashProcessAttestationsProof",
      "outputs": [
        {
          "internalType": "bytes32",
          "name": "",
          "type": "bytes32"
        }
      ],
      "stateMutability": "pure",
      "type": "function"
    },
    {
      "inputs": [
        {
          "components": [
            {
              "internalType": "uint256[]",
              "name": "repNullifiers",
              "type": "uint256[]"
            },
            {
              "internalType": "uint256",
              "name": "epoch",
              "type": "uint256"
            },
            {
              "internalType": "uint256",
              "name": "epochKey",
              "type": "uint256"
            },
            {
              "internalType": "uint256",
              "name": "globalStateTree",
              "type": "uint256"
            },
            {
              "internalType": "uint256",
              "name": "attesterId",
              "type": "uint256"
            },
            {
              "internalType": "uint256",
              "name": "proveReputationAmount",
              "type": "uint256"
            },
            {
              "internalType": "uint256",
              "name": "minRep",
              "type": "uint256"
            },
            {
              "internalType": "uint256",
              "name": "proveGraffiti",
              "type": "uint256"
            },
            {
              "internalType": "uint256",
              "name": "graffitiPreImage",
              "type": "uint256"
            },
            {
              "internalType": "uint256[8]",
              "name": "proof",
              "type": "uint256[8]"
            }
          ],
          "internalType": "struct UnirepParameters.ReputationProofRelated",
          "name": "reputationProofData",
          "type": "tuple"
        }
      ],
      "name": "hashReputationProof",
      "outputs": [
        {
          "internalType": "bytes32",
          "name": "",
          "type": "bytes32"
        }
      ],
      "stateMutability": "pure",
      "type": "function"
    },
    {
      "inputs": [
        {
          "components": [
            {
              "internalType": "uint256",
              "name": "epoch",
              "type": "uint256"
            },
            {
              "internalType": "uint256",
              "name": "epochKey",
              "type": "uint256"
            },
            {
              "internalType": "uint256",
              "name": "globalStateTree",
              "type": "uint256"
            },
            {
              "internalType": "uint256",
              "name": "attesterId",
              "type": "uint256"
            },
            {
              "internalType": "uint256",
              "name": "userHasSignedUp",
              "type": "uint256"
            },
            {
              "internalType": "uint256[8]",
              "name": "proof",
              "type": "uint256[8]"
            }
          ],
          "internalType": "struct UnirepParameters.SignUpProofRelated",
          "name": "signUpProofData",
          "type": "tuple"
        }
      ],
      "name": "hashSignUpProof",
      "outputs": [
        {
          "internalType": "bytes32",
          "name": "",
          "type": "bytes32"
        }
      ],
      "stateMutability": "pure",
      "type": "function"
    },
    {
      "inputs": [
        {
          "internalType": "uint256",
          "name": "_blindedUserState",
          "type": "uint256"
        },
        {
          "internalType": "uint256",
          "name": "_blindedHashChain",
          "type": "uint256"
        },
        {
          "internalType": "uint256",
          "name": "_globalStateTree",
          "type": "uint256"
        },
        {
          "internalType": "uint256[8]",
          "name": "_proof",
          "type": "uint256[8]"
        }
      ],
      "name": "hashStartTransitionProof",
      "outputs": [
        {
          "internalType": "bytes32",
          "name": "",
          "type": "bytes32"
        }
      ],
      "stateMutability": "pure",
      "type": "function"
    },
    {
      "inputs": [
        {
          "components": [
            {
              "internalType": "uint256",
              "name": "identityCommitment",
              "type": "uint256"
            },
            {
              "internalType": "uint256",
              "name": "userStateRoot",
              "type": "uint256"
            }
          ],
          "internalType": "struct DomainObjs.StateLeaf",
          "name": "_stateLeaf",
          "type": "tuple"
        }
      ],
      "name": "hashStateLeaf",
      "outputs": [
        {
          "internalType": "uint256",
          "name": "",
          "type": "uint256"
        }
      ],
      "stateMutability": "pure",
      "type": "function"
    },
    {
      "inputs": [
        {
          "components": [
            {
              "internalType": "uint256",
              "name": "newGlobalStateTreeLeaf",
              "type": "uint256"
            },
            {
              "internalType": "uint256[]",
              "name": "epkNullifiers",
              "type": "uint256[]"
            },
            {
              "internalType": "uint256",
              "name": "transitionFromEpoch",
              "type": "uint256"
            },
            {
              "internalType": "uint256[]",
              "name": "blindedUserStates",
              "type": "uint256[]"
            },
            {
              "internalType": "uint256",
              "name": "fromGlobalStateTree",
              "type": "uint256"
            },
            {
              "internalType": "uint256[]",
              "name": "blindedHashChains",
              "type": "uint256[]"
            },
            {
              "internalType": "uint256",
              "name": "fromEpochTree",
              "type": "uint256"
            },
            {
              "internalType": "uint256[8]",
              "name": "proof",
              "type": "uint256[8]"
            }
          ],
          "internalType": "struct UnirepParameters.UserTransitionedRelated",
          "name": "userTransitionedData",
          "type": "tuple"
        }
      ],
      "name": "hashUserStateTransitionProof",
      "outputs": [
        {
          "internalType": "bytes32",
          "name": "",
          "type": "bytes32"
        }
      ],
      "stateMutability": "pure",
      "type": "function"
    },
    {
      "inputs": [],
      "name": "hashedBlankStateLeaf",
      "outputs": [
        {
          "internalType": "uint256",
          "name": "",
          "type": "uint256"
        }
      ],
      "stateMutability": "view",
      "type": "function"
    },
    {
      "inputs": [],
      "name": "latestEpochTransitionTime",
      "outputs": [
        {
          "internalType": "uint256",
          "name": "",
          "type": "uint256"
        }
      ],
      "stateMutability": "view",
      "type": "function"
    },
    {
      "inputs": [],
      "name": "maxAttesters",
      "outputs": [
        {
          "internalType": "uint256",
          "name": "",
          "type": "uint256"
        }
      ],
      "stateMutability": "view",
      "type": "function"
    },
    {
      "inputs": [],
      "name": "maxReputationBudget",
      "outputs": [
        {
          "internalType": "uint8",
          "name": "",
          "type": "uint8"
        }
      ],
      "stateMutability": "view",
      "type": "function"
    },
    {
      "inputs": [],
      "name": "maxUsers",
      "outputs": [
        {
          "internalType": "uint256",
          "name": "",
          "type": "uint256"
        }
      ],
      "stateMutability": "view",
      "type": "function"
    },
    {
      "inputs": [],
      "name": "nextAttesterId",
      "outputs": [
        {
          "internalType": "uint256",
          "name": "",
          "type": "uint256"
        }
      ],
      "stateMutability": "view",
      "type": "function"
    },
    {
      "inputs": [],
      "name": "numEpochKeyNoncePerEpoch",
      "outputs": [
        {
          "internalType": "uint8",
          "name": "",
          "type": "uint8"
        }
      ],
      "stateMutability": "view",
      "type": "function"
    },
    {
      "inputs": [],
      "name": "numUserSignUps",
      "outputs": [
        {
          "internalType": "uint256",
          "name": "",
          "type": "uint256"
        }
      ],
      "stateMutability": "view",
      "type": "function"
    },
    {
      "inputs": [
        {
          "internalType": "uint256",
          "name": "_outputBlindedUserState",
          "type": "uint256"
        },
        {
          "internalType": "uint256",
          "name": "_outputBlindedHashChain",
          "type": "uint256"
        },
        {
          "internalType": "uint256",
          "name": "_inputBlindedUserState",
          "type": "uint256"
        },
        {
          "internalType": "uint256[8]",
          "name": "_proof",
          "type": "uint256[8]"
        }
      ],
      "name": "processAttestations",
      "outputs": [],
      "stateMutability": "nonpayable",
      "type": "function"
    },
    {
      "inputs": [
        {
          "internalType": "uint256",
          "name": "_airdropAmount",
          "type": "uint256"
        }
      ],
      "name": "setAirdropAmount",
      "outputs": [],
      "stateMutability": "nonpayable",
      "type": "function"
    },
    {
      "inputs": [
        {
          "components": [
            {
              "internalType": "uint256[]",
              "name": "repNullifiers",
              "type": "uint256[]"
            },
            {
              "internalType": "uint256",
              "name": "epoch",
              "type": "uint256"
            },
            {
              "internalType": "uint256",
              "name": "epochKey",
              "type": "uint256"
            },
            {
              "internalType": "uint256",
              "name": "globalStateTree",
              "type": "uint256"
            },
            {
              "internalType": "uint256",
              "name": "attesterId",
              "type": "uint256"
            },
            {
              "internalType": "uint256",
              "name": "proveReputationAmount",
              "type": "uint256"
            },
            {
              "internalType": "uint256",
              "name": "minRep",
              "type": "uint256"
            },
            {
              "internalType": "uint256",
              "name": "proveGraffiti",
              "type": "uint256"
            },
            {
              "internalType": "uint256",
              "name": "graffitiPreImage",
              "type": "uint256"
            },
            {
              "internalType": "uint256[8]",
              "name": "proof",
              "type": "uint256[8]"
            }
          ],
          "internalType": "struct UnirepParameters.ReputationProofRelated",
          "name": "reputationProofData",
          "type": "tuple"
        }
      ],
      "name": "spendReputation",
      "outputs": [],
      "stateMutability": "payable",
      "type": "function"
    },
    {
      "inputs": [
        {
          "internalType": "uint256",
          "name": "_blindedUserState",
          "type": "uint256"
        },
        {
          "internalType": "uint256",
          "name": "_blindedHashChain",
          "type": "uint256"
        },
        {
          "internalType": "uint256",
          "name": "_globalStateTree",
          "type": "uint256"
        },
        {
          "internalType": "uint256[8]",
          "name": "_proof",
          "type": "uint256[8]"
        }
      ],
      "name": "startUserStateTransition",
      "outputs": [],
      "stateMutability": "nonpayable",
      "type": "function"
    },
    {
      "inputs": [
        {
          "components": [
            {
              "internalType": "uint256",
              "name": "attesterId",
              "type": "uint256"
            },
            {
              "internalType": "uint256",
              "name": "posRep",
              "type": "uint256"
            },
            {
              "internalType": "uint256",
              "name": "negRep",
              "type": "uint256"
            },
            {
              "internalType": "uint256",
              "name": "graffiti",
              "type": "uint256"
            },
            {
              "internalType": "uint256",
              "name": "signUp",
              "type": "uint256"
            }
          ],
          "internalType": "struct DomainObjs.Attestation",
          "name": "attestation",
          "type": "tuple"
        },
        {
          "internalType": "uint256",
          "name": "epochKey",
          "type": "uint256"
        },
        {
          "internalType": "uint256",
          "name": "_proofIndex",
          "type": "uint256"
        }
      ],
      "name": "submitAttestation",
      "outputs": [],
      "stateMutability": "payable",
      "type": "function"
    },
    {
      "inputs": [
        {
          "internalType": "address",
          "name": "attester",
          "type": "address"
        },
        {
          "internalType": "bytes",
          "name": "signature",
          "type": "bytes"
        },
        {
          "components": [
            {
              "internalType": "uint256",
              "name": "attesterId",
              "type": "uint256"
            },
            {
              "internalType": "uint256",
              "name": "posRep",
              "type": "uint256"
            },
            {
              "internalType": "uint256",
              "name": "negRep",
              "type": "uint256"
            },
            {
              "internalType": "uint256",
              "name": "graffiti",
              "type": "uint256"
            },
            {
              "internalType": "uint256",
              "name": "signUp",
              "type": "uint256"
            }
          ],
          "internalType": "struct DomainObjs.Attestation",
          "name": "attestation",
          "type": "tuple"
        },
        {
          "internalType": "uint256",
          "name": "epochKey",
          "type": "uint256"
        },
        {
          "internalType": "uint256",
          "name": "_proofIndex",
          "type": "uint256"
        }
      ],
      "name": "submitAttestationViaRelayer",
      "outputs": [],
      "stateMutability": "payable",
      "type": "function"
    },
    {
      "inputs": [
        {
          "components": [
            {
              "internalType": "uint256",
              "name": "globalStateTree",
              "type": "uint256"
            },
            {
              "internalType": "uint256",
              "name": "epoch",
              "type": "uint256"
            },
            {
              "internalType": "uint256",
              "name": "epochKey",
              "type": "uint256"
            },
            {
              "internalType": "uint256[8]",
              "name": "proof",
              "type": "uint256[8]"
            }
          ],
          "internalType": "struct UnirepParameters.EpochKeyProofRelated",
          "name": "epochKeyProofData",
          "type": "tuple"
        }
      ],
      "name": "submitEpochKeyProof",
      "outputs": [],
      "stateMutability": "nonpayable",
      "type": "function"
    },
    {
      "inputs": [],
      "name": "treeDepths",
      "outputs": [
        {
          "internalType": "uint8",
          "name": "globalStateTreeDepth",
          "type": "uint8"
        },
        {
          "internalType": "uint8",
          "name": "userStateTreeDepth",
          "type": "uint8"
        },
        {
          "internalType": "uint8",
          "name": "epochTreeDepth",
          "type": "uint8"
        }
      ],
      "stateMutability": "view",
      "type": "function"
    },
    {
      "inputs": [
        {
          "internalType": "uint256[8]",
          "name": "_proof",
          "type": "uint256[8]"
        }
      ],
      "name": "unpackProof",
      "outputs": [
        {
          "internalType": "uint256[2]",
          "name": "",
          "type": "uint256[2]"
        },
        {
          "internalType": "uint256[2][2]",
          "name": "",
          "type": "uint256[2][2]"
        },
        {
          "internalType": "uint256[2]",
          "name": "",
          "type": "uint256[2]"
        }
      ],
      "stateMutability": "pure",
      "type": "function"
    },
    {
      "inputs": [
        {
          "components": [
            {
              "internalType": "uint256",
              "name": "newGlobalStateTreeLeaf",
              "type": "uint256"
            },
            {
              "internalType": "uint256[]",
              "name": "epkNullifiers",
              "type": "uint256[]"
            },
            {
              "internalType": "uint256",
              "name": "transitionFromEpoch",
              "type": "uint256"
            },
            {
              "internalType": "uint256[]",
              "name": "blindedUserStates",
              "type": "uint256[]"
            },
            {
              "internalType": "uint256",
              "name": "fromGlobalStateTree",
              "type": "uint256"
            },
            {
              "internalType": "uint256[]",
              "name": "blindedHashChains",
              "type": "uint256[]"
            },
            {
              "internalType": "uint256",
              "name": "fromEpochTree",
              "type": "uint256"
            },
            {
              "internalType": "uint256[8]",
              "name": "proof",
              "type": "uint256[8]"
            }
          ],
          "internalType": "struct UnirepParameters.UserTransitionedRelated",
          "name": "userTransitionedData",
          "type": "tuple"
        },
        {
          "internalType": "uint256[]",
          "name": "proofIndexRecords",
          "type": "uint256[]"
        }
      ],
      "name": "updateUserStateRoot",
      "outputs": [],
      "stateMutability": "nonpayable",
      "type": "function"
    },
    {
      "inputs": [
        {
          "internalType": "uint256",
          "name": "_identityCommitment",
          "type": "uint256"
        }
      ],
      "name": "userSignUp",
      "outputs": [],
      "stateMutability": "nonpayable",
      "type": "function"
    },
    {
      "inputs": [
        {
          "internalType": "uint256",
          "name": "_globalStateTree",
          "type": "uint256"
        },
        {
          "internalType": "uint256",
          "name": "_epoch",
          "type": "uint256"
        },
        {
          "internalType": "uint256",
          "name": "_epochKey",
          "type": "uint256"
        },
        {
          "internalType": "uint256[8]",
          "name": "_proof",
          "type": "uint256[8]"
        }
      ],
      "name": "verifyEpochKeyValidity",
      "outputs": [
        {
          "internalType": "bool",
          "name": "",
          "type": "bool"
        }
      ],
      "stateMutability": "view",
      "type": "function"
    },
    {
      "inputs": [
        {
          "internalType": "uint256",
          "name": "_outputBlindedUserState",
          "type": "uint256"
        },
        {
          "internalType": "uint256",
          "name": "_outputBlindedHashChain",
          "type": "uint256"
        },
        {
          "internalType": "uint256",
          "name": "_inputBlindedUserState",
          "type": "uint256"
        },
        {
          "internalType": "uint256[8]",
          "name": "_proof",
          "type": "uint256[8]"
        }
      ],
      "name": "verifyProcessAttestationProof",
      "outputs": [
        {
          "internalType": "bool",
          "name": "",
          "type": "bool"
        }
      ],
      "stateMutability": "view",
      "type": "function"
    },
    {
      "inputs": [
        {
          "internalType": "uint256[]",
          "name": "_repNullifiers",
          "type": "uint256[]"
        },
        {
          "internalType": "uint256",
          "name": "_epoch",
          "type": "uint256"
        },
        {
          "internalType": "uint256",
          "name": "_epochKey",
          "type": "uint256"
        },
        {
          "internalType": "uint256",
          "name": "_globalStateTree",
          "type": "uint256"
        },
        {
          "internalType": "uint256",
          "name": "_attesterId",
          "type": "uint256"
        },
        {
          "internalType": "uint256",
          "name": "_proveReputationAmount",
          "type": "uint256"
        },
        {
          "internalType": "uint256",
          "name": "_minRep",
          "type": "uint256"
        },
        {
          "internalType": "uint256",
          "name": "_proveGraffiti",
          "type": "uint256"
        },
        {
          "internalType": "uint256",
          "name": "_graffitiPreImage",
          "type": "uint256"
        },
        {
          "internalType": "uint256[8]",
          "name": "_proof",
          "type": "uint256[8]"
        }
      ],
      "name": "verifyReputation",
      "outputs": [
        {
          "internalType": "bool",
          "name": "",
          "type": "bool"
        }
      ],
      "stateMutability": "view",
      "type": "function"
    },
    {
      "inputs": [
        {
          "internalType": "uint256",
          "name": "_blindedUserState",
          "type": "uint256"
        },
        {
          "internalType": "uint256",
          "name": "_blindedHashChain",
          "type": "uint256"
        },
        {
          "internalType": "uint256",
          "name": "_GSTRoot",
          "type": "uint256"
        },
        {
          "internalType": "uint256[8]",
          "name": "_proof",
          "type": "uint256[8]"
        }
      ],
      "name": "verifyStartTransitionProof",
      "outputs": [
        {
          "internalType": "bool",
          "name": "",
          "type": "bool"
        }
      ],
      "stateMutability": "view",
      "type": "function"
    },
    {
      "inputs": [
        {
          "internalType": "uint256",
          "name": "_epoch",
          "type": "uint256"
        },
        {
          "internalType": "uint256",
          "name": "_epochKey",
          "type": "uint256"
        },
        {
          "internalType": "uint256",
          "name": "_globalStateTree",
          "type": "uint256"
        },
        {
          "internalType": "uint256",
          "name": "_attesterId",
          "type": "uint256"
        },
        {
          "internalType": "uint256",
          "name": "_userHasSignedUp",
          "type": "uint256"
        },
        {
          "internalType": "uint256[8]",
          "name": "_proof",
          "type": "uint256[8]"
        }
      ],
      "name": "verifyUserSignUp",
      "outputs": [
        {
          "internalType": "bool",
          "name": "",
          "type": "bool"
        }
      ],
      "stateMutability": "view",
      "type": "function"
    },
    {
      "inputs": [
        {
          "internalType": "uint256",
          "name": "_newGlobalStateTreeLeaf",
          "type": "uint256"
        },
        {
          "internalType": "uint256[]",
          "name": "_epkNullifiers",
          "type": "uint256[]"
        },
        {
          "internalType": "uint256",
          "name": "_transitionFromEpoch",
          "type": "uint256"
        },
        {
          "internalType": "uint256[]",
          "name": "_blindedUserStates",
          "type": "uint256[]"
        },
        {
          "internalType": "uint256",
          "name": "_fromGlobalStateTree",
          "type": "uint256"
        },
        {
          "internalType": "uint256[]",
          "name": "_blindedHashChains",
          "type": "uint256[]"
        },
        {
          "internalType": "uint256",
          "name": "_fromEpochTree",
          "type": "uint256"
        },
        {
          "internalType": "uint256[8]",
          "name": "_proof",
          "type": "uint256[8]"
        }
      ],
      "name": "verifyUserStateTransition",
      "outputs": [
        {
          "internalType": "bool",
          "name": "",
          "type": "bool"
        }
      ],
      "stateMutability": "view",
      "type": "function"
    }
  ],
  "bytecode": "0x6101606040527f30644e72e131a029b85045b68181585d2833e84879b9709143e1f593f00000016200003361018062000762565b6040516020818303038152906040528051906020012060001c62000058919062000a56565b60005560016007556000600a556001600b5560016011553480156200007c57600080fd5b5060405162005f3638038062005f368339810160408190526200009f916200061f565b8b601360008201518160000160006101000a81548160ff021916908360ff16021790555060208201518160000160016101000a81548160ff021916908360ff16021790555060408201518160000160026101000a81548160ff021916908360ff16021790555090505089600160006101000a8154816001600160a01b0302191690836001600160a01b0316021790555088600260006101000a8154816001600160a01b0302191690836001600160a01b0316021790555087600360006101000a8154816001600160a01b0302191690836001600160a01b0316021790555086600460006101000a8154816001600160a01b0302191690836001600160a01b0316021790555085600560006101000a8154816001600160a01b0302191690836001600160a01b0316021790555084600660006101000a8154816001600160a01b0302191690836001600160a01b031602179055508360ff1660c08160ff1660f81b815250508260ff1660e08160ff1660f81b81525050816080818152505042600881905550600060018d6000015160026200023a919062000921565b62000246919062000a19565b9050808c600001511115620002785760405162461bcd60e51b81526004016200026f9062000823565b60405180910390fd5b8b516101005260208d01516000906001906200029690600262000921565b620002a2919062000a19565b9050808d602001511115620002cb5760405162461bcd60e51b81526004016200026f906200085a565b6020808e0151610120528e0151620002e3906200030e565b6009558d51620002f39062000390565b60a0525050610140525062000a8d9950505050505050505050565b60006200031a62000585565b60005b60058160ff1610156200036a576000828260ff16600581106200035057634e487b7160e01b600052603260045260246000fd5b602002015280620003618162000a33565b9150506200031d565b5060006200037882620003b4565b90506200038684826200044a565b925050505b919050565b604080518082019091526000808252600954602083015290816200037882620004d2565b604051630926f44b60e31b815260009073__$61800e922196a95eb70dc1bd65191ef757$__90634937a25890620003f0908590600401620007a7565b60206040518083038186803b1580156200040957600080fd5b505af41580156200041e573d6000803e3d6000fd5b505050506040513d601f19601f8201168201806040525081019062000444919062000749565b92915050565b6000808360ff161180156200046457506101008360ff1611155b620004835760405162461bcd60e51b81526004016200026f90620007d1565b8160015b8460ff168160ff161015620004bd576000620004a48380620004e2565b9250819050620004b48162000a33565b91505062000487565b50620004ca8180620004e2565b949350505050565b8051602082015160009162000444915b6000620004ee620005a3565b838152602081018390526040516314d2f97b60e11b815273__$0098a6e9267037f9f6df61985348dda7d9$__906329a5f2f6906200053190849060040162000774565b60206040518083038186803b1580156200054a57600080fd5b505af41580156200055f573d6000803e3d6000fd5b505050506040513d601f19601f82011682018060405250810190620004ca919062000749565b6040518060a001604052806005906020820280368337509192915050565b60405180604001604052806002906020820280368337509192915050565b80516001600160a01b03811681146200038b57600080fd5b600060408284031215620005eb578081fd5b620005f760406200089c565b9050815181526020820151602082015292915050565b805160ff811681146200038b57600080fd5b6000806000806000806000806000806000808c8e036101e081121562000643578889fd5b606081121562000651578889fd5b506200065e60606200089c565b620006698e6200060d565b81526200067960208f016200060d565b60208201526200068c60408f016200060d565b60408201529b50620006a28e60608f01620005d9565b9a50620006b260a08e01620005c1565b9950620006c260c08e01620005c1565b9850620006d260e08e01620005c1565b9750620006e36101008e01620005c1565b9650620006f46101208e01620005c1565b9550620007056101408e01620005c1565b9450620007166101608e016200060d565b9350620007276101808e016200060d565b92506101a08d015191506101c08d015190509295989b509295989b509295989b565b6000602082840312156200075b578081fd5b5051919050565b650556e697265760d41b815260060190565b60408101818360005b60028110156200079e5781518352602092830192909101906001016200077d565b50505092915050565b60a08101818360005b60058110156200079e578151835260209283019290910190600101620007b0565b60208082526032908201527f436f6d70757465526f6f743a205f747265654c6576656c73206d757374206265604082015271103132ba3bb2b2b710181030b73210191a9b60711b606082015260800190565b6020808252601e908201527f556e697265703a20696e76616c6964206d617855736572732076616c75650000604082015260600190565b60208082526022908201527f556e697265703a20696e76616c6964206d61784174746573746572732076616c604082015261756560f01b606082015260800190565b6040518181016001600160401b0381118282101715620008cc57634e487b7160e01b600052604160045260246000fd5b604052919050565b80825b6001808611620008e8575062000918565b818704821115620008fd57620008fd62000a77565b808616156200090b57918102915b9490941c938002620008d7565b94509492505050565b60006200093560001960ff8516846200093c565b9392505050565b6000826200094d5750600162000935565b816200095c5750600062000935565b81600181146200097557600281146200098057620009b4565b600191505062000935565b60ff84111562000994576200099462000a77565b6001841b915084821115620009ad57620009ad62000a77565b5062000935565b5060208310610133831016604e8410600b8410161715620009ec575081810a83811115620009e657620009e662000a77565b62000935565b620009fb8484846001620008d4565b80860482111562000a105762000a1062000a77565b02949350505050565b60008282101562000a2e5762000a2e62000a77565b500390565b600060ff821660ff81141562000a4d5762000a4d62000a77565b60010192915050565b60008262000a7257634e487b7160e01b81526012600452602481fd5b500690565b634e487b7160e01b600052601160045260246000fd5b60805160a05160c05160f81c60e05160f81c61010051610120516101405161537d62000bb960003960008181610a370152818161192001528181611bdd01528181611d1b015261262e01526000818161155401528181611de50152612f7001526000818161113a01526128bc015260008181610bcb01528181610c6601528181610cb801528181610d1101528181610d6a01528181610dc301528181610e1c01528181610e7501528181610ece015281816119640152612752015260008181611335015281816113a1015281816121b801528181612905015281816129bd01528181612a6701528181612ae501528181612b6801528181612bc601528181612c1e01528181612c780152612cf301526000611fb00152600081816115be01526127be015261537d6000f3fe60806040526004361061034f5760003560e01c80639cfced97116101c6578063bff3df41116100f7578063e79e23e911610095578063f5ab0dd61161006f578063f5ab0dd6146108fb578063f73c8ebb1461092a578063fadd942d1461094a578063fc14478a1461095f5761034f565b8063e79e23e9146108a6578063e87101b1146108c6578063f20ca7ff146108db5761034f565b8063cd5032e2116100d1578063cd5032e21461083c578063d3aa645b1461085c578063de7238861461087c578063e1b0e802146108915761034f565b8063bff3df41146107ff578063c263967314610812578063c6e01232146108275761034f565b8063a7c264ca11610164578063ad944e471161013e578063ad944e471461077f578063b530dc8c1461079f578063b876ed71146107bf578063be997571146107df5761034f565b8063a7c264ca14610724578063a7ebaa7514610746578063ac98e5df1461075b5761034f565b8063a27e572a116101a0578063a27e572a146106ba578063a3836b20146106cf578063a5500c30146106e4578063a710d60f146107045761034f565b80639cfced971461065a5780639e2e79dc1461067a578063a14a9fe21461069a5761034f565b806357d775f8116102a0578063766718081161023e57806385c053ae1161021857806385c053ae146105fd5780639109d1eb14610610578063918f0c161461062557806398588c1f1461063a5761034f565b806376671808146105b3578063839beeb8146105c857806383e168ad146105dd5761034f565b8063606736fb1161027a578063606736fb1461054b57806366c0f31f1461055e578063705edd391461057e5780637341ead9146105935761034f565b806357d775f8146104f65780635b3745b51461050b5780635bb939951461052b5761034f565b80632b95f97e1161030d578063417b16e3116102e7578063417b16e314610481578063494e2171146104a15780634edc9ace146104c157806356df4634146104e15761034f565b80632b95f97e146104215780633334dc5b146104415780633acce985146104615761034f565b806292ad661461035457806305d9ab821461036957806307d833081461039f578063131a91ad146103b4578063132331f2146103d45780631c89e8e8146103f4575b600080fd5b610367610362366004613a6a565b61097f565b005b34801561037557600080fd5b50610389610384366004613ced565b610af1565b60405161039691906144ee565b60405180910390f35b3480156103ab57600080fd5b50610389610b38565b3480156103c057600080fd5b506103896103cf366004613a00565b610b3e565b3480156103e057600080fd5b506103896103ef366004613c34565b610b50565b34801561040057600080fd5b5061041461040f366004613c34565b610b62565b60405161039691906144e3565b34801561042d57600080fd5b5061038961043c366004613c34565b610b77565b34801561044d57600080fd5b5061041461045c366004613b73565b610b9e565b34801561046d57600080fd5b5061038961047c366004614061565b611083565b34801561048d57600080fd5b5061036761049c366004613c34565b611109565b3480156104ad57600080fd5b506103676104bc366004613f2a565b6112d4565b3480156104cd57600080fd5b506103896104dc366004614149565b6114b1565b3480156104ed57600080fd5b50610367611525565b34801561050257600080fd5b506103896115bc565b34801561051757600080fd5b50610414610526366004614082565b6115e0565b34801561053757600080fd5b50610389610546366004614061565b6117eb565b610367610559366004613d57565b611886565b34801561056a57600080fd5b50610367610579366004613ced565b611acb565b34801561058a57600080fd5b50610389611b9a565b34801561059f57600080fd5b506103896105ae366004613eab565b611bc1565b3480156105bf57600080fd5b50610389611bd5565b3480156105d457600080fd5b50610389611bdb565b3480156105e957600080fd5b506103896105f8366004614172565b611bff565b61036761060b366004613c4c565b611cbe565b34801561061c57600080fd5b50610389611da1565b34801561063157600080fd5b50610389611da7565b34801561064657600080fd5b50610367610655366004613a1a565b611dad565b34801561066657600080fd5b50610389610675366004613ae1565b611e8f565b34801561068657600080fd5b506103896106953660046140c2565b611f19565b3480156106a657600080fd5b506103896106b5366004613ef8565b611f52565b3480156106c657600080fd5b50610367611f8c565b3480156106db57600080fd5b50610389611fae565b3480156106f057600080fd5b506103676106ff366004613c34565b611fd2565b34801561071057600080fd5b5061041461071f366004614082565b612010565b34801561073057600080fd5b506107396121b6565b6040516103969190615172565b34801561075257600080fd5b506103676121da565b34801561076757600080fd5b506107706121ef565b60405161039693929190615180565b34801561078b57600080fd5b5061038961079a366004613d57565b61220b565b3480156107ab57600080fd5b506103896107ba366004613a00565b612251565b3480156107cb57600080fd5b506103676107da366004614082565b612263565b3480156107eb57600080fd5b506104146107fa3660046140f7565b61232b565b61036761080d366004613e2d565b612594565b34801561081e57600080fd5b50610739612750565b34801561083357600080fd5b50610389612774565b34801561084857600080fd5b50610389610857366004613e2d565b61277a565b34801561086857600080fd5b50610389610877366004613a00565b6127a5565b34801561088857600080fd5b506103676127b7565b34801561089d57600080fd5b506103896128ba565b3480156108b257600080fd5b506103896108c1366004614082565b6128de565b3480156108d257600080fd5b506103896128f7565b3480156108e757600080fd5b506104146108f6366004613fa2565b6128fd565b34801561090757600080fd5b5061091b610916366004613b57565b612e45565b6040516103969392919061444b565b34801561093657600080fd5b50610367610945366004614082565b612ece565b34801561095657600080fd5b50610389612f6e565b34801561096b57600080fd5b5061041461097a366004614082565b612f92565b6109bf8686868080601f01602080910402602001604051908101604052809392919081815260200183838082843760009201919091525061313892505050565b6001600160a01b0386166000908152601060205260409020546109fd5760405162461bcd60e51b81526004016109f4906147d2565b60405180910390fd5b6001600160a01b038616600090815260106020526040902054833514610a355760405162461bcd60e51b81526004016109f490614dd8565b7f00000000000000000000000000000000000000000000000000000000000000003414610a745760405162461bcd60e51b81526004016109f4906148a1565b600b548110610a955760405162461bcd60e51b81526004016109f490614d31565b600e54610aa290346131c5565b600e55610ae986610ab836869003860186613c7f565b84846040518060400160405280601181526020017039bab136b4ba20ba3a32b9ba30ba34b7b760791b8152506131d8565b505050505050565b60008160000151826020015183604001518460600151604051602001610b1a94939291906143bd565b6040516020818303038152906040528051906020012090505b919050565b600e5481565b60106020526000908152604090205481565b600c6020526000908152604090205481565b600d6020526000908152604090205460ff1681565b6000610b81613696565b828152600160608201819052610b9682611e8f565b949350505050565b6040805160128082526102608201909252600091829190602082016102408036833701905050905060005b7f000000000000000000000000000000000000000000000000000000000000000060ff168160ff161015610c61578d8d8260ff16818110610c1a57634e487b7160e01b600052603260045260246000fd5b90506020020135828260ff1681518110610c4457634e487b7160e01b600052603260045260246000fd5b602090810291909101015280610c5981615291565b915050610bc9565b508a817f000000000000000000000000000000000000000000000000000000000000000060ff1681518110610ca657634e487b7160e01b600052603260045260246000fd5b60209081029190910101528981610cde7f000000000000000000000000000000000000000000000000000000000000000060016151de565b60ff1681518110610cff57634e487b7160e01b600052603260045260246000fd5b60209081029190910101528881610d377f000000000000000000000000000000000000000000000000000000000000000060026151de565b60ff1681518110610d5857634e487b7160e01b600052603260045260246000fd5b60209081029190910101528781610d907f000000000000000000000000000000000000000000000000000000000000000060036151de565b60ff1681518110610db157634e487b7160e01b600052603260045260246000fd5b60209081029190910101528681610de97f000000000000000000000000000000000000000000000000000000000000000060046151de565b60ff1681518110610e0a57634e487b7160e01b600052603260045260246000fd5b60209081029190910101528581610e427f000000000000000000000000000000000000000000000000000000000000000060056151de565b60ff1681518110610e6357634e487b7160e01b600052603260045260246000fd5b60209081029190910101528481610e9b7f000000000000000000000000000000000000000000000000000000000000000060066151de565b60ff1681518110610ebc57634e487b7160e01b600052603260045260246000fd5b60209081029190910101528381610ef47f000000000000000000000000000000000000000000000000000000000000000060076151de565b60ff1681518110610f1557634e487b7160e01b600052603260045260246000fd5b60200260200101818152505060005b81518160ff161015610f9957600080516020615308833981519152828260ff1681518110610f6257634e487b7160e01b600052603260045260246000fd5b602002602001015110610f875760405162461bcd60e51b81526004016109f490614e0f565b80610f9181615291565b915050610f24565b50610fa26136b4565b60408051610100818101909252610fd19186906008908390839080828437600092019190915250612e45915050565b60408085018290526020850183905283855260055490516361971b8760e11b81526001600160a01b039091169363c32e370e936110179391929091908890600401614474565b60206040518083038186803b15801561102f57600080fd5b505afa158015611043573d6000803e3d6000fd5b505050506040513d601f19601f820116820180604052508101906110679190613c14565b151560609091018190529150509b9a5050505050505050505050565b600061108d613696565b60005b60058160ff1610156110d8576000828260ff16600581106110c157634e487b7160e01b600052603260045260246000fd5b6020020152806110d081615291565b915050611090565b5060006110e482611e8f565b6013549091506110fe90610100900460ff16868684611bff565b925050505b92915050565b6000818152600d602052604090205460ff16156111385760405162461bcd60e51b81526004016109f490614c9d565b7f0000000000000000000000000000000000000000000000000000000000000000600a54106111795760405162461bcd60e51b81526004016109f490614ce3565b6009543360009081526010602090815260408083205460129092529091205481158015906111a75750600081115b156111c75760006111b782610b77565b90506111c38382611083565b9350505b604080518082019091528481526020810184905260006111e682611bc1565b6000878152600d60205260408120805460ff19166001179055600a80549293509061121083615276565b919050555060075460008051602061532883398151915260405161123390614a3d565b60405180910390a2600b547fbdcb306569af4b00571f0633c2439c458084e1beac220a28ea9678a2f01ca1e28786866040516112719392919061515c565b60405180910390a26007547f9d6db97120dc5c5f0a16903f507cbe1b12cb72d2c8d70511a607e36c407f357082600b546040516112af92919061512a565b60405180910390a2600b80549060006112c783615276565b9190505550505050505050565b60006112df83611f52565b6000818152600c60205260409020549091501561130e5760405162461bcd60e51b81526004016109f490614621565b6007548360400151106113335760405162461bcd60e51b81526004016109f490614b0e565b7f000000000000000000000000000000000000000000000000000000000000000060ff168360200151511461137a5760405162461bcd60e51b81526004016109f490614e6c565b82606001515160021461139f5760405162461bcd60e51b81526004016109f49061473b565b7f000000000000000000000000000000000000000000000000000000000000000060ff168360a0015151146113e65760405162461bcd60e51b81526004016109f490614bcc565b600b546007546040516000805160206153288339815191529061140890614a3d565b60405180910390a2807fa3d7129bf8db65e6f71041b8077847055075a4ea01972b05cd7a2794b812fd598585604051611442929190615059565b60405180910390a260075484516040517f9d6db97120dc5c5f0a16903f507cbe1b12cb72d2c8d70511a607e36c407f35709161147f91859061512a565b60405180910390a26000828152600c60205260408120829055600b8054916114a683615276565b919050555050505050565b6000808360ff161180156114ca57506101008360ff1611155b6114e65760405162461bcd60e51b81526004016109f49061484f565b8160015b8460ff168160ff16101561151a57600061150483846117eb565b925081905061151281615291565b9150506114ea565b50610b9681826117eb565b33600090815260106020526040902054156115525760405162461bcd60e51b81526004016109f4906145db565b7f0000000000000000000000000000000000000000000000000000000000000000601154106115935760405162461bcd60e51b81526004016109f490614b7a565b601180543360009081526010602052604081208290559091906115b583615276565b9190505550565b7f000000000000000000000000000000000000000000000000000000000000000081565b6040805160038082526080820190925260009182919060208201606080368337019050509050858160008151811061162857634e487b7160e01b600052603260045260246000fd5b602002602001018181525050848160018151811061165657634e487b7160e01b600052603260045260246000fd5b602002602001018181525050838160028151811061168457634e487b7160e01b600052603260045260246000fd5b60200260200101818152505060005b81518160ff16101561170857600080516020615308833981519152828260ff16815181106116d157634e487b7160e01b600052603260045260246000fd5b6020026020010151106116f65760405162461bcd60e51b81526004016109f490614e0f565b8061170081615291565b915050611693565b506117116136b4565b604080516101008181019092526117409186906008908390839080828437600092019190915250612e45915050565b60408085018290526020850183905283855260025490516361971b8760e11b81526001600160a01b039091169363c32e370e936117869391929091908890600401614474565b60206040518083038186803b15801561179e57600080fd5b505afa1580156117b2573d6000803e3d6000fd5b505050506040513d601f19601f820116820180604052508101906117d69190613c14565b15156060909101819052915050949350505050565b60006117f56136ee565b838152602081018390526040516314d2f97b60e11b815273__$0098a6e9267037f9f6df61985348dda7d9$__906329a5f2f69061183690849060040161441a565b60206040518083038186803b15801561184e57600080fd5b505af4158015611862573d6000803e3d6000fd5b505050506040513d601f19601f82011682018060405250810190610b969190613f8a565b60006118918261220b565b6000818152600c6020526040902054909150156118c05760405162461bcd60e51b81526004016109f490614621565b336000908152601060205260409020546118ec5760405162461bcd60e51b81526004016109f4906147d2565b6080820151336000908152601060205260409020541461191e5760405162461bcd60e51b81526004016109f490614dd8565b7f0000000000000000000000000000000000000000000000000000000000000000341461195d5760405162461bcd60e51b81526004016109f4906148a1565b81515160ff7f000000000000000000000000000000000000000000000000000000000000000016146119a15760405162461bcd60e51b81526004016109f490614a69565b6007548260200151146119c65760405162461bcd60e51b81526004016109f490614911565b608082015133600090815260106020526040902054146119f85760405162461bcd60e51b81526004016109f490614eb4565b600e54611a0590346131c5565b600e55611a1061370c565b336000908152601060205260409081902054825260a084015182820152600b548482015160075492519192909183907f6f4fad105d3b85f479e2759c478e3421a03542bca611355cc4fe1c05f2e709fd90611a6c908990614f85565b60405180910390a4611aac33838660400151846040518060400160405280600f81526020016e39b832b7322932b83aba30ba34b7b760891b8152506131d8565b6000838152600c60205260408120829055600b8054916114a683615276565b6000611ad682610af1565b6000818152600c602052604090205490915015611b055760405162461bcd60e51b81526004016109f490614621565b600754826020015114611b2a5760405162461bcd60e51b81526004016109f490614ab8565b6000600b5490508260400151600754827f95ee0c01db4292223c6ea48c378c571eb2c446947033fa510deed7b124621ca286604051611b699190614f4b565b60405180910390a46000828152600c60205260408120829055600b805491611b9083615276565b9190505550505050565b604080518082019091526000808252600954602083015290611bbb81611bc1565b91505090565b6000611103826000015183602001516117eb565b60075481565b7f000000000000000000000000000000000000000000000000000000000000000081565b6000808560ff16118015611c1857506101008560ff1611155b611c345760405162461bcd60e51b81526004016109f49061484f565b82828560015b611c458960016151de565b60ff168160ff161015611cb1576000611c5e84856117eb565b9050611c6b6002846152b1565b611c8057611c7985856117eb565b9450611c8d565b611c8a84866117eb565b94505b925082611c9b600284615203565b9250508080611ca990615291565b915050611c3a565b5091979650505050505050565b33600090815260106020526040902054611cea5760405162461bcd60e51b81526004016109f4906147d2565b33600090815260106020526040902054833514611d195760405162461bcd60e51b81526004016109f490614dd8565b7f00000000000000000000000000000000000000000000000000000000000000003414611d585760405162461bcd60e51b81526004016109f4906148a1565b600b548110611d795760405162461bcd60e51b81526004016109f490614d31565b600e54611d8690346131c5565b600e55611d9c33610ab836869003860186613c7f565b505050565b60115481565b600a5481565b6001600160a01b03831660009081526010602052604090205415611de35760405162461bcd60e51b81526004016109f4906145db565b7f000000000000000000000000000000000000000000000000000000000000000060115410611e245760405162461bcd60e51b81526004016109f490614b7a565b611e648383838080601f01602080910402602001604051908101604052809392919081815260200183838082843760009201919091525061313892505050565b601180546001600160a01b0385166000908152601060205260408120829055909190611b9083615276565b604051630926f44b60e31b815260009073__$61800e922196a95eb70dc1bd65191ef757$__90634937a25890611ec99085906004016144bb565b60206040518083038186803b158015611ee157600080fd5b505af4158015611ef5573d6000803e3d6000fd5b505050506040513d601f19601f820116820180604052508101906111039190613f8a565b600084848484604051602001611f3294939291906143bd565b604051602081830303815290604052805190602001209050949350505050565b80516020808301516040808501516060860151608087015160a088015160c089015160e08a01519551600099610b1a999098979101614339565b336000818152600f60205260408120805491905590611fab9082613312565b50565b7f000000000000000000000000000000000000000000000000000000000000000081565b33600090815260106020526040902054611ffe5760405162461bcd60e51b81526004016109f4906147d2565b33600090815260126020526040902055565b6040805160038082526080820190925260009182919060208201606080368337019050509050858160008151811061205857634e487b7160e01b600052603260045260246000fd5b602002602001018181525050848160018151811061208657634e487b7160e01b600052603260045260246000fd5b60200260200101818152505083816002815181106120b457634e487b7160e01b600052603260045260246000fd5b60200260200101818152505060005b81518160ff16101561213857600080516020615308833981519152828260ff168151811061210157634e487b7160e01b600052603260045260246000fd5b6020026020010151106121265760405162461bcd60e51b81526004016109f490614e0f565b8061213081615291565b9150506120c3565b506121416136b4565b604080516101008181019092526121709186906008908390839080828437600092019190915250612e45915050565b60408085018290526020850183905283855260035490516361971b8760e11b81526001600160a01b039091169363c32e370e936117869391929091908890600401614474565b7f000000000000000000000000000000000000000000000000000000000000000081565b600e805460009182905590611fab9082613312565b60135460ff808216916101008104821691620100009091041683565b80516020808301516040808501516060860151608087015160a088015160c089015160e08a01516101008b01516101208c0151975160009b610b1a9b909a9991016142aa565b60126020526000908152604090205481565b600061229a858585856008806020026040519081016040528092919082600860200280828437600092019190915250611f19915050565b6000818152600c6020526040902054909150156122c95760405162461bcd60e51b81526004016109f490614621565b6000600b5490508386827f803e193545a0bbe98aa31b4b343e2d224f05453a10cef7f58c6d2408512a5e3b888760405161230492919061510e565b60405180910390a46000828152600c60205260408120829055600b8054916112c783615276565b60408051600580825260c082019092526000918291906020820160a080368337019050509050878160008151811061237357634e487b7160e01b600052603260045260246000fd5b60200260200101818152505086816001815181106123a157634e487b7160e01b600052603260045260246000fd5b60200260200101818152505085816002815181106123cf57634e487b7160e01b600052603260045260246000fd5b60200260200101818152505084816003815181106123fd57634e487b7160e01b600052603260045260246000fd5b602002602001018181525050838160048151811061242b57634e487b7160e01b600052603260045260246000fd5b60200260200101818152505060005b81518160ff1610156124af57600080516020615308833981519152828260ff168151811061247857634e487b7160e01b600052603260045260246000fd5b60200260200101511061249d5760405162461bcd60e51b81526004016109f490614e0f565b806124a781615291565b91505061243a565b506124b86136b4565b604080516101008181019092526124e79186906008908390839080828437600092019190915250612e45915050565b60408085018290526020850183905283855260065490516361971b8760e11b81526001600160a01b039091169363c32e370e9361252d9391929091908890600401614474565b60206040518083038186803b15801561254557600080fd5b505afa158015612559573d6000803e3d6000fd5b505050506040513d601f19601f8201168201806040525081019061257d9190613c14565b151560609091018190529150509695505050505050565b600061259f8261277a565b6000818152600c6020526040902054909150156125ce5760405162461bcd60e51b81526004016109f490614621565b336000908152601060205260409020546125fa5760405162461bcd60e51b81526004016109f4906147d2565b6060820151336000908152601060205260409020541461262c5760405162461bcd60e51b81526004016109f490614dd8565b7f0000000000000000000000000000000000000000000000000000000000000000341461266b5760405162461bcd60e51b81526004016109f4906148a1565b60075482511461268d5760405162461bcd60e51b81526004016109f4906146e7565b600e5461269a90346131c5565b600e556126a561370c565b3360008181526010602090815260408083205485529282526012815290829020548382015260016080840152600b549085015160075492519192909183907ff6eb42feca5dff9206113f623b335c7d25abc5130a5f021469108d62c391fd1c90612710908990615012565b60405180910390a4611aac33838660200151846040518060400160405280600f81526020016e61697264726f7045706f63684b657960881b8152506131d8565b7f000000000000000000000000000000000000000000000000000000000000000081565b60095481565b8051602080830151604080850151606086015160a08701519251600096610b1a9690959491016143e8565b600f6020526000908152604090205481565b60005a90507f0000000000000000000000000000000000000000000000000000000000000000600854426127eb919061525f565b10156128095760405162461bcd60e51b81526004016109f490614818565b600754600080516020615328833981519152604051612827906148ed565b60405180910390a26007546040517f751bb1ba7b27b3979a32844d4d05aa16a46a771b751593704834a80311e3a9b990600090a2426008556007805490600061286f83615276565b919050555060006128815a83906133ae565b90506128a6612890823a6133ba565b336000908152600f6020526040902054906131c5565b336000908152600f60205260409020555050565b7f000000000000000000000000000000000000000000000000000000000000000081565b600084848484604051602001611f329493929190614391565b60085481565b60008061292b7f00000000000000000000000000000000000000000000000000000000000000006002615236565b6129369060066151de565b60ff166001600160401b0381111561295e57634e487b7160e01b600052604160045260246000fd5b604051908082528060200260200182016040528015612987578160200160208202803683370190505b5090508c816000815181106129ac57634e487b7160e01b600052603260045260246000fd5b60200260200101818152505060005b7f000000000000000000000000000000000000000000000000000000000000000060ff168160ff161015612a5f578c8c8260ff16818110612a0c57634e487b7160e01b600052603260045260246000fd5b9050602002013582826001612a2191906151de565b60ff1681518110612a4257634e487b7160e01b600052603260045260246000fd5b602090810291909101015280612a5781615291565b9150506129bb565b508981612a8d7f000000000000000000000000000000000000000000000000000000000000000060016151de565b60ff1681518110612aae57634e487b7160e01b600052603260045260246000fd5b60200260200101818152505088886000818110612adb57634e487b7160e01b600052603260045260246000fd5b90506020020135817f00000000000000000000000000000000000000000000000000000000000000006002612b1091906151de565b60ff1681518110612b3157634e487b7160e01b600052603260045260246000fd5b60200260200101818152505088886001818110612b5e57634e487b7160e01b600052603260045260246000fd5b90506020020135817f00000000000000000000000000000000000000000000000000000000000000006003612b9391906151de565b60ff1681518110612bb457634e487b7160e01b600052603260045260246000fd5b60209081029190910101528681612bec7f000000000000000000000000000000000000000000000000000000000000000060046151de565b60ff1681518110612c0d57634e487b7160e01b600052603260045260246000fd5b60200260200101818152505060005b7f000000000000000000000000000000000000000000000000000000000000000060ff168160ff161015612ceb5786868260ff16818110612c6d57634e487b7160e01b600052603260045260246000fd5b9050602002013582827f00000000000000000000000000000000000000000000000000000000000000006005612ca391906151de565b612cad91906151de565b60ff1681518110612cce57634e487b7160e01b600052603260045260246000fd5b602090810291909101015280612ce381615291565b915050612c1c565b508381612d197f00000000000000000000000000000000000000000000000000000000000000006002615236565b612d249060056151de565b60ff1681518110612d4557634e487b7160e01b600052603260045260246000fd5b60200260200101818152505060005b81518160ff161015612dc957600080516020615308833981519152828260ff1681518110612d9257634e487b7160e01b600052603260045260246000fd5b602002602001015110612db75760405162461bcd60e51b81526004016109f490614e0f565b80612dc181615291565b915050612d54565b50612dd26136b4565b60408051610100818101909252612e019186906008908390839080828437600092019190915250612e45915050565b6040808501829052602085018390528385526004805491516361971b8760e11b81526001600160a01b039092169463c32e370e946110179491939092899101614474565b612e4d6136ee565b612e5561373b565b612e5d6136ee565b50506040805180820182528351815260208085015181830152825160808082018552868501518286019081526060808901519084015282528451808601865290870151815260a08701518184015281830152835180850190945260c0860151845260e0909501519083015293909150565b6000612edc858585856128de565b6000818152600c602052604090205490915015612f0b5760405162461bcd60e51b81526004016109f490614621565b6000600b54905083817ffe2e4029d257513b42218bbe50c55666829722b6f10335bfb0ba2d7cc792fa8c888887604051612f4793929190615138565b60405180910390a36000828152600c60205260408120829055600b8054916112c783615276565b7f000000000000000000000000000000000000000000000000000000000000000081565b60408051600380825260808201909252600091829190602082016060803683370190505090508581600081518110612fda57634e487b7160e01b600052603260045260246000fd5b602002602001018181525050848160018151811061300857634e487b7160e01b600052603260045260246000fd5b602002602001018181525050838160028151811061303657634e487b7160e01b600052603260045260246000fd5b60200260200101818152505060005b81518160ff1610156130ba57600080516020615308833981519152828260ff168151811061308357634e487b7160e01b600052603260045260246000fd5b6020026020010151106130a85760405162461bcd60e51b81526004016109f490614e0f565b806130b281615291565b915050613045565b506130c36136b4565b604080516101008181019092526130f29186906008908390839080828437600092019190915250612e45915050565b60408085018290526020850183905283855260015490516361971b8760e11b81526001600160a01b039091169363c32e370e936117869391929091908890600401614474565b6000823060405160200161314d929190614283565b604051602081830303815290604052805190602001206040516020016131739190614305565b604051602081830303815290604052805190602001209050826001600160a01b031661319f82846133c6565b6001600160a01b031614611d9c5760405162461bcd60e51b81526004016109f490614788565b60006131d182846151c6565b9392505050565b6000805160206153088339815191528460200151106132095760405162461bcd60e51b81526004016109f490614c19565b60008051602061530883398151915284604001511061323a5760405162461bcd60e51b81526004016109f490614d96565b60008051602061530883398151915284606001511061326b5760405162461bcd60e51b81526004016109f4906146a3565b83608001516001148061328057506080840151155b61329c5760405162461bcd60e51b81526004016109f490614f09565b6007546000805160206153288339815191526040516132ba90614d68565b60405180910390a2846001600160a01b0316836007547f56e4381873134418db6b4b8819233607063df79c3e5f93378b45919e8ce3d47784888760405161330393929190614515565b60405180910390a45050505050565b804710156133325760405162461bcd60e51b81526004016109f490614a06565b6000826001600160a01b03168260405161334b90614336565b60006040518083038185875af1925050503d8060008114613388576040519150601f19603f3d011682016040523d82523d6000602084013e61338d565b606091505b5050905080611d9c5760405162461bcd60e51b81526004016109f490614967565b60006131d1828461525f565b60006131d18284615217565b60008060006133d585856133ea565b915091506133e28161345a565b509392505050565b6000808251604114156134215760208301516040840151606085015160001a61341587828585613587565b94509450505050613453565b82516040141561344b5760208301516040840151613440868383613667565b935093505050613453565b506000905060025b9250929050565b600081600481111561347c57634e487b7160e01b600052602160045260246000fd5b141561348757611fab565b60018160048111156134a957634e487b7160e01b600052602160045260246000fd5b14156134c75760405162461bcd60e51b81526004016109f4906145a4565b60028160048111156134e957634e487b7160e01b600052602160045260246000fd5b14156135075760405162461bcd60e51b81526004016109f49061466c565b600381600481111561352957634e487b7160e01b600052602160045260246000fd5b14156135475760405162461bcd60e51b81526004016109f4906149c4565b600481600481111561356957634e487b7160e01b600052602160045260246000fd5b1415611fab5760405162461bcd60e51b81526004016109f490614c5b565b6000807f7fffffffffffffffffffffffffffffff5d576e7357a4501ddfe92f46681b20a08311156135be575060009050600361365e565b8460ff16601b141580156135d657508460ff16601c14155b156135e7575060009050600461365e565b60006001878787876040516000815260200160405260405161360c94939291906144f7565b6020604051602081039080840390855afa15801561362e573d6000803e3d6000fd5b5050604051601f1901519150506001600160a01b0381166136575760006001925092505061365e565b9150600090505b94509492505050565b6000806001600160ff1b03831660ff84901c601b0161368887828885613587565b935093505050935093915050565b6040518060a001604052806005906020820280368337509192915050565b60405180608001604052806136c76136ee565b81526020016136d461373b565b81526020016136e16136ee565b8152600060209091015290565b60405180604001604052806002906020820280368337509192915050565b6040518060a0016040528060008152602001600081526020016000815260200160008152602001600081525090565b60405180604001604052806002905b6137526136ee565b81526020019060019003908161374a5790505090565b80356001600160a01b0381168114610b3357600080fd5b80610100810183101561110357600080fd5b600082601f8301126137a1578081fd5b6040516101008082018281106001600160401b03821117156137c5576137c56152f1565b60405281848281018710156137d8578485fd5b8492505b60088310156137fc578035825260019290920191602091820191016137dc565b509195945050505050565b60008083601f840112613818578182fd5b5081356001600160401b0381111561382e578182fd5b602083019150836020808302850101111561345357600080fd5b600082601f830112613858578081fd5b813560206001600160401b03821115613873576138736152f1565b80820261388182820161519d565b83815282810190868401838801850189101561389b578687fd5b8693505b858410156138bd57803583526001939093019291840191840161389f565b50979650505050505050565b60008083601f8401126138da578182fd5b5081356001600160401b038111156138f0578182fd5b60208301915083602082850101111561345357600080fd5b600060a08284031215613919578081fd5b50919050565b60006101e08284031215613931578081fd5b61393c61010061519d565b90508135815260208201356001600160401b038082111561395c57600080fd5b61396885838601613848565b602084015260408401356040840152606084013591508082111561398b57600080fd5b61399785838601613848565b60608401526080840135608084015260a08401359150808211156139ba57600080fd5b506139c784828501613848565b60a08301525060c082013560c08201526139e48360e08401613791565b60e082015292915050565b803560ff81168114610b3357600080fd5b600060208284031215613a11578081fd5b6131d182613768565b600080600060408486031215613a2e578182fd5b613a3784613768565b925060208401356001600160401b03811115613a51578283fd5b613a5d868287016138c9565b9497909650939450505050565b6000806000806000806101208789031215613a83578384fd5b613a8c87613768565b955060208701356001600160401b03811115613aa6578485fd5b613ab289828a016138c9565b9096509450613ac690508860408901613908565b925060e0870135915061010087013590509295509295509295565b600060a08284031215613af2578081fd5b82601f830112613b00578081fd5b60405160a081018181106001600160401b0382111715613b2257613b226152f1565b604052808360a08101861015613b36578384fd5b835b60058110156137fc578135835260209283019290910190600101613b38565b60006101008284031215613b69578081fd5b6131d18383613791565b60008060008060008060008060008060006102208c8e031215613b94578889fd5b8b356001600160401b03811115613ba957898afd5b613bb58e828f01613807565b909c509a505060208c0135985060408c0135975060608c0135965060808c0135955060a08c0135945060c08c0135935060e08c013592506101008c01359150613c028d6101208e0161377f565b90509295989b509295989b9093969950565b600060208284031215613c25578081fd5b815180151581146131d1578182fd5b600060208284031215613c45578081fd5b5035919050565b600080600060e08486031215613c60578081fd5b613c6a8585613908565b9560a0850135955060c0909401359392505050565b600060a08284031215613c90578081fd5b60405160a081018181106001600160401b0382111715613cb257613cb26152f1565b806040525082358152602083013560208201526040830135604082015260608301356060820152608083013560808201528091505092915050565b60006101608284031215613cff578081fd5b604051608081018181106001600160401b0382111715613d2157613d216152f1565b8060405250823581526020830135602082015260408301356040820152613d4b8460608501613791565b60608201529392505050565b600060208284031215613d68578081fd5b81356001600160401b0380821115613d7e578283fd5b908301906102208286031215613d92578283fd5b613d9d61014061519d565b823582811115613dab578485fd5b613db787828601613848565b8252506020830135602082015260408301356040820152606083013560608201526080830135608082015260a083013560a082015260c083013560c082015260e083013560e0820152610100915081830135828201526101209150613e1e86838501613791565b91810191909152949350505050565b60006101a08284031215613e3f578081fd5b60405160c081018181106001600160401b0382111715613e6157613e616152f1565b80604052508235815260208301356020820152604083013560408201526060830135606082015260808301356080820152613e9f8460a08501613791565b60a08201529392505050565b600060408284031215613ebc578081fd5b604051604081018181106001600160401b0382111715613ede57613ede6152f1565b604052823581526020928301359281019290925250919050565b600060208284031215613f09578081fd5b81356001600160401b03811115613f1e578182fd5b610b968482850161391f565b60008060408385031215613f3c578182fd5b82356001600160401b0380821115613f52578384fd5b613f5e8683870161391f565b93506020850135915080821115613f73578283fd5b50613f8085828601613848565b9150509250929050565b600060208284031215613f9b578081fd5b5051919050565b60008060008060008060008060008060006101e08c8e031215613fc3578485fd5b8b359a506001600160401b038060208e01351115613fdf578586fd5b613fef8e60208f01358f01613807565b909b50995060408d0135985060608d013581101561400b578586fd5b61401b8e60608f01358f01613807565b909850965060808d0135955060a08d0135811015614037578485fd5b506140488d60a08e01358e01613807565b909450925060c08c01359150613c028d60e08e0161377f565b60008060408385031215614073578182fd5b50508035926020909101359150565b6000806000806101608587031215614098578182fd5b8435935060208501359250604085013591506140b7866060870161377f565b905092959194509250565b60008060008061016085870312156140d8578182fd5b8435935060208501359250604085013591506140b78660608701613791565b6000806000806000806101a08789031215614110578384fd5b863595506020870135945060408701359350606087013592506080870135915061413d8860a0890161377f565b90509295509295509295565b6000806040838503121561415b578182fd5b614164836139ef565b946020939093013593505050565b60008060008060808587031215614187578182fd5b614190856139ef565b966020860135965060408601359560600135945092505050565b8060005b60028110156141d8576141c28483516141de565b60409390930192602091909101906001016141ae565b50505050565b8060005b60028110156141d85781518452602093840193909101906001016141e2565b8060005b60088110156141d8578151845260209384019390910190600101614205565b6000815180845260208085019450808401835b8381101561425357815187529582019590820190600101614237565b509495945050505050565b8051600090602080840183831561425357815187529582019590820190600101614237565b6bffffffffffffffffffffffff19606093841b811682529190921b16601482015260280190565b60006142b6828d61425e565b8b81528a60208201528960408201528860608201528760808201528660a08201528560c08201528460e08201526142f1610100820185614201565b610200019c9b505050505050505050505050565b7f19457468657265756d205369676e6564204d6573736167653a0a3332000000008152601c810191909152603c0190565b90565b600089825261434b602083018a61425e565b88815261435b602082018961425e565b905086815261436d602082018761425e565b905084815261437f6020820185614201565b610120019a9950505050505050505050565b600085825284602083015283604083015261010083606084013761016091909101908152949350505050565b60008582528460208301528360408301526143db6060830184614201565b5061016001949350505050565b600086825285602083015284604083015283606083015261440c6080830184614201565b506101800195945050505050565b60408101818360005b6002811015614442578151835260209283019290910190600101614423565b50505092915050565b610100810161445a82866141de565b61446760408301856141aa565b610b9660c08301846141de565b600061012061448383886141de565b61449060408401876141aa565b61449d60c08401866141de565b806101008401526144b081840185614224565b979650505050505050565b60a08101818360005b60058110156144425781518352602092830192909101906001016144c4565b901515815260200190565b90815260200190565b93845260ff9290921660208401526040830152606082015260800190565b600060e0825284518060e0840152815b81811015614543576020818801810151610100868401015201614525565b81811115614555578261010083860101525b50610100601f19601f83011684010191505083516020830152602084015160408301526040840151606083015260608401516080830152608084015160a08301528260c0830152949350505050565b60208082526018908201527f45434453413a20696e76616c6964207369676e61747572650000000000000000604082015260600190565b60208082526026908201527f556e697265703a2061747465737465722068617320616c72656164792073696760408201526506e65642075760d41b606082015260800190565b6020808252602b908201527f556e697265703a207468652070726f6f6620686173206265656e207375626d6960408201526a74746564206265666f726560a81b606082015260800190565b6020808252601f908201527f45434453413a20696e76616c6964207369676e6174757265206c656e67746800604082015260600190565b60208082526024908201527f556e697265703a20696e76616c6964206174746573746174696f6e20677261666040820152636669746960e01b606082015260800190565b60208082526034908201527f556e697265703a207375626d697420616e2061697264726f702070726f6f66206040820152730eed2e8d040d2dcc6dee4e4cac6e840cae0dec6d60631b606082015260800190565b6020808252602d908201527f556e697265703a20696e76616c6964206e756d626572206f6620626c696e646560408201526c6420757365722073746174657360981b606082015260800190565b6020808252602a908201527f556e697265703a20696e76616c6964206174746573746572207369676e207570604082015269207369676e617475726560b01b606082015260800190565b60208082526026908201527f556e697265703a20617474657374657220686173206e6f74207369676e6564206040820152651d5c081e595d60d21b606082015260800190565b6020808252601b908201527f556e697265703a2065706f6368206e6f742079657420656e6465640000000000604082015260600190565b60208082526032908201527f436f6d70757465526f6f743a205f747265654c6576656c73206d757374206265604082015271103132ba3bb2b2b710181030b73210191a9b60711b606082015260800190565b6020808252602c908201527f556e697265703a206e6f20617474657374696e6720666565206f7220696e636f60408201526b1c9c9958dd08185b5bdd5b9d60a21b606082015260800190565b6020808252600a9082015269115c1bd8da115b99195960b21b604082015260600190565b60208082526036908201527f556e697265703a207375626d697420612072657075746174696f6e2070726f6f6040820152750cc40eed2e8d040d2dcc6dee4e4cac6e840cae0dec6d60531b606082015260800190565b6020808252603a908201527f416464726573733a20756e61626c6520746f2073656e642076616c75652c207260408201527f6563697069656e74206d61792068617665207265766572746564000000000000606082015260800190565b60208082526022908201527f45434453413a20696e76616c6964207369676e6174757265202773272076616c604082015261756560f01b606082015260800190565b6020808252601d908201527f416464726573733a20696e73756666696369656e742062616c616e6365000000604082015260600190565b60208082526012908201527113995dd1d4d513195859925b9cd95c9d195960721b604082015260600190565b6020808252602f908201527f556e697265703a20696e76616c6964206e756d626572206f662072657075746160408201526e74696f6e206e756c6c69666965727360881b606082015260800190565b60208082526036908201527f556e697265703a207375626d697420616e2065706f6368206b65792070726f6f6040820152750cc40eed2e8d040d2dcc6dee4e4cac6e840cae0dec6d60531b606082015260800190565b60208082526046908201527f43616e206e6f74207472616e736974696f6e2066726f6d2065706f636820746860408201527f617427732067726561746572206f7220657175616c20746f2063757272656e74606082015265040cae0dec6d60d31b608082015260a00190565b60208082526032908201527f556e697265703a206d6178696d756d206e756d626572206f6620617474657374604082015271195c881cda59db9d5c1cc81c995858da195960721b606082015260800190565b6020808252602d908201527f556e697265703a20696e76616c6964206e756d626572206f6620626c696e646560408201526c64206861736820636861696e7360981b606082015260800190565b60208082526022908201527f556e697265703a20696e76616c6964206174746573746174696f6e20706f7352604082015261065760f41b606082015260800190565b60208082526022908201527f45434453413a20696e76616c6964207369676e6174757265202776272076616c604082015261756560f01b606082015260800190565b60208082526026908201527f556e697265703a2074686520757365722068617320616c72656164792073696760408201526506e65642075760d41b606082015260800190565b6020808252602e908201527f556e697265703a206d6178696d756d206e756d626572206f662075736572207360408201526d1a59db9d5c1cc81c995858da195960921b606082015260800190565b6020808252601b908201527f556e697265703a20696e76616c69642070726f6f6620696e6465780000000000604082015260600190565b602080825260149082015273105d1d195cdd185d1a5bdb94dd589b5a5d1d195960621b604082015260600190565b60208082526022908201527f556e697265703a20696e76616c6964206174746573746174696f6e206e656752604082015261065760f41b606082015260800190565b6020808252601d908201527f556e697265703a206d69736d6174636865642061747465737465724964000000604082015260600190565b6020808252603c908201527f556e697265703a2065616368207075626c6963207369676e616c206d7573742060408201527f6265206c742074686520736e61726b207363616c6172206669656c6400000000606082015260800190565b60208082526028908201527f556e697265703a20696e76616c6964206e756d626572206f662065706b206e756040820152676c6c69666965727360c01b606082015260800190565b60208082526035908201527f556e697265703a20696e636f727265637420617474657374657220494420696e604082015274103a3432903932b83aba30ba34b7b710383937b7b360591b606082015260800190565b60208082526022908201527f556e697265703a20696e76616c6964206174746573746174696f6e207369676e604082015261055760f41b606082015260800190565b6000610160820190508251825260208301516020830152604083015160408301526060830151614f7e6060840182614201565b5092915050565b60006020825282516102206020840152614fa3610240840182614224565b9050602084015160408401526040840151606084015260608401516080840152608084015160a084015260a084015160c084015260c084015160e084015260e08401516101008181860152808601519150506101208181860152808601519150506133e2610140850182614201565b60006101a082019050825182526020830151602083015260408301516040830152606083015160608301526080830151608083015260a0830151614f7e60a0840182614201565b6000604082528351604083015260208401516101e06060840152615081610220840182614224565b9050604085015160808401526060850151603f19808584030160a08601526150a98383614224565b9250608087015160c086015260a08701519150808584030160e0860152506150d18282614224565b91505060c085015161010084015260e08501516150f2610120850182614201565b5082810360208401526151058185614224565b95945050505050565b8281526101208101610100836020840137600081529392505050565b918252602082015260400190565b83815260208101839052610140810161010083604084013760008152949350505050565b9283526020830191909152604082015260600190565b60ff91909116815260200190565b60ff93841681529183166020830152909116604082015260600190565b6040518181016001600160401b03811182821017156151be576151be6152f1565b604052919050565b600082198211156151d9576151d96152c5565b500190565b600060ff821660ff84168060ff038211156151fb576151fb6152c5565b019392505050565b600082615212576152126152db565b500490565b6000816000190483118215151615615231576152316152c5565b500290565b600060ff821660ff84168160ff0481118215151615615257576152576152c5565b029392505050565b600082821015615271576152716152c5565b500390565b600060001982141561528a5761528a6152c5565b5060010190565b600060ff821660ff8114156152a8576152a86152c5565b60010192915050565b6000826152c0576152c06152db565b500690565b634e487b7160e01b600052601160045260246000fd5b634e487b7160e01b600052601260045260246000fd5b634e487b7160e01b600052604160045260246000fdfe30644e72e131a029b85045b68181585d2833e84879b9709143e1f593f0000001d520dc8edfe278d8221eb9bc1010dbafcff0b692cd5b1a0f7333dc9f228ca660a2646970667358221220a9326826663f7fd37c214d7848adf619e2bc6eb78586da413ff2b25eef7ee57464736f6c63430008000033",
  "linkReferences": {
    "@unirep/contracts/contracts/Poseidon.sol": {
      "PoseidonT3": [
        {
          "length": 20,
          "start": 1287
        },
        {
          "length": 20,
          "start": 9159
        }
      ],
      "PoseidonT6": [
        {
          "length": 20,
          "start": 966
        },
        {
          "length": 20,
          "start": 10842
        }
      ]
    }
  },
  "deployedLinkReferences": {
    "@unirep/contracts/contracts/Poseidon.sol": {
      "PoseidonT3": [
        {
          "length": 20,
          "start": 6158
        }
      ],
      "PoseidonT6": [
        {
          "length": 20,
          "start": 7841
        }
      ]
    }
  }
}