{
  "_format": "hh-sol-artifact-1",
  "contractName": "Unirep",
  "sourceName": "@unirep/contracts/contracts/Unirep.sol",
  "abi": [
    {
      "inputs": [
        {
          "components": [
            {
              "internalType": "uint8",
              "name": "globalStateTreeDepth",
              "type": "uint8"
            },
            {
              "internalType": "uint8",
              "name": "userStateTreeDepth",
              "type": "uint8"
            },
            {
              "internalType": "uint8",
              "name": "epochTreeDepth",
              "type": "uint8"
            }
          ],
          "internalType": "struct UnirepObjs.TreeDepths",
          "name": "_treeDepths",
          "type": "tuple"
        },
        {
          "components": [
            {
              "internalType": "uint256",
              "name": "maxUsers",
              "type": "uint256"
            },
            {
              "internalType": "uint256",
              "name": "maxAttesters",
              "type": "uint256"
            }
          ],
          "internalType": "struct UnirepObjs.MaxValues",
          "name": "_maxValues",
          "type": "tuple"
        },
        {
          "internalType": "contract EpochKeyValidityVerifier",
          "name": "_epkValidityVerifier",
          "type": "address"
        },
        {
          "internalType": "contract StartTransitionVerifier",
          "name": "_startTransitionVerifier",
          "type": "address"
        },
        {
          "internalType": "contract ProcessAttestationsVerifier",
          "name": "_processAttestationsVerifier",
          "type": "address"
        },
        {
          "internalType": "contract UserStateTransitionVerifier",
          "name": "_userStateTransitionVerifier",
          "type": "address"
        },
        {
          "internalType": "contract ReputationVerifier",
          "name": "_reputationVerifier",
          "type": "address"
        },
        {
          "internalType": "contract UserSignUpVerifier",
          "name": "_userSignUpVerifier",
          "type": "address"
        },
        {
          "internalType": "uint8",
          "name": "_numEpochKeyNoncePerEpoch",
          "type": "uint8"
        },
        {
          "internalType": "uint8",
          "name": "_maxReputationBudget",
          "type": "uint8"
        },
        {
          "internalType": "uint256",
          "name": "_epochLength",
          "type": "uint256"
        },
        {
          "internalType": "uint256",
          "name": "_attestingFee",
          "type": "uint256"
        }
      ],
      "stateMutability": "nonpayable",
      "type": "constructor"
    },
    {
      "anonymous": false,
      "inputs": [
        {
          "indexed": true,
          "internalType": "uint256",
          "name": "_epoch",
          "type": "uint256"
        },
        {
          "indexed": true,
          "internalType": "uint256",
          "name": "_epochKey",
          "type": "uint256"
        },
        {
          "indexed": true,
          "internalType": "address",
          "name": "_attester",
          "type": "address"
        },
        {
          "indexed": false,
          "internalType": "enum Unirep.AttestationEvent",
          "name": "_event",
          "type": "uint8"
        },
        {
          "components": [
            {
              "internalType": "uint256",
              "name": "attesterId",
              "type": "uint256"
            },
            {
              "internalType": "uint256",
              "name": "posRep",
              "type": "uint256"
            },
            {
              "internalType": "uint256",
              "name": "negRep",
              "type": "uint256"
            },
            {
              "internalType": "uint256",
              "name": "graffiti",
              "type": "uint256"
            },
            {
              "internalType": "uint256",
              "name": "signUp",
              "type": "uint256"
            }
          ],
          "indexed": false,
          "internalType": "struct UnirepObjs.Attestation",
          "name": "_attestation",
          "type": "tuple"
        },
        {
          "indexed": false,
          "internalType": "uint256",
          "name": "toProofIndex",
          "type": "uint256"
        },
        {
          "indexed": false,
          "internalType": "uint256",
          "name": "fromProofIndex",
          "type": "uint256"
        },
        {
          "indexed": false,
          "internalType": "uint256",
          "name": "attestIndex",
          "type": "uint256"
        }
      ],
      "name": "AttestationSubmitted",
      "type": "event"
    },
    {
      "anonymous": false,
      "inputs": [
        {
          "indexed": true,
          "internalType": "uint256",
          "name": "_epoch",
          "type": "uint256"
        }
      ],
      "name": "EpochEnded",
      "type": "event"
    },
    {
      "anonymous": false,
      "inputs": [
        {
          "indexed": true,
          "internalType": "uint256",
          "name": "_proofIndex",
          "type": "uint256"
        },
        {
          "indexed": true,
          "internalType": "uint256",
          "name": "_epoch",
          "type": "uint256"
        },
        {
          "indexed": true,
          "internalType": "uint256",
          "name": "_epochKey",
          "type": "uint256"
        },
        {
          "components": [
            {
              "internalType": "uint256",
              "name": "globalStateTree",
              "type": "uint256"
            },
            {
              "internalType": "uint256",
              "name": "epoch",
              "type": "uint256"
            },
            {
              "internalType": "uint256",
              "name": "epochKey",
              "type": "uint256"
            },
            {
              "internalType": "uint256[8]",
              "name": "proof",
              "type": "uint256[8]"
            }
          ],
          "indexed": false,
          "internalType": "struct UnirepObjs.EpochKeyProof",
          "name": "_proof",
          "type": "tuple"
        }
      ],
      "name": "IndexedEpochKeyProof",
      "type": "event"
    },
    {
      "anonymous": false,
      "inputs": [
        {
          "indexed": true,
          "internalType": "uint256",
          "name": "_proofIndex",
          "type": "uint256"
        },
        {
          "indexed": true,
          "internalType": "uint256",
          "name": "_inputBlindedUserState",
          "type": "uint256"
        },
        {
          "indexed": false,
          "internalType": "uint256",
          "name": "_outputBlindedUserState",
          "type": "uint256"
        },
        {
          "indexed": false,
          "internalType": "uint256",
          "name": "_outputBlindedHashChain",
          "type": "uint256"
        },
        {
          "indexed": false,
          "internalType": "uint256[8]",
          "name": "_proof",
          "type": "uint256[8]"
        }
      ],
      "name": "IndexedProcessedAttestationsProof",
      "type": "event"
    },
    {
      "anonymous": false,
      "inputs": [
        {
          "indexed": true,
          "internalType": "uint256",
          "name": "_proofIndex",
          "type": "uint256"
        },
        {
          "indexed": true,
          "internalType": "uint256",
          "name": "_epoch",
          "type": "uint256"
        },
        {
          "indexed": true,
          "internalType": "uint256",
          "name": "_epochKey",
          "type": "uint256"
        },
        {
          "components": [
            {
              "internalType": "uint256[]",
              "name": "repNullifiers",
              "type": "uint256[]"
            },
            {
              "internalType": "uint256",
              "name": "epoch",
              "type": "uint256"
            },
            {
              "internalType": "uint256",
              "name": "epochKey",
              "type": "uint256"
            },
            {
              "internalType": "uint256",
              "name": "globalStateTree",
              "type": "uint256"
            },
            {
              "internalType": "uint256",
              "name": "attesterId",
              "type": "uint256"
            },
            {
              "internalType": "uint256",
              "name": "proveReputationAmount",
              "type": "uint256"
            },
            {
              "internalType": "uint256",
              "name": "minRep",
              "type": "uint256"
            },
            {
              "internalType": "uint256",
              "name": "proveGraffiti",
              "type": "uint256"
            },
            {
              "internalType": "uint256",
              "name": "graffitiPreImage",
              "type": "uint256"
            },
            {
              "internalType": "uint256[8]",
              "name": "proof",
              "type": "uint256[8]"
            }
          ],
          "indexed": false,
          "internalType": "struct UnirepObjs.ReputationProof",
          "name": "_proof",
          "type": "tuple"
        }
      ],
      "name": "IndexedReputationProof",
      "type": "event"
    },
    {
      "anonymous": false,
      "inputs": [
        {
          "indexed": true,
          "internalType": "uint256",
          "name": "_proofIndex",
          "type": "uint256"
        },
        {
          "indexed": true,
          "internalType": "uint256",
          "name": "_blindedUserState",
          "type": "uint256"
        },
        {
          "indexed": true,
          "internalType": "uint256",
          "name": "_globalStateTree",
          "type": "uint256"
        },
        {
          "indexed": false,
          "internalType": "uint256",
          "name": "_blindedHashChain",
          "type": "uint256"
        },
        {
          "indexed": false,
          "internalType": "uint256[8]",
          "name": "_proof",
          "type": "uint256[8]"
        }
      ],
      "name": "IndexedStartedTransitionProof",
      "type": "event"
    },
    {
      "anonymous": false,
      "inputs": [
        {
          "indexed": true,
          "internalType": "uint256",
          "name": "_proofIndex",
          "type": "uint256"
        },
        {
          "indexed": true,
          "internalType": "uint256",
          "name": "_epoch",
          "type": "uint256"
        },
        {
          "indexed": true,
          "internalType": "uint256",
          "name": "_epochKey",
          "type": "uint256"
        },
        {
          "components": [
            {
              "internalType": "uint256",
              "name": "epoch",
              "type": "uint256"
            },
            {
              "internalType": "uint256",
              "name": "epochKey",
              "type": "uint256"
            },
            {
              "internalType": "uint256",
              "name": "globalStateTree",
              "type": "uint256"
            },
            {
              "internalType": "uint256",
              "name": "attesterId",
              "type": "uint256"
            },
            {
              "internalType": "uint256",
              "name": "userHasSignedUp",
              "type": "uint256"
            },
            {
              "internalType": "uint256[8]",
              "name": "proof",
              "type": "uint256[8]"
            }
          ],
          "indexed": false,
          "internalType": "struct UnirepObjs.SignUpProof",
          "name": "_proof",
          "type": "tuple"
        }
      ],
      "name": "IndexedUserSignedUpProof",
      "type": "event"
    },
    {
      "anonymous": false,
      "inputs": [
        {
          "indexed": true,
          "internalType": "uint256",
          "name": "_proofIndex",
          "type": "uint256"
        },
        {
          "components": [
            {
              "internalType": "uint256",
              "name": "newGlobalStateTreeLeaf",
              "type": "uint256"
            },
            {
              "internalType": "uint256[]",
              "name": "epkNullifiers",
              "type": "uint256[]"
            },
            {
              "internalType": "uint256",
              "name": "transitionFromEpoch",
              "type": "uint256"
            },
            {
              "internalType": "uint256[]",
              "name": "blindedUserStates",
              "type": "uint256[]"
            },
            {
              "internalType": "uint256",
              "name": "fromGlobalStateTree",
              "type": "uint256"
            },
            {
              "internalType": "uint256[]",
              "name": "blindedHashChains",
              "type": "uint256[]"
            },
            {
              "internalType": "uint256",
              "name": "fromEpochTree",
              "type": "uint256"
            },
            {
              "internalType": "uint256[8]",
              "name": "proof",
              "type": "uint256[8]"
            }
          ],
          "indexed": false,
          "internalType": "struct UnirepObjs.UserTransitionProof",
          "name": "_proof",
          "type": "tuple"
        },
        {
          "indexed": false,
          "internalType": "uint256[]",
          "name": "_proofIndexRecords",
          "type": "uint256[]"
        }
      ],
      "name": "IndexedUserStateTransitionProof",
      "type": "event"
    },
    {
      "anonymous": false,
      "inputs": [
        {
          "indexed": true,
          "internalType": "uint256",
          "name": "_epoch",
          "type": "uint256"
        },
        {
          "indexed": false,
          "internalType": "enum Unirep.Event",
          "name": "_event",
          "type": "uint8"
        }
      ],
      "name": "Sequencer",
      "type": "event"
    },
    {
      "anonymous": false,
      "inputs": [
        {
          "indexed": true,
          "internalType": "uint256",
          "name": "_epoch",
          "type": "uint256"
        },
        {
          "indexed": true,
          "internalType": "uint256",
          "name": "_identityCommitment",
          "type": "uint256"
        },
        {
          "indexed": false,
          "internalType": "uint256",
          "name": "_attesterId",
          "type": "uint256"
        },
        {
          "indexed": false,
          "internalType": "uint256",
          "name": "_airdropAmount",
          "type": "uint256"
        }
      ],
      "name": "UserSignedUp",
      "type": "event"
    },
    {
      "anonymous": false,
      "inputs": [
        {
          "indexed": true,
          "internalType": "uint256",
          "name": "_epoch",
          "type": "uint256"
        },
        {
          "indexed": true,
          "internalType": "uint256",
          "name": "_hashedLeaf",
          "type": "uint256"
        },
        {
          "indexed": false,
          "internalType": "uint256",
          "name": "_proofIndex",
          "type": "uint256"
        }
      ],
      "name": "UserStateTransitioned",
      "type": "event"
    },
    {
      "inputs": [
        {
          "internalType": "address",
          "name": "",
          "type": "address"
        }
      ],
      "name": "airdropAmount",
      "outputs": [
        {
          "internalType": "uint256",
          "name": "",
          "type": "uint256"
        }
      ],
      "stateMutability": "view",
      "type": "function"
    },
    {
      "inputs": [
        {
          "components": [
            {
              "internalType": "uint256",
              "name": "epoch",
              "type": "uint256"
            },
            {
              "internalType": "uint256",
              "name": "epochKey",
              "type": "uint256"
            },
            {
              "internalType": "uint256",
              "name": "globalStateTree",
              "type": "uint256"
            },
            {
              "internalType": "uint256",
              "name": "attesterId",
              "type": "uint256"
            },
            {
              "internalType": "uint256",
              "name": "userHasSignedUp",
              "type": "uint256"
            },
            {
              "internalType": "uint256[8]",
              "name": "proof",
              "type": "uint256[8]"
            }
          ],
          "internalType": "struct UnirepObjs.SignUpProof",
          "name": "_input",
          "type": "tuple"
        }
      ],
      "name": "airdropEpochKey",
      "outputs": [],
      "stateMutability": "payable",
      "type": "function"
    },
    {
      "inputs": [],
      "name": "attesterSignUp",
      "outputs": [],
      "stateMutability": "nonpayable",
      "type": "function"
    },
    {
      "inputs": [
        {
          "internalType": "address",
          "name": "attester",
          "type": "address"
        },
        {
          "internalType": "bytes",
          "name": "signature",
          "type": "bytes"
        }
      ],
      "name": "attesterSignUpViaRelayer",
      "outputs": [],
      "stateMutability": "nonpayable",
      "type": "function"
    },
    {
      "inputs": [
        {
          "internalType": "address",
          "name": "",
          "type": "address"
        }
      ],
      "name": "attesters",
      "outputs": [
        {
          "internalType": "uint256",
          "name": "",
          "type": "uint256"
        }
      ],
      "stateMutability": "view",
      "type": "function"
    },
    {
      "inputs": [],
      "name": "attestingFee",
      "outputs": [
        {
          "internalType": "uint256",
          "name": "",
          "type": "uint256"
        }
      ],
      "stateMutability": "view",
      "type": "function"
    },
    {
      "inputs": [],
      "name": "beginEpochTransition",
      "outputs": [],
      "stateMutability": "nonpayable",
      "type": "function"
    },
    {
      "inputs": [],
      "name": "burnAttestingFee",
      "outputs": [],
      "stateMutability": "nonpayable",
      "type": "function"
    },
    {
      "inputs": [],
      "name": "collectEpochTransitionCompensation",
      "outputs": [],
      "stateMutability": "nonpayable",
      "type": "function"
    },
    {
      "inputs": [],
      "name": "collectedAttestingFee",
      "outputs": [
        {
          "internalType": "uint256",
          "name": "",
          "type": "uint256"
        }
      ],
      "stateMutability": "view",
      "type": "function"
    },
    {
      "inputs": [],
      "name": "currentEpoch",
      "outputs": [
        {
          "internalType": "uint256",
          "name": "",
          "type": "uint256"
        }
      ],
      "stateMutability": "view",
      "type": "function"
    },
    {
      "inputs": [],
      "name": "epochLength",
      "outputs": [
        {
          "internalType": "uint256",
          "name": "",
          "type": "uint256"
        }
      ],
      "stateMutability": "view",
      "type": "function"
    },
    {
      "inputs": [
        {
          "internalType": "address",
          "name": "",
          "type": "address"
        }
      ],
      "name": "epochTransitionCompensation",
      "outputs": [
        {
          "internalType": "uint256",
          "name": "",
          "type": "uint256"
        }
      ],
      "stateMutability": "view",
      "type": "function"
    },
    {
      "inputs": [
        {
          "internalType": "bytes32",
          "name": "",
          "type": "bytes32"
        }
      ],
      "name": "getProofIndex",
      "outputs": [
        {
          "internalType": "uint256",
          "name": "",
          "type": "uint256"
        }
      ],
      "stateMutability": "view",
      "type": "function"
    },
    {
      "inputs": [
        {
          "internalType": "uint256",
          "name": "",
          "type": "uint256"
        }
      ],
      "name": "hasUserSignedUp",
      "outputs": [
        {
          "internalType": "bool",
          "name": "",
          "type": "bool"
        }
      ],
      "stateMutability": "view",
      "type": "function"
    },
    {
      "inputs": [
        {
          "components": [
            {
              "internalType": "uint256",
              "name": "globalStateTree",
              "type": "uint256"
            },
            {
              "internalType": "uint256",
              "name": "epoch",
              "type": "uint256"
            },
            {
              "internalType": "uint256",
              "name": "epochKey",
              "type": "uint256"
            },
            {
              "internalType": "uint256[8]",
              "name": "proof",
              "type": "uint256[8]"
            }
          ],
          "internalType": "struct UnirepObjs.EpochKeyProof",
          "name": "_input",
          "type": "tuple"
        }
      ],
      "name": "hashEpochKeyProof",
      "outputs": [
        {
          "internalType": "bytes32",
          "name": "",
          "type": "bytes32"
        }
      ],
      "stateMutability": "pure",
      "type": "function"
    },
    {
      "inputs": [
        {
          "internalType": "uint256",
          "name": "_outputBlindedUserState",
          "type": "uint256"
        },
        {
          "internalType": "uint256",
          "name": "_outputBlindedHashChain",
          "type": "uint256"
        },
        {
          "internalType": "uint256",
          "name": "_inputBlindedUserState",
          "type": "uint256"
        },
        {
          "internalType": "uint256[8]",
          "name": "_proof",
          "type": "uint256[8]"
        }
      ],
      "name": "hashProcessAttestationsProof",
      "outputs": [
        {
          "internalType": "bytes32",
          "name": "",
          "type": "bytes32"
        }
      ],
      "stateMutability": "pure",
      "type": "function"
    },
    {
      "inputs": [
        {
          "components": [
            {
              "internalType": "uint256[]",
              "name": "repNullifiers",
              "type": "uint256[]"
            },
            {
              "internalType": "uint256",
              "name": "epoch",
              "type": "uint256"
            },
            {
              "internalType": "uint256",
              "name": "epochKey",
              "type": "uint256"
            },
            {
              "internalType": "uint256",
              "name": "globalStateTree",
              "type": "uint256"
            },
            {
              "internalType": "uint256",
              "name": "attesterId",
              "type": "uint256"
            },
            {
              "internalType": "uint256",
              "name": "proveReputationAmount",
              "type": "uint256"
            },
            {
              "internalType": "uint256",
              "name": "minRep",
              "type": "uint256"
            },
            {
              "internalType": "uint256",
              "name": "proveGraffiti",
              "type": "uint256"
            },
            {
              "internalType": "uint256",
              "name": "graffitiPreImage",
              "type": "uint256"
            },
            {
              "internalType": "uint256[8]",
              "name": "proof",
              "type": "uint256[8]"
            }
          ],
          "internalType": "struct UnirepObjs.ReputationProof",
          "name": "_input",
          "type": "tuple"
        }
      ],
      "name": "hashReputationProof",
      "outputs": [
        {
          "internalType": "bytes32",
          "name": "",
          "type": "bytes32"
        }
      ],
      "stateMutability": "pure",
      "type": "function"
    },
    {
      "inputs": [
        {
          "components": [
            {
              "internalType": "uint256",
              "name": "epoch",
              "type": "uint256"
            },
            {
              "internalType": "uint256",
              "name": "epochKey",
              "type": "uint256"
            },
            {
              "internalType": "uint256",
              "name": "globalStateTree",
              "type": "uint256"
            },
            {
              "internalType": "uint256",
              "name": "attesterId",
              "type": "uint256"
            },
            {
              "internalType": "uint256",
              "name": "userHasSignedUp",
              "type": "uint256"
            },
            {
              "internalType": "uint256[8]",
              "name": "proof",
              "type": "uint256[8]"
            }
          ],
          "internalType": "struct UnirepObjs.SignUpProof",
          "name": "_input",
          "type": "tuple"
        }
      ],
      "name": "hashSignUpProof",
      "outputs": [
        {
          "internalType": "bytes32",
          "name": "",
          "type": "bytes32"
        }
      ],
      "stateMutability": "pure",
      "type": "function"
    },
    {
      "inputs": [
        {
          "internalType": "uint256",
          "name": "_blindedUserState",
          "type": "uint256"
        },
        {
          "internalType": "uint256",
          "name": "_blindedHashChain",
          "type": "uint256"
        },
        {
          "internalType": "uint256",
          "name": "_globalStateTree",
          "type": "uint256"
        },
        {
          "internalType": "uint256[8]",
          "name": "_proof",
          "type": "uint256[8]"
        }
      ],
      "name": "hashStartTransitionProof",
      "outputs": [
        {
          "internalType": "bytes32",
          "name": "",
          "type": "bytes32"
        }
      ],
      "stateMutability": "pure",
      "type": "function"
    },
    {
      "inputs": [
        {
          "components": [
            {
              "internalType": "uint256",
              "name": "newGlobalStateTreeLeaf",
              "type": "uint256"
            },
            {
              "internalType": "uint256[]",
              "name": "epkNullifiers",
              "type": "uint256[]"
            },
            {
              "internalType": "uint256",
              "name": "transitionFromEpoch",
              "type": "uint256"
            },
            {
              "internalType": "uint256[]",
              "name": "blindedUserStates",
              "type": "uint256[]"
            },
            {
              "internalType": "uint256",
              "name": "fromGlobalStateTree",
              "type": "uint256"
            },
            {
              "internalType": "uint256[]",
              "name": "blindedHashChains",
              "type": "uint256[]"
            },
            {
              "internalType": "uint256",
              "name": "fromEpochTree",
              "type": "uint256"
            },
            {
              "internalType": "uint256[8]",
              "name": "proof",
              "type": "uint256[8]"
            }
          ],
          "internalType": "struct UnirepObjs.UserTransitionProof",
          "name": "_input",
          "type": "tuple"
        }
      ],
      "name": "hashUserStateTransitionProof",
      "outputs": [
        {
          "internalType": "bytes32",
          "name": "",
          "type": "bytes32"
        }
      ],
      "stateMutability": "pure",
      "type": "function"
    },
    {
      "inputs": [],
      "name": "latestEpochTransitionTime",
      "outputs": [
        {
          "internalType": "uint256",
          "name": "",
          "type": "uint256"
        }
      ],
      "stateMutability": "view",
      "type": "function"
    },
    {
      "inputs": [],
      "name": "maxAttesters",
      "outputs": [
        {
          "internalType": "uint256",
          "name": "",
          "type": "uint256"
        }
      ],
      "stateMutability": "view",
      "type": "function"
    },
    {
      "inputs": [],
      "name": "maxEpochKey",
      "outputs": [
        {
          "internalType": "uint256",
          "name": "",
          "type": "uint256"
        }
      ],
      "stateMutability": "view",
      "type": "function"
    },
    {
      "inputs": [],
      "name": "maxReputationBudget",
      "outputs": [
        {
          "internalType": "uint8",
          "name": "",
          "type": "uint8"
        }
      ],
      "stateMutability": "view",
      "type": "function"
    },
    {
      "inputs": [],
      "name": "maxUsers",
      "outputs": [
        {
          "internalType": "uint256",
          "name": "",
          "type": "uint256"
        }
      ],
      "stateMutability": "view",
      "type": "function"
    },
    {
      "inputs": [],
      "name": "nextAttesterId",
      "outputs": [
        {
          "internalType": "uint256",
          "name": "",
          "type": "uint256"
        }
      ],
      "stateMutability": "view",
      "type": "function"
    },
    {
      "inputs": [],
      "name": "numEpochKeyNoncePerEpoch",
      "outputs": [
        {
          "internalType": "uint8",
          "name": "",
          "type": "uint8"
        }
      ],
      "stateMutability": "view",
      "type": "function"
    },
    {
      "inputs": [],
      "name": "numUserSignUps",
      "outputs": [
        {
          "internalType": "uint256",
          "name": "",
          "type": "uint256"
        }
      ],
      "stateMutability": "view",
      "type": "function"
    },
    {
      "inputs": [
        {
          "internalType": "uint256",
          "name": "_outputBlindedUserState",
          "type": "uint256"
        },
        {
          "internalType": "uint256",
          "name": "_outputBlindedHashChain",
          "type": "uint256"
        },
        {
          "internalType": "uint256",
          "name": "_inputBlindedUserState",
          "type": "uint256"
        },
        {
          "internalType": "uint256[8]",
          "name": "_proof",
          "type": "uint256[8]"
        }
      ],
      "name": "processAttestations",
      "outputs": [],
      "stateMutability": "nonpayable",
      "type": "function"
    },
    {
      "inputs": [
        {
          "internalType": "uint256",
          "name": "_airdropAmount",
          "type": "uint256"
        }
      ],
      "name": "setAirdropAmount",
      "outputs": [],
      "stateMutability": "nonpayable",
      "type": "function"
    },
    {
      "inputs": [
        {
          "components": [
            {
              "internalType": "uint256[]",
              "name": "repNullifiers",
              "type": "uint256[]"
            },
            {
              "internalType": "uint256",
              "name": "epoch",
              "type": "uint256"
            },
            {
              "internalType": "uint256",
              "name": "epochKey",
              "type": "uint256"
            },
            {
              "internalType": "uint256",
              "name": "globalStateTree",
              "type": "uint256"
            },
            {
              "internalType": "uint256",
              "name": "attesterId",
              "type": "uint256"
            },
            {
              "internalType": "uint256",
              "name": "proveReputationAmount",
              "type": "uint256"
            },
            {
              "internalType": "uint256",
              "name": "minRep",
              "type": "uint256"
            },
            {
              "internalType": "uint256",
              "name": "proveGraffiti",
              "type": "uint256"
            },
            {
              "internalType": "uint256",
              "name": "graffitiPreImage",
              "type": "uint256"
            },
            {
              "internalType": "uint256[8]",
              "name": "proof",
              "type": "uint256[8]"
            }
          ],
          "internalType": "struct UnirepObjs.ReputationProof",
          "name": "_input",
          "type": "tuple"
        }
      ],
      "name": "spendReputation",
      "outputs": [],
      "stateMutability": "payable",
      "type": "function"
    },
    {
      "inputs": [
        {
          "internalType": "uint256",
          "name": "_blindedUserState",
          "type": "uint256"
        },
        {
          "internalType": "uint256",
          "name": "_blindedHashChain",
          "type": "uint256"
        },
        {
          "internalType": "uint256",
          "name": "_globalStateTree",
          "type": "uint256"
        },
        {
          "internalType": "uint256[8]",
          "name": "_proof",
          "type": "uint256[8]"
        }
      ],
      "name": "startUserStateTransition",
      "outputs": [],
      "stateMutability": "nonpayable",
      "type": "function"
    },
    {
      "inputs": [
        {
          "components": [
            {
              "internalType": "uint256",
              "name": "attesterId",
              "type": "uint256"
            },
            {
              "internalType": "uint256",
              "name": "posRep",
              "type": "uint256"
            },
            {
              "internalType": "uint256",
              "name": "negRep",
              "type": "uint256"
            },
            {
              "internalType": "uint256",
              "name": "graffiti",
              "type": "uint256"
            },
            {
              "internalType": "uint256",
              "name": "signUp",
              "type": "uint256"
            }
          ],
          "internalType": "struct UnirepObjs.Attestation",
          "name": "attestation",
          "type": "tuple"
        },
        {
          "internalType": "uint256",
          "name": "epochKey",
          "type": "uint256"
        },
        {
          "internalType": "uint256",
          "name": "toProofIndex",
          "type": "uint256"
        },
        {
          "internalType": "uint256",
          "name": "fromProofIndex",
          "type": "uint256"
        }
      ],
      "name": "submitAttestation",
      "outputs": [],
      "stateMutability": "payable",
      "type": "function"
    },
    {
      "inputs": [
        {
          "internalType": "address",
          "name": "attester",
          "type": "address"
        },
        {
          "internalType": "bytes",
          "name": "signature",
          "type": "bytes"
        },
        {
          "components": [
            {
              "internalType": "uint256",
              "name": "attesterId",
              "type": "uint256"
            },
            {
              "internalType": "uint256",
              "name": "posRep",
              "type": "uint256"
            },
            {
              "internalType": "uint256",
              "name": "negRep",
              "type": "uint256"
            },
            {
              "internalType": "uint256",
              "name": "graffiti",
              "type": "uint256"
            },
            {
              "internalType": "uint256",
              "name": "signUp",
              "type": "uint256"
            }
          ],
          "internalType": "struct UnirepObjs.Attestation",
          "name": "attestation",
          "type": "tuple"
        },
        {
          "internalType": "uint256",
          "name": "epochKey",
          "type": "uint256"
        },
        {
          "internalType": "uint256",
          "name": "toProofIndex",
          "type": "uint256"
        },
        {
          "internalType": "uint256",
          "name": "fromProofIndex",
          "type": "uint256"
        }
      ],
      "name": "submitAttestationViaRelayer",
      "outputs": [],
      "stateMutability": "payable",
      "type": "function"
    },
    {
      "inputs": [
        {
          "components": [
            {
              "internalType": "uint256",
              "name": "globalStateTree",
              "type": "uint256"
            },
            {
              "internalType": "uint256",
              "name": "epoch",
              "type": "uint256"
            },
            {
              "internalType": "uint256",
              "name": "epochKey",
              "type": "uint256"
            },
            {
              "internalType": "uint256[8]",
              "name": "proof",
              "type": "uint256[8]"
            }
          ],
          "internalType": "struct UnirepObjs.EpochKeyProof",
          "name": "_input",
          "type": "tuple"
        }
      ],
      "name": "submitEpochKeyProof",
      "outputs": [],
      "stateMutability": "nonpayable",
      "type": "function"
    },
    {
      "inputs": [],
      "name": "treeDepths",
      "outputs": [
        {
          "internalType": "uint8",
          "name": "globalStateTreeDepth",
          "type": "uint8"
        },
        {
          "internalType": "uint8",
          "name": "userStateTreeDepth",
          "type": "uint8"
        },
        {
          "internalType": "uint8",
          "name": "epochTreeDepth",
          "type": "uint8"
        }
      ],
      "stateMutability": "view",
      "type": "function"
    },
    {
      "inputs": [
        {
          "internalType": "uint256[8]",
          "name": "_proof",
          "type": "uint256[8]"
        }
      ],
      "name": "unpackProof",
      "outputs": [
        {
          "internalType": "uint256[2]",
          "name": "",
          "type": "uint256[2]"
        },
        {
          "internalType": "uint256[2][2]",
          "name": "",
          "type": "uint256[2][2]"
        },
        {
          "internalType": "uint256[2]",
          "name": "",
          "type": "uint256[2]"
        }
      ],
      "stateMutability": "pure",
      "type": "function"
    },
    {
      "inputs": [
        {
          "components": [
            {
              "internalType": "uint256",
              "name": "newGlobalStateTreeLeaf",
              "type": "uint256"
            },
            {
              "internalType": "uint256[]",
              "name": "epkNullifiers",
              "type": "uint256[]"
            },
            {
              "internalType": "uint256",
              "name": "transitionFromEpoch",
              "type": "uint256"
            },
            {
              "internalType": "uint256[]",
              "name": "blindedUserStates",
              "type": "uint256[]"
            },
            {
              "internalType": "uint256",
              "name": "fromGlobalStateTree",
              "type": "uint256"
            },
            {
              "internalType": "uint256[]",
              "name": "blindedHashChains",
              "type": "uint256[]"
            },
            {
              "internalType": "uint256",
              "name": "fromEpochTree",
              "type": "uint256"
            },
            {
              "internalType": "uint256[8]",
              "name": "proof",
              "type": "uint256[8]"
            }
          ],
          "internalType": "struct UnirepObjs.UserTransitionProof",
          "name": "_proof",
          "type": "tuple"
        },
        {
          "internalType": "uint256[]",
          "name": "proofIndexRecords",
          "type": "uint256[]"
        }
      ],
      "name": "updateUserStateRoot",
      "outputs": [],
      "stateMutability": "nonpayable",
      "type": "function"
    },
    {
      "inputs": [
        {
          "internalType": "uint256",
          "name": "_identityCommitment",
          "type": "uint256"
        }
      ],
      "name": "userSignUp",
      "outputs": [],
      "stateMutability": "nonpayable",
      "type": "function"
    },
    {
      "inputs": [
        {
          "components": [
            {
              "internalType": "uint256",
              "name": "globalStateTree",
              "type": "uint256"
            },
            {
              "internalType": "uint256",
              "name": "epoch",
              "type": "uint256"
            },
            {
              "internalType": "uint256",
              "name": "epochKey",
              "type": "uint256"
            },
            {
              "internalType": "uint256[8]",
              "name": "proof",
              "type": "uint256[8]"
            }
          ],
          "internalType": "struct UnirepObjs.EpochKeyProof",
          "name": "_input",
          "type": "tuple"
        }
      ],
      "name": "verifyEpochKeyValidity",
      "outputs": [
        {
          "internalType": "bool",
          "name": "",
          "type": "bool"
        }
      ],
      "stateMutability": "view",
      "type": "function"
    },
    {
      "inputs": [
        {
          "internalType": "uint256",
          "name": "_outputBlindedUserState",
          "type": "uint256"
        },
        {
          "internalType": "uint256",
          "name": "_outputBlindedHashChain",
          "type": "uint256"
        },
        {
          "internalType": "uint256",
          "name": "_inputBlindedUserState",
          "type": "uint256"
        },
        {
          "internalType": "uint256[8]",
          "name": "_proof",
          "type": "uint256[8]"
        }
      ],
      "name": "verifyProcessAttestationProof",
      "outputs": [
        {
          "internalType": "bool",
          "name": "",
          "type": "bool"
        }
      ],
      "stateMutability": "view",
      "type": "function"
    },
    {
      "inputs": [
        {
          "components": [
            {
              "internalType": "uint256[]",
              "name": "repNullifiers",
              "type": "uint256[]"
            },
            {
              "internalType": "uint256",
              "name": "epoch",
              "type": "uint256"
            },
            {
              "internalType": "uint256",
              "name": "epochKey",
              "type": "uint256"
            },
            {
              "internalType": "uint256",
              "name": "globalStateTree",
              "type": "uint256"
            },
            {
              "internalType": "uint256",
              "name": "attesterId",
              "type": "uint256"
            },
            {
              "internalType": "uint256",
              "name": "proveReputationAmount",
              "type": "uint256"
            },
            {
              "internalType": "uint256",
              "name": "minRep",
              "type": "uint256"
            },
            {
              "internalType": "uint256",
              "name": "proveGraffiti",
              "type": "uint256"
            },
            {
              "internalType": "uint256",
              "name": "graffitiPreImage",
              "type": "uint256"
            },
            {
              "internalType": "uint256[8]",
              "name": "proof",
              "type": "uint256[8]"
            }
          ],
          "internalType": "struct UnirepObjs.ReputationProof",
          "name": "_input",
          "type": "tuple"
        }
      ],
      "name": "verifyReputation",
      "outputs": [
        {
          "internalType": "bool",
          "name": "",
          "type": "bool"
        }
      ],
      "stateMutability": "view",
      "type": "function"
    },
    {
      "inputs": [
        {
          "internalType": "uint256",
          "name": "_blindedUserState",
          "type": "uint256"
        },
        {
          "internalType": "uint256",
          "name": "_blindedHashChain",
          "type": "uint256"
        },
        {
          "internalType": "uint256",
          "name": "_GSTRoot",
          "type": "uint256"
        },
        {
          "internalType": "uint256[8]",
          "name": "_proof",
          "type": "uint256[8]"
        }
      ],
      "name": "verifyStartTransitionProof",
      "outputs": [
        {
          "internalType": "bool",
          "name": "",
          "type": "bool"
        }
      ],
      "stateMutability": "view",
      "type": "function"
    },
    {
      "inputs": [
        {
          "components": [
            {
              "internalType": "uint256",
              "name": "epoch",
              "type": "uint256"
            },
            {
              "internalType": "uint256",
              "name": "epochKey",
              "type": "uint256"
            },
            {
              "internalType": "uint256",
              "name": "globalStateTree",
              "type": "uint256"
            },
            {
              "internalType": "uint256",
              "name": "attesterId",
              "type": "uint256"
            },
            {
              "internalType": "uint256",
              "name": "userHasSignedUp",
              "type": "uint256"
            },
            {
              "internalType": "uint256[8]",
              "name": "proof",
              "type": "uint256[8]"
            }
          ],
          "internalType": "struct UnirepObjs.SignUpProof",
          "name": "_input",
          "type": "tuple"
        }
      ],
      "name": "verifyUserSignUp",
      "outputs": [
        {
          "internalType": "bool",
          "name": "",
          "type": "bool"
        }
      ],
      "stateMutability": "view",
      "type": "function"
    },
    {
      "inputs": [
        {
          "components": [
            {
              "internalType": "uint256",
              "name": "newGlobalStateTreeLeaf",
              "type": "uint256"
            },
            {
              "internalType": "uint256[]",
              "name": "epkNullifiers",
              "type": "uint256[]"
            },
            {
              "internalType": "uint256",
              "name": "transitionFromEpoch",
              "type": "uint256"
            },
            {
              "internalType": "uint256[]",
              "name": "blindedUserStates",
              "type": "uint256[]"
            },
            {
              "internalType": "uint256",
              "name": "fromGlobalStateTree",
              "type": "uint256"
            },
            {
              "internalType": "uint256[]",
              "name": "blindedHashChains",
              "type": "uint256[]"
            },
            {
              "internalType": "uint256",
              "name": "fromEpochTree",
              "type": "uint256"
            },
            {
              "internalType": "uint256[8]",
              "name": "proof",
              "type": "uint256[8]"
            }
          ],
          "internalType": "struct UnirepObjs.UserTransitionProof",
          "name": "_input",
          "type": "tuple"
        }
      ],
      "name": "verifyUserStateTransition",
      "outputs": [
        {
          "internalType": "bool",
          "name": "",
          "type": "bool"
        }
      ],
      "stateMutability": "view",
      "type": "function"
    }
  ],
  "bytecode": "0x6101606040527f30644e72e131a029b85045b68181585d2833e84879b9709143e1f593f000000162000033610180620004c9565b6040516020818303038152906040528051906020012060001c620000589190620006eb565b600055600160075560006009556001600a556001600c5560016012553480156200008157600080fd5b506040516200537a3803806200537a833981016040819052620000a4916200039f565b8b601460008201518160000160006101000a81548160ff021916908360ff16021790555060208201518160000160016101000a81548160ff021916908360ff16021790555060408201518160000160026101000a81548160ff021916908360ff16021790555090505089600160006101000a8154816001600160a01b0302191690836001600160a01b0316021790555088600260006101000a8154816001600160a01b0302191690836001600160a01b0316021790555087600360006101000a8154816001600160a01b0302191690836001600160a01b0316021790555086600460006101000a8154816001600160a01b0302191690836001600160a01b0316021790555085600560006101000a8154816001600160a01b0302191690836001600160a01b0316021790555084600660006101000a8154816001600160a01b0302191690836001600160a01b031602179055508360ff1660c08160ff1660f81b815250508260ff1660e08160ff1660f81b8152505081608081815250504260088190555033600b60006101000a8154816001600160a01b0302191690836001600160a01b03160217905550600060018d600001516002620002669190620005d9565b620002729190620006d1565b9050808c600001511115620002a45760405162461bcd60e51b81526004016200029b90620004db565b60405180910390fd5b8b516101005260208d0151600090600190620002c2906002620005d9565b620002ce9190620006d1565b9050808d602001511115620002f75760405162461bcd60e51b81526004016200029b9062000512565b60208d01516101205260408e015160019062000315906002620005d9565b620003219190620006d1565b60a05250506101405250620007229950505050505050505050565b80516001600160a01b03811681146200035457600080fd5b919050565b6000604082840312156200036b578081fd5b62000377604062000554565b9050815181526020820151602082015292915050565b805160ff811681146200035457600080fd5b6000806000806000806000806000806000808c8e036101e0811215620003c3578889fd5b6060811215620003d1578889fd5b50620003de606062000554565b620003e98e6200038d565b8152620003f960208f016200038d565b60208201526200040c60408f016200038d565b60408201529b50620004228e60608f0162000359565b9a506200043260a08e016200033c565b99506200044260c08e016200033c565b98506200045260e08e016200033c565b9750620004636101008e016200033c565b9650620004746101208e016200033c565b9550620004856101408e016200033c565b9450620004966101608e016200038d565b9350620004a76101808e016200038d565b92506101a08d015191506101c08d015190509295989b509295989b509295989b565b650556e697265760d41b815260060190565b6020808252601e908201527f556e697265703a20696e76616c6964206d617855736572732076616c75650000604082015260600190565b60208082526022908201527f556e697265703a20696e76616c6964206d61784174746573746572732076616c604082015261756560f01b606082015260800190565b6040518181016001600160401b03811182821017156200058457634e487b7160e01b600052604160045260246000fd5b604052919050565b80825b6001808611620005a05750620005d0565b818704821115620005b557620005b56200070c565b80861615620005c357918102915b9490941c9380026200058f565b94509492505050565b6000620005ed60001960ff851684620005f4565b9392505050565b6000826200060557506001620005ed565b816200061457506000620005ed565b81600181146200062d576002811462000638576200066c565b6001915050620005ed565b60ff8411156200064c576200064c6200070c565b6001841b9150848211156200066557620006656200070c565b50620005ed565b5060208310610133831016604e8410600b8410161715620006a4575081810a838111156200069e576200069e6200070c565b620005ed565b620006b384848460016200058c565b808604821115620006c857620006c86200070c565b02949350505050565b600082821015620006e657620006e66200070c565b500390565b6000826200070757634e487b7160e01b81526012600452602481fd5b500690565b634e487b7160e01b600052601160045260246000fd5b60805160a05160c05160f81c60e05160f81c610100516101205161014051614b09620008716000396000818161088f015281816114ce01528181611cd701528181611df2015261290501526000818161119c015281816123c60152612d21015260008181610c0f0152612bb5015260008181611512015281816117d90152818161187b015281816118d10152818161192e0152818161198b015281816119e801528181611a4501528181611aa201528181611b000152612a49015260008181610f5301528181610fbf01528181611e1c01528181611ed801528181611f8b0152818161200e01528181612096015281816120f801528181612150015281816121af0152818161222e01526126eb015260008181610938015281816115a8015281816116fa01528181611d800152818161236001526129660152600081816112060152612ab40152614b096000f3fe60806040526004361061027d5760003560e01c806398588c1f1161014f578063b876ed71116100c1578063e1b0e8021161007a578063e1b0e802146106f5578063e79e23e91461070a578063e87101b11461072a578063f5ab0dd61461073f578063f73c8ebb1461076e578063fadd942d1461078e5761027d565b8063b876ed7114610658578063bff3df4114610678578063c26396731461068b578063cd5032e2146106a0578063d3aa645b146106c0578063de723886146106e05761027d565b8063a710d60f11610113578063a710d60f1461059d578063a7c264ca146105bd578063a7ebaa75146105df578063ac98e5df146105f4578063ad944e4714610618578063b530dc8c146106385761027d565b806398588c1f146105085780639e2e79dc14610528578063a14a9fe214610548578063a27e572a14610568578063a5500c301461057d5761027d565b806357d775f8116101f357806376671808116101ac578063766718081461047f578063839beeb81461049457806386826c4d146104a95780638728f5b2146104c95780639109d1eb146104de578063918f0c16146104f35761027d565b806357d775f8146103e45780635b3745b5146103f9578063606736fb1461041957806366c0f31f1461042c5780636e85e8141461044c5780636fbbdb361461046c5761027d565b80631e06fc01116102455780631e06fc011461033a578063410a14041461034f578063417b16e31461036f578063456bfc711461038f578063494e2171146103af57806356df4634146103cf5761027d565b806305d9ab821461028257806307d83308146102b8578063131a91ad146102cd578063132331f2146102ed5780631c89e8e81461030d575b600080fd5b34801561028e57600080fd5b506102a261029d366004613756565b6107a3565b6040516102af9190613d17565b60405180910390f35b3480156102c457600080fd5b506102a26107ea565b3480156102d957600080fd5b506102a26102e836600461356f565b6107f0565b3480156102f957600080fd5b506102a2610308366004613696565b610802565b34801561031957600080fd5b5061032d610328366004613696565b610814565b6040516102af9190613d0c565b61034d6103483660046136ae565b610829565b005b34801561035b57600080fd5b5061032d61036a366004613756565b6109a9565b34801561037b57600080fd5b5061034d61038a366004613696565b610b9b565b34801561039b57600080fd5b5061032d6103aa366004613896565b610cfe565b3480156103bb57600080fd5b5061034d6103ca366004613946565b610ef2565b3480156103db57600080fd5b5061034d61116d565b3480156103f057600080fd5b506102a2611204565b34801561040557600080fd5b5061032d6104143660046139a6565b611228565b61034d6104273660046137c0565b611434565b34801561043857600080fd5b5061034d610447366004613756565b611699565b34801561045857600080fd5b5061032d6104673660046137c0565b6117ac565b61034d61047a3660046135d9565b611c28565b34801561048b57600080fd5b506102a2611dea565b3480156104a057600080fd5b506102a2611df0565b3480156104b557600080fd5b5061032d6104c4366004613914565b611e14565b3480156104d557600080fd5b506102a261235e565b3480156104ea57600080fd5b506102a2612382565b3480156104ff57600080fd5b506102a2612388565b34801561051457600080fd5b5061034d610523366004613589565b61238e565b34801561053457600080fd5b506102a26105433660046139eb565b612470565b34801561055457600080fd5b506102a2610563366004613914565b6124a9565b34801561057457600080fd5b5061034d6124e3565b34801561058957600080fd5b5061034d610598366004613696565b612505565b3480156105a957600080fd5b5061032d6105b83660046139a6565b612543565b3480156105c957600080fd5b506105d26126e9565b6040516102af9190614926565b3480156105eb57600080fd5b5061034d61270d565b34801561060057600080fd5b50610609612722565b6040516102af93929190614934565b34801561062457600080fd5b506102a26106333660046137c0565b61273e565b34801561064457600080fd5b506102a261065336600461356f565b612784565b34801561066457600080fd5b5061034d6106733660046139a6565b612796565b61034d610686366004613896565b61286b565b34801561069757600080fd5b506105d2612a47565b3480156106ac57600080fd5b506102a26106bb366004613896565b612a6b565b3480156106cc57600080fd5b506102a26106db36600461356f565b612a9b565b3480156106ec57600080fd5b5061034d612aad565b34801561070157600080fd5b506102a2612bb3565b34801561071657600080fd5b506102a26107253660046139a6565b612bd7565b34801561073657600080fd5b506102a2612bf0565b34801561074b57600080fd5b5061075f61075a36600461365a565b612bf6565b6040516102af93929190613c9c565b34801561077a57600080fd5b5061034d6107893660046139a6565b612c7f565b34801561079a57600080fd5b506102a2612d1f565b600081600001518260200151836040015184606001516040516020016107cc9493929190613c38565b6040516020818303038152906040528051906020012090505b919050565b600f5481565b60116020526000908152604090205481565b600d6020526000908152604090205481565b600e6020526000908152604090205460ff1681565b3360009081526011602052604090205461085e5760405162461bcd60e51b815260040161085590613fea565b60405180910390fd5b3360009081526011602052604090205484351461088d5760405162461bcd60e51b8152600401610855906145ad565b7f000000000000000000000000000000000000000000000000000000000000000034146108cc5760405162461bcd60e51b81526004016108559061409e565b81158015906108dc5750600a5482105b80156108e95750600a5481105b6109055760405162461bcd60e51b8152600401610855906144de565b6080840135158061091a575083608001356001145b6109365760405162461bcd60e51b815260040161085590614067565b7f00000000000000000000000000000000000000000000000000000000000000008311156109765760405162461bcd60e51b815260040161085590614689565b600f546109839034612d43565b600f556109a333610999368790038701876136e8565b8585856000612d56565b50505050565b60408051600380825260808201909252600091829190602082016060803683370190505090508260000151816000815181106109f557634e487b7160e01b600052603260045260246000fd5b602002602001018181525050826020015181600181518110610a2757634e487b7160e01b600052603260045260246000fd5b602002602001018181525050826040015181600281518110610a5957634e487b7160e01b600052603260045260246000fd5b60200260200101818152505060005b81518160ff161015610add57600080516020614ab4833981519152828260ff1681518110610aa657634e487b7160e01b600052603260045260246000fd5b602002602001015110610acb5760405162461bcd60e51b8152600401610855906145e4565b80610ad581614a31565b915050610a68565b50610ae6613287565b610af38460600151612bf6565b60408085018290526020850183905283855260015490516361971b8760e11b81526001600160a01b039091169363c32e370e93610b399391929091908890600401613cc5565b60206040518083038186803b158015610b5157600080fd5b505afa158015610b65573d6000803e3d6000fd5b505050506040513d601f19601f82011682018060405250810190610b899190613676565b15156060909101819052915050919050565b600b546001600160a01b0316331480610bc257503360009081526011602052604090205415155b610bde5760405162461bcd60e51b815260040161085590614515565b6000818152600e602052604090205460ff1615610c0d5760405162461bcd60e51b81526004016108559061444a565b7f000000000000000000000000000000000000000000000000000000000000000060095410610c4e5760405162461bcd60e51b815260040161085590614490565b336000908152601160209081526040808320546013835281842054858552600e909352908320805460ff19166001179055600980549193610c8e83614a16565b9190505550600754600080516020614a948339815191526000604051610cb49190613da2565b60405180910390a2826007547faf92f92b28945d280b51131bc986d2da66b560950f1a5126f12b7f847dae8f7d8484604051610cf19291906148f4565b60405180910390a3505050565b60408051600580825260c082019092526000918291906020820160a080368337019050509050826000015181600081518110610d4a57634e487b7160e01b600052603260045260246000fd5b602002602001018181525050826020015181600181518110610d7c57634e487b7160e01b600052603260045260246000fd5b602002602001018181525050826040015181600281518110610dae57634e487b7160e01b600052603260045260246000fd5b602002602001018181525050826060015181600381518110610de057634e487b7160e01b600052603260045260246000fd5b602002602001018181525050826080015181600481518110610e1257634e487b7160e01b600052603260045260246000fd5b60200260200101818152505060005b81518160ff161015610e9657600080516020614ab4833981519152828260ff1681518110610e5f57634e487b7160e01b600052603260045260246000fd5b602002602001015110610e845760405162461bcd60e51b8152600401610855906145e4565b80610e8e81614a31565b915050610e21565b50610e9f613287565b610eac8460a00151612bf6565b60408085018290526020850183905283855260065490516361971b8760e11b81526001600160a01b039091169363c32e370e93610b399391929091908890600401613cc5565b6000610efd836124a9565b6000818152600d602052604090205490915015610f2c5760405162461bcd60e51b815260040161085590613e39565b600754836040015110610f515760405162461bcd60e51b8152600401610855906142bb565b7f000000000000000000000000000000000000000000000000000000000000000060ff1683602001515114610f985760405162461bcd60e51b815260040161085590614641565b826060015151600214610fbd5760405162461bcd60e51b815260040161085590613f53565b7f000000000000000000000000000000000000000000000000000000000000000060ff168360a0015151146110045760405162461bcd60e51b815260040161085590614379565b60005b825181101561109e5782818151811061103057634e487b7160e01b600052603260045260246000fd5b60200260200101516000141580156110705750600a5483828151811061106657634e487b7160e01b600052603260045260246000fd5b6020026020010151105b61108c5760405162461bcd60e51b8152600401610855906144de565b8061109681614a16565b915050611007565b50600a54600754604051600080516020614a94833981519152906110c490600190613da2565b60405180910390a2807f5b552a9df44a1ab5bbe960f96fe04b35454baded1ca53c89d13903661cf9fee185856040516110fe929190614823565b60405180910390a283516007546040517f5e4945fc83b420d245560b51ac02c824732652e0552b5d8537800db0c690a6639061113b908590613d17565b60405180910390a36000828152600d60205260408120829055600a80549161116283614a16565b919050555050505050565b336000908152601160205260409020541561119a5760405162461bcd60e51b815260040161085590613df3565b7f0000000000000000000000000000000000000000000000000000000000000000601254106111db5760405162461bcd60e51b815260040161085590614327565b601280543360009081526011602052604081208290559091906111fd83614a16565b9190505550565b7f000000000000000000000000000000000000000000000000000000000000000081565b6040805160038082526080820190925260009182919060208201606080368337019050509050858160008151811061127057634e487b7160e01b600052603260045260246000fd5b602002602001018181525050848160018151811061129e57634e487b7160e01b600052603260045260246000fd5b60200260200101818152505083816002815181106112cc57634e487b7160e01b600052603260045260246000fd5b60200260200101818152505060005b81518160ff16101561135057600080516020614ab4833981519152828260ff168151811061131957634e487b7160e01b600052603260045260246000fd5b60200260200101511061133e5760405162461bcd60e51b8152600401610855906145e4565b8061134881614a31565b9150506112db565b50611359613287565b604080516101008181019092526113889186906008908390839080828437600092019190915250612bf6915050565b60408085018290526020850183905283855260025490516361971b8760e11b81526001600160a01b039091169363c32e370e936113ce9391929091908890600401613cc5565b60206040518083038186803b1580156113e657600080fd5b505afa1580156113fa573d6000803e3d6000fd5b505050506040513d601f19601f8201168201806040525081019061141e9190613676565b151560609091018190529150505b949350505050565b600061143f8261273e565b6000818152600d60205260409020549091501561146e5760405162461bcd60e51b815260040161085590613e39565b3360009081526011602052604090205461149a5760405162461bcd60e51b815260040161085590613fea565b608082015133600090815260116020526040902054146114cc5760405162461bcd60e51b8152600401610855906145ad565b7f0000000000000000000000000000000000000000000000000000000000000000341461150b5760405162461bcd60e51b81526004016108559061409e565b81515160ff7f0000000000000000000000000000000000000000000000000000000000000000161461154f5760405162461bcd60e51b815260040161085590614216565b6007548260200151146115745760405162461bcd60e51b8152600401610855906140ea565b608082015133600090815260116020526040902054146115a65760405162461bcd60e51b8152600401610855906146c0565b7f0000000000000000000000000000000000000000000000000000000000000000826040015111156115ea5760405162461bcd60e51b815260040161085590614689565b600f546115f79034612d43565b600f556116026132c1565b336000908152601160205260409081902054825260a084015182820152600a548482015160075492519192909183907fb2bf4a676a6a5ef7e686a52ccf9f83f83acb1cac5d2eef1e090206a688c7777e9061165e90899061474f565b60405180910390a461167a338386604001518460006002612d56565b6000838152600d60205260408120829055600a80549161116283614a16565b60006116a4826107a3565b6000818152600d6020526040902054909150156116d35760405162461bcd60e51b815260040161085590613e39565b6007548260200151146116f85760405162461bcd60e51b815260040161085590614265565b7f00000000000000000000000000000000000000000000000000000000000000008260400151111561173c5760405162461bcd60e51b815260040161085590614689565b6000600a5490508260400151600754827ff897f63ef79d1e56ab9f314e1e74d030bcd34a4f0d09ed2834f1efeebf9a4ed98660405161177b9190614715565b60405180910390a46000828152600d60205260408120829055600a8054916117a283614a16565b9190505550505050565b6040805160128082526102608201909252600091829190602082016102408036833701905050905060005b7f000000000000000000000000000000000000000000000000000000000000000060ff168160ff161015611872578351805160ff831690811061182a57634e487b7160e01b600052603260045260246000fd5b6020026020010151828260ff168151811061185557634e487b7160e01b600052603260045260246000fd5b60209081029190910101528061186a81614a31565b9150506117d7565b508260200151817f000000000000000000000000000000000000000000000000000000000000000060ff16815181106118bb57634e487b7160e01b600052603260045260246000fd5b60209081029190910101526040830151816118f77f00000000000000000000000000000000000000000000000000000000000000006001614992565b60ff168151811061191857634e487b7160e01b600052603260045260246000fd5b60209081029190910101526060830151816119547f00000000000000000000000000000000000000000000000000000000000000006002614992565b60ff168151811061197557634e487b7160e01b600052603260045260246000fd5b60209081029190910101526080830151816119b17f00000000000000000000000000000000000000000000000000000000000000006003614992565b60ff16815181106119d257634e487b7160e01b600052603260045260246000fd5b602090810291909101015260a083015181611a0e7f00000000000000000000000000000000000000000000000000000000000000006004614992565b60ff1681518110611a2f57634e487b7160e01b600052603260045260246000fd5b602090810291909101015260c083015181611a6b7f00000000000000000000000000000000000000000000000000000000000000006005614992565b60ff1681518110611a8c57634e487b7160e01b600052603260045260246000fd5b602090810291909101015260e083015181611ac87f00000000000000000000000000000000000000000000000000000000000000006006614992565b60ff1681518110611ae957634e487b7160e01b600052603260045260246000fd5b602090810291909101015261010083015181611b267f00000000000000000000000000000000000000000000000000000000000000006007614992565b60ff1681518110611b4757634e487b7160e01b600052603260045260246000fd5b60200260200101818152505060005b81518160ff161015611bcb57600080516020614ab4833981519152828260ff1681518110611b9457634e487b7160e01b600052603260045260246000fd5b602002602001015110611bb95760405162461bcd60e51b8152600401610855906145e4565b80611bc381614a31565b915050611b56565b50611bd4613287565b611be2846101200151612bf6565b60408085018290526020850183905283855260055490516361971b8760e11b81526001600160a01b039091169363c32e370e93610b399391929091908890600401613cc5565b611c688787878080601f016020809104026020016040519081016040528093929190818152602001838380828437600092019190915250612e7192505050565b6001600160a01b038716600090815260116020526040902054611c9d5760405162461bcd60e51b815260040161085590613fea565b6001600160a01b038716600090815260116020526040902054843514611cd55760405162461bcd60e51b8152600401610855906145ad565b7f00000000000000000000000000000000000000000000000000000000000000003414611d145760405162461bcd60e51b81526004016108559061409e565b8115801590611d245750600a5482105b8015611d315750600a5481105b611d4d5760405162461bcd60e51b8152600401610855906144de565b60808401351580611d62575083608001356001145b611d7e5760405162461bcd60e51b815260040161085590614067565b7f0000000000000000000000000000000000000000000000000000000000000000831115611dbe5760405162461bcd60e51b815260040161085590614689565b600f54611dcb9034612d43565b600f55611de187610999368790038701876136e8565b50505050505050565b60075481565b7f000000000000000000000000000000000000000000000000000000000000000081565b600080611e427f000000000000000000000000000000000000000000000000000000000000000060026149d6565b611e4d906006614992565b60ff166001600160401b03811115611e7557634e487b7160e01b600052604160045260246000fd5b604051908082528060200260200182016040528015611e9e578160200160208202803683370190505b509050826000015181600081518110611ec757634e487b7160e01b600052603260045260246000fd5b60200260200101818152505060005b7f000000000000000000000000000000000000000000000000000000000000000060ff168160ff161015611f7f5783602001518160ff1681518110611f2b57634e487b7160e01b600052603260045260246000fd5b602002602001015182826001611f419190614992565b60ff1681518110611f6257634e487b7160e01b600052603260045260246000fd5b602090810291909101015280611f7781614a31565b915050611ed6565b50604083015181611fb17f00000000000000000000000000000000000000000000000000000000000000006001614992565b60ff1681518110611fd257634e487b7160e01b600052603260045260246000fd5b602002602001018181525050826060015160008151811061200357634e487b7160e01b600052603260045260246000fd5b6020026020010151817f000000000000000000000000000000000000000000000000000000000000000060026120399190614992565b60ff168151811061205a57634e487b7160e01b600052603260045260246000fd5b602002602001018181525050826060015160018151811061208b57634e487b7160e01b600052603260045260246000fd5b6020026020010151817f000000000000000000000000000000000000000000000000000000000000000060036120c19190614992565b60ff16815181106120e257634e487b7160e01b600052603260045260246000fd5b602090810291909101015260808301518161211e7f00000000000000000000000000000000000000000000000000000000000000006004614992565b60ff168151811061213f57634e487b7160e01b600052603260045260246000fd5b60200260200101818152505060005b7f000000000000000000000000000000000000000000000000000000000000000060ff168160ff161015612222578360a001518160ff16815181106121a357634e487b7160e01b600052603260045260246000fd5b602002602001015182827f000000000000000000000000000000000000000000000000000000000000000060056121da9190614992565b6121e49190614992565b60ff168151811061220557634e487b7160e01b600052603260045260246000fd5b60209081029190910101528061221a81614a31565b91505061214e565b5060c0830151816122547f000000000000000000000000000000000000000000000000000000000000000060026149d6565b61225f906005614992565b60ff168151811061228057634e487b7160e01b600052603260045260246000fd5b60200260200101818152505060005b81518160ff16101561230457600080516020614ab4833981519152828260ff16815181106122cd57634e487b7160e01b600052603260045260246000fd5b6020026020010151106122f25760405162461bcd60e51b8152600401610855906145e4565b806122fc81614a31565b91505061228f565b5061230d613287565b61231a8460e00151612bf6565b6040808501829052602085018390528385526004805491516361971b8760e11b81526001600160a01b039092169463c32e370e94610b399491939092899101613cc5565b7f000000000000000000000000000000000000000000000000000000000000000081565b60125481565b60095481565b6001600160a01b038316600090815260116020526040902054156123c45760405162461bcd60e51b815260040161085590613df3565b7f0000000000000000000000000000000000000000000000000000000000000000601254106124055760405162461bcd60e51b815260040161085590614327565b6124458383838080601f016020809104026020016040519081016040528093929190818152602001838380828437600092019190915250612e7192505050565b601280546001600160a01b03851660009081526011602052604081208290559091906117a283614a16565b6000848484846040516020016124899493929190613c38565b604051602081830303815290604052805190602001209050949350505050565b80516020808301516040808501516060860151608087015160a088015160c089015160e08a015195516000996107cc999098979101613bb4565b3360008181526010602052604081208054919055906125029082612f03565b50565b336000908152601160205260409020546125315760405162461bcd60e51b815260040161085590613fea565b33600090815260136020526040902055565b6040805160038082526080820190925260009182919060208201606080368337019050509050858160008151811061258b57634e487b7160e01b600052603260045260246000fd5b60200260200101818152505084816001815181106125b957634e487b7160e01b600052603260045260246000fd5b60200260200101818152505083816002815181106125e757634e487b7160e01b600052603260045260246000fd5b60200260200101818152505060005b81518160ff16101561266b57600080516020614ab4833981519152828260ff168151811061263457634e487b7160e01b600052603260045260246000fd5b6020026020010151106126595760405162461bcd60e51b8152600401610855906145e4565b8061266381614a31565b9150506125f6565b50612674613287565b604080516101008181019092526126a39186906008908390839080828437600092019190915250612bf6915050565b60408085018290526020850183905283855260035490516361971b8760e11b81526001600160a01b039091169363c32e370e936113ce9391929091908890600401613cc5565b7f000000000000000000000000000000000000000000000000000000000000000081565b600f8054600091829055906125029082612f03565b60145460ff808216916101008104821691620100009091041683565b80516020808301516040808501516060860151608087015160a088015160c089015160e08a01516101008b01516101208c0151975160009b6107cc9b909a999101613b25565b60136020526000908152604090205481565b60006127cd858585856008806020026040519081016040528092919082600860200280828437600092019190915250612470915050565b6000818152600d6020526040902054909150156127fc5760405162461bcd60e51b815260040161085590613e39565b6000600a5490508386827fc70a0250765c7e3a778b8771883540e979ac92fa4002835744533497db87064688876040516128379291906148d8565b60405180910390a46000828152600d60205260408120829055600a80549161285e83614a16565b9190505550505050505050565b600061287682612a6b565b6000818152600d6020526040902054909150156128a55760405162461bcd60e51b815260040161085590613e39565b336000908152601160205260409020546128d15760405162461bcd60e51b815260040161085590613fea565b606082015133600090815260116020526040902054146129035760405162461bcd60e51b8152600401610855906145ad565b7f000000000000000000000000000000000000000000000000000000000000000034146129425760405162461bcd60e51b81526004016108559061409e565b6007548251146129645760405162461bcd60e51b815260040161085590613eff565b7f0000000000000000000000000000000000000000000000000000000000000000826020015111156129a85760405162461bcd60e51b815260040161085590614689565b600f546129b59034612d43565b600f556129c06132c1565b3360008181526011602090815260408083205485529282526013815290829020548382015260016080840152600a549085015160075492519192909183907f58b1080086db5bb58e2e8e2f28dc2a26b705277257655e9296c7ebfcfb81713690612a2b9089906147dc565b60405180910390a461167a338386602001518460006001612d56565b7f000000000000000000000000000000000000000000000000000000000000000081565b80516020808301516040808501516060860151608087015160a088015193516000976107cc979096959101613c63565b60106020526000908152604090205481565b60005a90507f000000000000000000000000000000000000000000000000000000000000000060085442612ae191906149ff565b1015612aff5760405162461bcd60e51b815260040161085590614030565b600754600080516020614a948339815191526003604051612b209190613da2565b60405180910390a26007546040517f751bb1ba7b27b3979a32844d4d05aa16a46a771b751593704834a80311e3a9b990600090a24260085560078054906000612b6883614a16565b91905055506000612b7a5a8390612f9f565b9050612b9f612b89823a612fab565b3360009081526010602052604090205490612d43565b336000908152601060205260409020555050565b7f000000000000000000000000000000000000000000000000000000000000000081565b6000848484846040516020016124899493929190613c0c565b60085481565b612bfe6132f0565b612c0661330e565b612c0e6132f0565b50506040805180820182528351815260208085015181830152825160808082018552868501518286019081526060808901519084015282528451808601865290870151815260a08701518184015281830152835180850190945260c0860151845260e0909501519083015293909150565b6000612c8d85858585612bd7565b6000818152600d602052604090205490915015612cbc5760405162461bcd60e51b815260040161085590613e39565b6000600a54905083817ff32686467e2fc0ec47df070bcf076510ff790a7ec36e2c65de53ce0d17906b69888887604051612cf893929190614902565b60405180910390a36000828152600d60205260408120829055600a80549161285e83614a16565b7f000000000000000000000000000000000000000000000000000000000000000081565b6000612d4f828461497a565b9392505050565b600080516020614ab4833981519152856020015110612d875760405162461bcd60e51b8152600401610855906143c6565b600080516020614ab4833981519152856040015110612db85760405162461bcd60e51b81526004016108559061456b565b600080516020614ab4833981519152856060015110612de95760405162461bcd60e51b815260040161085590613ebb565b600754600080516020614a948339815191526002604051612e0a9190613da2565b60405180910390a2856001600160a01b0316846007547fdbd3d665448fee233664f2b549d5d40b93371f736ecc7f9bc421fe927bf0b37684898888600c54604051612e59959493929190613d3e565b60405180910390a4600c805490600061285e83614a16565b60008230604051602001612e86929190613afe565b60405160208183030381529060405280519060200120604051602001612eac9190613b80565b604051602081830303815290604052805190602001209050826001600160a01b0316612ed88284612fb7565b6001600160a01b031614612efe5760405162461bcd60e51b815260040161085590613fa0565b505050565b80471015612f235760405162461bcd60e51b8152600401610855906141df565b6000826001600160a01b031682604051612f3c90613bb1565b60006040518083038185875af1925050503d8060008114612f79576040519150601f19603f3d011682016040523d82523d6000602084013e612f7e565b606091505b5050905080612efe5760405162461bcd60e51b815260040161085590614140565b6000612d4f82846149ff565b6000612d4f82846149b7565b6000806000612fc68585612fdb565b91509150612fd38161304b565b509392505050565b6000808251604114156130125760208301516040840151606085015160001a61300687828585613178565b94509450505050613044565b82516040141561303c5760208301516040840151613031868383613258565b935093505050613044565b506000905060025b9250929050565b600081600481111561306d57634e487b7160e01b600052602160045260246000fd5b141561307857612502565b600181600481111561309a57634e487b7160e01b600052602160045260246000fd5b14156130b85760405162461bcd60e51b815260040161085590613dbc565b60028160048111156130da57634e487b7160e01b600052602160045260246000fd5b14156130f85760405162461bcd60e51b815260040161085590613e84565b600381600481111561311a57634e487b7160e01b600052602160045260246000fd5b14156131385760405162461bcd60e51b81526004016108559061419d565b600481600481111561315a57634e487b7160e01b600052602160045260246000fd5b14156125025760405162461bcd60e51b815260040161085590614408565b6000807f7fffffffffffffffffffffffffffffff5d576e7357a4501ddfe92f46681b20a08311156131af575060009050600361324f565b8460ff16601b141580156131c757508460ff16601c14155b156131d8575060009050600461324f565b6000600187878787604051600081526020016040526040516131fd9493929190613d20565b6020604051602081039080840390855afa15801561321f573d6000803e3d6000fd5b5050604051601f1901519150506001600160a01b0381166132485760006001925092505061324f565b9150600090505b94509492505050565b6000806001600160ff1b03831660ff84901c601b0161327987828885613178565b935093505050935093915050565b604051806080016040528061329a6132f0565b81526020016132a761330e565b81526020016132b46132f0565b8152600060209091015290565b6040518060a0016040528060008152602001600081526020016000815260200160008152602001600081525090565b60405180604001604052806002906020820280368337509192915050565b60405180604001604052806002905b6133256132f0565b81526020019060019003908161331d5790505090565b80356001600160a01b03811681146107e557600080fd5b600082601f830112613362578081fd5b6040516101008082018281106001600160401b038211171561338657613386614a7d565b6040528184828101871015613399578485fd5b8492505b60088310156133bd5780358252600192909201916020918201910161339d565b509195945050505050565b600082601f8301126133d8578081fd5b813560206001600160401b038211156133f3576133f3614a7d565b808202613401828201614951565b83815282810190868401838801850189101561341b578687fd5b8693505b8584101561343d57803583526001939093019291840191840161341f565b50979650505050505050565b60008083601f84011261345a578182fd5b5081356001600160401b03811115613470578182fd5b60208301915083602082850101111561304457600080fd5b600060a08284031215613499578081fd5b50919050565b60006101e082840312156134b1578081fd5b6134bc610100614951565b90508135815260208201356001600160401b03808211156134dc57600080fd5b6134e8858386016133c8565b602084015260408401356040840152606084013591508082111561350b57600080fd5b613517858386016133c8565b60608401526080840135608084015260a084013591508082111561353a57600080fd5b50613547848285016133c8565b60a08301525060c082013560c08201526135648360e08401613352565b60e082015292915050565b600060208284031215613580578081fd5b612d4f8261333b565b60008060006040848603121561359d578182fd5b6135a68461333b565b925060208401356001600160401b038111156135c0578283fd5b6135cc86828701613449565b9497909650939450505050565b6000806000806000806000610140888a0312156135f4578283fd5b6135fd8861333b565b965060208801356001600160401b03811115613617578384fd5b6136238a828b01613449565b909750955061363790508960408a01613488565b9699959850939660e0810135956101008201359550610120909101359350915050565b6000610100828403121561366c578081fd5b612d4f8383613352565b600060208284031215613687578081fd5b81518015158114612d4f578182fd5b6000602082840312156136a7578081fd5b5035919050565b60008060008061010085870312156136c4578182fd5b6136ce8686613488565b9660a0860135965060c08601359560e00135945092505050565b600060a082840312156136f9578081fd5b60405160a081018181106001600160401b038211171561371b5761371b614a7d565b806040525082358152602083013560208201526040830135604082015260608301356060820152608083013560808201528091505092915050565b60006101608284031215613768578081fd5b604051608081018181106001600160401b038211171561378a5761378a614a7d565b80604052508235815260208301356020820152604083013560408201526137b48460608501613352565b60608201529392505050565b6000602082840312156137d1578081fd5b81356001600160401b03808211156137e7578283fd5b9083019061022082860312156137fb578283fd5b613806610140614951565b823582811115613814578485fd5b613820878286016133c8565b8252506020830135602082015260408301356040820152606083013560608201526080830135608082015260a083013560a082015260c083013560c082015260e083013560e082015261010091508183013582820152610120915061388786838501613352565b91810191909152949350505050565b60006101a082840312156138a8578081fd5b60405160c081018181106001600160401b03821117156138ca576138ca614a7d565b806040525082358152602083013560208201526040830135604082015260608301356060820152608083013560808201526139088460a08501613352565b60a08201529392505050565b600060208284031215613925578081fd5b81356001600160401b0381111561393a578182fd5b61142c8482850161349f565b60008060408385031215613958578182fd5b82356001600160401b038082111561396e578384fd5b61397a8683870161349f565b9350602085013591508082111561398f578283fd5b5061399c858286016133c8565b9150509250929050565b6000806000806101608086880312156139bd578283fd5b8535945060208601359350604086013592508681870111156139dd578182fd5b509295919450926060019150565b6000806000806101608587031215613a01578182fd5b843593506020850135925060408501359150613a208660608701613352565b905092959194509250565b8060005b60028110156109a357613a43848351613a59565b6040939093019260209190910190600101613a2f565b8060005b60028110156109a3578151845260209384019390910190600101613a5d565b8060005b60088110156109a3578151845260209384019390910190600101613a80565b6000815180845260208085019450808401835b83811015613ace57815187529582019590820190600101613ab2565b509495945050505050565b80516000906020808401838315613ace57815187529582019590820190600101613ab2565b6bffffffffffffffffffffffff19606093841b811682529190921b16601482015260280190565b6000613b31828d613ad9565b8b81528a60208201528960408201528860608201528760808201528660a08201528560c08201528460e0820152613b6c610100820185613a7c565b610200019c9b505050505050505050505050565b7f19457468657265756d205369676e6564204d6573736167653a0a3332000000008152601c810191909152603c0190565b90565b6000898252613bc6602083018a613ad9565b888152613bd66020820189613ad9565b9050868152613be86020820187613ad9565b9050848152613bfa6020820185613a7c565b610120019a9950505050505050505050565b600085825284602083015283604083015261010083606084013761016091909101908152949350505050565b6000858252846020830152836040830152613c566060830184613a7c565b5061016001949350505050565b6000878252866020830152856040830152846060830152836080830152613c8d60a0830184613a7c565b506101a0019695505050505050565b6101008101613cab8286613a59565b613cb86040830185613a2b565b61142c60c0830184613a59565b6000610120613cd48388613a59565b613ce16040840187613a2b565b613cee60c0840186613a59565b80610100840152613d0181840185613a9f565b979650505050505050565b901515815260200190565b90815260200190565b93845260ff9290921660208401526040830152606082015260800190565b610120810160038710613d5357613d53614a67565b86825285516020830152602086015160408301526040860151606083015260608601516080830152608086015160a08301528460c08301528360e0830152826101008301529695505050505050565b6020810160048310613db657613db6614a67565b91905290565b60208082526018908201527f45434453413a20696e76616c6964207369676e61747572650000000000000000604082015260600190565b60208082526026908201527f556e697265703a2061747465737465722068617320616c72656164792073696760408201526506e65642075760d41b606082015260800190565b6020808252602b908201527f556e697265703a207468652070726f6f6620686173206265656e207375626d6960408201526a74746564206265666f726560a81b606082015260800190565b6020808252601f908201527f45434453413a20696e76616c6964207369676e6174757265206c656e67746800604082015260600190565b60208082526024908201527f556e697265703a20696e76616c6964206174746573746174696f6e20677261666040820152636669746960e01b606082015260800190565b60208082526034908201527f556e697265703a207375626d697420616e2061697264726f702070726f6f66206040820152730eed2e8d040d2dcc6dee4e4cac6e840cae0dec6d60631b606082015260800190565b6020808252602d908201527f556e697265703a20696e76616c6964206e756d626572206f6620626c696e646560408201526c6420757365722073746174657360981b606082015260800190565b6020808252602a908201527f556e697265703a20696e76616c6964206174746573746572207369676e207570604082015269207369676e617475726560b01b606082015260800190565b60208082526026908201527f556e697265703a20617474657374657220686173206e6f74207369676e6564206040820152651d5c081e595d60d21b606082015260800190565b6020808252601b908201527f556e697265703a2065706f6368206e6f742079657420656e6465640000000000604082015260600190565b6020808252601c908201527f556e697265703a20696e76616c6964207369676e20757020666c616700000000604082015260600190565b6020808252602c908201527f556e697265703a206e6f20617474657374696e6720666565206f7220696e636f60408201526b1c9c9958dd08185b5bdd5b9d60a21b606082015260800190565b60208082526036908201527f556e697265703a207375626d697420612072657075746174696f6e2070726f6f6040820152750cc40eed2e8d040d2dcc6dee4e4cac6e840cae0dec6d60531b606082015260800190565b6020808252603a908201527f416464726573733a20756e61626c6520746f2073656e642076616c75652c207260408201527f6563697069656e74206d61792068617665207265766572746564000000000000606082015260800190565b60208082526022908201527f45434453413a20696e76616c6964207369676e6174757265202773272076616c604082015261756560f01b606082015260800190565b6020808252601d908201527f416464726573733a20696e73756666696369656e742062616c616e6365000000604082015260600190565b6020808252602f908201527f556e697265703a20696e76616c6964206e756d626572206f662072657075746160408201526e74696f6e206e756c6c69666965727360881b606082015260800190565b60208082526036908201527f556e697265703a207375626d697420616e2065706f6368206b65792070726f6f6040820152750cc40eed2e8d040d2dcc6dee4e4cac6e840cae0dec6d60531b606082015260800190565b60208082526046908201527f43616e206e6f74207472616e736974696f6e2066726f6d2065706f636820746860408201527f617427732067726561746572206f7220657175616c20746f2063757272656e74606082015265040cae0dec6d60d31b608082015260a00190565b60208082526032908201527f556e697265703a206d6178696d756d206e756d626572206f6620617474657374604082015271195c881cda59db9d5c1cc81c995858da195960721b606082015260800190565b6020808252602d908201527f556e697265703a20696e76616c6964206e756d626572206f6620626c696e646560408201526c64206861736820636861696e7360981b606082015260800190565b60208082526022908201527f556e697265703a20696e76616c6964206174746573746174696f6e20706f7352604082015261065760f41b606082015260800190565b60208082526022908201527f45434453413a20696e76616c6964207369676e6174757265202776272076616c604082015261756560f01b606082015260800190565b60208082526026908201527f556e697265703a2074686520757365722068617320616c72656164792073696760408201526506e65642075760d41b606082015260800190565b6020808252602e908201527f556e697265703a206d6178696d756d206e756d626572206f662075736572207360408201526d1a59db9d5c1cc81c995858da195960921b606082015260800190565b6020808252601b908201527f556e697265703a20696e76616c69642070726f6f6620696e6465780000000000604082015260600190565b60208082526036908201527f556e697265703a207369676e2075702073686f756c64207468726f7567682061604082015275371030b236b4b71037b91030b71030ba3a32b9ba32b960511b606082015260800190565b60208082526022908201527f556e697265703a20696e76616c6964206174746573746174696f6e206e656752604082015261065760f41b606082015260800190565b6020808252601d908201527f556e697265703a206d69736d6174636865642061747465737465724964000000604082015260600190565b6020808252603c908201527f556e697265703a2065616368207075626c6963207369676e616c206d7573742060408201527f6265206c742074686520736e61726b207363616c6172206669656c6400000000606082015260800190565b60208082526028908201527f556e697265703a20696e76616c6964206e756d626572206f662065706b206e756040820152676c6c69666965727360c01b606082015260800190565b6020808252601f908201527f556e697265703a20696e76616c69642065706f6368206b65792072616e676500604082015260600190565b60208082526035908201527f556e697265703a20696e636f727265637420617474657374657220494420696e604082015274103a3432903932b83aba30ba34b7b710383937b7b360591b606082015260800190565b60006101608201905082518252602083015160208301526040830151604083015260608301516147486060840182613a7c565b5092915050565b6000602082528251610220602084015261476d610240840182613a9f565b9050602084015160408401526040840151606084015260608401516080840152608084015160a084015260a084015160c084015260c084015160e084015260e0840151610100818186015280860151915050610120818186015280860151915050612fd3610140850182613a7c565b60006101a082019050825182526020830151602083015260408301516040830152606083015160608301526080830151608083015260a083015161474860a0840182613a7c565b6000604082528351604083015260208401516101e0606084015261484b610220840182613a9f565b9050604085015160808401526060850151603f19808584030160a08601526148738383613a9f565b9250608087015160c086015260a08701519150808584030160e08601525061489b8282613a9f565b91505060c085015161010084015260e08501516148bc610120850182613a7c565b5082810360208401526148cf8185613a9f565b95945050505050565b8281526101208101610100836020840137600081529392505050565b918252602082015260400190565b83815260208101839052610140810161010083604084013760008152949350505050565b60ff91909116815260200190565b60ff93841681529183166020830152909116604082015260600190565b6040518181016001600160401b038111828210171561497257614972614a7d565b604052919050565b6000821982111561498d5761498d614a51565b500190565b600060ff821660ff84168060ff038211156149af576149af614a51565b019392505050565b60008160001904831182151516156149d1576149d1614a51565b500290565b600060ff821660ff84168160ff04811182151516156149f7576149f7614a51565b029392505050565b600082821015614a1157614a11614a51565b500390565b6000600019821415614a2a57614a2a614a51565b5060010190565b600060ff821660ff811415614a4857614a48614a51565b60010192915050565b634e487b7160e01b600052601160045260246000fd5b634e487b7160e01b600052602160045260246000fd5b634e487b7160e01b600052604160045260246000fdfea3019980c7e9844ee00c3f7584f329ac6dae8bcc2e08a756cf9651c8d2e96a6d30644e72e131a029b85045b68181585d2833e84879b9709143e1f593f0000001a26469706673582212209397cb09659f05e0e962090b14b1a959dd571735aa4d0779d2b213b4eab45d9764736f6c63430008000033",
  "linkReferences": {},
  "deployedLinkReferences": {}
}