{
  "_format": "hh-sol-artifact-1",
  "contractName": "Unirep",
  "sourceName": "@unirep/contracts/contracts/Unirep.sol",
  "abi": [
    {
      "inputs": [
        {
          "components": [
            {
              "internalType": "uint8",
              "name": "globalStateTreeDepth",
              "type": "uint8"
            },
            {
              "internalType": "uint8",
              "name": "userStateTreeDepth",
              "type": "uint8"
            },
            {
              "internalType": "uint8",
              "name": "epochTreeDepth",
              "type": "uint8"
            }
          ],
          "internalType": "struct UnirepObjs.TreeDepths",
          "name": "_treeDepths",
          "type": "tuple"
        },
        {
          "components": [
            {
              "internalType": "uint256",
              "name": "maxUsers",
              "type": "uint256"
            },
            {
              "internalType": "uint256",
              "name": "maxAttesters",
              "type": "uint256"
            }
          ],
          "internalType": "struct UnirepObjs.MaxValues",
          "name": "_maxValues",
          "type": "tuple"
        },
        {
          "internalType": "contract EpochKeyValidityVerifier",
          "name": "_epkValidityVerifier",
          "type": "address"
        },
        {
          "internalType": "contract StartTransitionVerifier",
          "name": "_startTransitionVerifier",
          "type": "address"
        },
        {
          "internalType": "contract ProcessAttestationsVerifier",
          "name": "_processAttestationsVerifier",
          "type": "address"
        },
        {
          "internalType": "contract UserStateTransitionVerifier",
          "name": "_userStateTransitionVerifier",
          "type": "address"
        },
        {
          "internalType": "contract ReputationVerifier",
          "name": "_reputationVerifier",
          "type": "address"
        },
        {
          "internalType": "contract UserSignUpVerifier",
          "name": "_userSignUpVerifier",
          "type": "address"
        },
        {
          "internalType": "uint8",
          "name": "_numEpochKeyNoncePerEpoch",
          "type": "uint8"
        },
        {
          "internalType": "uint8",
          "name": "_maxReputationBudget",
          "type": "uint8"
        },
        {
          "internalType": "uint256",
          "name": "_epochLength",
          "type": "uint256"
        },
        {
          "internalType": "uint256",
          "name": "_attestingFee",
          "type": "uint256"
        }
      ],
      "stateMutability": "nonpayable",
      "type": "constructor"
    },
    {
      "anonymous": false,
      "inputs": [
        {
          "indexed": true,
          "internalType": "uint256",
          "name": "_epoch",
          "type": "uint256"
        },
        {
          "indexed": true,
          "internalType": "uint256",
          "name": "_epochKey",
          "type": "uint256"
        },
        {
          "indexed": true,
          "internalType": "address",
          "name": "_attester",
          "type": "address"
        },
        {
          "indexed": false,
          "internalType": "enum Unirep.AttestationEvent",
          "name": "_event",
          "type": "uint8"
        },
        {
          "components": [
            {
              "internalType": "uint256",
              "name": "attesterId",
              "type": "uint256"
            },
            {
              "internalType": "uint256",
              "name": "posRep",
              "type": "uint256"
            },
            {
              "internalType": "uint256",
              "name": "negRep",
              "type": "uint256"
            },
            {
              "internalType": "uint256",
              "name": "graffiti",
              "type": "uint256"
            },
            {
              "internalType": "uint256",
              "name": "signUp",
              "type": "uint256"
            }
          ],
          "indexed": false,
          "internalType": "struct UnirepObjs.Attestation",
          "name": "_attestation",
          "type": "tuple"
        },
        {
          "indexed": false,
          "internalType": "uint256",
          "name": "_proofIndex",
          "type": "uint256"
        }
      ],
      "name": "AttestationSubmitted",
      "type": "event"
    },
    {
      "anonymous": false,
      "inputs": [
        {
          "indexed": true,
          "internalType": "uint256",
          "name": "_epoch",
          "type": "uint256"
        }
      ],
      "name": "EpochEnded",
      "type": "event"
    },
    {
      "anonymous": false,
      "inputs": [
        {
          "indexed": true,
          "internalType": "uint256",
          "name": "_proofIndex",
          "type": "uint256"
        },
        {
          "indexed": true,
          "internalType": "uint256",
          "name": "_epoch",
          "type": "uint256"
        },
        {
          "indexed": true,
          "internalType": "uint256",
          "name": "_epochKey",
          "type": "uint256"
        },
        {
          "components": [
            {
              "internalType": "uint256",
              "name": "globalStateTree",
              "type": "uint256"
            },
            {
              "internalType": "uint256",
              "name": "epoch",
              "type": "uint256"
            },
            {
              "internalType": "uint256",
              "name": "epochKey",
              "type": "uint256"
            },
            {
              "internalType": "uint256[8]",
              "name": "proof",
              "type": "uint256[8]"
            }
          ],
          "indexed": false,
          "internalType": "struct UnirepObjs.EpochKeyProof",
          "name": "_proof",
          "type": "tuple"
        }
      ],
      "name": "IndexedEpochKeyProof",
      "type": "event"
    },
    {
      "anonymous": false,
      "inputs": [
        {
          "indexed": true,
          "internalType": "uint256",
          "name": "_proofIndex",
          "type": "uint256"
        },
        {
          "indexed": true,
          "internalType": "uint256",
          "name": "_inputBlindedUserState",
          "type": "uint256"
        },
        {
          "indexed": false,
          "internalType": "uint256",
          "name": "_outputBlindedUserState",
          "type": "uint256"
        },
        {
          "indexed": false,
          "internalType": "uint256",
          "name": "_outputBlindedHashChain",
          "type": "uint256"
        },
        {
          "indexed": false,
          "internalType": "uint256[8]",
          "name": "_proof",
          "type": "uint256[8]"
        }
      ],
      "name": "IndexedProcessedAttestationsProof",
      "type": "event"
    },
    {
      "anonymous": false,
      "inputs": [
        {
          "indexed": true,
          "internalType": "uint256",
          "name": "_proofIndex",
          "type": "uint256"
        },
        {
          "indexed": true,
          "internalType": "uint256",
          "name": "_epoch",
          "type": "uint256"
        },
        {
          "indexed": true,
          "internalType": "uint256",
          "name": "_epochKey",
          "type": "uint256"
        },
        {
          "components": [
            {
              "internalType": "uint256[]",
              "name": "repNullifiers",
              "type": "uint256[]"
            },
            {
              "internalType": "uint256",
              "name": "epoch",
              "type": "uint256"
            },
            {
              "internalType": "uint256",
              "name": "epochKey",
              "type": "uint256"
            },
            {
              "internalType": "uint256",
              "name": "globalStateTree",
              "type": "uint256"
            },
            {
              "internalType": "uint256",
              "name": "attesterId",
              "type": "uint256"
            },
            {
              "internalType": "uint256",
              "name": "proveReputationAmount",
              "type": "uint256"
            },
            {
              "internalType": "uint256",
              "name": "minRep",
              "type": "uint256"
            },
            {
              "internalType": "uint256",
              "name": "proveGraffiti",
              "type": "uint256"
            },
            {
              "internalType": "uint256",
              "name": "graffitiPreImage",
              "type": "uint256"
            },
            {
              "internalType": "uint256[8]",
              "name": "proof",
              "type": "uint256[8]"
            }
          ],
          "indexed": false,
          "internalType": "struct UnirepObjs.ReputationProof",
          "name": "_proof",
          "type": "tuple"
        }
      ],
      "name": "IndexedReputationProof",
      "type": "event"
    },
    {
      "anonymous": false,
      "inputs": [
        {
          "indexed": true,
          "internalType": "uint256",
          "name": "_proofIndex",
          "type": "uint256"
        },
        {
          "indexed": true,
          "internalType": "uint256",
          "name": "_blindedUserState",
          "type": "uint256"
        },
        {
          "indexed": true,
          "internalType": "uint256",
          "name": "_globalStateTree",
          "type": "uint256"
        },
        {
          "indexed": false,
          "internalType": "uint256",
          "name": "_blindedHashChain",
          "type": "uint256"
        },
        {
          "indexed": false,
          "internalType": "uint256[8]",
          "name": "_proof",
          "type": "uint256[8]"
        }
      ],
      "name": "IndexedStartedTransitionProof",
      "type": "event"
    },
    {
      "anonymous": false,
      "inputs": [
        {
          "indexed": true,
          "internalType": "uint256",
          "name": "_proofIndex",
          "type": "uint256"
        },
        {
          "indexed": true,
          "internalType": "uint256",
          "name": "_epoch",
          "type": "uint256"
        },
        {
          "indexed": true,
          "internalType": "uint256",
          "name": "_epochKey",
          "type": "uint256"
        },
        {
          "components": [
            {
              "internalType": "uint256",
              "name": "epoch",
              "type": "uint256"
            },
            {
              "internalType": "uint256",
              "name": "epochKey",
              "type": "uint256"
            },
            {
              "internalType": "uint256",
              "name": "globalStateTree",
              "type": "uint256"
            },
            {
              "internalType": "uint256",
              "name": "attesterId",
              "type": "uint256"
            },
            {
              "internalType": "uint256",
              "name": "userHasSignedUp",
              "type": "uint256"
            },
            {
              "internalType": "uint256[8]",
              "name": "proof",
              "type": "uint256[8]"
            }
          ],
          "indexed": false,
          "internalType": "struct UnirepObjs.SignUpProof",
          "name": "_proof",
          "type": "tuple"
        }
      ],
      "name": "IndexedUserSignedUpProof",
      "type": "event"
    },
    {
      "anonymous": false,
      "inputs": [
        {
          "indexed": true,
          "internalType": "uint256",
          "name": "_proofIndex",
          "type": "uint256"
        },
        {
          "components": [
            {
              "internalType": "uint256",
              "name": "newGlobalStateTreeLeaf",
              "type": "uint256"
            },
            {
              "internalType": "uint256[]",
              "name": "epkNullifiers",
              "type": "uint256[]"
            },
            {
              "internalType": "uint256",
              "name": "transitionFromEpoch",
              "type": "uint256"
            },
            {
              "internalType": "uint256[]",
              "name": "blindedUserStates",
              "type": "uint256[]"
            },
            {
              "internalType": "uint256",
              "name": "fromGlobalStateTree",
              "type": "uint256"
            },
            {
              "internalType": "uint256[]",
              "name": "blindedHashChains",
              "type": "uint256[]"
            },
            {
              "internalType": "uint256",
              "name": "fromEpochTree",
              "type": "uint256"
            },
            {
              "internalType": "uint256[8]",
              "name": "proof",
              "type": "uint256[8]"
            }
          ],
          "indexed": false,
          "internalType": "struct UnirepObjs.UserTransitionProof",
          "name": "_proof",
          "type": "tuple"
        },
        {
          "indexed": false,
          "internalType": "uint256[]",
          "name": "_proofIndexRecords",
          "type": "uint256[]"
        }
      ],
      "name": "IndexedUserStateTransitionProof",
      "type": "event"
    },
    {
      "anonymous": false,
      "inputs": [
        {
          "indexed": true,
          "internalType": "uint256",
          "name": "_epoch",
          "type": "uint256"
        },
        {
          "indexed": false,
          "internalType": "enum Unirep.Event",
          "name": "_event",
          "type": "uint8"
        }
      ],
      "name": "Sequencer",
      "type": "event"
    },
    {
      "anonymous": false,
      "inputs": [
        {
          "indexed": true,
          "internalType": "uint256",
          "name": "_epoch",
          "type": "uint256"
        },
        {
          "indexed": true,
          "internalType": "uint256",
          "name": "_identityCommitment",
          "type": "uint256"
        },
        {
          "indexed": false,
          "internalType": "uint256",
          "name": "_attesterId",
          "type": "uint256"
        },
        {
          "indexed": false,
          "internalType": "uint256",
          "name": "_airdropAmount",
          "type": "uint256"
        }
      ],
      "name": "UserSignedUp",
      "type": "event"
    },
    {
      "anonymous": false,
      "inputs": [
        {
          "indexed": true,
          "internalType": "uint256",
          "name": "_epoch",
          "type": "uint256"
        },
        {
          "indexed": true,
          "internalType": "uint256",
          "name": "_hashedLeaf",
          "type": "uint256"
        },
        {
          "indexed": false,
          "internalType": "uint256",
          "name": "_proofIndex",
          "type": "uint256"
        }
      ],
      "name": "UserStateTransitioned",
      "type": "event"
    },
    {
      "inputs": [
        {
          "internalType": "address",
          "name": "",
          "type": "address"
        }
      ],
      "name": "airdropAmount",
      "outputs": [
        {
          "internalType": "uint256",
          "name": "",
          "type": "uint256"
        }
      ],
      "stateMutability": "view",
      "type": "function"
    },
    {
      "inputs": [
        {
          "components": [
            {
              "internalType": "uint256",
              "name": "epoch",
              "type": "uint256"
            },
            {
              "internalType": "uint256",
              "name": "epochKey",
              "type": "uint256"
            },
            {
              "internalType": "uint256",
              "name": "globalStateTree",
              "type": "uint256"
            },
            {
              "internalType": "uint256",
              "name": "attesterId",
              "type": "uint256"
            },
            {
              "internalType": "uint256",
              "name": "userHasSignedUp",
              "type": "uint256"
            },
            {
              "internalType": "uint256[8]",
              "name": "proof",
              "type": "uint256[8]"
            }
          ],
          "internalType": "struct UnirepObjs.SignUpProof",
          "name": "_input",
          "type": "tuple"
        }
      ],
      "name": "airdropEpochKey",
      "outputs": [],
      "stateMutability": "payable",
      "type": "function"
    },
    {
      "inputs": [],
      "name": "attesterSignUp",
      "outputs": [],
      "stateMutability": "nonpayable",
      "type": "function"
    },
    {
      "inputs": [
        {
          "internalType": "address",
          "name": "attester",
          "type": "address"
        },
        {
          "internalType": "bytes",
          "name": "signature",
          "type": "bytes"
        }
      ],
      "name": "attesterSignUpViaRelayer",
      "outputs": [],
      "stateMutability": "nonpayable",
      "type": "function"
    },
    {
      "inputs": [
        {
          "internalType": "address",
          "name": "",
          "type": "address"
        }
      ],
      "name": "attesters",
      "outputs": [
        {
          "internalType": "uint256",
          "name": "",
          "type": "uint256"
        }
      ],
      "stateMutability": "view",
      "type": "function"
    },
    {
      "inputs": [],
      "name": "attestingFee",
      "outputs": [
        {
          "internalType": "uint256",
          "name": "",
          "type": "uint256"
        }
      ],
      "stateMutability": "view",
      "type": "function"
    },
    {
      "inputs": [],
      "name": "beginEpochTransition",
      "outputs": [],
      "stateMutability": "nonpayable",
      "type": "function"
    },
    {
      "inputs": [],
      "name": "burnAttestingFee",
      "outputs": [],
      "stateMutability": "nonpayable",
      "type": "function"
    },
    {
      "inputs": [],
      "name": "collectEpochTransitionCompensation",
      "outputs": [],
      "stateMutability": "nonpayable",
      "type": "function"
    },
    {
      "inputs": [],
      "name": "collectedAttestingFee",
      "outputs": [
        {
          "internalType": "uint256",
          "name": "",
          "type": "uint256"
        }
      ],
      "stateMutability": "view",
      "type": "function"
    },
    {
      "inputs": [],
      "name": "currentEpoch",
      "outputs": [
        {
          "internalType": "uint256",
          "name": "",
          "type": "uint256"
        }
      ],
      "stateMutability": "view",
      "type": "function"
    },
    {
      "inputs": [],
      "name": "epochLength",
      "outputs": [
        {
          "internalType": "uint256",
          "name": "",
          "type": "uint256"
        }
      ],
      "stateMutability": "view",
      "type": "function"
    },
    {
      "inputs": [
        {
          "internalType": "address",
          "name": "",
          "type": "address"
        }
      ],
      "name": "epochTransitionCompensation",
      "outputs": [
        {
          "internalType": "uint256",
          "name": "",
          "type": "uint256"
        }
      ],
      "stateMutability": "view",
      "type": "function"
    },
    {
      "inputs": [
        {
          "internalType": "bytes32",
          "name": "",
          "type": "bytes32"
        }
      ],
      "name": "getProofIndex",
      "outputs": [
        {
          "internalType": "uint256",
          "name": "",
          "type": "uint256"
        }
      ],
      "stateMutability": "view",
      "type": "function"
    },
    {
      "inputs": [
        {
          "internalType": "uint256",
          "name": "",
          "type": "uint256"
        }
      ],
      "name": "hasUserSignedUp",
      "outputs": [
        {
          "internalType": "bool",
          "name": "",
          "type": "bool"
        }
      ],
      "stateMutability": "view",
      "type": "function"
    },
    {
      "inputs": [
        {
          "components": [
            {
              "internalType": "uint256",
              "name": "globalStateTree",
              "type": "uint256"
            },
            {
              "internalType": "uint256",
              "name": "epoch",
              "type": "uint256"
            },
            {
              "internalType": "uint256",
              "name": "epochKey",
              "type": "uint256"
            },
            {
              "internalType": "uint256[8]",
              "name": "proof",
              "type": "uint256[8]"
            }
          ],
          "internalType": "struct UnirepObjs.EpochKeyProof",
          "name": "_input",
          "type": "tuple"
        }
      ],
      "name": "hashEpochKeyProof",
      "outputs": [
        {
          "internalType": "bytes32",
          "name": "",
          "type": "bytes32"
        }
      ],
      "stateMutability": "pure",
      "type": "function"
    },
    {
      "inputs": [
        {
          "internalType": "uint256",
          "name": "_outputBlindedUserState",
          "type": "uint256"
        },
        {
          "internalType": "uint256",
          "name": "_outputBlindedHashChain",
          "type": "uint256"
        },
        {
          "internalType": "uint256",
          "name": "_inputBlindedUserState",
          "type": "uint256"
        },
        {
          "internalType": "uint256[8]",
          "name": "_proof",
          "type": "uint256[8]"
        }
      ],
      "name": "hashProcessAttestationsProof",
      "outputs": [
        {
          "internalType": "bytes32",
          "name": "",
          "type": "bytes32"
        }
      ],
      "stateMutability": "pure",
      "type": "function"
    },
    {
      "inputs": [
        {
          "components": [
            {
              "internalType": "uint256[]",
              "name": "repNullifiers",
              "type": "uint256[]"
            },
            {
              "internalType": "uint256",
              "name": "epoch",
              "type": "uint256"
            },
            {
              "internalType": "uint256",
              "name": "epochKey",
              "type": "uint256"
            },
            {
              "internalType": "uint256",
              "name": "globalStateTree",
              "type": "uint256"
            },
            {
              "internalType": "uint256",
              "name": "attesterId",
              "type": "uint256"
            },
            {
              "internalType": "uint256",
              "name": "proveReputationAmount",
              "type": "uint256"
            },
            {
              "internalType": "uint256",
              "name": "minRep",
              "type": "uint256"
            },
            {
              "internalType": "uint256",
              "name": "proveGraffiti",
              "type": "uint256"
            },
            {
              "internalType": "uint256",
              "name": "graffitiPreImage",
              "type": "uint256"
            },
            {
              "internalType": "uint256[8]",
              "name": "proof",
              "type": "uint256[8]"
            }
          ],
          "internalType": "struct UnirepObjs.ReputationProof",
          "name": "_input",
          "type": "tuple"
        }
      ],
      "name": "hashReputationProof",
      "outputs": [
        {
          "internalType": "bytes32",
          "name": "",
          "type": "bytes32"
        }
      ],
      "stateMutability": "pure",
      "type": "function"
    },
    {
      "inputs": [
        {
          "components": [
            {
              "internalType": "uint256",
              "name": "epoch",
              "type": "uint256"
            },
            {
              "internalType": "uint256",
              "name": "epochKey",
              "type": "uint256"
            },
            {
              "internalType": "uint256",
              "name": "globalStateTree",
              "type": "uint256"
            },
            {
              "internalType": "uint256",
              "name": "attesterId",
              "type": "uint256"
            },
            {
              "internalType": "uint256",
              "name": "userHasSignedUp",
              "type": "uint256"
            },
            {
              "internalType": "uint256[8]",
              "name": "proof",
              "type": "uint256[8]"
            }
          ],
          "internalType": "struct UnirepObjs.SignUpProof",
          "name": "_input",
          "type": "tuple"
        }
      ],
      "name": "hashSignUpProof",
      "outputs": [
        {
          "internalType": "bytes32",
          "name": "",
          "type": "bytes32"
        }
      ],
      "stateMutability": "pure",
      "type": "function"
    },
    {
      "inputs": [
        {
          "internalType": "uint256",
          "name": "_blindedUserState",
          "type": "uint256"
        },
        {
          "internalType": "uint256",
          "name": "_blindedHashChain",
          "type": "uint256"
        },
        {
          "internalType": "uint256",
          "name": "_globalStateTree",
          "type": "uint256"
        },
        {
          "internalType": "uint256[8]",
          "name": "_proof",
          "type": "uint256[8]"
        }
      ],
      "name": "hashStartTransitionProof",
      "outputs": [
        {
          "internalType": "bytes32",
          "name": "",
          "type": "bytes32"
        }
      ],
      "stateMutability": "pure",
      "type": "function"
    },
    {
      "inputs": [
        {
          "components": [
            {
              "internalType": "uint256",
              "name": "newGlobalStateTreeLeaf",
              "type": "uint256"
            },
            {
              "internalType": "uint256[]",
              "name": "epkNullifiers",
              "type": "uint256[]"
            },
            {
              "internalType": "uint256",
              "name": "transitionFromEpoch",
              "type": "uint256"
            },
            {
              "internalType": "uint256[]",
              "name": "blindedUserStates",
              "type": "uint256[]"
            },
            {
              "internalType": "uint256",
              "name": "fromGlobalStateTree",
              "type": "uint256"
            },
            {
              "internalType": "uint256[]",
              "name": "blindedHashChains",
              "type": "uint256[]"
            },
            {
              "internalType": "uint256",
              "name": "fromEpochTree",
              "type": "uint256"
            },
            {
              "internalType": "uint256[8]",
              "name": "proof",
              "type": "uint256[8]"
            }
          ],
          "internalType": "struct UnirepObjs.UserTransitionProof",
          "name": "_input",
          "type": "tuple"
        }
      ],
      "name": "hashUserStateTransitionProof",
      "outputs": [
        {
          "internalType": "bytes32",
          "name": "",
          "type": "bytes32"
        }
      ],
      "stateMutability": "pure",
      "type": "function"
    },
    {
      "inputs": [],
      "name": "latestEpochTransitionTime",
      "outputs": [
        {
          "internalType": "uint256",
          "name": "",
          "type": "uint256"
        }
      ],
      "stateMutability": "view",
      "type": "function"
    },
    {
      "inputs": [],
      "name": "maxAttesters",
      "outputs": [
        {
          "internalType": "uint256",
          "name": "",
          "type": "uint256"
        }
      ],
      "stateMutability": "view",
      "type": "function"
    },
    {
      "inputs": [],
      "name": "maxReputationBudget",
      "outputs": [
        {
          "internalType": "uint8",
          "name": "",
          "type": "uint8"
        }
      ],
      "stateMutability": "view",
      "type": "function"
    },
    {
      "inputs": [],
      "name": "maxUsers",
      "outputs": [
        {
          "internalType": "uint256",
          "name": "",
          "type": "uint256"
        }
      ],
      "stateMutability": "view",
      "type": "function"
    },
    {
      "inputs": [],
      "name": "nextAttesterId",
      "outputs": [
        {
          "internalType": "uint256",
          "name": "",
          "type": "uint256"
        }
      ],
      "stateMutability": "view",
      "type": "function"
    },
    {
      "inputs": [],
      "name": "numEpochKeyNoncePerEpoch",
      "outputs": [
        {
          "internalType": "uint8",
          "name": "",
          "type": "uint8"
        }
      ],
      "stateMutability": "view",
      "type": "function"
    },
    {
      "inputs": [],
      "name": "numUserSignUps",
      "outputs": [
        {
          "internalType": "uint256",
          "name": "",
          "type": "uint256"
        }
      ],
      "stateMutability": "view",
      "type": "function"
    },
    {
      "inputs": [
        {
          "internalType": "uint256",
          "name": "_outputBlindedUserState",
          "type": "uint256"
        },
        {
          "internalType": "uint256",
          "name": "_outputBlindedHashChain",
          "type": "uint256"
        },
        {
          "internalType": "uint256",
          "name": "_inputBlindedUserState",
          "type": "uint256"
        },
        {
          "internalType": "uint256[8]",
          "name": "_proof",
          "type": "uint256[8]"
        }
      ],
      "name": "processAttestations",
      "outputs": [],
      "stateMutability": "nonpayable",
      "type": "function"
    },
    {
      "inputs": [
        {
          "internalType": "uint256",
          "name": "_airdropAmount",
          "type": "uint256"
        }
      ],
      "name": "setAirdropAmount",
      "outputs": [],
      "stateMutability": "nonpayable",
      "type": "function"
    },
    {
      "inputs": [
        {
          "components": [
            {
              "internalType": "uint256[]",
              "name": "repNullifiers",
              "type": "uint256[]"
            },
            {
              "internalType": "uint256",
              "name": "epoch",
              "type": "uint256"
            },
            {
              "internalType": "uint256",
              "name": "epochKey",
              "type": "uint256"
            },
            {
              "internalType": "uint256",
              "name": "globalStateTree",
              "type": "uint256"
            },
            {
              "internalType": "uint256",
              "name": "attesterId",
              "type": "uint256"
            },
            {
              "internalType": "uint256",
              "name": "proveReputationAmount",
              "type": "uint256"
            },
            {
              "internalType": "uint256",
              "name": "minRep",
              "type": "uint256"
            },
            {
              "internalType": "uint256",
              "name": "proveGraffiti",
              "type": "uint256"
            },
            {
              "internalType": "uint256",
              "name": "graffitiPreImage",
              "type": "uint256"
            },
            {
              "internalType": "uint256[8]",
              "name": "proof",
              "type": "uint256[8]"
            }
          ],
          "internalType": "struct UnirepObjs.ReputationProof",
          "name": "_input",
          "type": "tuple"
        }
      ],
      "name": "spendReputation",
      "outputs": [],
      "stateMutability": "payable",
      "type": "function"
    },
    {
      "inputs": [
        {
          "internalType": "uint256",
          "name": "_blindedUserState",
          "type": "uint256"
        },
        {
          "internalType": "uint256",
          "name": "_blindedHashChain",
          "type": "uint256"
        },
        {
          "internalType": "uint256",
          "name": "_globalStateTree",
          "type": "uint256"
        },
        {
          "internalType": "uint256[8]",
          "name": "_proof",
          "type": "uint256[8]"
        }
      ],
      "name": "startUserStateTransition",
      "outputs": [],
      "stateMutability": "nonpayable",
      "type": "function"
    },
    {
      "inputs": [
        {
          "components": [
            {
              "internalType": "uint256",
              "name": "attesterId",
              "type": "uint256"
            },
            {
              "internalType": "uint256",
              "name": "posRep",
              "type": "uint256"
            },
            {
              "internalType": "uint256",
              "name": "negRep",
              "type": "uint256"
            },
            {
              "internalType": "uint256",
              "name": "graffiti",
              "type": "uint256"
            },
            {
              "internalType": "uint256",
              "name": "signUp",
              "type": "uint256"
            }
          ],
          "internalType": "struct UnirepObjs.Attestation",
          "name": "attestation",
          "type": "tuple"
        },
        {
          "internalType": "uint256",
          "name": "epochKey",
          "type": "uint256"
        },
        {
          "internalType": "uint256",
          "name": "_proofIndex",
          "type": "uint256"
        }
      ],
      "name": "submitAttestation",
      "outputs": [],
      "stateMutability": "payable",
      "type": "function"
    },
    {
      "inputs": [
        {
          "internalType": "address",
          "name": "attester",
          "type": "address"
        },
        {
          "internalType": "bytes",
          "name": "signature",
          "type": "bytes"
        },
        {
          "components": [
            {
              "internalType": "uint256",
              "name": "attesterId",
              "type": "uint256"
            },
            {
              "internalType": "uint256",
              "name": "posRep",
              "type": "uint256"
            },
            {
              "internalType": "uint256",
              "name": "negRep",
              "type": "uint256"
            },
            {
              "internalType": "uint256",
              "name": "graffiti",
              "type": "uint256"
            },
            {
              "internalType": "uint256",
              "name": "signUp",
              "type": "uint256"
            }
          ],
          "internalType": "struct UnirepObjs.Attestation",
          "name": "attestation",
          "type": "tuple"
        },
        {
          "internalType": "uint256",
          "name": "epochKey",
          "type": "uint256"
        },
        {
          "internalType": "uint256",
          "name": "_proofIndex",
          "type": "uint256"
        }
      ],
      "name": "submitAttestationViaRelayer",
      "outputs": [],
      "stateMutability": "payable",
      "type": "function"
    },
    {
      "inputs": [
        {
          "components": [
            {
              "internalType": "uint256",
              "name": "globalStateTree",
              "type": "uint256"
            },
            {
              "internalType": "uint256",
              "name": "epoch",
              "type": "uint256"
            },
            {
              "internalType": "uint256",
              "name": "epochKey",
              "type": "uint256"
            },
            {
              "internalType": "uint256[8]",
              "name": "proof",
              "type": "uint256[8]"
            }
          ],
          "internalType": "struct UnirepObjs.EpochKeyProof",
          "name": "_input",
          "type": "tuple"
        }
      ],
      "name": "submitEpochKeyProof",
      "outputs": [],
      "stateMutability": "nonpayable",
      "type": "function"
    },
    {
      "inputs": [],
      "name": "treeDepths",
      "outputs": [
        {
          "internalType": "uint8",
          "name": "globalStateTreeDepth",
          "type": "uint8"
        },
        {
          "internalType": "uint8",
          "name": "userStateTreeDepth",
          "type": "uint8"
        },
        {
          "internalType": "uint8",
          "name": "epochTreeDepth",
          "type": "uint8"
        }
      ],
      "stateMutability": "view",
      "type": "function"
    },
    {
      "inputs": [
        {
          "internalType": "uint256[8]",
          "name": "_proof",
          "type": "uint256[8]"
        }
      ],
      "name": "unpackProof",
      "outputs": [
        {
          "internalType": "uint256[2]",
          "name": "",
          "type": "uint256[2]"
        },
        {
          "internalType": "uint256[2][2]",
          "name": "",
          "type": "uint256[2][2]"
        },
        {
          "internalType": "uint256[2]",
          "name": "",
          "type": "uint256[2]"
        }
      ],
      "stateMutability": "pure",
      "type": "function"
    },
    {
      "inputs": [
        {
          "components": [
            {
              "internalType": "uint256",
              "name": "newGlobalStateTreeLeaf",
              "type": "uint256"
            },
            {
              "internalType": "uint256[]",
              "name": "epkNullifiers",
              "type": "uint256[]"
            },
            {
              "internalType": "uint256",
              "name": "transitionFromEpoch",
              "type": "uint256"
            },
            {
              "internalType": "uint256[]",
              "name": "blindedUserStates",
              "type": "uint256[]"
            },
            {
              "internalType": "uint256",
              "name": "fromGlobalStateTree",
              "type": "uint256"
            },
            {
              "internalType": "uint256[]",
              "name": "blindedHashChains",
              "type": "uint256[]"
            },
            {
              "internalType": "uint256",
              "name": "fromEpochTree",
              "type": "uint256"
            },
            {
              "internalType": "uint256[8]",
              "name": "proof",
              "type": "uint256[8]"
            }
          ],
          "internalType": "struct UnirepObjs.UserTransitionProof",
          "name": "_proof",
          "type": "tuple"
        },
        {
          "internalType": "uint256[]",
          "name": "proofIndexRecords",
          "type": "uint256[]"
        }
      ],
      "name": "updateUserStateRoot",
      "outputs": [],
      "stateMutability": "nonpayable",
      "type": "function"
    },
    {
      "inputs": [
        {
          "internalType": "uint256",
          "name": "_identityCommitment",
          "type": "uint256"
        }
      ],
      "name": "userSignUp",
      "outputs": [],
      "stateMutability": "nonpayable",
      "type": "function"
    },
    {
      "inputs": [
        {
          "components": [
            {
              "internalType": "uint256",
              "name": "globalStateTree",
              "type": "uint256"
            },
            {
              "internalType": "uint256",
              "name": "epoch",
              "type": "uint256"
            },
            {
              "internalType": "uint256",
              "name": "epochKey",
              "type": "uint256"
            },
            {
              "internalType": "uint256[8]",
              "name": "proof",
              "type": "uint256[8]"
            }
          ],
          "internalType": "struct UnirepObjs.EpochKeyProof",
          "name": "_input",
          "type": "tuple"
        }
      ],
      "name": "verifyEpochKeyValidity",
      "outputs": [
        {
          "internalType": "bool",
          "name": "",
          "type": "bool"
        }
      ],
      "stateMutability": "view",
      "type": "function"
    },
    {
      "inputs": [
        {
          "internalType": "uint256",
          "name": "_outputBlindedUserState",
          "type": "uint256"
        },
        {
          "internalType": "uint256",
          "name": "_outputBlindedHashChain",
          "type": "uint256"
        },
        {
          "internalType": "uint256",
          "name": "_inputBlindedUserState",
          "type": "uint256"
        },
        {
          "internalType": "uint256[8]",
          "name": "_proof",
          "type": "uint256[8]"
        }
      ],
      "name": "verifyProcessAttestationProof",
      "outputs": [
        {
          "internalType": "bool",
          "name": "",
          "type": "bool"
        }
      ],
      "stateMutability": "view",
      "type": "function"
    },
    {
      "inputs": [
        {
          "components": [
            {
              "internalType": "uint256[]",
              "name": "repNullifiers",
              "type": "uint256[]"
            },
            {
              "internalType": "uint256",
              "name": "epoch",
              "type": "uint256"
            },
            {
              "internalType": "uint256",
              "name": "epochKey",
              "type": "uint256"
            },
            {
              "internalType": "uint256",
              "name": "globalStateTree",
              "type": "uint256"
            },
            {
              "internalType": "uint256",
              "name": "attesterId",
              "type": "uint256"
            },
            {
              "internalType": "uint256",
              "name": "proveReputationAmount",
              "type": "uint256"
            },
            {
              "internalType": "uint256",
              "name": "minRep",
              "type": "uint256"
            },
            {
              "internalType": "uint256",
              "name": "proveGraffiti",
              "type": "uint256"
            },
            {
              "internalType": "uint256",
              "name": "graffitiPreImage",
              "type": "uint256"
            },
            {
              "internalType": "uint256[8]",
              "name": "proof",
              "type": "uint256[8]"
            }
          ],
          "internalType": "struct UnirepObjs.ReputationProof",
          "name": "_input",
          "type": "tuple"
        }
      ],
      "name": "verifyReputation",
      "outputs": [
        {
          "internalType": "bool",
          "name": "",
          "type": "bool"
        }
      ],
      "stateMutability": "view",
      "type": "function"
    },
    {
      "inputs": [
        {
          "internalType": "uint256",
          "name": "_blindedUserState",
          "type": "uint256"
        },
        {
          "internalType": "uint256",
          "name": "_blindedHashChain",
          "type": "uint256"
        },
        {
          "internalType": "uint256",
          "name": "_GSTRoot",
          "type": "uint256"
        },
        {
          "internalType": "uint256[8]",
          "name": "_proof",
          "type": "uint256[8]"
        }
      ],
      "name": "verifyStartTransitionProof",
      "outputs": [
        {
          "internalType": "bool",
          "name": "",
          "type": "bool"
        }
      ],
      "stateMutability": "view",
      "type": "function"
    },
    {
      "inputs": [
        {
          "components": [
            {
              "internalType": "uint256",
              "name": "epoch",
              "type": "uint256"
            },
            {
              "internalType": "uint256",
              "name": "epochKey",
              "type": "uint256"
            },
            {
              "internalType": "uint256",
              "name": "globalStateTree",
              "type": "uint256"
            },
            {
              "internalType": "uint256",
              "name": "attesterId",
              "type": "uint256"
            },
            {
              "internalType": "uint256",
              "name": "userHasSignedUp",
              "type": "uint256"
            },
            {
              "internalType": "uint256[8]",
              "name": "proof",
              "type": "uint256[8]"
            }
          ],
          "internalType": "struct UnirepObjs.SignUpProof",
          "name": "_input",
          "type": "tuple"
        }
      ],
      "name": "verifyUserSignUp",
      "outputs": [
        {
          "internalType": "bool",
          "name": "",
          "type": "bool"
        }
      ],
      "stateMutability": "view",
      "type": "function"
    },
    {
      "inputs": [
        {
          "components": [
            {
              "internalType": "uint256",
              "name": "newGlobalStateTreeLeaf",
              "type": "uint256"
            },
            {
              "internalType": "uint256[]",
              "name": "epkNullifiers",
              "type": "uint256[]"
            },
            {
              "internalType": "uint256",
              "name": "transitionFromEpoch",
              "type": "uint256"
            },
            {
              "internalType": "uint256[]",
              "name": "blindedUserStates",
              "type": "uint256[]"
            },
            {
              "internalType": "uint256",
              "name": "fromGlobalStateTree",
              "type": "uint256"
            },
            {
              "internalType": "uint256[]",
              "name": "blindedHashChains",
              "type": "uint256[]"
            },
            {
              "internalType": "uint256",
              "name": "fromEpochTree",
              "type": "uint256"
            },
            {
              "internalType": "uint256[8]",
              "name": "proof",
              "type": "uint256[8]"
            }
          ],
          "internalType": "struct UnirepObjs.UserTransitionProof",
          "name": "_input",
          "type": "tuple"
        }
      ],
      "name": "verifyUserStateTransition",
      "outputs": [
        {
          "internalType": "bool",
          "name": "",
          "type": "bool"
        }
      ],
      "stateMutability": "view",
      "type": "function"
    }
  ],
  "bytecode": "0x6101406040527f30644e72e131a029b85045b68181585d2833e84879b9709143e1f593f000000162000033610160620004a2565b6040516020818303038152906040528051906020012060001c620000589190620006c4565b600055600160075560006009556001600a5560016011553480156200007c57600080fd5b506040516200510d3803806200510d8339810160408190526200009f9162000378565b8b601360008201518160000160006101000a81548160ff021916908360ff16021790555060208201518160000160016101000a81548160ff021916908360ff16021790555060408201518160000160026101000a81548160ff021916908360ff16021790555090505089600160006101000a8154816001600160a01b0302191690836001600160a01b0316021790555088600260006101000a8154816001600160a01b0302191690836001600160a01b0316021790555087600360006101000a8154816001600160a01b0302191690836001600160a01b0316021790555086600460006101000a8154816001600160a01b0302191690836001600160a01b0316021790555085600560006101000a8154816001600160a01b0302191690836001600160a01b0316021790555084600660006101000a8154816001600160a01b0302191690836001600160a01b031602179055508360ff1660a08160ff1660f81b815250508260ff1660c08160ff1660f81b8152505081608081815250504260088190555033600b60006101000a8154816001600160a01b0302191690836001600160a01b03160217905550600060018d600001516002620002619190620005b2565b6200026d9190620006aa565b9050808c6000015111156200029f5760405162461bcd60e51b81526004016200029690620004b4565b60405180910390fd5b8b5160e05260208d0151600090600190620002bc906002620005b2565b620002c89190620006aa565b9050808d602001511115620002f15760405162461bcd60e51b81526004016200029690620004eb565b50506020909a0151610100525050506101209690965250620006fb95505050505050565b80516001600160a01b03811681146200032d57600080fd5b919050565b60006040828403121562000344578081fd5b6200035060406200052d565b9050815181526020820151602082015292915050565b805160ff811681146200032d57600080fd5b6000806000806000806000806000806000808c8e036101e08112156200039c578889fd5b6060811215620003aa578889fd5b50620003b760606200052d565b620003c28e62000366565b8152620003d260208f0162000366565b6020820152620003e560408f0162000366565b60408201529b50620003fb8e60608f0162000332565b9a506200040b60a08e0162000315565b99506200041b60c08e0162000315565b98506200042b60e08e0162000315565b97506200043c6101008e0162000315565b96506200044d6101208e0162000315565b95506200045e6101408e0162000315565b94506200046f6101608e0162000366565b9350620004806101808e0162000366565b92506101a08d015191506101c08d015190509295989b509295989b509295989b565b650556e697265760d41b815260060190565b6020808252601e908201527f556e697265703a20696e76616c6964206d617855736572732076616c75650000604082015260600190565b60208082526022908201527f556e697265703a20696e76616c6964206d61784174746573746572732076616c604082015261756560f01b606082015260800190565b6040518181016001600160401b03811182821017156200055d57634e487b7160e01b600052604160045260246000fd5b604052919050565b80825b6001808611620005795750620005a9565b8187048211156200058e576200058e620006e5565b808616156200059c57918102915b9490941c93800262000568565b94509492505050565b6000620005c660001960ff851684620005cd565b9392505050565b600082620005de57506001620005c6565b81620005ed57506000620005c6565b8160018114620006065760028114620006115762000645565b6001915050620005c6565b60ff841115620006255762000625620006e5565b6001841b9150848211156200063e576200063e620006e5565b50620005c6565b5060208310610133831016604e8410600b84101617156200067d575081810a83811115620006775762000677620006e5565b620005c6565b6200068c848484600162000565565b808604821115620006a157620006a1620006e5565b02949350505050565b600082821015620006bf57620006bf620006e5565b500390565b600082620006e057634e487b7160e01b81526012600452602481fd5b500690565b634e487b7160e01b600052601160045260246000fd5b60805160a05160f81c60c05160f81c60e05161010051610120516148f16200081c6000396000818161083a015281816114b301528181611b8b01528181611c0a01526127990152600081816111810152818161225a0152612b6f015260008181610bf40152612a030152600081816114f701528181611734015281816117d60152818161182c01528181611889015281816118e601528181611943015281816119a0015281816119fd01528181611a5b0152612897015260008181610f3801528181610fa401528181611cd401528181611d9001528181611e4301528181611ec601528181611f4e01528181611fb00152818161200801528181612067015281816120e6015261257f0152600081816111eb015261290201526148f16000f3fe6080604052600436106102715760003560e01c806398588c1f1161014f578063b876ed71116100c1578063e1b0e8021161007a578063e1b0e802146106d4578063e79e23e9146106e9578063e87101b114610709578063f5ab0dd61461071e578063f73c8ebb1461074d578063fadd942d1461076d57610271565b8063b876ed7114610637578063bff3df4114610657578063c26396731461066a578063cd5032e21461067f578063d3aa645b1461069f578063de723886146106bf57610271565b8063a710d60f11610113578063a710d60f1461057c578063a7c264ca1461059c578063a7ebaa75146105be578063ac98e5df146105d3578063ad944e47146105f7578063b530dc8c1461061757610271565b806398588c1f146104e75780639e2e79dc14610507578063a14a9fe214610527578063a27e572a14610547578063a5500c301461055c57610271565b806357d775f8116101e857806376671808116101ac5780637667180814610460578063839beeb81461047557806385c053ae1461048a57806386826c4d1461049d5780639109d1eb146104bd578063918f0c16146104d257610271565b806357d775f8146103d85780635b3745b5146103ed578063606736fb1461040d57806366c0f31f146104205780636e85e8141461044057610271565b80631c89e8e81161023a5780631c89e8e814610316578063410a140414610343578063417b16e314610363578063456bfc7114610383578063494e2171146103a357806356df4634146103c357610271565b806292ad661461027657806305d9ab821461028b57806307d83308146102c1578063131a91ad146102d6578063132331f2146102f6575b600080fd5b610289610284366004613413565b610782565b005b34801561029757600080fd5b506102ab6102a636600461357f565b610908565b6040516102b89190613b46565b60405180910390f35b3480156102cd57600080fd5b506102ab61094f565b3480156102e257600080fd5b506102ab6102f13660046133a9565b610955565b34801561030257600080fd5b506102ab6103113660046134c6565b610967565b34801561032257600080fd5b506103366103313660046134c6565b610979565b6040516102b89190613b3b565b34801561034f57600080fd5b5061033661035e36600461357f565b61098e565b34801561036f57600080fd5b5061028961037e3660046134c6565b610b80565b34801561038f57600080fd5b5061033661039e3660046136bf565b610ce3565b3480156103af57600080fd5b506102896103be36600461376f565b610ed7565b3480156103cf57600080fd5b50610289611152565b3480156103e457600080fd5b506102ab6111e9565b3480156103f957600080fd5b506103366104083660046137cf565b61120d565b61028961041b3660046135e9565b611419565b34801561042c57600080fd5b5061028961043b36600461357f565b611638565b34801561044c57600080fd5b5061033661045b3660046135e9565b611707565b34801561046c57600080fd5b506102ab611b83565b34801561048157600080fd5b506102ab611b89565b6102896104983660046134de565b611bad565b3480156104a957600080fd5b506103366104b836600461373d565b611ccc565b3480156104c957600080fd5b506102ab612216565b3480156104de57600080fd5b506102ab61221c565b3480156104f357600080fd5b506102896105023660046133c3565b612222565b34801561051357600080fd5b506102ab610522366004613814565b612304565b34801561053357600080fd5b506102ab61054236600461373d565b61233d565b34801561055357600080fd5b50610289612377565b34801561056857600080fd5b506102896105773660046134c6565b612399565b34801561058857600080fd5b506103366105973660046137cf565b6123d7565b3480156105a857600080fd5b506105b161257d565b6040516102b8919061470e565b3480156105ca57600080fd5b506102896125a1565b3480156105df57600080fd5b506105e86125b6565b6040516102b89392919061471c565b34801561060357600080fd5b506102ab6106123660046135e9565b6125d2565b34801561062357600080fd5b506102ab6106323660046133a9565b612618565b34801561064357600080fd5b506102896106523660046137cf565b61262a565b6102896106653660046136bf565b6126ff565b34801561067657600080fd5b506105b1612895565b34801561068b57600080fd5b506102ab61069a3660046136bf565b6128b9565b3480156106ab57600080fd5b506102ab6106ba3660046133a9565b6128e9565b3480156106cb57600080fd5b506102896128fb565b3480156106e057600080fd5b506102ab612a01565b3480156106f557600080fd5b506102ab6107043660046137cf565b612a25565b34801561071557600080fd5b506102ab612a3e565b34801561072a57600080fd5b5061073e61073936600461348a565b612a44565b6040516102b893929190613acb565b34801561075957600080fd5b506102896107683660046137cf565b612acd565b34801561077957600080fd5b506102ab612b6d565b6107c28686868080601f016020809104026020016040519081016040528093929190818152602001838380828437600092019190915250612b9192505050565b6001600160a01b0386166000908152601060205260409020546108005760405162461bcd60e51b81526004016107f790613e09565b60405180910390fd5b6001600160a01b0386166000908152601060205260409020548335146108385760405162461bcd60e51b81526004016107f7906143cc565b7f000000000000000000000000000000000000000000000000000000000000000034146108775760405162461bcd60e51b81526004016107f790613ebd565b80158015906108875750600a5481105b6108a35760405162461bcd60e51b81526004016107f7906142fd565b608083013515806108b8575082608001356001145b6108d45760405162461bcd60e51b81526004016107f790613e86565b600e546108e19034612c1e565b600e55610900866108f736869003860186613511565b84846000612c31565b505050505050565b600081600001518260200151836040015184606001516040516020016109319493929190613a67565b6040516020818303038152906040528051906020012090505b919050565b600e5481565b60106020526000908152604090205481565b600c6020526000908152604090205481565b600d6020526000908152604090205460ff1681565b60408051600380825260808201909252600091829190602082016060803683370190505090508260000151816000815181106109da57634e487b7160e01b600052603260045260246000fd5b602002602001018181525050826020015181600181518110610a0c57634e487b7160e01b600052603260045260246000fd5b602002602001018181525050826040015181600281518110610a3e57634e487b7160e01b600052603260045260246000fd5b60200260200101818152505060005b81518160ff161015610ac25760008051602061489c833981519152828260ff1681518110610a8b57634e487b7160e01b600052603260045260246000fd5b602002602001015110610ab05760405162461bcd60e51b81526004016107f790614403565b80610aba81614819565b915050610a4d565b50610acb6130c1565b610ad88460600151612a44565b60408085018290526020850183905283855260015490516361971b8760e11b81526001600160a01b039091169363c32e370e93610b1e9391929091908890600401613af4565b60206040518083038186803b158015610b3657600080fd5b505afa158015610b4a573d6000803e3d6000fd5b505050506040513d601f19601f82011682018060405250810190610b6e91906134a6565b15156060909101819052915050919050565b600b546001600160a01b0316331480610ba757503360009081526010602052604090205415155b610bc35760405162461bcd60e51b81526004016107f790614334565b6000818152600d602052604090205460ff1615610bf25760405162461bcd60e51b81526004016107f790614269565b7f000000000000000000000000000000000000000000000000000000000000000060095410610c335760405162461bcd60e51b81526004016107f7906142af565b336000908152601060209081526040808320546012835281842054858552600d909352908320805460ff19166001179055600980549193610c73836147fe565b919050555060075460008051602061487c8339815191526000604051610c999190613bc1565b60405180910390a2826007547faf92f92b28945d280b51131bc986d2da66b560950f1a5126f12b7f847dae8f7d8484604051610cd69291906146dc565b60405180910390a3505050565b60408051600580825260c082019092526000918291906020820160a080368337019050509050826000015181600081518110610d2f57634e487b7160e01b600052603260045260246000fd5b602002602001018181525050826020015181600181518110610d6157634e487b7160e01b600052603260045260246000fd5b602002602001018181525050826040015181600281518110610d9357634e487b7160e01b600052603260045260246000fd5b602002602001018181525050826060015181600381518110610dc557634e487b7160e01b600052603260045260246000fd5b602002602001018181525050826080015181600481518110610df757634e487b7160e01b600052603260045260246000fd5b60200260200101818152505060005b81518160ff161015610e7b5760008051602061489c833981519152828260ff1681518110610e4457634e487b7160e01b600052603260045260246000fd5b602002602001015110610e695760405162461bcd60e51b81526004016107f790614403565b80610e7381614819565b915050610e06565b50610e846130c1565b610e918460a00151612a44565b60408085018290526020850183905283855260065490516361971b8760e11b81526001600160a01b039091169363c32e370e93610b1e9391929091908890600401613af4565b6000610ee28361233d565b6000818152600c602052604090205490915015610f115760405162461bcd60e51b81526004016107f790613c58565b600754836040015110610f365760405162461bcd60e51b81526004016107f7906140da565b7f000000000000000000000000000000000000000000000000000000000000000060ff1683602001515114610f7d5760405162461bcd60e51b81526004016107f790614460565b826060015151600214610fa25760405162461bcd60e51b81526004016107f790613d72565b7f000000000000000000000000000000000000000000000000000000000000000060ff168360a001515114610fe95760405162461bcd60e51b81526004016107f790614198565b60005b82518110156110835782818151811061101557634e487b7160e01b600052603260045260246000fd5b60200260200101516000141580156110555750600a5483828151811061104b57634e487b7160e01b600052603260045260246000fd5b6020026020010151105b6110715760405162461bcd60e51b81526004016107f7906142fd565b8061107b816147fe565b915050610fec565b50600a5460075460405160008051602061487c833981519152906110a990600190613bc1565b60405180910390a2807f5b552a9df44a1ab5bbe960f96fe04b35454baded1ca53c89d13903661cf9fee185856040516110e392919061460b565b60405180910390a283516007546040517f5e4945fc83b420d245560b51ac02c824732652e0552b5d8537800db0c690a66390611120908590613b46565b60405180910390a36000828152600c60205260408120829055600a805491611147836147fe565b919050555050505050565b336000908152601060205260409020541561117f5760405162461bcd60e51b81526004016107f790613c12565b7f0000000000000000000000000000000000000000000000000000000000000000601154106111c05760405162461bcd60e51b81526004016107f790614146565b601180543360009081526010602052604081208290559091906111e2836147fe565b9190505550565b7f000000000000000000000000000000000000000000000000000000000000000081565b6040805160038082526080820190925260009182919060208201606080368337019050509050858160008151811061125557634e487b7160e01b600052603260045260246000fd5b602002602001018181525050848160018151811061128357634e487b7160e01b600052603260045260246000fd5b60200260200101818152505083816002815181106112b157634e487b7160e01b600052603260045260246000fd5b60200260200101818152505060005b81518160ff1610156113355760008051602061489c833981519152828260ff16815181106112fe57634e487b7160e01b600052603260045260246000fd5b6020026020010151106113235760405162461bcd60e51b81526004016107f790614403565b8061132d81614819565b9150506112c0565b5061133e6130c1565b6040805161010081810190925261136d9186906008908390839080828437600092019190915250612a44915050565b60408085018290526020850183905283855260025490516361971b8760e11b81526001600160a01b039091169363c32e370e936113b39391929091908890600401613af4565b60206040518083038186803b1580156113cb57600080fd5b505afa1580156113df573d6000803e3d6000fd5b505050506040513d601f19601f8201168201806040525081019061140391906134a6565b151560609091018190529150505b949350505050565b6000611424826125d2565b6000818152600c6020526040902054909150156114535760405162461bcd60e51b81526004016107f790613c58565b3360009081526010602052604090205461147f5760405162461bcd60e51b81526004016107f790613e09565b608082015133600090815260106020526040902054146114b15760405162461bcd60e51b81526004016107f7906143cc565b7f000000000000000000000000000000000000000000000000000000000000000034146114f05760405162461bcd60e51b81526004016107f790613ebd565b81515160ff7f000000000000000000000000000000000000000000000000000000000000000016146115345760405162461bcd60e51b81526004016107f790614035565b6007548260200151146115595760405162461bcd60e51b81526004016107f790613f09565b6080820151336000908152601060205260409020541461158b5760405162461bcd60e51b81526004016107f7906144a8565b600e546115989034612c1e565b600e556115a36130fb565b336000908152601060205260409081902054825260a084015182820152600a548482015160075492519192909183907fb2bf4a676a6a5ef7e686a52ccf9f83f83acb1cac5d2eef1e090206a688c7777e906115ff908990614537565b60405180910390a461161933838660400151846002612c31565b6000838152600c60205260408120829055600a805491611147836147fe565b600061164382610908565b6000818152600c6020526040902054909150156116725760405162461bcd60e51b81526004016107f790613c58565b6007548260200151146116975760405162461bcd60e51b81526004016107f790614084565b6000600a5490508260400151600754827ff897f63ef79d1e56ab9f314e1e74d030bcd34a4f0d09ed2834f1efeebf9a4ed9866040516116d691906144fd565b60405180910390a46000828152600c60205260408120829055600a8054916116fd836147fe565b9190505550505050565b6040805160128082526102608201909252600091829190602082016102408036833701905050905060005b7f000000000000000000000000000000000000000000000000000000000000000060ff168160ff1610156117cd578351805160ff831690811061178557634e487b7160e01b600052603260045260246000fd5b6020026020010151828260ff16815181106117b057634e487b7160e01b600052603260045260246000fd5b6020908102919091010152806117c581614819565b915050611732565b508260200151817f000000000000000000000000000000000000000000000000000000000000000060ff168151811061181657634e487b7160e01b600052603260045260246000fd5b60209081029190910101526040830151816118527f0000000000000000000000000000000000000000000000000000000000000000600161477a565b60ff168151811061187357634e487b7160e01b600052603260045260246000fd5b60209081029190910101526060830151816118af7f0000000000000000000000000000000000000000000000000000000000000000600261477a565b60ff16815181106118d057634e487b7160e01b600052603260045260246000fd5b602090810291909101015260808301518161190c7f0000000000000000000000000000000000000000000000000000000000000000600361477a565b60ff168151811061192d57634e487b7160e01b600052603260045260246000fd5b602090810291909101015260a0830151816119697f0000000000000000000000000000000000000000000000000000000000000000600461477a565b60ff168151811061198a57634e487b7160e01b600052603260045260246000fd5b602090810291909101015260c0830151816119c67f0000000000000000000000000000000000000000000000000000000000000000600561477a565b60ff16815181106119e757634e487b7160e01b600052603260045260246000fd5b602090810291909101015260e083015181611a237f0000000000000000000000000000000000000000000000000000000000000000600661477a565b60ff1681518110611a4457634e487b7160e01b600052603260045260246000fd5b602090810291909101015261010083015181611a817f0000000000000000000000000000000000000000000000000000000000000000600761477a565b60ff1681518110611aa257634e487b7160e01b600052603260045260246000fd5b60200260200101818152505060005b81518160ff161015611b265760008051602061489c833981519152828260ff1681518110611aef57634e487b7160e01b600052603260045260246000fd5b602002602001015110611b145760405162461bcd60e51b81526004016107f790614403565b80611b1e81614819565b915050611ab1565b50611b2f6130c1565b611b3d846101200151612a44565b60408085018290526020850183905283855260055490516361971b8760e11b81526001600160a01b039091169363c32e370e93610b1e9391929091908890600401613af4565b60075481565b7f000000000000000000000000000000000000000000000000000000000000000081565b33600090815260106020526040902054611bd95760405162461bcd60e51b81526004016107f790613e09565b33600090815260106020526040902054833514611c085760405162461bcd60e51b81526004016107f7906143cc565b7f00000000000000000000000000000000000000000000000000000000000000003414611c475760405162461bcd60e51b81526004016107f790613ebd565b8015801590611c575750600a5481105b611c735760405162461bcd60e51b81526004016107f7906142fd565b60808301351580611c88575082608001356001145b611ca45760405162461bcd60e51b81526004016107f790613e86565b600e54611cb19034612c1e565b600e55611cc7336108f736869003860186613511565b505050565b600080611cfa7f000000000000000000000000000000000000000000000000000000000000000060026147be565b611d0590600661477a565b60ff166001600160401b03811115611d2d57634e487b7160e01b600052604160045260246000fd5b604051908082528060200260200182016040528015611d56578160200160208202803683370190505b509050826000015181600081518110611d7f57634e487b7160e01b600052603260045260246000fd5b60200260200101818152505060005b7f000000000000000000000000000000000000000000000000000000000000000060ff168160ff161015611e375783602001518160ff1681518110611de357634e487b7160e01b600052603260045260246000fd5b602002602001015182826001611df9919061477a565b60ff1681518110611e1a57634e487b7160e01b600052603260045260246000fd5b602090810291909101015280611e2f81614819565b915050611d8e565b50604083015181611e697f0000000000000000000000000000000000000000000000000000000000000000600161477a565b60ff1681518110611e8a57634e487b7160e01b600052603260045260246000fd5b6020026020010181815250508260600151600081518110611ebb57634e487b7160e01b600052603260045260246000fd5b6020026020010151817f00000000000000000000000000000000000000000000000000000000000000006002611ef1919061477a565b60ff1681518110611f1257634e487b7160e01b600052603260045260246000fd5b6020026020010181815250508260600151600181518110611f4357634e487b7160e01b600052603260045260246000fd5b6020026020010151817f00000000000000000000000000000000000000000000000000000000000000006003611f79919061477a565b60ff1681518110611f9a57634e487b7160e01b600052603260045260246000fd5b6020908102919091010152608083015181611fd67f0000000000000000000000000000000000000000000000000000000000000000600461477a565b60ff1681518110611ff757634e487b7160e01b600052603260045260246000fd5b60200260200101818152505060005b7f000000000000000000000000000000000000000000000000000000000000000060ff168160ff1610156120da578360a001518160ff168151811061205b57634e487b7160e01b600052603260045260246000fd5b602002602001015182827f00000000000000000000000000000000000000000000000000000000000000006005612092919061477a565b61209c919061477a565b60ff16815181106120bd57634e487b7160e01b600052603260045260246000fd5b6020908102919091010152806120d281614819565b915050612006565b5060c08301518161210c7f000000000000000000000000000000000000000000000000000000000000000060026147be565b61211790600561477a565b60ff168151811061213857634e487b7160e01b600052603260045260246000fd5b60200260200101818152505060005b81518160ff1610156121bc5760008051602061489c833981519152828260ff168151811061218557634e487b7160e01b600052603260045260246000fd5b6020026020010151106121aa5760405162461bcd60e51b81526004016107f790614403565b806121b481614819565b915050612147565b506121c56130c1565b6121d28460e00151612a44565b6040808501829052602085018390528385526004805491516361971b8760e11b81526001600160a01b039092169463c32e370e94610b1e9491939092899101613af4565b60115481565b60095481565b6001600160a01b038316600090815260106020526040902054156122585760405162461bcd60e51b81526004016107f790613c12565b7f0000000000000000000000000000000000000000000000000000000000000000601154106122995760405162461bcd60e51b81526004016107f790614146565b6122d98383838080601f016020809104026020016040519081016040528093929190818152602001838380828437600092019190915250612b9192505050565b601180546001600160a01b03851660009081526010602052604081208290559091906116fd836147fe565b60008484848460405160200161231d9493929190613a67565b604051602081830303815290604052805190602001209050949350505050565b80516020808301516040808501516060860151608087015160a088015160c089015160e08a015195516000996109319990989791016139e3565b336000818152600f602052604081208054919055906123969082612d3d565b50565b336000908152601060205260409020546123c55760405162461bcd60e51b81526004016107f790613e09565b33600090815260126020526040902055565b6040805160038082526080820190925260009182919060208201606080368337019050509050858160008151811061241f57634e487b7160e01b600052603260045260246000fd5b602002602001018181525050848160018151811061244d57634e487b7160e01b600052603260045260246000fd5b602002602001018181525050838160028151811061247b57634e487b7160e01b600052603260045260246000fd5b60200260200101818152505060005b81518160ff1610156124ff5760008051602061489c833981519152828260ff16815181106124c857634e487b7160e01b600052603260045260246000fd5b6020026020010151106124ed5760405162461bcd60e51b81526004016107f790614403565b806124f781614819565b91505061248a565b506125086130c1565b604080516101008181019092526125379186906008908390839080828437600092019190915250612a44915050565b60408085018290526020850183905283855260035490516361971b8760e11b81526001600160a01b039091169363c32e370e936113b39391929091908890600401613af4565b7f000000000000000000000000000000000000000000000000000000000000000081565b600e8054600091829055906123969082612d3d565b60135460ff808216916101008104821691620100009091041683565b80516020808301516040808501516060860151608087015160a088015160c089015160e08a01516101008b01516101208c0151975160009b6109319b909a999101613954565b60126020526000908152604090205481565b6000612661858585856008806020026040519081016040528092919082600860200280828437600092019190915250612304915050565b6000818152600c6020526040902054909150156126905760405162461bcd60e51b81526004016107f790613c58565b6000600a5490508386827fc70a0250765c7e3a778b8771883540e979ac92fa4002835744533497db87064688876040516126cb9291906146c0565b60405180910390a46000828152600c60205260408120829055600a8054916126f2836147fe565b9190505550505050505050565b600061270a826128b9565b6000818152600c6020526040902054909150156127395760405162461bcd60e51b81526004016107f790613c58565b336000908152601060205260409020546127655760405162461bcd60e51b81526004016107f790613e09565b606082015133600090815260106020526040902054146127975760405162461bcd60e51b81526004016107f7906143cc565b7f000000000000000000000000000000000000000000000000000000000000000034146127d65760405162461bcd60e51b81526004016107f790613ebd565b6007548251146127f85760405162461bcd60e51b81526004016107f790613d1e565b600e546128059034612c1e565b600e556128106130fb565b3360008181526010602090815260408083205485529282526012815290829020548382015260016080840152600a549085015160075492519192909183907f58b1080086db5bb58e2e8e2f28dc2a26b705277257655e9296c7ebfcfb8171369061287b9089906145c4565b60405180910390a461161933838660200151846001612c31565b7f000000000000000000000000000000000000000000000000000000000000000081565b80516020808301516040808501516060860151608087015160a08801519351600097610931979096959101613a92565b600f6020526000908152604090205481565b60005a90507f00000000000000000000000000000000000000000000000000000000000000006008544261292f91906147e7565b101561294d5760405162461bcd60e51b81526004016107f790613e4f565b60075460008051602061487c833981519152600360405161296e9190613bc1565b60405180910390a26007546040517f751bb1ba7b27b3979a32844d4d05aa16a46a771b751593704834a80311e3a9b990600090a242600855600780549060006129b6836147fe565b919050555060006129c85a8390612dd9565b90506129ed6129d7823a612de5565b336000908152600f602052604090205490612c1e565b336000908152600f60205260409020555050565b7f000000000000000000000000000000000000000000000000000000000000000081565b60008484848460405160200161231d9493929190613a3b565b60085481565b612a4c61312a565b612a54613148565b612a5c61312a565b50506040805180820182528351815260208085015181830152825160808082018552868501518286019081526060808901519084015282528451808601865290870151815260a08701518184015281830152835180850190945260c0860151845260e0909501519083015293909150565b6000612adb85858585612a25565b6000818152600c602052604090205490915015612b0a5760405162461bcd60e51b81526004016107f790613c58565b6000600a54905083817ff32686467e2fc0ec47df070bcf076510ff790a7ec36e2c65de53ce0d17906b69888887604051612b46939291906146ea565b60405180910390a36000828152600c60205260408120829055600a8054916126f2836147fe565b7f000000000000000000000000000000000000000000000000000000000000000081565b60008230604051602001612ba692919061392d565b60405160208183030381529060405280519060200120604051602001612bcc91906139af565b604051602081830303815290604052805190602001209050826001600160a01b0316612bf88284612df1565b6001600160a01b031614611cc75760405162461bcd60e51b81526004016107f790613dbf565b6000612c2a8284614762565b9392505050565b60008051602061489c833981519152846020015110612c625760405162461bcd60e51b81526004016107f7906141e5565b60008051602061489c833981519152846040015110612c935760405162461bcd60e51b81526004016107f79061438a565b60008051602061489c833981519152846060015110612cc45760405162461bcd60e51b81526004016107f790613cda565b60075460008051602061487c8339815191526002604051612ce59190613bc1565b60405180910390a2846001600160a01b0316836007547f3a0dabdc1ebfc4192cad296a31d4a97f1707db33942ac6f9dc78229a858f139d848887604051612d2e93929190613b6d565b60405180910390a45050505050565b80471015612d5d5760405162461bcd60e51b81526004016107f790613ffe565b6000826001600160a01b031682604051612d76906139e0565b60006040518083038185875af1925050503d8060008114612db3576040519150601f19603f3d011682016040523d82523d6000602084013e612db8565b606091505b5050905080611cc75760405162461bcd60e51b81526004016107f790613f5f565b6000612c2a82846147e7565b6000612c2a828461479f565b6000806000612e008585612e15565b91509150612e0d81612e85565b509392505050565b600080825160411415612e4c5760208301516040840151606085015160001a612e4087828585612fb2565b94509450505050612e7e565b825160401415612e765760208301516040840151612e6b868383613092565b935093505050612e7e565b506000905060025b9250929050565b6000816004811115612ea757634e487b7160e01b600052602160045260246000fd5b1415612eb257612396565b6001816004811115612ed457634e487b7160e01b600052602160045260246000fd5b1415612ef25760405162461bcd60e51b81526004016107f790613bdb565b6002816004811115612f1457634e487b7160e01b600052602160045260246000fd5b1415612f325760405162461bcd60e51b81526004016107f790613ca3565b6003816004811115612f5457634e487b7160e01b600052602160045260246000fd5b1415612f725760405162461bcd60e51b81526004016107f790613fbc565b6004816004811115612f9457634e487b7160e01b600052602160045260246000fd5b14156123965760405162461bcd60e51b81526004016107f790614227565b6000807f7fffffffffffffffffffffffffffffff5d576e7357a4501ddfe92f46681b20a0831115612fe95750600090506003613089565b8460ff16601b1415801561300157508460ff16601c14155b156130125750600090506004613089565b6000600187878787604051600081526020016040526040516130379493929190613b4f565b6020604051602081039080840390855afa158015613059573d6000803e3d6000fd5b5050604051601f1901519150506001600160a01b03811661308257600060019250925050613089565b9150600090505b94509492505050565b6000806001600160ff1b03831660ff84901c601b016130b387828885612fb2565b935093505050935093915050565b60405180608001604052806130d461312a565b81526020016130e1613148565b81526020016130ee61312a565b8152600060209091015290565b6040518060a0016040528060008152602001600081526020016000815260200160008152602001600081525090565b60405180604001604052806002906020820280368337509192915050565b60405180604001604052806002905b61315f61312a565b8152602001906001900390816131575790505090565b80356001600160a01b038116811461094a57600080fd5b600082601f83011261319c578081fd5b6040516101008082018281106001600160401b03821117156131c0576131c0614865565b60405281848281018710156131d3578485fd5b8492505b60088310156131f7578035825260019290920191602091820191016131d7565b509195945050505050565b600082601f830112613212578081fd5b813560206001600160401b0382111561322d5761322d614865565b80820261323b828201614739565b838152828101908684018388018501891015613255578687fd5b8693505b85841015613277578035835260019390930192918401918401613259565b50979650505050505050565b60008083601f840112613294578182fd5b5081356001600160401b038111156132aa578182fd5b602083019150836020828501011115612e7e57600080fd5b600060a082840312156132d3578081fd5b50919050565b60006101e082840312156132eb578081fd5b6132f6610100614739565b90508135815260208201356001600160401b038082111561331657600080fd5b61332285838601613202565b602084015260408401356040840152606084013591508082111561334557600080fd5b61335185838601613202565b60608401526080840135608084015260a084013591508082111561337457600080fd5b5061338184828501613202565b60a08301525060c082013560c082015261339e8360e0840161318c565b60e082015292915050565b6000602082840312156133ba578081fd5b612c2a82613175565b6000806000604084860312156133d7578182fd5b6133e084613175565b925060208401356001600160401b038111156133fa578283fd5b61340686828701613283565b9497909650939450505050565b600080600080600080610120878903121561342c578182fd5b61343587613175565b955060208701356001600160401b0381111561344f578283fd5b61345b89828a01613283565b909650945061346f905088604089016132c2565b925060e0870135915061010087013590509295509295509295565b6000610100828403121561349c578081fd5b612c2a838361318c565b6000602082840312156134b7578081fd5b81518015158114612c2a578182fd5b6000602082840312156134d7578081fd5b5035919050565b600080600060e084860312156134f2578081fd5b6134fc85856132c2565b9560a0850135955060c0909401359392505050565b600060a08284031215613522578081fd5b60405160a081018181106001600160401b038211171561354457613544614865565b806040525082358152602083013560208201526040830135604082015260608301356060820152608083013560808201528091505092915050565b60006101608284031215613591578081fd5b604051608081018181106001600160401b03821117156135b3576135b3614865565b80604052508235815260208301356020820152604083013560408201526135dd846060850161318c565b60608201529392505050565b6000602082840312156135fa578081fd5b81356001600160401b0380821115613610578283fd5b908301906102208286031215613624578283fd5b61362f610140614739565b82358281111561363d578485fd5b61364987828601613202565b8252506020830135602082015260408301356040820152606083013560608201526080830135608082015260a083013560a082015260c083013560c082015260e083013560e08201526101009150818301358282015261012091506136b08683850161318c565b91810191909152949350505050565b60006101a082840312156136d1578081fd5b60405160c081018181106001600160401b03821117156136f3576136f3614865565b806040525082358152602083013560208201526040830135604082015260608301356060820152608083013560808201526137318460a0850161318c565b60a08201529392505050565b60006020828403121561374e578081fd5b81356001600160401b03811115613763578182fd5b611411848285016132d9565b60008060408385031215613781578182fd5b82356001600160401b0380821115613797578384fd5b6137a3868387016132d9565b935060208501359150808211156137b8578283fd5b506137c585828601613202565b9150509250929050565b6000806000806101608086880312156137e6578283fd5b853594506020860135935060408601359250868187011115613806578182fd5b509295919450926060019150565b600080600080610160858703121561382a578182fd5b843593506020850135925060408501359150613849866060870161318c565b905092959194509250565b8060005b60028110156138825761386c848351613888565b6040939093019260209190910190600101613858565b50505050565b8060005b600281101561388257815184526020938401939091019060010161388c565b8060005b60088110156138825781518452602093840193909101906001016138af565b6000815180845260208085019450808401835b838110156138fd578151875295820195908201906001016138e1565b509495945050505050565b805160009060208084018383156138fd578151875295820195908201906001016138e1565b6bffffffffffffffffffffffff19606093841b811682529190921b16601482015260280190565b6000613960828d613908565b8b81528a60208201528960408201528860608201528760808201528660a08201528560c08201528460e082015261399b6101008201856138ab565b610200019c9b505050505050505050505050565b7f19457468657265756d205369676e6564204d6573736167653a0a3332000000008152601c810191909152603c0190565b90565b60008982526139f5602083018a613908565b888152613a056020820189613908565b9050868152613a176020820187613908565b9050848152613a2960208201856138ab565b610120019a9950505050505050505050565b600085825284602083015283604083015261010083606084013761016091909101908152949350505050565b6000858252846020830152836040830152613a8560608301846138ab565b5061016001949350505050565b6000878252866020830152856040830152846060830152836080830152613abc60a08301846138ab565b506101a0019695505050505050565b6101008101613ada8286613888565b613ae76040830185613854565b61141160c0830184613888565b6000610120613b038388613888565b613b106040840187613854565b613b1d60c0840186613888565b80610100840152613b30818401856138ce565b979650505050505050565b901515815260200190565b90815260200190565b93845260ff9290921660208401526040830152606082015260800190565b60e0810160038510613b8157613b8161484f565b84825283516020830152602084015160408301526040840151606083015260608401516080830152608084015160a08301528260c0830152949350505050565b6020810160048310613bd557613bd561484f565b91905290565b60208082526018908201527f45434453413a20696e76616c6964207369676e61747572650000000000000000604082015260600190565b60208082526026908201527f556e697265703a2061747465737465722068617320616c72656164792073696760408201526506e65642075760d41b606082015260800190565b6020808252602b908201527f556e697265703a207468652070726f6f6620686173206265656e207375626d6960408201526a74746564206265666f726560a81b606082015260800190565b6020808252601f908201527f45434453413a20696e76616c6964207369676e6174757265206c656e67746800604082015260600190565b60208082526024908201527f556e697265703a20696e76616c6964206174746573746174696f6e20677261666040820152636669746960e01b606082015260800190565b60208082526034908201527f556e697265703a207375626d697420616e2061697264726f702070726f6f66206040820152730eed2e8d040d2dcc6dee4e4cac6e840cae0dec6d60631b606082015260800190565b6020808252602d908201527f556e697265703a20696e76616c6964206e756d626572206f6620626c696e646560408201526c6420757365722073746174657360981b606082015260800190565b6020808252602a908201527f556e697265703a20696e76616c6964206174746573746572207369676e207570604082015269207369676e617475726560b01b606082015260800190565b60208082526026908201527f556e697265703a20617474657374657220686173206e6f74207369676e6564206040820152651d5c081e595d60d21b606082015260800190565b6020808252601b908201527f556e697265703a2065706f6368206e6f742079657420656e6465640000000000604082015260600190565b6020808252601c908201527f556e697265703a20696e76616c6964207369676e20757020666c616700000000604082015260600190565b6020808252602c908201527f556e697265703a206e6f20617474657374696e6720666565206f7220696e636f60408201526b1c9c9958dd08185b5bdd5b9d60a21b606082015260800190565b60208082526036908201527f556e697265703a207375626d697420612072657075746174696f6e2070726f6f6040820152750cc40eed2e8d040d2dcc6dee4e4cac6e840cae0dec6d60531b606082015260800190565b6020808252603a908201527f416464726573733a20756e61626c6520746f2073656e642076616c75652c207260408201527f6563697069656e74206d61792068617665207265766572746564000000000000606082015260800190565b60208082526022908201527f45434453413a20696e76616c6964207369676e6174757265202773272076616c604082015261756560f01b606082015260800190565b6020808252601d908201527f416464726573733a20696e73756666696369656e742062616c616e6365000000604082015260600190565b6020808252602f908201527f556e697265703a20696e76616c6964206e756d626572206f662072657075746160408201526e74696f6e206e756c6c69666965727360881b606082015260800190565b60208082526036908201527f556e697265703a207375626d697420616e2065706f6368206b65792070726f6f6040820152750cc40eed2e8d040d2dcc6dee4e4cac6e840cae0dec6d60531b606082015260800190565b60208082526046908201527f43616e206e6f74207472616e736974696f6e2066726f6d2065706f636820746860408201527f617427732067726561746572206f7220657175616c20746f2063757272656e74606082015265040cae0dec6d60d31b608082015260a00190565b60208082526032908201527f556e697265703a206d6178696d756d206e756d626572206f6620617474657374604082015271195c881cda59db9d5c1cc81c995858da195960721b606082015260800190565b6020808252602d908201527f556e697265703a20696e76616c6964206e756d626572206f6620626c696e646560408201526c64206861736820636861696e7360981b606082015260800190565b60208082526022908201527f556e697265703a20696e76616c6964206174746573746174696f6e20706f7352604082015261065760f41b606082015260800190565b60208082526022908201527f45434453413a20696e76616c6964207369676e6174757265202776272076616c604082015261756560f01b606082015260800190565b60208082526026908201527f556e697265703a2074686520757365722068617320616c72656164792073696760408201526506e65642075760d41b606082015260800190565b6020808252602e908201527f556e697265703a206d6178696d756d206e756d626572206f662075736572207360408201526d1a59db9d5c1cc81c995858da195960921b606082015260800190565b6020808252601b908201527f556e697265703a20696e76616c69642070726f6f6620696e6465780000000000604082015260600190565b60208082526036908201527f556e697265703a207369676e2075702073686f756c64207468726f7567682061604082015275371030b236b4b71037b91030b71030ba3a32b9ba32b960511b606082015260800190565b60208082526022908201527f556e697265703a20696e76616c6964206174746573746174696f6e206e656752604082015261065760f41b606082015260800190565b6020808252601d908201527f556e697265703a206d69736d6174636865642061747465737465724964000000604082015260600190565b6020808252603c908201527f556e697265703a2065616368207075626c6963207369676e616c206d7573742060408201527f6265206c742074686520736e61726b207363616c6172206669656c6400000000606082015260800190565b60208082526028908201527f556e697265703a20696e76616c6964206e756d626572206f662065706b206e756040820152676c6c69666965727360c01b606082015260800190565b60208082526035908201527f556e697265703a20696e636f727265637420617474657374657220494420696e604082015274103a3432903932b83aba30ba34b7b710383937b7b360591b606082015260800190565b600061016082019050825182526020830151602083015260408301516040830152606083015161453060608401826138ab565b5092915050565b600060208252825161022060208401526145556102408401826138ce565b9050602084015160408401526040840151606084015260608401516080840152608084015160a084015260a084015160c084015260c084015160e084015260e0840151610100818186015280860151915050610120818186015280860151915050612e0d6101408501826138ab565b60006101a082019050825182526020830151602083015260408301516040830152606083015160608301526080830151608083015260a083015161453060a08401826138ab565b6000604082528351604083015260208401516101e060608401526146336102208401826138ce565b9050604085015160808401526060850151603f19808584030160a086015261465b83836138ce565b9250608087015160c086015260a08701519150808584030160e08601525061468382826138ce565b91505060c085015161010084015260e08501516146a46101208501826138ab565b5082810360208401526146b781856138ce565b95945050505050565b8281526101208101610100836020840137600081529392505050565b918252602082015260400190565b83815260208101839052610140810161010083604084013760008152949350505050565b60ff91909116815260200190565b60ff93841681529183166020830152909116604082015260600190565b6040518181016001600160401b038111828210171561475a5761475a614865565b604052919050565b6000821982111561477557614775614839565b500190565b600060ff821660ff84168060ff0382111561479757614797614839565b019392505050565b60008160001904831182151516156147b9576147b9614839565b500290565b600060ff821660ff84168160ff04811182151516156147df576147df614839565b029392505050565b6000828210156147f9576147f9614839565b500390565b600060001982141561481257614812614839565b5060010190565b600060ff821660ff81141561483057614830614839565b60010192915050565b634e487b7160e01b600052601160045260246000fd5b634e487b7160e01b600052602160045260246000fd5b634e487b7160e01b600052604160045260246000fdfea3019980c7e9844ee00c3f7584f329ac6dae8bcc2e08a756cf9651c8d2e96a6d30644e72e131a029b85045b68181585d2833e84879b9709143e1f593f0000001a2646970667358221220ecafdb395fc35078f25006e940fa92a20d002e282a971ee74d198234e008f1f264736f6c63430008000033",
  "linkReferences": {},
  "deployedLinkReferences": {}
}