{
  "_format": "hh-sol-artifact-1",
  "contractName": "Unirep",
  "sourceName": "@unirep/contracts/contracts/Unirep.sol",
  "abi": [
    {
      "inputs": [
        {
          "components": [
            {
              "internalType": "uint8",
              "name": "globalStateTreeDepth",
              "type": "uint8"
            },
            {
              "internalType": "uint8",
              "name": "userStateTreeDepth",
              "type": "uint8"
            },
            {
              "internalType": "uint8",
              "name": "epochTreeDepth",
              "type": "uint8"
            }
          ],
          "internalType": "struct UnirepParameters.TreeDepths",
          "name": "_treeDepths",
          "type": "tuple"
        },
        {
          "components": [
            {
              "internalType": "uint256",
              "name": "maxUsers",
              "type": "uint256"
            },
            {
              "internalType": "uint256",
              "name": "maxAttesters",
              "type": "uint256"
            }
          ],
          "internalType": "struct UnirepParameters.MaxValues",
          "name": "_maxValues",
          "type": "tuple"
        },
        {
          "internalType": "contract EpochKeyValidityVerifier",
          "name": "_epkValidityVerifier",
          "type": "address"
        },
        {
          "internalType": "contract StartTransitionVerifier",
          "name": "_startTransitionVerifier",
          "type": "address"
        },
        {
          "internalType": "contract ProcessAttestationsVerifier",
          "name": "_processAttestationsVerifier",
          "type": "address"
        },
        {
          "internalType": "contract UserStateTransitionVerifier",
          "name": "_userStateTransitionVerifier",
          "type": "address"
        },
        {
          "internalType": "contract ReputationVerifier",
          "name": "_reputationVerifier",
          "type": "address"
        },
        {
          "internalType": "contract UserSignUpVerifier",
          "name": "_userSignUpVerifier",
          "type": "address"
        },
        {
          "internalType": "uint8",
          "name": "_numEpochKeyNoncePerEpoch",
          "type": "uint8"
        },
        {
          "internalType": "uint8",
          "name": "_maxReputationBudget",
          "type": "uint8"
        },
        {
          "internalType": "uint256",
          "name": "_epochLength",
          "type": "uint256"
        },
        {
          "internalType": "uint256",
          "name": "_attestingFee",
          "type": "uint256"
        }
      ],
      "stateMutability": "nonpayable",
      "type": "constructor"
    },
    {
      "anonymous": false,
      "inputs": [
        {
          "indexed": true,
          "internalType": "uint256",
          "name": "_epoch",
          "type": "uint256"
        },
        {
          "indexed": true,
          "internalType": "uint256",
          "name": "_epochKey",
          "type": "uint256"
        },
        {
          "indexed": true,
          "internalType": "address",
          "name": "_attester",
          "type": "address"
        },
        {
          "components": [
            {
              "internalType": "uint256",
              "name": "attesterId",
              "type": "uint256"
            },
            {
              "internalType": "uint256",
              "name": "posRep",
              "type": "uint256"
            },
            {
              "internalType": "uint256",
              "name": "negRep",
              "type": "uint256"
            },
            {
              "internalType": "uint256",
              "name": "graffiti",
              "type": "uint256"
            },
            {
              "internalType": "uint256",
              "name": "signUp",
              "type": "uint256"
            }
          ],
          "indexed": false,
          "internalType": "struct DomainObjs.Attestation",
          "name": "attestation",
          "type": "tuple"
        },
        {
          "indexed": false,
          "internalType": "uint256",
          "name": "_proofIndex",
          "type": "uint256"
        }
      ],
      "name": "AttestationSubmitted",
      "type": "event"
    },
    {
      "anonymous": false,
      "inputs": [
        {
          "indexed": true,
          "internalType": "uint256",
          "name": "_epoch",
          "type": "uint256"
        }
      ],
      "name": "EpochEnded",
      "type": "event"
    },
    {
      "anonymous": false,
      "inputs": [
        {
          "indexed": true,
          "internalType": "uint256",
          "name": "_proofIndex",
          "type": "uint256"
        },
        {
          "indexed": true,
          "internalType": "uint256",
          "name": "_epoch",
          "type": "uint256"
        },
        {
          "indexed": true,
          "internalType": "uint256",
          "name": "_epochKey",
          "type": "uint256"
        },
        {
          "components": [
            {
              "internalType": "uint256",
              "name": "globalStateTree",
              "type": "uint256"
            },
            {
              "internalType": "uint256",
              "name": "epoch",
              "type": "uint256"
            },
            {
              "internalType": "uint256",
              "name": "epochKey",
              "type": "uint256"
            },
            {
              "internalType": "uint256[8]",
              "name": "proof",
              "type": "uint256[8]"
            }
          ],
          "indexed": false,
          "internalType": "struct UnirepParameters.EpochKeyProofRelated",
          "name": "epochKeyProofData",
          "type": "tuple"
        }
      ],
      "name": "EpochKeyProof",
      "type": "event"
    },
    {
      "anonymous": false,
      "inputs": [
        {
          "indexed": true,
          "internalType": "uint256",
          "name": "_epoch",
          "type": "uint256"
        },
        {
          "indexed": false,
          "internalType": "uint256",
          "name": "_hashedLeaf",
          "type": "uint256"
        },
        {
          "indexed": false,
          "internalType": "uint256",
          "name": "_proofIndex",
          "type": "uint256"
        }
      ],
      "name": "NewGSTLeafInserted",
      "type": "event"
    },
    {
      "anonymous": false,
      "inputs": [
        {
          "indexed": true,
          "internalType": "uint256",
          "name": "_proofIndex",
          "type": "uint256"
        },
        {
          "indexed": true,
          "internalType": "uint256",
          "name": "_inputBlindedUserState",
          "type": "uint256"
        },
        {
          "indexed": false,
          "internalType": "uint256",
          "name": "_outputBlindedUserState",
          "type": "uint256"
        },
        {
          "indexed": false,
          "internalType": "uint256",
          "name": "_outputBlindedHashChain",
          "type": "uint256"
        },
        {
          "indexed": false,
          "internalType": "uint256[8]",
          "name": "_proof",
          "type": "uint256[8]"
        }
      ],
      "name": "ProcessedAttestationsProof",
      "type": "event"
    },
    {
      "anonymous": false,
      "inputs": [
        {
          "indexed": true,
          "internalType": "uint256",
          "name": "_proofIndex",
          "type": "uint256"
        },
        {
          "indexed": true,
          "internalType": "uint256",
          "name": "_epoch",
          "type": "uint256"
        },
        {
          "indexed": true,
          "internalType": "uint256",
          "name": "_epochKey",
          "type": "uint256"
        },
        {
          "components": [
            {
              "internalType": "uint256[]",
              "name": "repNullifiers",
              "type": "uint256[]"
            },
            {
              "internalType": "uint256",
              "name": "epoch",
              "type": "uint256"
            },
            {
              "internalType": "uint256",
              "name": "epochKey",
              "type": "uint256"
            },
            {
              "internalType": "uint256",
              "name": "globalStateTree",
              "type": "uint256"
            },
            {
              "internalType": "uint256",
              "name": "attesterId",
              "type": "uint256"
            },
            {
              "internalType": "uint256",
              "name": "proveReputationAmount",
              "type": "uint256"
            },
            {
              "internalType": "uint256",
              "name": "minRep",
              "type": "uint256"
            },
            {
              "internalType": "uint256",
              "name": "proveGraffiti",
              "type": "uint256"
            },
            {
              "internalType": "uint256",
              "name": "graffitiPreImage",
              "type": "uint256"
            },
            {
              "internalType": "uint256[8]",
              "name": "proof",
              "type": "uint256[8]"
            }
          ],
          "indexed": false,
          "internalType": "struct UnirepParameters.ReputationProofRelated",
          "name": "reputationProofData",
          "type": "tuple"
        }
      ],
      "name": "ReputationNullifierProof",
      "type": "event"
    },
    {
      "anonymous": false,
      "inputs": [
        {
          "indexed": true,
          "internalType": "uint256",
          "name": "_epoch",
          "type": "uint256"
        },
        {
          "indexed": false,
          "internalType": "string",
          "name": "_event",
          "type": "string"
        }
      ],
      "name": "Sequencer",
      "type": "event"
    },
    {
      "anonymous": false,
      "inputs": [
        {
          "indexed": true,
          "internalType": "uint256",
          "name": "_proofIndex",
          "type": "uint256"
        },
        {
          "indexed": true,
          "internalType": "uint256",
          "name": "_blindedUserState",
          "type": "uint256"
        },
        {
          "indexed": true,
          "internalType": "uint256",
          "name": "_globalStateTree",
          "type": "uint256"
        },
        {
          "indexed": false,
          "internalType": "uint256",
          "name": "_blindedHashChain",
          "type": "uint256"
        },
        {
          "indexed": false,
          "internalType": "uint256[8]",
          "name": "_proof",
          "type": "uint256[8]"
        }
      ],
      "name": "StartedTransitionProof",
      "type": "event"
    },
    {
      "anonymous": false,
      "inputs": [
        {
          "indexed": true,
          "internalType": "uint256",
          "name": "_proofIndex",
          "type": "uint256"
        },
        {
          "indexed": false,
          "internalType": "uint256",
          "name": "_identityCommitment",
          "type": "uint256"
        },
        {
          "indexed": false,
          "internalType": "uint256",
          "name": "_attesterId",
          "type": "uint256"
        },
        {
          "indexed": false,
          "internalType": "uint256",
          "name": "_airdropAmount",
          "type": "uint256"
        }
      ],
      "name": "UserSignUp",
      "type": "event"
    },
    {
      "anonymous": false,
      "inputs": [
        {
          "indexed": true,
          "internalType": "uint256",
          "name": "_proofIndex",
          "type": "uint256"
        },
        {
          "indexed": true,
          "internalType": "uint256",
          "name": "_epoch",
          "type": "uint256"
        },
        {
          "indexed": true,
          "internalType": "uint256",
          "name": "_epochKey",
          "type": "uint256"
        },
        {
          "components": [
            {
              "internalType": "uint256",
              "name": "epoch",
              "type": "uint256"
            },
            {
              "internalType": "uint256",
              "name": "epochKey",
              "type": "uint256"
            },
            {
              "internalType": "uint256",
              "name": "globalStateTree",
              "type": "uint256"
            },
            {
              "internalType": "uint256",
              "name": "attesterId",
              "type": "uint256"
            },
            {
              "internalType": "uint256[8]",
              "name": "proof",
              "type": "uint256[8]"
            }
          ],
          "indexed": false,
          "internalType": "struct UnirepParameters.SignUpProofRelated",
          "name": "signUpProofData",
          "type": "tuple"
        }
      ],
      "name": "UserSignedUpProof",
      "type": "event"
    },
    {
      "anonymous": false,
      "inputs": [
        {
          "indexed": true,
          "internalType": "uint256",
          "name": "_proofIndex",
          "type": "uint256"
        },
        {
          "components": [
            {
              "internalType": "uint256",
              "name": "newGlobalStateTreeLeaf",
              "type": "uint256"
            },
            {
              "internalType": "uint256[]",
              "name": "epkNullifiers",
              "type": "uint256[]"
            },
            {
              "internalType": "uint256",
              "name": "transitionFromEpoch",
              "type": "uint256"
            },
            {
              "internalType": "uint256[]",
              "name": "blindedUserStates",
              "type": "uint256[]"
            },
            {
              "internalType": "uint256",
              "name": "fromGlobalStateTree",
              "type": "uint256"
            },
            {
              "internalType": "uint256[]",
              "name": "blindedHashChains",
              "type": "uint256[]"
            },
            {
              "internalType": "uint256",
              "name": "fromEpochTree",
              "type": "uint256"
            },
            {
              "internalType": "uint256[8]",
              "name": "proof",
              "type": "uint256[8]"
            }
          ],
          "indexed": false,
          "internalType": "struct UnirepParameters.UserTransitionedRelated",
          "name": "userTransitionedData",
          "type": "tuple"
        },
        {
          "indexed": false,
          "internalType": "uint256[]",
          "name": "_proofIndexRecords",
          "type": "uint256[]"
        }
      ],
      "name": "UserStateTransitionProof",
      "type": "event"
    },
    {
      "inputs": [
        {
          "internalType": "address",
          "name": "",
          "type": "address"
        }
      ],
      "name": "airdropAmount",
      "outputs": [
        {
          "internalType": "uint256",
          "name": "",
          "type": "uint256"
        }
      ],
      "stateMutability": "view",
      "type": "function"
    },
    {
      "inputs": [
        {
          "components": [
            {
              "internalType": "uint256",
              "name": "epoch",
              "type": "uint256"
            },
            {
              "internalType": "uint256",
              "name": "epochKey",
              "type": "uint256"
            },
            {
              "internalType": "uint256",
              "name": "globalStateTree",
              "type": "uint256"
            },
            {
              "internalType": "uint256",
              "name": "attesterId",
              "type": "uint256"
            },
            {
              "internalType": "uint256[8]",
              "name": "proof",
              "type": "uint256[8]"
            }
          ],
          "internalType": "struct UnirepParameters.SignUpProofRelated",
          "name": "signUpProofData",
          "type": "tuple"
        }
      ],
      "name": "airdropEpochKey",
      "outputs": [],
      "stateMutability": "payable",
      "type": "function"
    },
    {
      "inputs": [],
      "name": "attesterSignUp",
      "outputs": [],
      "stateMutability": "nonpayable",
      "type": "function"
    },
    {
      "inputs": [
        {
          "internalType": "address",
          "name": "attester",
          "type": "address"
        },
        {
          "internalType": "bytes",
          "name": "signature",
          "type": "bytes"
        }
      ],
      "name": "attesterSignUpViaRelayer",
      "outputs": [],
      "stateMutability": "nonpayable",
      "type": "function"
    },
    {
      "inputs": [
        {
          "internalType": "address",
          "name": "",
          "type": "address"
        }
      ],
      "name": "attesters",
      "outputs": [
        {
          "internalType": "uint256",
          "name": "",
          "type": "uint256"
        }
      ],
      "stateMutability": "view",
      "type": "function"
    },
    {
      "inputs": [],
      "name": "attestingFee",
      "outputs": [
        {
          "internalType": "uint256",
          "name": "",
          "type": "uint256"
        }
      ],
      "stateMutability": "view",
      "type": "function"
    },
    {
      "inputs": [],
      "name": "beginEpochTransition",
      "outputs": [],
      "stateMutability": "nonpayable",
      "type": "function"
    },
    {
      "inputs": [],
      "name": "burnAttestingFee",
      "outputs": [],
      "stateMutability": "nonpayable",
      "type": "function"
    },
    {
      "inputs": [
        {
          "internalType": "uint256",
          "name": "_leafIndex",
          "type": "uint256"
        },
        {
          "internalType": "uint256",
          "name": "_leafValue",
          "type": "uint256"
        }
      ],
      "name": "calcAirdropUSTRoot",
      "outputs": [
        {
          "internalType": "uint256",
          "name": "",
          "type": "uint256"
        }
      ],
      "stateMutability": "view",
      "type": "function"
    },
    {
      "inputs": [],
      "name": "collectEpochTransitionCompensation",
      "outputs": [],
      "stateMutability": "nonpayable",
      "type": "function"
    },
    {
      "inputs": [],
      "name": "collectedAttestingFee",
      "outputs": [
        {
          "internalType": "uint256",
          "name": "",
          "type": "uint256"
        }
      ],
      "stateMutability": "view",
      "type": "function"
    },
    {
      "inputs": [
        {
          "internalType": "uint8",
          "name": "_treeLevels",
          "type": "uint8"
        },
        {
          "internalType": "uint256",
          "name": "_zeroValue",
          "type": "uint256"
        }
      ],
      "name": "computeEmptyRoot",
      "outputs": [
        {
          "internalType": "uint256",
          "name": "",
          "type": "uint256"
        }
      ],
      "stateMutability": "pure",
      "type": "function"
    },
    {
      "inputs": [
        {
          "internalType": "uint8",
          "name": "_treeLevels",
          "type": "uint8"
        },
        {
          "internalType": "uint256",
          "name": "_leafIndex",
          "type": "uint256"
        },
        {
          "internalType": "uint256",
          "name": "_leafValue",
          "type": "uint256"
        },
        {
          "internalType": "uint256",
          "name": "_zeroValue",
          "type": "uint256"
        }
      ],
      "name": "computeOneNonZeroLeafRoot",
      "outputs": [
        {
          "internalType": "uint256",
          "name": "",
          "type": "uint256"
        }
      ],
      "stateMutability": "pure",
      "type": "function"
    },
    {
      "inputs": [],
      "name": "currentEpoch",
      "outputs": [
        {
          "internalType": "uint256",
          "name": "",
          "type": "uint256"
        }
      ],
      "stateMutability": "view",
      "type": "function"
    },
    {
      "inputs": [],
      "name": "emptyGlobalStateTreeRoot",
      "outputs": [
        {
          "internalType": "uint256",
          "name": "",
          "type": "uint256"
        }
      ],
      "stateMutability": "view",
      "type": "function"
    },
    {
      "inputs": [],
      "name": "emptyUserStateRoot",
      "outputs": [
        {
          "internalType": "uint256",
          "name": "",
          "type": "uint256"
        }
      ],
      "stateMutability": "view",
      "type": "function"
    },
    {
      "inputs": [],
      "name": "epochLength",
      "outputs": [
        {
          "internalType": "uint256",
          "name": "",
          "type": "uint256"
        }
      ],
      "stateMutability": "view",
      "type": "function"
    },
    {
      "inputs": [
        {
          "internalType": "address",
          "name": "",
          "type": "address"
        }
      ],
      "name": "epochTransitionCompensation",
      "outputs": [
        {
          "internalType": "uint256",
          "name": "",
          "type": "uint256"
        }
      ],
      "stateMutability": "view",
      "type": "function"
    },
    {
      "inputs": [
        {
          "internalType": "bytes32",
          "name": "",
          "type": "bytes32"
        }
      ],
      "name": "getProofIndex",
      "outputs": [
        {
          "internalType": "uint256",
          "name": "",
          "type": "uint256"
        }
      ],
      "stateMutability": "view",
      "type": "function"
    },
    {
      "inputs": [
        {
          "internalType": "uint256",
          "name": "",
          "type": "uint256"
        }
      ],
      "name": "hasUserSignedUp",
      "outputs": [
        {
          "internalType": "bool",
          "name": "",
          "type": "bool"
        }
      ],
      "stateMutability": "view",
      "type": "function"
    },
    {
      "inputs": [
        {
          "internalType": "uint256[5]",
          "name": "array",
          "type": "uint256[5]"
        }
      ],
      "name": "hash5",
      "outputs": [
        {
          "internalType": "uint256",
          "name": "",
          "type": "uint256"
        }
      ],
      "stateMutability": "pure",
      "type": "function"
    },
    {
      "inputs": [
        {
          "internalType": "uint256",
          "name": "airdropPosRep",
          "type": "uint256"
        }
      ],
      "name": "hashAirdroppedLeaf",
      "outputs": [
        {
          "internalType": "uint256",
          "name": "",
          "type": "uint256"
        }
      ],
      "stateMutability": "pure",
      "type": "function"
    },
    {
      "inputs": [
        {
          "components": [
            {
              "internalType": "uint256",
              "name": "globalStateTree",
              "type": "uint256"
            },
            {
              "internalType": "uint256",
              "name": "epoch",
              "type": "uint256"
            },
            {
              "internalType": "uint256",
              "name": "epochKey",
              "type": "uint256"
            },
            {
              "internalType": "uint256[8]",
              "name": "proof",
              "type": "uint256[8]"
            }
          ],
          "internalType": "struct UnirepParameters.EpochKeyProofRelated",
          "name": "epochKeyProofData",
          "type": "tuple"
        }
      ],
      "name": "hashEpochKeyProof",
      "outputs": [
        {
          "internalType": "bytes32",
          "name": "",
          "type": "bytes32"
        }
      ],
      "stateMutability": "pure",
      "type": "function"
    },
    {
      "inputs": [
        {
          "internalType": "uint256",
          "name": "_left",
          "type": "uint256"
        },
        {
          "internalType": "uint256",
          "name": "_right",
          "type": "uint256"
        }
      ],
      "name": "hashLeftRight",
      "outputs": [
        {
          "internalType": "uint256",
          "name": "",
          "type": "uint256"
        }
      ],
      "stateMutability": "pure",
      "type": "function"
    },
    {
      "inputs": [
        {
          "internalType": "uint256",
          "name": "_outputBlindedUserState",
          "type": "uint256"
        },
        {
          "internalType": "uint256",
          "name": "_outputBlindedHashChain",
          "type": "uint256"
        },
        {
          "internalType": "uint256",
          "name": "_inputBlindedUserState",
          "type": "uint256"
        },
        {
          "internalType": "uint256[8]",
          "name": "_proof",
          "type": "uint256[8]"
        }
      ],
      "name": "hashProcessAttestationsProof",
      "outputs": [
        {
          "internalType": "bytes32",
          "name": "",
          "type": "bytes32"
        }
      ],
      "stateMutability": "pure",
      "type": "function"
    },
    {
      "inputs": [
        {
          "components": [
            {
              "internalType": "uint256[]",
              "name": "repNullifiers",
              "type": "uint256[]"
            },
            {
              "internalType": "uint256",
              "name": "epoch",
              "type": "uint256"
            },
            {
              "internalType": "uint256",
              "name": "epochKey",
              "type": "uint256"
            },
            {
              "internalType": "uint256",
              "name": "globalStateTree",
              "type": "uint256"
            },
            {
              "internalType": "uint256",
              "name": "attesterId",
              "type": "uint256"
            },
            {
              "internalType": "uint256",
              "name": "proveReputationAmount",
              "type": "uint256"
            },
            {
              "internalType": "uint256",
              "name": "minRep",
              "type": "uint256"
            },
            {
              "internalType": "uint256",
              "name": "proveGraffiti",
              "type": "uint256"
            },
            {
              "internalType": "uint256",
              "name": "graffitiPreImage",
              "type": "uint256"
            },
            {
              "internalType": "uint256[8]",
              "name": "proof",
              "type": "uint256[8]"
            }
          ],
          "internalType": "struct UnirepParameters.ReputationProofRelated",
          "name": "reputationProofData",
          "type": "tuple"
        }
      ],
      "name": "hashReputationProof",
      "outputs": [
        {
          "internalType": "bytes32",
          "name": "",
          "type": "bytes32"
        }
      ],
      "stateMutability": "pure",
      "type": "function"
    },
    {
      "inputs": [
        {
          "components": [
            {
              "internalType": "uint256",
              "name": "epoch",
              "type": "uint256"
            },
            {
              "internalType": "uint256",
              "name": "epochKey",
              "type": "uint256"
            },
            {
              "internalType": "uint256",
              "name": "globalStateTree",
              "type": "uint256"
            },
            {
              "internalType": "uint256",
              "name": "attesterId",
              "type": "uint256"
            },
            {
              "internalType": "uint256[8]",
              "name": "proof",
              "type": "uint256[8]"
            }
          ],
          "internalType": "struct UnirepParameters.SignUpProofRelated",
          "name": "signUpProofData",
          "type": "tuple"
        }
      ],
      "name": "hashSignUpProof",
      "outputs": [
        {
          "internalType": "bytes32",
          "name": "",
          "type": "bytes32"
        }
      ],
      "stateMutability": "pure",
      "type": "function"
    },
    {
      "inputs": [
        {
          "internalType": "uint256",
          "name": "_blindedUserState",
          "type": "uint256"
        },
        {
          "internalType": "uint256",
          "name": "_blindedHashChain",
          "type": "uint256"
        },
        {
          "internalType": "uint256",
          "name": "_globalStateTree",
          "type": "uint256"
        },
        {
          "internalType": "uint256[8]",
          "name": "_proof",
          "type": "uint256[8]"
        }
      ],
      "name": "hashStartTransitionProof",
      "outputs": [
        {
          "internalType": "bytes32",
          "name": "",
          "type": "bytes32"
        }
      ],
      "stateMutability": "pure",
      "type": "function"
    },
    {
      "inputs": [
        {
          "components": [
            {
              "internalType": "uint256",
              "name": "identityCommitment",
              "type": "uint256"
            },
            {
              "internalType": "uint256",
              "name": "userStateRoot",
              "type": "uint256"
            }
          ],
          "internalType": "struct DomainObjs.StateLeaf",
          "name": "_stateLeaf",
          "type": "tuple"
        }
      ],
      "name": "hashStateLeaf",
      "outputs": [
        {
          "internalType": "uint256",
          "name": "",
          "type": "uint256"
        }
      ],
      "stateMutability": "pure",
      "type": "function"
    },
    {
      "inputs": [
        {
          "components": [
            {
              "internalType": "uint256",
              "name": "newGlobalStateTreeLeaf",
              "type": "uint256"
            },
            {
              "internalType": "uint256[]",
              "name": "epkNullifiers",
              "type": "uint256[]"
            },
            {
              "internalType": "uint256",
              "name": "transitionFromEpoch",
              "type": "uint256"
            },
            {
              "internalType": "uint256[]",
              "name": "blindedUserStates",
              "type": "uint256[]"
            },
            {
              "internalType": "uint256",
              "name": "fromGlobalStateTree",
              "type": "uint256"
            },
            {
              "internalType": "uint256[]",
              "name": "blindedHashChains",
              "type": "uint256[]"
            },
            {
              "internalType": "uint256",
              "name": "fromEpochTree",
              "type": "uint256"
            },
            {
              "internalType": "uint256[8]",
              "name": "proof",
              "type": "uint256[8]"
            }
          ],
          "internalType": "struct UnirepParameters.UserTransitionedRelated",
          "name": "userTransitionedData",
          "type": "tuple"
        }
      ],
      "name": "hashUserStateTransitionProof",
      "outputs": [
        {
          "internalType": "bytes32",
          "name": "",
          "type": "bytes32"
        }
      ],
      "stateMutability": "pure",
      "type": "function"
    },
    {
      "inputs": [],
      "name": "hashedBlankStateLeaf",
      "outputs": [
        {
          "internalType": "uint256",
          "name": "",
          "type": "uint256"
        }
      ],
      "stateMutability": "view",
      "type": "function"
    },
    {
      "inputs": [],
      "name": "latestEpochTransitionTime",
      "outputs": [
        {
          "internalType": "uint256",
          "name": "",
          "type": "uint256"
        }
      ],
      "stateMutability": "view",
      "type": "function"
    },
    {
      "inputs": [],
      "name": "maxAttesters",
      "outputs": [
        {
          "internalType": "uint256",
          "name": "",
          "type": "uint256"
        }
      ],
      "stateMutability": "view",
      "type": "function"
    },
    {
      "inputs": [],
      "name": "maxReputationBudget",
      "outputs": [
        {
          "internalType": "uint8",
          "name": "",
          "type": "uint8"
        }
      ],
      "stateMutability": "view",
      "type": "function"
    },
    {
      "inputs": [],
      "name": "maxUsers",
      "outputs": [
        {
          "internalType": "uint256",
          "name": "",
          "type": "uint256"
        }
      ],
      "stateMutability": "view",
      "type": "function"
    },
    {
      "inputs": [],
      "name": "nextAttesterId",
      "outputs": [
        {
          "internalType": "uint256",
          "name": "",
          "type": "uint256"
        }
      ],
      "stateMutability": "view",
      "type": "function"
    },
    {
      "inputs": [],
      "name": "numEpochKeyNoncePerEpoch",
      "outputs": [
        {
          "internalType": "uint8",
          "name": "",
          "type": "uint8"
        }
      ],
      "stateMutability": "view",
      "type": "function"
    },
    {
      "inputs": [],
      "name": "numUserSignUps",
      "outputs": [
        {
          "internalType": "uint256",
          "name": "",
          "type": "uint256"
        }
      ],
      "stateMutability": "view",
      "type": "function"
    },
    {
      "inputs": [
        {
          "internalType": "uint256",
          "name": "_outputBlindedUserState",
          "type": "uint256"
        },
        {
          "internalType": "uint256",
          "name": "_outputBlindedHashChain",
          "type": "uint256"
        },
        {
          "internalType": "uint256",
          "name": "_inputBlindedUserState",
          "type": "uint256"
        },
        {
          "internalType": "uint256[8]",
          "name": "_proof",
          "type": "uint256[8]"
        }
      ],
      "name": "processAttestations",
      "outputs": [],
      "stateMutability": "nonpayable",
      "type": "function"
    },
    {
      "inputs": [
        {
          "internalType": "uint256",
          "name": "_airdropAmount",
          "type": "uint256"
        }
      ],
      "name": "setAirdropAmount",
      "outputs": [],
      "stateMutability": "nonpayable",
      "type": "function"
    },
    {
      "inputs": [
        {
          "components": [
            {
              "internalType": "uint256[]",
              "name": "repNullifiers",
              "type": "uint256[]"
            },
            {
              "internalType": "uint256",
              "name": "epoch",
              "type": "uint256"
            },
            {
              "internalType": "uint256",
              "name": "epochKey",
              "type": "uint256"
            },
            {
              "internalType": "uint256",
              "name": "globalStateTree",
              "type": "uint256"
            },
            {
              "internalType": "uint256",
              "name": "attesterId",
              "type": "uint256"
            },
            {
              "internalType": "uint256",
              "name": "proveReputationAmount",
              "type": "uint256"
            },
            {
              "internalType": "uint256",
              "name": "minRep",
              "type": "uint256"
            },
            {
              "internalType": "uint256",
              "name": "proveGraffiti",
              "type": "uint256"
            },
            {
              "internalType": "uint256",
              "name": "graffitiPreImage",
              "type": "uint256"
            },
            {
              "internalType": "uint256[8]",
              "name": "proof",
              "type": "uint256[8]"
            }
          ],
          "internalType": "struct UnirepParameters.ReputationProofRelated",
          "name": "reputationProofData",
          "type": "tuple"
        }
      ],
      "name": "spendReputation",
      "outputs": [],
      "stateMutability": "payable",
      "type": "function"
    },
    {
      "inputs": [
        {
          "internalType": "uint256",
          "name": "_blindedUserState",
          "type": "uint256"
        },
        {
          "internalType": "uint256",
          "name": "_blindedHashChain",
          "type": "uint256"
        },
        {
          "internalType": "uint256",
          "name": "_globalStateTree",
          "type": "uint256"
        },
        {
          "internalType": "uint256[8]",
          "name": "_proof",
          "type": "uint256[8]"
        }
      ],
      "name": "startUserStateTransition",
      "outputs": [],
      "stateMutability": "nonpayable",
      "type": "function"
    },
    {
      "inputs": [
        {
          "components": [
            {
              "internalType": "uint256",
              "name": "attesterId",
              "type": "uint256"
            },
            {
              "internalType": "uint256",
              "name": "posRep",
              "type": "uint256"
            },
            {
              "internalType": "uint256",
              "name": "negRep",
              "type": "uint256"
            },
            {
              "internalType": "uint256",
              "name": "graffiti",
              "type": "uint256"
            },
            {
              "internalType": "uint256",
              "name": "signUp",
              "type": "uint256"
            }
          ],
          "internalType": "struct DomainObjs.Attestation",
          "name": "attestation",
          "type": "tuple"
        },
        {
          "internalType": "uint256",
          "name": "epochKey",
          "type": "uint256"
        },
        {
          "internalType": "uint256",
          "name": "_proofIndex",
          "type": "uint256"
        }
      ],
      "name": "submitAttestation",
      "outputs": [],
      "stateMutability": "payable",
      "type": "function"
    },
    {
      "inputs": [
        {
          "internalType": "address",
          "name": "attester",
          "type": "address"
        },
        {
          "internalType": "bytes",
          "name": "signature",
          "type": "bytes"
        },
        {
          "components": [
            {
              "internalType": "uint256",
              "name": "attesterId",
              "type": "uint256"
            },
            {
              "internalType": "uint256",
              "name": "posRep",
              "type": "uint256"
            },
            {
              "internalType": "uint256",
              "name": "negRep",
              "type": "uint256"
            },
            {
              "internalType": "uint256",
              "name": "graffiti",
              "type": "uint256"
            },
            {
              "internalType": "uint256",
              "name": "signUp",
              "type": "uint256"
            }
          ],
          "internalType": "struct DomainObjs.Attestation",
          "name": "attestation",
          "type": "tuple"
        },
        {
          "internalType": "uint256",
          "name": "epochKey",
          "type": "uint256"
        },
        {
          "internalType": "uint256",
          "name": "_proofIndex",
          "type": "uint256"
        }
      ],
      "name": "submitAttestationViaRelayer",
      "outputs": [],
      "stateMutability": "payable",
      "type": "function"
    },
    {
      "inputs": [
        {
          "components": [
            {
              "internalType": "uint256",
              "name": "globalStateTree",
              "type": "uint256"
            },
            {
              "internalType": "uint256",
              "name": "epoch",
              "type": "uint256"
            },
            {
              "internalType": "uint256",
              "name": "epochKey",
              "type": "uint256"
            },
            {
              "internalType": "uint256[8]",
              "name": "proof",
              "type": "uint256[8]"
            }
          ],
          "internalType": "struct UnirepParameters.EpochKeyProofRelated",
          "name": "epochKeyProofData",
          "type": "tuple"
        }
      ],
      "name": "submitEpochKeyProof",
      "outputs": [],
      "stateMutability": "nonpayable",
      "type": "function"
    },
    {
      "inputs": [],
      "name": "treeDepths",
      "outputs": [
        {
          "internalType": "uint8",
          "name": "globalStateTreeDepth",
          "type": "uint8"
        },
        {
          "internalType": "uint8",
          "name": "userStateTreeDepth",
          "type": "uint8"
        },
        {
          "internalType": "uint8",
          "name": "epochTreeDepth",
          "type": "uint8"
        }
      ],
      "stateMutability": "view",
      "type": "function"
    },
    {
      "inputs": [
        {
          "internalType": "uint256[8]",
          "name": "_proof",
          "type": "uint256[8]"
        }
      ],
      "name": "unpackProof",
      "outputs": [
        {
          "internalType": "uint256[2]",
          "name": "",
          "type": "uint256[2]"
        },
        {
          "internalType": "uint256[2][2]",
          "name": "",
          "type": "uint256[2][2]"
        },
        {
          "internalType": "uint256[2]",
          "name": "",
          "type": "uint256[2]"
        }
      ],
      "stateMutability": "pure",
      "type": "function"
    },
    {
      "inputs": [
        {
          "components": [
            {
              "internalType": "uint256",
              "name": "newGlobalStateTreeLeaf",
              "type": "uint256"
            },
            {
              "internalType": "uint256[]",
              "name": "epkNullifiers",
              "type": "uint256[]"
            },
            {
              "internalType": "uint256",
              "name": "transitionFromEpoch",
              "type": "uint256"
            },
            {
              "internalType": "uint256[]",
              "name": "blindedUserStates",
              "type": "uint256[]"
            },
            {
              "internalType": "uint256",
              "name": "fromGlobalStateTree",
              "type": "uint256"
            },
            {
              "internalType": "uint256[]",
              "name": "blindedHashChains",
              "type": "uint256[]"
            },
            {
              "internalType": "uint256",
              "name": "fromEpochTree",
              "type": "uint256"
            },
            {
              "internalType": "uint256[8]",
              "name": "proof",
              "type": "uint256[8]"
            }
          ],
          "internalType": "struct UnirepParameters.UserTransitionedRelated",
          "name": "userTransitionedData",
          "type": "tuple"
        },
        {
          "internalType": "uint256[]",
          "name": "proofIndexRecords",
          "type": "uint256[]"
        }
      ],
      "name": "updateUserStateRoot",
      "outputs": [],
      "stateMutability": "nonpayable",
      "type": "function"
    },
    {
      "inputs": [
        {
          "internalType": "uint256",
          "name": "_identityCommitment",
          "type": "uint256"
        }
      ],
      "name": "userSignUp",
      "outputs": [],
      "stateMutability": "nonpayable",
      "type": "function"
    },
    {
      "inputs": [
        {
          "internalType": "uint256",
          "name": "_globalStateTree",
          "type": "uint256"
        },
        {
          "internalType": "uint256",
          "name": "_epoch",
          "type": "uint256"
        },
        {
          "internalType": "uint256",
          "name": "_epochKey",
          "type": "uint256"
        },
        {
          "internalType": "uint256[8]",
          "name": "_proof",
          "type": "uint256[8]"
        }
      ],
      "name": "verifyEpochKeyValidity",
      "outputs": [
        {
          "internalType": "bool",
          "name": "",
          "type": "bool"
        }
      ],
      "stateMutability": "view",
      "type": "function"
    },
    {
      "inputs": [
        {
          "internalType": "uint256",
          "name": "_outputBlindedUserState",
          "type": "uint256"
        },
        {
          "internalType": "uint256",
          "name": "_outputBlindedHashChain",
          "type": "uint256"
        },
        {
          "internalType": "uint256",
          "name": "_inputBlindedUserState",
          "type": "uint256"
        },
        {
          "internalType": "uint256[8]",
          "name": "_proof",
          "type": "uint256[8]"
        }
      ],
      "name": "verifyProcessAttestationProof",
      "outputs": [
        {
          "internalType": "bool",
          "name": "",
          "type": "bool"
        }
      ],
      "stateMutability": "view",
      "type": "function"
    },
    {
      "inputs": [
        {
          "internalType": "uint256[]",
          "name": "_repNullifiers",
          "type": "uint256[]"
        },
        {
          "internalType": "uint256",
          "name": "_epoch",
          "type": "uint256"
        },
        {
          "internalType": "uint256",
          "name": "_epochKey",
          "type": "uint256"
        },
        {
          "internalType": "uint256",
          "name": "_globalStateTree",
          "type": "uint256"
        },
        {
          "internalType": "uint256",
          "name": "_attesterId",
          "type": "uint256"
        },
        {
          "internalType": "uint256",
          "name": "_proveReputationAmount",
          "type": "uint256"
        },
        {
          "internalType": "uint256",
          "name": "_minRep",
          "type": "uint256"
        },
        {
          "internalType": "uint256",
          "name": "_proveGraffiti",
          "type": "uint256"
        },
        {
          "internalType": "uint256",
          "name": "_graffitiPreImage",
          "type": "uint256"
        },
        {
          "internalType": "uint256[8]",
          "name": "_proof",
          "type": "uint256[8]"
        }
      ],
      "name": "verifyReputation",
      "outputs": [
        {
          "internalType": "bool",
          "name": "",
          "type": "bool"
        }
      ],
      "stateMutability": "view",
      "type": "function"
    },
    {
      "inputs": [
        {
          "internalType": "uint256",
          "name": "_blindedUserState",
          "type": "uint256"
        },
        {
          "internalType": "uint256",
          "name": "_blindedHashChain",
          "type": "uint256"
        },
        {
          "internalType": "uint256",
          "name": "_GSTRoot",
          "type": "uint256"
        },
        {
          "internalType": "uint256[8]",
          "name": "_proof",
          "type": "uint256[8]"
        }
      ],
      "name": "verifyStartTransitionProof",
      "outputs": [
        {
          "internalType": "bool",
          "name": "",
          "type": "bool"
        }
      ],
      "stateMutability": "view",
      "type": "function"
    },
    {
      "inputs": [
        {
          "internalType": "uint256",
          "name": "_epoch",
          "type": "uint256"
        },
        {
          "internalType": "uint256",
          "name": "_epochKey",
          "type": "uint256"
        },
        {
          "internalType": "uint256",
          "name": "_globalStateTree",
          "type": "uint256"
        },
        {
          "internalType": "uint256",
          "name": "_attesterId",
          "type": "uint256"
        },
        {
          "internalType": "uint256[8]",
          "name": "_proof",
          "type": "uint256[8]"
        }
      ],
      "name": "verifyUserSignUp",
      "outputs": [
        {
          "internalType": "bool",
          "name": "",
          "type": "bool"
        }
      ],
      "stateMutability": "view",
      "type": "function"
    },
    {
      "inputs": [
        {
          "internalType": "uint256",
          "name": "_newGlobalStateTreeLeaf",
          "type": "uint256"
        },
        {
          "internalType": "uint256[]",
          "name": "_epkNullifiers",
          "type": "uint256[]"
        },
        {
          "internalType": "uint256",
          "name": "_transitionFromEpoch",
          "type": "uint256"
        },
        {
          "internalType": "uint256[]",
          "name": "_blindedUserStates",
          "type": "uint256[]"
        },
        {
          "internalType": "uint256",
          "name": "_fromGlobalStateTree",
          "type": "uint256"
        },
        {
          "internalType": "uint256[]",
          "name": "_blindedHashChains",
          "type": "uint256[]"
        },
        {
          "internalType": "uint256",
          "name": "_fromEpochTree",
          "type": "uint256"
        },
        {
          "internalType": "uint256[8]",
          "name": "_proof",
          "type": "uint256[8]"
        }
      ],
      "name": "verifyUserStateTransition",
      "outputs": [
        {
          "internalType": "bool",
          "name": "",
          "type": "bool"
        }
      ],
      "stateMutability": "view",
      "type": "function"
    }
  ],
  "bytecode": "0x6101606040527f30644e72e131a029b85045b68181585d2833e84879b9709143e1f593f00000016200003361018062000762565b6040516020818303038152906040528051906020012060001c62000058919062000a56565b60005560016007556000600a556001600b5560016011553480156200007c57600080fd5b5060405162005e1938038062005e198339810160408190526200009f916200061f565b8b601360008201518160000160006101000a81548160ff021916908360ff16021790555060208201518160000160016101000a81548160ff021916908360ff16021790555060408201518160000160026101000a81548160ff021916908360ff16021790555090505089600160006101000a8154816001600160a01b0302191690836001600160a01b0316021790555088600260006101000a8154816001600160a01b0302191690836001600160a01b0316021790555087600360006101000a8154816001600160a01b0302191690836001600160a01b0316021790555086600460006101000a8154816001600160a01b0302191690836001600160a01b0316021790555085600560006101000a8154816001600160a01b0302191690836001600160a01b0316021790555084600660006101000a8154816001600160a01b0302191690836001600160a01b031602179055508360ff1660c08160ff1660f81b815250508260ff1660e08160ff1660f81b81525050816080818152505042600881905550600060018d6000015160026200023a919062000921565b62000246919062000a19565b9050808c600001511115620002785760405162461bcd60e51b81526004016200026f9062000823565b60405180910390fd5b8b516101005260208d01516000906001906200029690600262000921565b620002a2919062000a19565b9050808d602001511115620002cb5760405162461bcd60e51b81526004016200026f906200085a565b6020808e0151610120528e0151620002e3906200030e565b6009558d51620002f39062000390565b60a0525050610140525062000a8d9950505050505050505050565b60006200031a62000585565b60005b60058160ff1610156200036a576000828260ff16600581106200035057634e487b7160e01b600052603260045260246000fd5b602002015280620003618162000a33565b9150506200031d565b5060006200037882620003b4565b90506200038684826200044a565b925050505b919050565b604080518082019091526000808252600954602083015290816200037882620004d2565b604051630926f44b60e31b815260009073__$61800e922196a95eb70dc1bd65191ef757$__90634937a25890620003f0908590600401620007a7565b60206040518083038186803b1580156200040957600080fd5b505af41580156200041e573d6000803e3d6000fd5b505050506040513d601f19601f8201168201806040525081019062000444919062000749565b92915050565b6000808360ff161180156200046457506101008360ff1611155b620004835760405162461bcd60e51b81526004016200026f90620007d1565b8160015b8460ff168160ff161015620004bd576000620004a48380620004e2565b9250819050620004b48162000a33565b91505062000487565b50620004ca8180620004e2565b949350505050565b8051602082015160009162000444915b6000620004ee620005a3565b838152602081018390526040516314d2f97b60e11b815273__$0098a6e9267037f9f6df61985348dda7d9$__906329a5f2f6906200053190849060040162000774565b60206040518083038186803b1580156200054a57600080fd5b505af41580156200055f573d6000803e3d6000fd5b505050506040513d601f19601f82011682018060405250810190620004ca919062000749565b6040518060a001604052806005906020820280368337509192915050565b60405180604001604052806002906020820280368337509192915050565b80516001600160a01b03811681146200038b57600080fd5b600060408284031215620005eb578081fd5b620005f760406200089c565b9050815181526020820151602082015292915050565b805160ff811681146200038b57600080fd5b6000806000806000806000806000806000808c8e036101e081121562000643578889fd5b606081121562000651578889fd5b506200065e60606200089c565b620006698e6200060d565b81526200067960208f016200060d565b60208201526200068c60408f016200060d565b60408201529b50620006a28e60608f01620005d9565b9a50620006b260a08e01620005c1565b9950620006c260c08e01620005c1565b9850620006d260e08e01620005c1565b9750620006e36101008e01620005c1565b9650620006f46101208e01620005c1565b9550620007056101408e01620005c1565b9450620007166101608e016200060d565b9350620007276101808e016200060d565b92506101a08d015191506101c08d015190509295989b509295989b509295989b565b6000602082840312156200075b578081fd5b5051919050565b650556e697265760d41b815260060190565b60408101818360005b60028110156200079e5781518352602092830192909101906001016200077d565b50505092915050565b60a08101818360005b60058110156200079e578151835260209283019290910190600101620007b0565b60208082526032908201527f436f6d70757465526f6f743a205f747265654c6576656c73206d757374206265604082015271103132ba3bb2b2b710181030b73210191a9b60711b606082015260800190565b6020808252601e908201527f556e697265703a20696e76616c6964206d617855736572732076616c75650000604082015260600190565b60208082526022908201527f556e697265703a20696e76616c6964206d61784174746573746572732076616c604082015261756560f01b606082015260800190565b6040518181016001600160401b0381118282101715620008cc57634e487b7160e01b600052604160045260246000fd5b604052919050565b80825b6001808611620008e8575062000918565b818704821115620008fd57620008fd62000a77565b808616156200090b57918102915b9490941c938002620008d7565b94509492505050565b60006200093560001960ff8516846200093c565b9392505050565b6000826200094d5750600162000935565b816200095c5750600062000935565b81600181146200097557600281146200098057620009b4565b600191505062000935565b60ff84111562000994576200099462000a77565b6001841b915084821115620009ad57620009ad62000a77565b5062000935565b5060208310610133831016604e8410600b8410161715620009ec575081810a83811115620009e657620009e662000a77565b62000935565b620009fb8484846001620008d4565b80860482111562000a105762000a1062000a77565b02949350505050565b60008282101562000a2e5762000a2e62000a77565b500390565b600060ff821660ff81141562000a4d5762000a4d62000a77565b60010192915050565b60008262000a7257634e487b7160e01b81526012600452602481fd5b500690565b634e487b7160e01b600052601160045260246000fd5b60805160a05160c05160f81c60e05160f81c61010051610120516101405161526062000bb960003960008181610a3701528181610c0e01528181611d0e01528181611f8401526120c20152600081816119420152818161218c0152612ec70152600081816112ce0152612813015260008181610d5f01528181610dfa01528181610e4c01528181610ea501528181610efe01528181610f5701528181610fb0015281816110090152818161106201528181611d5201526126d401526000818161172e0152818161179a0152818161255f0152818161285c01528181612914015281816129be01528181612a3c01528181612abf01528181612b1d01528181612b7501528181612bcf0152612c4a015260006123570152600081816119ac015261271501526152606000f3fe60806040526004361061034f5760003560e01c80639109d1eb116101c6578063b530dc8c116100f7578063e79e23e911610095578063f5ab0dd61161006f578063f5ab0dd6146108fb578063f73c8ebb1461092a578063fadd942d1461094a578063fc14478a1461095f5761034f565b8063e79e23e9146108a6578063e87101b1146108c6578063f20ca7ff146108db5761034f565b8063c6e01232116100d1578063c6e0123214610847578063d3aa645b1461085c578063de7238861461087c578063e1b0e802146108915761034f565b8063b530dc8c146107f2578063b876ed7114610812578063c2639673146108325761034f565b8063a3836b2011610164578063a7c264ca1161013e578063a7c264ca14610777578063a7ebaa7514610799578063ac98e5df146107ae578063ad944e47146107d25761034f565b8063a3836b2014610722578063a5500c3014610737578063a710d60f146107575761034f565b80639cfced97116101a05780639cfced97146106ad5780639e2e79dc146106cd578063a14a9fe2146106ed578063a27e572a1461070d5761034f565b80639109d1eb14610663578063918f0c161461067857806398588c1f1461068d5761034f565b8063494e2171116102a057806366c0f31f1161023e57806376671808116102185780637667180814610606578063839beeb81461061b57806383e168ad1461063057806385c053ae146106505761034f565b806366c0f31f146105b1578063705edd39146105d15780637341ead9146105e65761034f565b806357d775f81161027a57806357d775f8146105495780635b3745b51461055e5780635bb939951461057e578063606736fb1461059e5761034f565b8063494e2171146104f45780634edc9ace1461051457806356df4634146105345761034f565b80632b95f97e1161030d5780633acce985116102e75780633acce98514610474578063417b16e31461049457806343193437146104b4578063436b32d8146104d45761034f565b80632b95f97e146104215780632c6eb17f146104415780633334dc5b146104545761034f565b806292ad661461035457806305d9ab821461036957806307d833081461039f578063131a91ad146103b4578063132331f2146103d45780631c89e8e8146103f4575b600080fd5b6103676103623660046139be565b61097f565b005b34801561037557600080fd5b50610389610384366004613c41565b610ac7565b6040516103969190614430565b60405180910390f35b3480156103ab57600080fd5b50610389610b0e565b3480156103c057600080fd5b506103896103cf366004613954565b610b14565b3480156103e057600080fd5b506103896103ef366004613b88565b610b26565b34801561040057600080fd5b5061041461040f366004613b88565b610b38565b6040516103969190614425565b34801561042d57600080fd5b5061038961043c366004613b88565b610b4d565b61036761044f366004613d81565b610b74565b34801561046057600080fd5b5061041461046f366004613ac7565b610d32565b34801561048057600080fd5b5061038961048f366004613fab565b611217565b3480156104a057600080fd5b506103676104af366004613b88565b61129d565b3480156104c057600080fd5b506103896104cf366004613d81565b611468565b3480156104e057600080fd5b506104146104ef366004614041565b611493565b34801561050057600080fd5b5061036761050f366004613e74565b6116cd565b34801561052057600080fd5b5061038961052f36600461408b565b61189f565b34801561054057600080fd5b50610367611913565b34801561055557600080fd5b506103896119aa565b34801561056a57600080fd5b50610414610579366004613fcc565b6119ce565b34801561058a57600080fd5b50610389610599366004613fab565b611bd9565b6103676105ac366004613cab565b611c74565b3480156105bd57600080fd5b506103676105cc366004613c41565b611e72565b3480156105dd57600080fd5b50610389611f41565b3480156105f257600080fd5b50610389610601366004613df5565b611f68565b34801561061257600080fd5b50610389611f7c565b34801561062757600080fd5b50610389611f82565b34801561063c57600080fd5b5061038961064b3660046140b4565b611fa6565b61036761065e366004613ba0565b612065565b34801561066f57600080fd5b50610389612148565b34801561068457600080fd5b5061038961214e565b34801561069957600080fd5b506103676106a836600461396e565b612154565b3480156106b957600080fd5b506103896106c8366004613a35565b612236565b3480156106d957600080fd5b506103896106e836600461400c565b6122c0565b3480156106f957600080fd5b50610389610708366004613e42565b6122f9565b34801561071957600080fd5b50610367612333565b34801561072e57600080fd5b50610389612355565b34801561074357600080fd5b50610367610752366004613b88565b612379565b34801561076357600080fd5b50610414610772366004613fcc565b6123b7565b34801561078357600080fd5b5061078c61255d565b6040516103969190615055565b3480156107a557600080fd5b50610367612581565b3480156107ba57600080fd5b506107c3612596565b60405161039693929190615063565b3480156107de57600080fd5b506103896107ed366004613cab565b6125b2565b3480156107fe57600080fd5b5061038961080d366004613954565b6125f8565b34801561081e57600080fd5b5061036761082d366004613fcc565b61260a565b34801561083e57600080fd5b5061078c6126d2565b34801561085357600080fd5b506103896126f6565b34801561086857600080fd5b50610389610877366004613954565b6126fc565b34801561088857600080fd5b5061036761270e565b34801561089d57600080fd5b50610389612811565b3480156108b257600080fd5b506103896108c1366004613fcc565b612835565b3480156108d257600080fd5b5061038961284e565b3480156108e757600080fd5b506104146108f6366004613eec565b612854565b34801561090757600080fd5b5061091b610916366004613aab565b612d9c565b6040516103969392919061438d565b34801561093657600080fd5b50610367610945366004613fcc565b612e25565b34801561095657600080fd5b50610389612ec5565b34801561096b57600080fd5b5061041461097a366004613fcc565b612ee9565b6109bf8686868080601f01602080910402602001604051908101604052809392919081815260200183838082843760009201919091525061308f92505050565b6001600160a01b0386166000908152601060205260409020546109fd5760405162461bcd60e51b81526004016109f490614685565b60405180910390fd5b6001600160a01b038616600090815260106020526040902054833514610a355760405162461bcd60e51b81526004016109f490614c8b565b7f00000000000000000000000000000000000000000000000000000000000000003414610a745760405162461bcd60e51b81526004016109f490614754565b600b548110610a955760405162461bcd60e51b81526004016109f490614be4565b600e54610aa2903461311c565b600e55610abf86610ab836869003860186613bd3565b848461312f565b505050505050565b60008160000151826020015183604001518460600151604051602001610af094939291906142ff565b6040516020818303038152906040528051906020012090505b919050565b600e5481565b60106020526000908152604090205481565b600c6020526000908152604090205481565b600d6020526000908152604090205460ff1681565b6000610b576135ea565b828152600160608201819052610b6c82612236565b949350505050565b6000610b7f82611468565b6000818152600c602052604090205490915015610bae5760405162461bcd60e51b81526004016109f4906144d4565b33600090815260106020526040902054610bda5760405162461bcd60e51b81526004016109f490614685565b60608201513360009081526010602052604090205414610c0c5760405162461bcd60e51b81526004016109f490614c8b565b7f00000000000000000000000000000000000000000000000000000000000000003414610c4b5760405162461bcd60e51b81526004016109f490614754565b600754825114610c6d5760405162461bcd60e51b81526004016109f49061459a565b600e54610c7a903461311c565b600e55610c85613608565b3360008181526010602090815260408083205485529282526012815290829020548382015260016080840152600b549085015160075492519192909183907f5f26e605daad5b18d4eda34ec286075f09d71741dd2d0edfe54bd3a13501b0c490610cf0908990614eff565b60405180910390a4610d08338386602001518461312f565b6000838152600c60205260408120829055600b805491610d2783615159565b919050555050505050565b6040805160128082526102608201909252600091829190602082016102408036833701905050905060005b7f000000000000000000000000000000000000000000000000000000000000000060ff168160ff161015610df5578d8d8260ff16818110610dae57634e487b7160e01b600052603260045260246000fd5b90506020020135828260ff1681518110610dd857634e487b7160e01b600052603260045260246000fd5b602090810291909101015280610ded81615174565b915050610d5d565b508a817f000000000000000000000000000000000000000000000000000000000000000060ff1681518110610e3a57634e487b7160e01b600052603260045260246000fd5b60209081029190910101528981610e727f000000000000000000000000000000000000000000000000000000000000000060016150c1565b60ff1681518110610e9357634e487b7160e01b600052603260045260246000fd5b60209081029190910101528881610ecb7f000000000000000000000000000000000000000000000000000000000000000060026150c1565b60ff1681518110610eec57634e487b7160e01b600052603260045260246000fd5b60209081029190910101528781610f247f000000000000000000000000000000000000000000000000000000000000000060036150c1565b60ff1681518110610f4557634e487b7160e01b600052603260045260246000fd5b60209081029190910101528681610f7d7f000000000000000000000000000000000000000000000000000000000000000060046150c1565b60ff1681518110610f9e57634e487b7160e01b600052603260045260246000fd5b60209081029190910101528581610fd67f000000000000000000000000000000000000000000000000000000000000000060056150c1565b60ff1681518110610ff757634e487b7160e01b600052603260045260246000fd5b6020908102919091010152848161102f7f000000000000000000000000000000000000000000000000000000000000000060066150c1565b60ff168151811061105057634e487b7160e01b600052603260045260246000fd5b602090810291909101015283816110887f000000000000000000000000000000000000000000000000000000000000000060076150c1565b60ff16815181106110a957634e487b7160e01b600052603260045260246000fd5b60200260200101818152505060005b81518160ff16101561112d576000805160206151eb833981519152828260ff16815181106110f657634e487b7160e01b600052603260045260246000fd5b60200260200101511061111b5760405162461bcd60e51b81526004016109f490614cc2565b8061112581615174565b9150506110b8565b50611136613637565b604080516101008181019092526111659186906008908390839080828437600092019190915250612d9c915050565b60408085018290526020850183905283855260055490516361971b8760e11b81526001600160a01b039091169363c32e370e936111ab93919290919088906004016143b6565b60206040518083038186803b1580156111c357600080fd5b505afa1580156111d7573d6000803e3d6000fd5b505050506040513d601f19601f820116820180604052508101906111fb9190613b68565b151560609091018190529150509b9a5050505050505050505050565b60006112216135ea565b60005b60058160ff16101561126c576000828260ff166005811061125557634e487b7160e01b600052603260045260246000fd5b60200201528061126481615174565b915050611224565b50600061127882612236565b60135490915061129290610100900460ff16868684611fa6565b925050505b92915050565b6000818152600d602052604090205460ff16156112cc5760405162461bcd60e51b81526004016109f490614b50565b7f0000000000000000000000000000000000000000000000000000000000000000600a541061130d5760405162461bcd60e51b81526004016109f490614b96565b60095433600090815260106020908152604080832054601290925290912054811580159061133b5750600081115b1561135b57600061134b82610b4d565b90506113578382611217565b9350505b6040805180820190915284815260208101849052600061137a82611f68565b6000878152600d60205260408120805460ff19166001179055600a8054929350906113a483615159565b919050555060075460008051602061520b8339815191526040516113c7906148f0565b60405180910390a2600b547fbdcb306569af4b00571f0633c2439c458084e1beac220a28ea9678a2f01ca1e28786866040516114059392919061503f565b60405180910390a26007547f9d6db97120dc5c5f0a16903f507cbe1b12cb72d2c8d70511a607e36c407f357082600b5460405161144392919061500d565b60405180910390a2600b805490600061145b83615159565b9190505550505050505050565b8051602080830151604080850151606086015160808701519251600096610af096909594910161432a565b60408051600480825260a082019092526000918291906020820160808036833701905050905086816000815181106114db57634e487b7160e01b600052603260045260246000fd5b602002602001018181525050858160018151811061150957634e487b7160e01b600052603260045260246000fd5b602002602001018181525050848160028151811061153757634e487b7160e01b600052603260045260246000fd5b602002602001018181525050838160038151811061156557634e487b7160e01b600052603260045260246000fd5b60200260200101818152505060005b81518160ff1610156115e9576000805160206151eb833981519152828260ff16815181106115b257634e487b7160e01b600052603260045260246000fd5b6020026020010151106115d75760405162461bcd60e51b81526004016109f490614cc2565b806115e181615174565b915050611574565b506115f2613637565b604080516101008181019092526116219186906008908390839080828437600092019190915250612d9c915050565b60408085018290526020850183905283855260065490516361971b8760e11b81526001600160a01b039091169363c32e370e9361166793919290919088906004016143b6565b60206040518083038186803b15801561167f57600080fd5b505afa158015611693573d6000803e3d6000fd5b505050506040513d601f19601f820116820180604052508101906116b79190613b68565b1515606090910181905291505095945050505050565b60006116d8836122f9565b6000818152600c6020526040902054909150156117075760405162461bcd60e51b81526004016109f4906144d4565b60075483604001511061172c5760405162461bcd60e51b81526004016109f4906149c1565b7f000000000000000000000000000000000000000000000000000000000000000060ff16836020015151146117735760405162461bcd60e51b81526004016109f490614d1f565b8260600151516002146117985760405162461bcd60e51b81526004016109f4906145ee565b7f000000000000000000000000000000000000000000000000000000000000000060ff168360a0015151146117df5760405162461bcd60e51b81526004016109f490614a7f565b600b5460075460405160008051602061520b83398151915290611801906148f0565b60405180910390a2807fa3d7129bf8db65e6f71041b8077847055075a4ea01972b05cd7a2794b812fd59858560405161183b929190614f3c565b60405180910390a260075484516040517f9d6db97120dc5c5f0a16903f507cbe1b12cb72d2c8d70511a607e36c407f35709161187891859061500d565b60405180910390a26000828152600c60205260408120829055600b805491610d2783615159565b6000808360ff161180156118b857506101008360ff1611155b6118d45760405162461bcd60e51b81526004016109f490614702565b8160015b8460ff168160ff1610156119085760006118f28384611bd9565b925081905061190081615174565b9150506118d8565b50610b6c8182611bd9565b33600090815260106020526040902054156119405760405162461bcd60e51b81526004016109f49061448e565b7f0000000000000000000000000000000000000000000000000000000000000000601154106119815760405162461bcd60e51b81526004016109f490614a2d565b601180543360009081526010602052604081208290559091906119a383615159565b9190505550565b7f000000000000000000000000000000000000000000000000000000000000000081565b60408051600480825260a08201909252600091829190602082016080803683370190505090508581600081518110611a1657634e487b7160e01b600052603260045260246000fd5b6020026020010181815250508481600181518110611a4457634e487b7160e01b600052603260045260246000fd5b6020026020010181815250508381600281518110611a7257634e487b7160e01b600052603260045260246000fd5b60200260200101818152505060005b81518160ff161015611af6576000805160206151eb833981519152828260ff1681518110611abf57634e487b7160e01b600052603260045260246000fd5b602002602001015110611ae45760405162461bcd60e51b81526004016109f490614cc2565b80611aee81615174565b915050611a81565b50611aff613637565b60408051610100818101909252611b2e9186906008908390839080828437600092019190915250612d9c915050565b60408085018290526020850183905283855260025490516361971b8760e11b81526001600160a01b039091169363c32e370e93611b7493919290919088906004016143b6565b60206040518083038186803b158015611b8c57600080fd5b505afa158015611ba0573d6000803e3d6000fd5b505050506040513d601f19601f82011682018060405250810190611bc49190613b68565b15156060909101819052915050949350505050565b6000611be3613671565b838152602081018390526040516314d2f97b60e11b815273__$0098a6e9267037f9f6df61985348dda7d9$__906329a5f2f690611c2490849060040161435c565b60206040518083038186803b158015611c3c57600080fd5b505af4158015611c50573d6000803e3d6000fd5b505050506040513d601f19601f82011682018060405250810190610b6c9190613ed4565b6000611c7f826125b2565b6000818152600c602052604090205490915015611cae5760405162461bcd60e51b81526004016109f4906144d4565b33600090815260106020526040902054611cda5760405162461bcd60e51b81526004016109f490614685565b60808201513360009081526010602052604090205414611d0c5760405162461bcd60e51b81526004016109f490614c8b565b7f00000000000000000000000000000000000000000000000000000000000000003414611d4b5760405162461bcd60e51b81526004016109f490614754565b81515160ff7f00000000000000000000000000000000000000000000000000000000000000001614611d8f5760405162461bcd60e51b81526004016109f49061491c565b600754826020015114611db45760405162461bcd60e51b81526004016109f4906147c4565b60808201513360009081526010602052604090205414611de65760405162461bcd60e51b81526004016109f490614d67565b600e54611df3903461311c565b600e55611dfe613608565b336000908152601060205260409081902054825260a084015182820152600b548482015160075492519192909183907f6f4fad105d3b85f479e2759c478e3421a03542bca611355cc4fe1c05f2e709fd90611e5a908990614e72565b60405180910390a4610d08338386604001518461312f565b6000611e7d82610ac7565b6000818152600c602052604090205490915015611eac5760405162461bcd60e51b81526004016109f4906144d4565b600754826020015114611ed15760405162461bcd60e51b81526004016109f49061496b565b6000600b5490508260400151600754827f95ee0c01db4292223c6ea48c378c571eb2c446947033fa510deed7b124621ca286604051611f109190614e38565b60405180910390a46000828152600c60205260408120829055600b805491611f3783615159565b9190505550505050565b604080518082019091526000808252600954602083015290611f6281611f68565b91505090565b600061129782600001518360200151611bd9565b60075481565b7f000000000000000000000000000000000000000000000000000000000000000081565b6000808560ff16118015611fbf57506101008560ff1611155b611fdb5760405162461bcd60e51b81526004016109f490614702565b82828560015b611fec8960016150c1565b60ff168160ff1610156120585760006120058485611bd9565b9050612012600284615194565b612027576120208585611bd9565b9450612034565b6120318486611bd9565b94505b9250826120426002846150e6565b925050808061205090615174565b915050611fe1565b5091979650505050505050565b336000908152601060205260409020546120915760405162461bcd60e51b81526004016109f490614685565b336000908152601060205260409020548335146120c05760405162461bcd60e51b81526004016109f490614c8b565b7f000000000000000000000000000000000000000000000000000000000000000034146120ff5760405162461bcd60e51b81526004016109f490614754565b600b5481106121205760405162461bcd60e51b81526004016109f490614be4565b600e5461212d903461311c565b600e5561214333610ab836869003860186613bd3565b505050565b60115481565b600a5481565b6001600160a01b0383166000908152601060205260409020541561218a5760405162461bcd60e51b81526004016109f49061448e565b7f0000000000000000000000000000000000000000000000000000000000000000601154106121cb5760405162461bcd60e51b81526004016109f490614a2d565b61220b8383838080601f01602080910402602001604051908101604052809392919081815260200183838082843760009201919091525061308f92505050565b601180546001600160a01b0385166000908152601060205260408120829055909190611f3783615159565b604051630926f44b60e31b815260009073__$61800e922196a95eb70dc1bd65191ef757$__90634937a258906122709085906004016143fd565b60206040518083038186803b15801561228857600080fd5b505af415801561229c573d6000803e3d6000fd5b505050506040513d601f19601f820116820180604052508101906112979190613ed4565b6000848484846040516020016122d994939291906142ff565b604051602081830303815290604052805190602001209050949350505050565b80516020808301516040808501516060860151608087015160a088015160c089015160e08a01519551600099610af099909897910161427b565b336000818152600f602052604081208054919055906123529082613266565b50565b7f000000000000000000000000000000000000000000000000000000000000000081565b336000908152601060205260409020546123a55760405162461bcd60e51b81526004016109f490614685565b33600090815260126020526040902055565b60408051600480825260a082019092526000918291906020820160808036833701905050905085816000815181106123ff57634e487b7160e01b600052603260045260246000fd5b602002602001018181525050848160018151811061242d57634e487b7160e01b600052603260045260246000fd5b602002602001018181525050838160028151811061245b57634e487b7160e01b600052603260045260246000fd5b60200260200101818152505060005b81518160ff1610156124df576000805160206151eb833981519152828260ff16815181106124a857634e487b7160e01b600052603260045260246000fd5b6020026020010151106124cd5760405162461bcd60e51b81526004016109f490614cc2565b806124d781615174565b91505061246a565b506124e8613637565b604080516101008181019092526125179186906008908390839080828437600092019190915250612d9c915050565b60408085018290526020850183905283855260035490516361971b8760e11b81526001600160a01b039091169363c32e370e93611b7493919290919088906004016143b6565b7f000000000000000000000000000000000000000000000000000000000000000081565b600e8054600091829055906123529082613266565b60135460ff808216916101008104821691620100009091041683565b80516020808301516040808501516060860151608087015160a088015160c089015160e08a01516101008b01516101208c0151975160009b610af09b909a9991016141ec565b60126020526000908152604090205481565b60006126418585858560088060200260405190810160405280929190826008602002808284376000920191909152506122c0915050565b6000818152600c6020526040902054909150156126705760405162461bcd60e51b81526004016109f4906144d4565b6000600b5490508386827f803e193545a0bbe98aa31b4b343e2d224f05453a10cef7f58c6d2408512a5e3b88876040516126ab929190614ff1565b60405180910390a46000828152600c60205260408120829055600b80549161145b83615159565b7f000000000000000000000000000000000000000000000000000000000000000081565b60095481565b600f6020526000908152604090205481565b60005a90507f0000000000000000000000000000000000000000000000000000000000000000600854426127429190615142565b10156127605760405162461bcd60e51b81526004016109f4906146cb565b60075460008051602061520b83398151915260405161277e906147a0565b60405180910390a26007546040517f751bb1ba7b27b3979a32844d4d05aa16a46a771b751593704834a80311e3a9b990600090a242600855600780549060006127c683615159565b919050555060006127d85a8390613302565b90506127fd6127e7823a61330e565b336000908152600f60205260409020549061311c565b336000908152600f60205260409020555050565b7f000000000000000000000000000000000000000000000000000000000000000081565b6000848484846040516020016122d994939291906142d3565b60085481565b6000806128827f00000000000000000000000000000000000000000000000000000000000000006002615119565b61288d9060066150c1565b60ff166001600160401b038111156128b557634e487b7160e01b600052604160045260246000fd5b6040519080825280602002602001820160405280156128de578160200160208202803683370190505b5090508c8160008151811061290357634e487b7160e01b600052603260045260246000fd5b60200260200101818152505060005b7f000000000000000000000000000000000000000000000000000000000000000060ff168160ff1610156129b6578c8c8260ff1681811061296357634e487b7160e01b600052603260045260246000fd5b905060200201358282600161297891906150c1565b60ff168151811061299957634e487b7160e01b600052603260045260246000fd5b6020908102919091010152806129ae81615174565b915050612912565b5089816129e47f000000000000000000000000000000000000000000000000000000000000000060016150c1565b60ff1681518110612a0557634e487b7160e01b600052603260045260246000fd5b60200260200101818152505088886000818110612a3257634e487b7160e01b600052603260045260246000fd5b90506020020135817f00000000000000000000000000000000000000000000000000000000000000006002612a6791906150c1565b60ff1681518110612a8857634e487b7160e01b600052603260045260246000fd5b60200260200101818152505088886001818110612ab557634e487b7160e01b600052603260045260246000fd5b90506020020135817f00000000000000000000000000000000000000000000000000000000000000006003612aea91906150c1565b60ff1681518110612b0b57634e487b7160e01b600052603260045260246000fd5b60209081029190910101528681612b437f000000000000000000000000000000000000000000000000000000000000000060046150c1565b60ff1681518110612b6457634e487b7160e01b600052603260045260246000fd5b60200260200101818152505060005b7f000000000000000000000000000000000000000000000000000000000000000060ff168160ff161015612c425786868260ff16818110612bc457634e487b7160e01b600052603260045260246000fd5b9050602002013582827f00000000000000000000000000000000000000000000000000000000000000006005612bfa91906150c1565b612c0491906150c1565b60ff1681518110612c2557634e487b7160e01b600052603260045260246000fd5b602090810291909101015280612c3a81615174565b915050612b73565b508381612c707f00000000000000000000000000000000000000000000000000000000000000006002615119565b612c7b9060056150c1565b60ff1681518110612c9c57634e487b7160e01b600052603260045260246000fd5b60200260200101818152505060005b81518160ff161015612d20576000805160206151eb833981519152828260ff1681518110612ce957634e487b7160e01b600052603260045260246000fd5b602002602001015110612d0e5760405162461bcd60e51b81526004016109f490614cc2565b80612d1881615174565b915050612cab565b50612d29613637565b60408051610100818101909252612d589186906008908390839080828437600092019190915250612d9c915050565b6040808501829052602085018390528385526004805491516361971b8760e11b81526001600160a01b039092169463c32e370e946111ab94919390928991016143b6565b612da4613671565b612dac61368f565b612db4613671565b50506040805180820182528351815260208085015181830152825160808082018552868501518286019081526060808901519084015282528451808601865290870151815260a08701518184015281830152835180850190945260c0860151845260e0909501519083015293909150565b6000612e3385858585612835565b6000818152600c602052604090205490915015612e625760405162461bcd60e51b81526004016109f4906144d4565b6000600b54905083817ffe2e4029d257513b42218bbe50c55666829722b6f10335bfb0ba2d7cc792fa8c888887604051612e9e9392919061501b565b60405180910390a36000828152600c60205260408120829055600b80549161145b83615159565b7f000000000000000000000000000000000000000000000000000000000000000081565b60408051600380825260808201909252600091829190602082016060803683370190505090508581600081518110612f3157634e487b7160e01b600052603260045260246000fd5b6020026020010181815250508481600181518110612f5f57634e487b7160e01b600052603260045260246000fd5b6020026020010181815250508381600281518110612f8d57634e487b7160e01b600052603260045260246000fd5b60200260200101818152505060005b81518160ff161015613011576000805160206151eb833981519152828260ff1681518110612fda57634e487b7160e01b600052603260045260246000fd5b602002602001015110612fff5760405162461bcd60e51b81526004016109f490614cc2565b8061300981615174565b915050612f9c565b5061301a613637565b604080516101008181019092526130499186906008908390839080828437600092019190915250612d9c915050565b60408085018290526020850183905283855260015490516361971b8760e11b81526001600160a01b039091169363c32e370e93611b7493919290919088906004016143b6565b600082306040516020016130a49291906141c5565b604051602081830303815290604052805190602001206040516020016130ca9190614247565b604051602081830303815290604052805190602001209050826001600160a01b03166130f6828461331a565b6001600160a01b0316146121435760405162461bcd60e51b81526004016109f49061463b565b600061312882846150a9565b9392505050565b6000805160206151eb8339815191528360200151106131605760405162461bcd60e51b81526004016109f490614acc565b6000805160206151eb8339815191528360400151106131915760405162461bcd60e51b81526004016109f490614c49565b6000805160206151eb8339815191528360600151106131c25760405162461bcd60e51b81526004016109f490614556565b8260800151600114806131d757506080830151155b6131f35760405162461bcd60e51b81526004016109f490614dbc565b60075460008051602061520b83398151915260405161321190614c1b565b60405180910390a2836001600160a01b0316826007547f6f842da370f6ba302f71b743e4e98494d7a025f1ceceeb9d604ea3e63d42e1708685604051613258929190614dfe565b60405180910390a450505050565b804710156132865760405162461bcd60e51b81526004016109f4906148b9565b6000826001600160a01b03168260405161329f90614278565b60006040518083038185875af1925050503d80600081146132dc576040519150601f19603f3d011682016040523d82523d6000602084013e6132e1565b606091505b50509050806121435760405162461bcd60e51b81526004016109f49061481a565b60006131288284615142565b600061312882846150fa565b6000806000613329858561333e565b91509150613336816133ae565b509392505050565b6000808251604114156133755760208301516040840151606085015160001a613369878285856134db565b945094505050506133a7565b82516040141561339f57602083015160408401516133948683836135bb565b9350935050506133a7565b506000905060025b9250929050565b60008160048111156133d057634e487b7160e01b600052602160045260246000fd5b14156133db57612352565b60018160048111156133fd57634e487b7160e01b600052602160045260246000fd5b141561341b5760405162461bcd60e51b81526004016109f490614457565b600281600481111561343d57634e487b7160e01b600052602160045260246000fd5b141561345b5760405162461bcd60e51b81526004016109f49061451f565b600381600481111561347d57634e487b7160e01b600052602160045260246000fd5b141561349b5760405162461bcd60e51b81526004016109f490614877565b60048160048111156134bd57634e487b7160e01b600052602160045260246000fd5b14156123525760405162461bcd60e51b81526004016109f490614b0e565b6000807f7fffffffffffffffffffffffffffffff5d576e7357a4501ddfe92f46681b20a083111561351257506000905060036135b2565b8460ff16601b1415801561352a57508460ff16601c14155b1561353b57506000905060046135b2565b6000600187878787604051600081526020016040526040516135609493929190614439565b6020604051602081039080840390855afa158015613582573d6000803e3d6000fd5b5050604051601f1901519150506001600160a01b0381166135ab576000600192509250506135b2565b9150600090505b94509492505050565b6000806001600160ff1b03831660ff84901c601b016135dc878288856134db565b935093505050935093915050565b6040518060a001604052806005906020820280368337509192915050565b6040518060a0016040528060008152602001600081526020016000815260200160008152602001600081525090565b604051806080016040528061364a613671565b815260200161365761368f565b8152602001613664613671565b8152600060209091015290565b60405180604001604052806002906020820280368337509192915050565b60405180604001604052806002905b6136a6613671565b81526020019060019003908161369e5790505090565b80356001600160a01b0381168114610b0957600080fd5b80610100810183101561129757600080fd5b600082601f8301126136f5578081fd5b6040516101008082018281106001600160401b0382111715613719576137196151d4565b604052818482810187101561372c578485fd5b8492505b600883101561375057803582526001929092019160209182019101613730565b509195945050505050565b60008083601f84011261376c578182fd5b5081356001600160401b03811115613782578182fd5b60208301915083602080830285010111156133a757600080fd5b600082601f8301126137ac578081fd5b813560206001600160401b038211156137c7576137c76151d4565b8082026137d5828201615080565b8381528281019086840183880185018910156137ef578687fd5b8693505b858410156138115780358352600193909301929184019184016137f3565b50979650505050505050565b60008083601f84011261382e578182fd5b5081356001600160401b03811115613844578182fd5b6020830191508360208285010111156133a757600080fd5b600060a0828403121561386d578081fd5b50919050565b60006101e08284031215613885578081fd5b613890610100615080565b90508135815260208201356001600160401b03808211156138b057600080fd5b6138bc8583860161379c565b60208401526040840135604084015260608401359150808211156138df57600080fd5b6138eb8583860161379c565b60608401526080840135608084015260a084013591508082111561390e57600080fd5b5061391b8482850161379c565b60a08301525060c082013560c08201526139388360e084016136e5565b60e082015292915050565b803560ff81168114610b0957600080fd5b600060208284031215613965578081fd5b613128826136bc565b600080600060408486031215613982578182fd5b61398b846136bc565b925060208401356001600160401b038111156139a5578283fd5b6139b18682870161381d565b9497909650939450505050565b60008060008060008061012087890312156139d7578384fd5b6139e0876136bc565b955060208701356001600160401b038111156139fa578485fd5b613a0689828a0161381d565b9096509450613a1a9050886040890161385c565b925060e0870135915061010087013590509295509295509295565b600060a08284031215613a46578081fd5b82601f830112613a54578081fd5b60405160a081018181106001600160401b0382111715613a7657613a766151d4565b604052808360a08101861015613a8a578384fd5b835b6005811015613750578135835260209283019290910190600101613a8c565b60006101008284031215613abd578081fd5b61312883836136e5565b60008060008060008060008060008060006102208c8e031215613ae8578889fd5b8b356001600160401b03811115613afd57898afd5b613b098e828f0161375b565b909c509a505060208c0135985060408c0135975060608c0135965060808c0135955060a08c0135945060c08c0135935060e08c013592506101008c01359150613b568d6101208e016136d3565b90509295989b509295989b9093969950565b600060208284031215613b79578081fd5b81518015158114613128578182fd5b600060208284031215613b99578081fd5b5035919050565b600080600060e08486031215613bb4578081fd5b613bbe858561385c565b9560a0850135955060c0909401359392505050565b600060a08284031215613be4578081fd5b60405160a081018181106001600160401b0382111715613c0657613c066151d4565b806040525082358152602083013560208201526040830135604082015260608301356060820152608083013560808201528091505092915050565b60006101608284031215613c53578081fd5b604051608081018181106001600160401b0382111715613c7557613c756151d4565b8060405250823581526020830135602082015260408301356040820152613c9f84606085016136e5565b60608201529392505050565b600060208284031215613cbc578081fd5b81356001600160401b0380821115613cd2578283fd5b908301906102208286031215613ce6578283fd5b613cf1610140615080565b823582811115613cff578485fd5b613d0b8782860161379c565b8252506020830135602082015260408301356040820152606083013560608201526080830135608082015260a083013560a082015260c083013560c082015260e083013560e0820152610100915081830135828201526101209150613d72868385016136e5565b91810191909152949350505050565b60006101808284031215613d93578081fd5b60405160a081018181106001600160401b0382111715613db557613db56151d4565b806040525082358152602083013560208201526040830135604082015260608301356060820152613de984608085016136e5565b60808201529392505050565b600060408284031215613e06578081fd5b604051604081018181106001600160401b0382111715613e2857613e286151d4565b604052823581526020928301359281019290925250919050565b600060208284031215613e53578081fd5b81356001600160401b03811115613e68578182fd5b610b6c84828501613873565b60008060408385031215613e86578182fd5b82356001600160401b0380821115613e9c578384fd5b613ea886838701613873565b93506020850135915080821115613ebd578283fd5b50613eca8582860161379c565b9150509250929050565b600060208284031215613ee5578081fd5b5051919050565b60008060008060008060008060008060006101e08c8e031215613f0d578485fd5b8b359a506001600160401b038060208e01351115613f29578586fd5b613f398e60208f01358f0161375b565b909b50995060408d0135985060608d0135811015613f55578586fd5b613f658e60608f01358f0161375b565b909850965060808d0135955060a08d0135811015613f81578485fd5b50613f928d60a08e01358e0161375b565b909450925060c08c01359150613b568d60e08e016136d3565b60008060408385031215613fbd578182fd5b50508035926020909101359150565b6000806000806101608587031215613fe2578182fd5b84359350602085013592506040850135915061400186606087016136d3565b905092959194509250565b6000806000806101608587031215614022578182fd5b84359350602085013592506040850135915061400186606087016136e5565b60008060008060006101808688031215614059578283fd5b8535945060208601359350604086013592506060860135915061407f87608088016136d3565b90509295509295909350565b6000806040838503121561409d578182fd5b6140a683613943565b946020939093013593505050565b600080600080608085870312156140c9578182fd5b6140d285613943565b966020860135965060408601359560600135945092505050565b8060005b600281101561411a57614104848351614120565b60409390930192602091909101906001016140f0565b50505050565b8060005b600281101561411a578151845260209384019390910190600101614124565b8060005b600881101561411a578151845260209384019390910190600101614147565b6000815180845260208085019450808401835b8381101561419557815187529582019590820190600101614179565b509495945050505050565b8051600090602080840183831561419557815187529582019590820190600101614179565b6bffffffffffffffffffffffff19606093841b811682529190921b16601482015260280190565b60006141f8828d6141a0565b8b81528a60208201528960408201528860608201528760808201528660a08201528560c08201528460e0820152614233610100820185614143565b610200019c9b505050505050505050505050565b7f19457468657265756d205369676e6564204d6573736167653a0a3332000000008152601c810191909152603c0190565b90565b600089825261428d602083018a6141a0565b88815261429d60208201896141a0565b90508681526142af60208201876141a0565b90508481526142c16020820185614143565b610120019a9950505050505050505050565b600085825284602083015283604083015261010083606084013761016091909101908152949350505050565b600085825284602083015283604083015261431d6060830184614143565b5061016001949350505050565b600086825285602083015284604083015283606083015261434e6080830184614143565b506101800195945050505050565b60408101818360005b6002811015614384578151835260209283019290910190600101614365565b50505092915050565b610100810161439c8286614120565b6143a960408301856140ec565b610b6c60c0830184614120565b60006101206143c58388614120565b6143d260408401876140ec565b6143df60c0840186614120565b806101008401526143f281840185614166565b979650505050505050565b60a08101818360005b6005811015614384578151835260209283019290910190600101614406565b901515815260200190565b90815260200190565b93845260ff9290921660208401526040830152606082015260800190565b60208082526018908201527f45434453413a20696e76616c6964207369676e61747572650000000000000000604082015260600190565b60208082526026908201527f556e697265703a2061747465737465722068617320616c72656164792073696760408201526506e65642075760d41b606082015260800190565b6020808252602b908201527f556e697265703a207468652070726f6f6620686173206265656e207375626d6960408201526a74746564206265666f726560a81b606082015260800190565b6020808252601f908201527f45434453413a20696e76616c6964207369676e6174757265206c656e67746800604082015260600190565b60208082526024908201527f556e697265703a20696e76616c6964206174746573746174696f6e20677261666040820152636669746960e01b606082015260800190565b60208082526034908201527f556e697265703a207375626d697420616e2061697264726f702070726f6f66206040820152730eed2e8d040d2dcc6dee4e4cac6e840cae0dec6d60631b606082015260800190565b6020808252602d908201527f556e697265703a20696e76616c6964206e756d626572206f6620626c696e646560408201526c6420757365722073746174657360981b606082015260800190565b6020808252602a908201527f556e697265703a20696e76616c6964206174746573746572207369676e207570604082015269207369676e617475726560b01b606082015260800190565b60208082526026908201527f556e697265703a20617474657374657220686173206e6f74207369676e6564206040820152651d5c081e595d60d21b606082015260800190565b6020808252601b908201527f556e697265703a2065706f6368206e6f742079657420656e6465640000000000604082015260600190565b60208082526032908201527f436f6d70757465526f6f743a205f747265654c6576656c73206d757374206265604082015271103132ba3bb2b2b710181030b73210191a9b60711b606082015260800190565b6020808252602c908201527f556e697265703a206e6f20617474657374696e6720666565206f7220696e636f60408201526b1c9c9958dd08185b5bdd5b9d60a21b606082015260800190565b6020808252600a9082015269115c1bd8da115b99195960b21b604082015260600190565b60208082526036908201527f556e697265703a207375626d697420612072657075746174696f6e2070726f6f6040820152750cc40eed2e8d040d2dcc6dee4e4cac6e840cae0dec6d60531b606082015260800190565b6020808252603a908201527f416464726573733a20756e61626c6520746f2073656e642076616c75652c207260408201527f6563697069656e74206d61792068617665207265766572746564000000000000606082015260800190565b60208082526022908201527f45434453413a20696e76616c6964207369676e6174757265202773272076616c604082015261756560f01b606082015260800190565b6020808252601d908201527f416464726573733a20696e73756666696369656e742062616c616e6365000000604082015260600190565b60208082526012908201527113995dd1d4d513195859925b9cd95c9d195960721b604082015260600190565b6020808252602f908201527f556e697265703a20696e76616c6964206e756d626572206f662072657075746160408201526e74696f6e206e756c6c69666965727360881b606082015260800190565b60208082526036908201527f556e697265703a207375626d697420616e2065706f6368206b65792070726f6f6040820152750cc40eed2e8d040d2dcc6dee4e4cac6e840cae0dec6d60531b606082015260800190565b60208082526046908201527f43616e206e6f74207472616e736974696f6e2066726f6d2065706f636820746860408201527f617427732067726561746572206f7220657175616c20746f2063757272656e74606082015265040cae0dec6d60d31b608082015260a00190565b60208082526032908201527f556e697265703a206d6178696d756d206e756d626572206f6620617474657374604082015271195c881cda59db9d5c1cc81c995858da195960721b606082015260800190565b6020808252602d908201527f556e697265703a20696e76616c6964206e756d626572206f6620626c696e646560408201526c64206861736820636861696e7360981b606082015260800190565b60208082526022908201527f556e697265703a20696e76616c6964206174746573746174696f6e20706f7352604082015261065760f41b606082015260800190565b60208082526022908201527f45434453413a20696e76616c6964207369676e6174757265202776272076616c604082015261756560f01b606082015260800190565b60208082526026908201527f556e697265703a2074686520757365722068617320616c72656164792073696760408201526506e65642075760d41b606082015260800190565b6020808252602e908201527f556e697265703a206d6178696d756d206e756d626572206f662075736572207360408201526d1a59db9d5c1cc81c995858da195960921b606082015260800190565b6020808252601b908201527f556e697265703a20696e76616c69642070726f6f6620696e6465780000000000604082015260600190565b602080825260149082015273105d1d195cdd185d1a5bdb94dd589b5a5d1d195960621b604082015260600190565b60208082526022908201527f556e697265703a20696e76616c6964206174746573746174696f6e206e656752604082015261065760f41b606082015260800190565b6020808252601d908201527f556e697265703a206d69736d6174636865642061747465737465724964000000604082015260600190565b6020808252603c908201527f556e697265703a2065616368207075626c6963207369676e616c206d7573742060408201527f6265206c742074686520736e61726b207363616c6172206669656c6400000000606082015260800190565b60208082526028908201527f556e697265703a20696e76616c6964206e756d626572206f662065706b206e756040820152676c6c69666965727360c01b606082015260800190565b60208082526035908201527f556e697265703a20696e636f727265637420617474657374657220494420696e604082015274103a3432903932b83aba30ba34b7b710383937b7b360591b606082015260800190565b60208082526022908201527f556e697265703a20696e76616c6964206174746573746174696f6e207369676e604082015261055760f41b606082015260800190565b825181526020808401519082015260408084015190820152606080840151908201526080928301519281019290925260a082015260c00190565b6000610160820190508251825260208301516020830152604083015160408301526060830151614e6b6060840182614143565b5092915050565b60006020825282516102206020840152614e90610240840182614166565b9050602084015160408401526040840151606084015260608401516080840152608084015160a084015260a084015160c084015260c084015160e084015260e0840151610100818186015280860151915050610120818186015280860151915050613336610140850182614143565b600061018082019050825182526020830151602083015260408301516040830152606083015160608301526080830151614e6b6080840182614143565b6000604082528351604083015260208401516101e06060840152614f64610220840182614166565b9050604085015160808401526060850151603f19808584030160a0860152614f8c8383614166565b9250608087015160c086015260a08701519150808584030160e086015250614fb48282614166565b91505060c085015161010084015260e0850151614fd5610120850182614143565b508281036020840152614fe88185614166565b95945050505050565b8281526101208101610100836020840137600081529392505050565b918252602082015260400190565b83815260208101839052610140810161010083604084013760008152949350505050565b9283526020830191909152604082015260600190565b60ff91909116815260200190565b60ff93841681529183166020830152909116604082015260600190565b6040518181016001600160401b03811182821017156150a1576150a16151d4565b604052919050565b600082198211156150bc576150bc6151a8565b500190565b600060ff821660ff84168060ff038211156150de576150de6151a8565b019392505050565b6000826150f5576150f56151be565b500490565b6000816000190483118215151615615114576151146151a8565b500290565b600060ff821660ff84168160ff048111821515161561513a5761513a6151a8565b029392505050565b600082821015615154576151546151a8565b500390565b600060001982141561516d5761516d6151a8565b5060010190565b600060ff821660ff81141561518b5761518b6151a8565b60010192915050565b6000826151a3576151a36151be565b500690565b634e487b7160e01b600052601160045260246000fd5b634e487b7160e01b600052601260045260246000fd5b634e487b7160e01b600052604160045260246000fdfe30644e72e131a029b85045b68181585d2833e84879b9709143e1f593f0000001d520dc8edfe278d8221eb9bc1010dbafcff0b692cd5b1a0f7333dc9f228ca660a2646970667358221220d230400a995aa3cf06d31c88aeb6c97b2c02d424079ec214ef06bbe68d7923f364736f6c63430008000033",
  "linkReferences": {
    "@unirep/contracts/contracts/Poseidon.sol": {
      "PoseidonT3": [
        {
          "length": 20,
          "start": 1287
        },
        {
          "length": 20,
          "start": 10165
        }
      ],
      "PoseidonT6": [
        {
          "length": 20,
          "start": 966
        },
        {
          "length": 20,
          "start": 11777
        }
      ]
    }
  },
  "deployedLinkReferences": {
    "@unirep/contracts/contracts/Poseidon.sol": {
      "PoseidonT3": [
        {
          "length": 20,
          "start": 7164
        }
      ],
      "PoseidonT6": [
        {
          "length": 20,
          "start": 8776
        }
      ]
    }
  }
}