{
  "_format": "hh-sol-artifact-1",
  "contractName": "Unirep",
  "sourceName": "@unirep/contracts/contracts/Unirep.sol",
  "abi": [
    {
      "inputs": [
        {
          "components": [
            {
              "internalType": "uint8",
              "name": "globalStateTreeDepth",
              "type": "uint8"
            },
            {
              "internalType": "uint8",
              "name": "userStateTreeDepth",
              "type": "uint8"
            },
            {
              "internalType": "uint8",
              "name": "epochTreeDepth",
              "type": "uint8"
            }
          ],
          "internalType": "struct UnirepParameters.TreeDepths",
          "name": "_treeDepths",
          "type": "tuple"
        },
        {
          "components": [
            {
              "internalType": "uint256",
              "name": "maxUsers",
              "type": "uint256"
            },
            {
              "internalType": "uint256",
              "name": "maxAttesters",
              "type": "uint256"
            }
          ],
          "internalType": "struct UnirepParameters.MaxValues",
          "name": "_maxValues",
          "type": "tuple"
        },
        {
          "internalType": "contract EpochKeyValidityVerifier",
          "name": "_epkValidityVerifier",
          "type": "address"
        },
        {
          "internalType": "contract StartTransitionVerifier",
          "name": "_startTransitionVerifier",
          "type": "address"
        },
        {
          "internalType": "contract ProcessAttestationsVerifier",
          "name": "_processAttestationsVerifier",
          "type": "address"
        },
        {
          "internalType": "contract UserStateTransitionVerifier",
          "name": "_userStateTransitionVerifier",
          "type": "address"
        },
        {
          "internalType": "contract ReputationVerifier",
          "name": "_reputationVerifier",
          "type": "address"
        },
        {
          "internalType": "contract UserSignUpVerifier",
          "name": "_userSignUpVerifier",
          "type": "address"
        },
        {
          "internalType": "uint8",
          "name": "_numEpochKeyNoncePerEpoch",
          "type": "uint8"
        },
        {
          "internalType": "uint8",
          "name": "_maxReputationBudget",
          "type": "uint8"
        },
        {
          "internalType": "uint256",
          "name": "_epochLength",
          "type": "uint256"
        },
        {
          "internalType": "uint256",
          "name": "_attestingFee",
          "type": "uint256"
        }
      ],
      "stateMutability": "nonpayable",
      "type": "constructor"
    },
    {
      "anonymous": false,
      "inputs": [
        {
          "indexed": true,
          "internalType": "uint256",
          "name": "_epoch",
          "type": "uint256"
        },
        {
          "indexed": true,
          "internalType": "uint256",
          "name": "_epochKey",
          "type": "uint256"
        },
        {
          "indexed": true,
          "internalType": "address",
          "name": "_attester",
          "type": "address"
        },
        {
          "indexed": false,
          "internalType": "string",
          "name": "_event",
          "type": "string"
        },
        {
          "components": [
            {
              "internalType": "uint256",
              "name": "attesterId",
              "type": "uint256"
            },
            {
              "internalType": "uint256",
              "name": "posRep",
              "type": "uint256"
            },
            {
              "internalType": "uint256",
              "name": "negRep",
              "type": "uint256"
            },
            {
              "internalType": "uint256",
              "name": "graffiti",
              "type": "uint256"
            },
            {
              "internalType": "uint256",
              "name": "signUp",
              "type": "uint256"
            }
          ],
          "indexed": false,
          "internalType": "struct DomainObjs.Attestation",
          "name": "attestation",
          "type": "tuple"
        },
        {
          "indexed": false,
          "internalType": "uint256",
          "name": "_proofIndex",
          "type": "uint256"
        }
      ],
      "name": "AttestationSubmitted",
      "type": "event"
    },
    {
      "anonymous": false,
      "inputs": [
        {
          "indexed": true,
          "internalType": "uint256",
          "name": "_epoch",
          "type": "uint256"
        }
      ],
      "name": "EpochEnded",
      "type": "event"
    },
    {
      "anonymous": false,
      "inputs": [
        {
          "indexed": true,
          "internalType": "uint256",
          "name": "_proofIndex",
          "type": "uint256"
        },
        {
          "indexed": true,
          "internalType": "uint256",
          "name": "_epoch",
          "type": "uint256"
        },
        {
          "indexed": true,
          "internalType": "uint256",
          "name": "_epochKey",
          "type": "uint256"
        },
        {
          "components": [
            {
              "internalType": "uint256",
              "name": "globalStateTree",
              "type": "uint256"
            },
            {
              "internalType": "uint256",
              "name": "epoch",
              "type": "uint256"
            },
            {
              "internalType": "uint256",
              "name": "epochKey",
              "type": "uint256"
            },
            {
              "internalType": "uint256[8]",
              "name": "proof",
              "type": "uint256[8]"
            }
          ],
          "indexed": false,
          "internalType": "struct UnirepParameters.EpochKeyProofRelated",
          "name": "epochKeyProofData",
          "type": "tuple"
        }
      ],
      "name": "EpochKeyProof",
      "type": "event"
    },
    {
      "anonymous": false,
      "inputs": [
        {
          "indexed": true,
          "internalType": "uint256",
          "name": "_epoch",
          "type": "uint256"
        },
        {
          "indexed": false,
          "internalType": "uint256",
          "name": "_hashedLeaf",
          "type": "uint256"
        },
        {
          "indexed": false,
          "internalType": "uint256",
          "name": "_proofIndex",
          "type": "uint256"
        }
      ],
      "name": "NewGSTLeafInserted",
      "type": "event"
    },
    {
      "anonymous": false,
      "inputs": [
        {
          "indexed": true,
          "internalType": "uint256",
          "name": "_proofIndex",
          "type": "uint256"
        },
        {
          "indexed": true,
          "internalType": "uint256",
          "name": "_inputBlindedUserState",
          "type": "uint256"
        },
        {
          "indexed": false,
          "internalType": "uint256",
          "name": "_outputBlindedUserState",
          "type": "uint256"
        },
        {
          "indexed": false,
          "internalType": "uint256",
          "name": "_outputBlindedHashChain",
          "type": "uint256"
        },
        {
          "indexed": false,
          "internalType": "uint256[8]",
          "name": "_proof",
          "type": "uint256[8]"
        }
      ],
      "name": "ProcessedAttestationsProof",
      "type": "event"
    },
    {
      "anonymous": false,
      "inputs": [
        {
          "indexed": true,
          "internalType": "uint256",
          "name": "_proofIndex",
          "type": "uint256"
        },
        {
          "indexed": true,
          "internalType": "uint256",
          "name": "_epoch",
          "type": "uint256"
        },
        {
          "indexed": true,
          "internalType": "uint256",
          "name": "_epochKey",
          "type": "uint256"
        },
        {
          "components": [
            {
              "internalType": "uint256[]",
              "name": "repNullifiers",
              "type": "uint256[]"
            },
            {
              "internalType": "uint256",
              "name": "epoch",
              "type": "uint256"
            },
            {
              "internalType": "uint256",
              "name": "epochKey",
              "type": "uint256"
            },
            {
              "internalType": "uint256",
              "name": "globalStateTree",
              "type": "uint256"
            },
            {
              "internalType": "uint256",
              "name": "attesterId",
              "type": "uint256"
            },
            {
              "internalType": "uint256",
              "name": "proveReputationAmount",
              "type": "uint256"
            },
            {
              "internalType": "uint256",
              "name": "minRep",
              "type": "uint256"
            },
            {
              "internalType": "uint256",
              "name": "proveGraffiti",
              "type": "uint256"
            },
            {
              "internalType": "uint256",
              "name": "graffitiPreImage",
              "type": "uint256"
            },
            {
              "internalType": "uint256[8]",
              "name": "proof",
              "type": "uint256[8]"
            }
          ],
          "indexed": false,
          "internalType": "struct UnirepParameters.ReputationProofRelated",
          "name": "reputationProofData",
          "type": "tuple"
        }
      ],
      "name": "ReputationNullifierProof",
      "type": "event"
    },
    {
      "anonymous": false,
      "inputs": [
        {
          "indexed": true,
          "internalType": "uint256",
          "name": "_epoch",
          "type": "uint256"
        },
        {
          "indexed": false,
          "internalType": "string",
          "name": "_event",
          "type": "string"
        }
      ],
      "name": "Sequencer",
      "type": "event"
    },
    {
      "anonymous": false,
      "inputs": [
        {
          "indexed": true,
          "internalType": "uint256",
          "name": "_proofIndex",
          "type": "uint256"
        },
        {
          "indexed": true,
          "internalType": "uint256",
          "name": "_blindedUserState",
          "type": "uint256"
        },
        {
          "indexed": true,
          "internalType": "uint256",
          "name": "_globalStateTree",
          "type": "uint256"
        },
        {
          "indexed": false,
          "internalType": "uint256",
          "name": "_blindedHashChain",
          "type": "uint256"
        },
        {
          "indexed": false,
          "internalType": "uint256[8]",
          "name": "_proof",
          "type": "uint256[8]"
        }
      ],
      "name": "StartedTransitionProof",
      "type": "event"
    },
    {
      "anonymous": false,
      "inputs": [
        {
          "indexed": true,
          "internalType": "uint256",
          "name": "_proofIndex",
          "type": "uint256"
        },
        {
          "indexed": false,
          "internalType": "uint256",
          "name": "_identityCommitment",
          "type": "uint256"
        },
        {
          "indexed": false,
          "internalType": "uint256",
          "name": "_attesterId",
          "type": "uint256"
        },
        {
          "indexed": false,
          "internalType": "uint256",
          "name": "_airdropAmount",
          "type": "uint256"
        }
      ],
      "name": "UserSignUp",
      "type": "event"
    },
    {
      "anonymous": false,
      "inputs": [
        {
          "indexed": true,
          "internalType": "uint256",
          "name": "_proofIndex",
          "type": "uint256"
        },
        {
          "indexed": true,
          "internalType": "uint256",
          "name": "_epoch",
          "type": "uint256"
        },
        {
          "indexed": true,
          "internalType": "uint256",
          "name": "_epochKey",
          "type": "uint256"
        },
        {
          "components": [
            {
              "internalType": "uint256",
              "name": "epoch",
              "type": "uint256"
            },
            {
              "internalType": "uint256",
              "name": "epochKey",
              "type": "uint256"
            },
            {
              "internalType": "uint256",
              "name": "globalStateTree",
              "type": "uint256"
            },
            {
              "internalType": "uint256",
              "name": "attesterId",
              "type": "uint256"
            },
            {
              "internalType": "uint256",
              "name": "userHasSignedUp",
              "type": "uint256"
            },
            {
              "internalType": "uint256[8]",
              "name": "proof",
              "type": "uint256[8]"
            }
          ],
          "indexed": false,
          "internalType": "struct UnirepParameters.SignUpProofRelated",
          "name": "signUpProofData",
          "type": "tuple"
        }
      ],
      "name": "UserSignedUpProof",
      "type": "event"
    },
    {
      "anonymous": false,
      "inputs": [
        {
          "indexed": true,
          "internalType": "uint256",
          "name": "_proofIndex",
          "type": "uint256"
        },
        {
          "components": [
            {
              "internalType": "uint256",
              "name": "newGlobalStateTreeLeaf",
              "type": "uint256"
            },
            {
              "internalType": "uint256[]",
              "name": "epkNullifiers",
              "type": "uint256[]"
            },
            {
              "internalType": "uint256",
              "name": "transitionFromEpoch",
              "type": "uint256"
            },
            {
              "internalType": "uint256[]",
              "name": "blindedUserStates",
              "type": "uint256[]"
            },
            {
              "internalType": "uint256",
              "name": "fromGlobalStateTree",
              "type": "uint256"
            },
            {
              "internalType": "uint256[]",
              "name": "blindedHashChains",
              "type": "uint256[]"
            },
            {
              "internalType": "uint256",
              "name": "fromEpochTree",
              "type": "uint256"
            },
            {
              "internalType": "uint256[8]",
              "name": "proof",
              "type": "uint256[8]"
            }
          ],
          "indexed": false,
          "internalType": "struct UnirepParameters.UserTransitionedRelated",
          "name": "userTransitionedData",
          "type": "tuple"
        },
        {
          "indexed": false,
          "internalType": "uint256[]",
          "name": "_proofIndexRecords",
          "type": "uint256[]"
        }
      ],
      "name": "UserStateTransitionProof",
      "type": "event"
    },
    {
      "inputs": [
        {
          "internalType": "address",
          "name": "",
          "type": "address"
        }
      ],
      "name": "airdropAmount",
      "outputs": [
        {
          "internalType": "uint256",
          "name": "",
          "type": "uint256"
        }
      ],
      "stateMutability": "view",
      "type": "function"
    },
    {
      "inputs": [
        {
          "components": [
            {
              "internalType": "uint256",
              "name": "epoch",
              "type": "uint256"
            },
            {
              "internalType": "uint256",
              "name": "epochKey",
              "type": "uint256"
            },
            {
              "internalType": "uint256",
              "name": "globalStateTree",
              "type": "uint256"
            },
            {
              "internalType": "uint256",
              "name": "attesterId",
              "type": "uint256"
            },
            {
              "internalType": "uint256",
              "name": "userHasSignedUp",
              "type": "uint256"
            },
            {
              "internalType": "uint256[8]",
              "name": "proof",
              "type": "uint256[8]"
            }
          ],
          "internalType": "struct UnirepParameters.SignUpProofRelated",
          "name": "signUpProofData",
          "type": "tuple"
        }
      ],
      "name": "airdropEpochKey",
      "outputs": [],
      "stateMutability": "payable",
      "type": "function"
    },
    {
      "inputs": [],
      "name": "attesterSignUp",
      "outputs": [],
      "stateMutability": "nonpayable",
      "type": "function"
    },
    {
      "inputs": [
        {
          "internalType": "address",
          "name": "attester",
          "type": "address"
        },
        {
          "internalType": "bytes",
          "name": "signature",
          "type": "bytes"
        }
      ],
      "name": "attesterSignUpViaRelayer",
      "outputs": [],
      "stateMutability": "nonpayable",
      "type": "function"
    },
    {
      "inputs": [
        {
          "internalType": "address",
          "name": "",
          "type": "address"
        }
      ],
      "name": "attesters",
      "outputs": [
        {
          "internalType": "uint256",
          "name": "",
          "type": "uint256"
        }
      ],
      "stateMutability": "view",
      "type": "function"
    },
    {
      "inputs": [],
      "name": "attestingFee",
      "outputs": [
        {
          "internalType": "uint256",
          "name": "",
          "type": "uint256"
        }
      ],
      "stateMutability": "view",
      "type": "function"
    },
    {
      "inputs": [],
      "name": "beginEpochTransition",
      "outputs": [],
      "stateMutability": "nonpayable",
      "type": "function"
    },
    {
      "inputs": [],
      "name": "burnAttestingFee",
      "outputs": [],
      "stateMutability": "nonpayable",
      "type": "function"
    },
    {
      "inputs": [
        {
          "internalType": "uint256",
          "name": "_leafIndex",
          "type": "uint256"
        },
        {
          "internalType": "uint256",
          "name": "_leafValue",
          "type": "uint256"
        }
      ],
      "name": "calcAirdropUSTRoot",
      "outputs": [
        {
          "internalType": "uint256",
          "name": "",
          "type": "uint256"
        }
      ],
      "stateMutability": "view",
      "type": "function"
    },
    {
      "inputs": [],
      "name": "collectEpochTransitionCompensation",
      "outputs": [],
      "stateMutability": "nonpayable",
      "type": "function"
    },
    {
      "inputs": [],
      "name": "collectedAttestingFee",
      "outputs": [
        {
          "internalType": "uint256",
          "name": "",
          "type": "uint256"
        }
      ],
      "stateMutability": "view",
      "type": "function"
    },
    {
      "inputs": [
        {
          "internalType": "uint8",
          "name": "_treeLevels",
          "type": "uint8"
        },
        {
          "internalType": "uint256",
          "name": "_zeroValue",
          "type": "uint256"
        }
      ],
      "name": "computeEmptyRoot",
      "outputs": [
        {
          "internalType": "uint256",
          "name": "",
          "type": "uint256"
        }
      ],
      "stateMutability": "pure",
      "type": "function"
    },
    {
      "inputs": [
        {
          "internalType": "uint8",
          "name": "_treeLevels",
          "type": "uint8"
        },
        {
          "internalType": "uint256",
          "name": "_leafIndex",
          "type": "uint256"
        },
        {
          "internalType": "uint256",
          "name": "_leafValue",
          "type": "uint256"
        },
        {
          "internalType": "uint256",
          "name": "_zeroValue",
          "type": "uint256"
        }
      ],
      "name": "computeOneNonZeroLeafRoot",
      "outputs": [
        {
          "internalType": "uint256",
          "name": "",
          "type": "uint256"
        }
      ],
      "stateMutability": "pure",
      "type": "function"
    },
    {
      "inputs": [],
      "name": "currentEpoch",
      "outputs": [
        {
          "internalType": "uint256",
          "name": "",
          "type": "uint256"
        }
      ],
      "stateMutability": "view",
      "type": "function"
    },
    {
      "inputs": [],
      "name": "emptyGlobalStateTreeRoot",
      "outputs": [
        {
          "internalType": "uint256",
          "name": "",
          "type": "uint256"
        }
      ],
      "stateMutability": "view",
      "type": "function"
    },
    {
      "inputs": [],
      "name": "emptyUserStateRoot",
      "outputs": [
        {
          "internalType": "uint256",
          "name": "",
          "type": "uint256"
        }
      ],
      "stateMutability": "view",
      "type": "function"
    },
    {
      "inputs": [],
      "name": "epochLength",
      "outputs": [
        {
          "internalType": "uint256",
          "name": "",
          "type": "uint256"
        }
      ],
      "stateMutability": "view",
      "type": "function"
    },
    {
      "inputs": [
        {
          "internalType": "address",
          "name": "",
          "type": "address"
        }
      ],
      "name": "epochTransitionCompensation",
      "outputs": [
        {
          "internalType": "uint256",
          "name": "",
          "type": "uint256"
        }
      ],
      "stateMutability": "view",
      "type": "function"
    },
    {
      "inputs": [
        {
          "internalType": "bytes32",
          "name": "",
          "type": "bytes32"
        }
      ],
      "name": "getProofIndex",
      "outputs": [
        {
          "internalType": "uint256",
          "name": "",
          "type": "uint256"
        }
      ],
      "stateMutability": "view",
      "type": "function"
    },
    {
      "inputs": [
        {
          "internalType": "uint256",
          "name": "",
          "type": "uint256"
        }
      ],
      "name": "hasUserSignedUp",
      "outputs": [
        {
          "internalType": "bool",
          "name": "",
          "type": "bool"
        }
      ],
      "stateMutability": "view",
      "type": "function"
    },
    {
      "inputs": [
        {
          "internalType": "uint256[5]",
          "name": "array",
          "type": "uint256[5]"
        }
      ],
      "name": "hash5",
      "outputs": [
        {
          "internalType": "uint256",
          "name": "",
          "type": "uint256"
        }
      ],
      "stateMutability": "pure",
      "type": "function"
    },
    {
      "inputs": [
        {
          "internalType": "uint256",
          "name": "airdropPosRep",
          "type": "uint256"
        }
      ],
      "name": "hashAirdroppedLeaf",
      "outputs": [
        {
          "internalType": "uint256",
          "name": "",
          "type": "uint256"
        }
      ],
      "stateMutability": "pure",
      "type": "function"
    },
    {
      "inputs": [
        {
          "components": [
            {
              "internalType": "uint256",
              "name": "globalStateTree",
              "type": "uint256"
            },
            {
              "internalType": "uint256",
              "name": "epoch",
              "type": "uint256"
            },
            {
              "internalType": "uint256",
              "name": "epochKey",
              "type": "uint256"
            },
            {
              "internalType": "uint256[8]",
              "name": "proof",
              "type": "uint256[8]"
            }
          ],
          "internalType": "struct UnirepParameters.EpochKeyProofRelated",
          "name": "epochKeyProofData",
          "type": "tuple"
        }
      ],
      "name": "hashEpochKeyProof",
      "outputs": [
        {
          "internalType": "bytes32",
          "name": "",
          "type": "bytes32"
        }
      ],
      "stateMutability": "pure",
      "type": "function"
    },
    {
      "inputs": [
        {
          "internalType": "uint256",
          "name": "_left",
          "type": "uint256"
        },
        {
          "internalType": "uint256",
          "name": "_right",
          "type": "uint256"
        }
      ],
      "name": "hashLeftRight",
      "outputs": [
        {
          "internalType": "uint256",
          "name": "",
          "type": "uint256"
        }
      ],
      "stateMutability": "pure",
      "type": "function"
    },
    {
      "inputs": [
        {
          "internalType": "uint256",
          "name": "_outputBlindedUserState",
          "type": "uint256"
        },
        {
          "internalType": "uint256",
          "name": "_outputBlindedHashChain",
          "type": "uint256"
        },
        {
          "internalType": "uint256",
          "name": "_inputBlindedUserState",
          "type": "uint256"
        },
        {
          "internalType": "uint256[8]",
          "name": "_proof",
          "type": "uint256[8]"
        }
      ],
      "name": "hashProcessAttestationsProof",
      "outputs": [
        {
          "internalType": "bytes32",
          "name": "",
          "type": "bytes32"
        }
      ],
      "stateMutability": "pure",
      "type": "function"
    },
    {
      "inputs": [
        {
          "components": [
            {
              "internalType": "uint256[]",
              "name": "repNullifiers",
              "type": "uint256[]"
            },
            {
              "internalType": "uint256",
              "name": "epoch",
              "type": "uint256"
            },
            {
              "internalType": "uint256",
              "name": "epochKey",
              "type": "uint256"
            },
            {
              "internalType": "uint256",
              "name": "globalStateTree",
              "type": "uint256"
            },
            {
              "internalType": "uint256",
              "name": "attesterId",
              "type": "uint256"
            },
            {
              "internalType": "uint256",
              "name": "proveReputationAmount",
              "type": "uint256"
            },
            {
              "internalType": "uint256",
              "name": "minRep",
              "type": "uint256"
            },
            {
              "internalType": "uint256",
              "name": "proveGraffiti",
              "type": "uint256"
            },
            {
              "internalType": "uint256",
              "name": "graffitiPreImage",
              "type": "uint256"
            },
            {
              "internalType": "uint256[8]",
              "name": "proof",
              "type": "uint256[8]"
            }
          ],
          "internalType": "struct UnirepParameters.ReputationProofRelated",
          "name": "reputationProofData",
          "type": "tuple"
        }
      ],
      "name": "hashReputationProof",
      "outputs": [
        {
          "internalType": "bytes32",
          "name": "",
          "type": "bytes32"
        }
      ],
      "stateMutability": "pure",
      "type": "function"
    },
    {
      "inputs": [
        {
          "components": [
            {
              "internalType": "uint256",
              "name": "epoch",
              "type": "uint256"
            },
            {
              "internalType": "uint256",
              "name": "epochKey",
              "type": "uint256"
            },
            {
              "internalType": "uint256",
              "name": "globalStateTree",
              "type": "uint256"
            },
            {
              "internalType": "uint256",
              "name": "attesterId",
              "type": "uint256"
            },
            {
              "internalType": "uint256",
              "name": "userHasSignedUp",
              "type": "uint256"
            },
            {
              "internalType": "uint256[8]",
              "name": "proof",
              "type": "uint256[8]"
            }
          ],
          "internalType": "struct UnirepParameters.SignUpProofRelated",
          "name": "signUpProofData",
          "type": "tuple"
        }
      ],
      "name": "hashSignUpProof",
      "outputs": [
        {
          "internalType": "bytes32",
          "name": "",
          "type": "bytes32"
        }
      ],
      "stateMutability": "pure",
      "type": "function"
    },
    {
      "inputs": [
        {
          "internalType": "uint256",
          "name": "_blindedUserState",
          "type": "uint256"
        },
        {
          "internalType": "uint256",
          "name": "_blindedHashChain",
          "type": "uint256"
        },
        {
          "internalType": "uint256",
          "name": "_globalStateTree",
          "type": "uint256"
        },
        {
          "internalType": "uint256[8]",
          "name": "_proof",
          "type": "uint256[8]"
        }
      ],
      "name": "hashStartTransitionProof",
      "outputs": [
        {
          "internalType": "bytes32",
          "name": "",
          "type": "bytes32"
        }
      ],
      "stateMutability": "pure",
      "type": "function"
    },
    {
      "inputs": [
        {
          "components": [
            {
              "internalType": "uint256",
              "name": "identityCommitment",
              "type": "uint256"
            },
            {
              "internalType": "uint256",
              "name": "userStateRoot",
              "type": "uint256"
            }
          ],
          "internalType": "struct DomainObjs.StateLeaf",
          "name": "_stateLeaf",
          "type": "tuple"
        }
      ],
      "name": "hashStateLeaf",
      "outputs": [
        {
          "internalType": "uint256",
          "name": "",
          "type": "uint256"
        }
      ],
      "stateMutability": "pure",
      "type": "function"
    },
    {
      "inputs": [
        {
          "components": [
            {
              "internalType": "uint256",
              "name": "newGlobalStateTreeLeaf",
              "type": "uint256"
            },
            {
              "internalType": "uint256[]",
              "name": "epkNullifiers",
              "type": "uint256[]"
            },
            {
              "internalType": "uint256",
              "name": "transitionFromEpoch",
              "type": "uint256"
            },
            {
              "internalType": "uint256[]",
              "name": "blindedUserStates",
              "type": "uint256[]"
            },
            {
              "internalType": "uint256",
              "name": "fromGlobalStateTree",
              "type": "uint256"
            },
            {
              "internalType": "uint256[]",
              "name": "blindedHashChains",
              "type": "uint256[]"
            },
            {
              "internalType": "uint256",
              "name": "fromEpochTree",
              "type": "uint256"
            },
            {
              "internalType": "uint256[8]",
              "name": "proof",
              "type": "uint256[8]"
            }
          ],
          "internalType": "struct UnirepParameters.UserTransitionedRelated",
          "name": "userTransitionedData",
          "type": "tuple"
        }
      ],
      "name": "hashUserStateTransitionProof",
      "outputs": [
        {
          "internalType": "bytes32",
          "name": "",
          "type": "bytes32"
        }
      ],
      "stateMutability": "pure",
      "type": "function"
    },
    {
      "inputs": [],
      "name": "hashedBlankStateLeaf",
      "outputs": [
        {
          "internalType": "uint256",
          "name": "",
          "type": "uint256"
        }
      ],
      "stateMutability": "view",
      "type": "function"
    },
    {
      "inputs": [],
      "name": "latestEpochTransitionTime",
      "outputs": [
        {
          "internalType": "uint256",
          "name": "",
          "type": "uint256"
        }
      ],
      "stateMutability": "view",
      "type": "function"
    },
    {
      "inputs": [],
      "name": "maxAttesters",
      "outputs": [
        {
          "internalType": "uint256",
          "name": "",
          "type": "uint256"
        }
      ],
      "stateMutability": "view",
      "type": "function"
    },
    {
      "inputs": [],
      "name": "maxReputationBudget",
      "outputs": [
        {
          "internalType": "uint8",
          "name": "",
          "type": "uint8"
        }
      ],
      "stateMutability": "view",
      "type": "function"
    },
    {
      "inputs": [],
      "name": "maxUsers",
      "outputs": [
        {
          "internalType": "uint256",
          "name": "",
          "type": "uint256"
        }
      ],
      "stateMutability": "view",
      "type": "function"
    },
    {
      "inputs": [],
      "name": "nextAttesterId",
      "outputs": [
        {
          "internalType": "uint256",
          "name": "",
          "type": "uint256"
        }
      ],
      "stateMutability": "view",
      "type": "function"
    },
    {
      "inputs": [],
      "name": "numEpochKeyNoncePerEpoch",
      "outputs": [
        {
          "internalType": "uint8",
          "name": "",
          "type": "uint8"
        }
      ],
      "stateMutability": "view",
      "type": "function"
    },
    {
      "inputs": [],
      "name": "numUserSignUps",
      "outputs": [
        {
          "internalType": "uint256",
          "name": "",
          "type": "uint256"
        }
      ],
      "stateMutability": "view",
      "type": "function"
    },
    {
      "inputs": [
        {
          "internalType": "uint256",
          "name": "_outputBlindedUserState",
          "type": "uint256"
        },
        {
          "internalType": "uint256",
          "name": "_outputBlindedHashChain",
          "type": "uint256"
        },
        {
          "internalType": "uint256",
          "name": "_inputBlindedUserState",
          "type": "uint256"
        },
        {
          "internalType": "uint256[8]",
          "name": "_proof",
          "type": "uint256[8]"
        }
      ],
      "name": "processAttestations",
      "outputs": [],
      "stateMutability": "nonpayable",
      "type": "function"
    },
    {
      "inputs": [
        {
          "internalType": "uint256",
          "name": "_airdropAmount",
          "type": "uint256"
        }
      ],
      "name": "setAirdropAmount",
      "outputs": [],
      "stateMutability": "nonpayable",
      "type": "function"
    },
    {
      "inputs": [
        {
          "components": [
            {
              "internalType": "uint256[]",
              "name": "repNullifiers",
              "type": "uint256[]"
            },
            {
              "internalType": "uint256",
              "name": "epoch",
              "type": "uint256"
            },
            {
              "internalType": "uint256",
              "name": "epochKey",
              "type": "uint256"
            },
            {
              "internalType": "uint256",
              "name": "globalStateTree",
              "type": "uint256"
            },
            {
              "internalType": "uint256",
              "name": "attesterId",
              "type": "uint256"
            },
            {
              "internalType": "uint256",
              "name": "proveReputationAmount",
              "type": "uint256"
            },
            {
              "internalType": "uint256",
              "name": "minRep",
              "type": "uint256"
            },
            {
              "internalType": "uint256",
              "name": "proveGraffiti",
              "type": "uint256"
            },
            {
              "internalType": "uint256",
              "name": "graffitiPreImage",
              "type": "uint256"
            },
            {
              "internalType": "uint256[8]",
              "name": "proof",
              "type": "uint256[8]"
            }
          ],
          "internalType": "struct UnirepParameters.ReputationProofRelated",
          "name": "reputationProofData",
          "type": "tuple"
        }
      ],
      "name": "spendReputation",
      "outputs": [],
      "stateMutability": "payable",
      "type": "function"
    },
    {
      "inputs": [
        {
          "internalType": "uint256",
          "name": "_blindedUserState",
          "type": "uint256"
        },
        {
          "internalType": "uint256",
          "name": "_blindedHashChain",
          "type": "uint256"
        },
        {
          "internalType": "uint256",
          "name": "_globalStateTree",
          "type": "uint256"
        },
        {
          "internalType": "uint256[8]",
          "name": "_proof",
          "type": "uint256[8]"
        }
      ],
      "name": "startUserStateTransition",
      "outputs": [],
      "stateMutability": "nonpayable",
      "type": "function"
    },
    {
      "inputs": [
        {
          "components": [
            {
              "internalType": "uint256",
              "name": "attesterId",
              "type": "uint256"
            },
            {
              "internalType": "uint256",
              "name": "posRep",
              "type": "uint256"
            },
            {
              "internalType": "uint256",
              "name": "negRep",
              "type": "uint256"
            },
            {
              "internalType": "uint256",
              "name": "graffiti",
              "type": "uint256"
            },
            {
              "internalType": "uint256",
              "name": "signUp",
              "type": "uint256"
            }
          ],
          "internalType": "struct DomainObjs.Attestation",
          "name": "attestation",
          "type": "tuple"
        },
        {
          "internalType": "uint256",
          "name": "epochKey",
          "type": "uint256"
        },
        {
          "internalType": "uint256",
          "name": "_proofIndex",
          "type": "uint256"
        }
      ],
      "name": "submitAttestation",
      "outputs": [],
      "stateMutability": "payable",
      "type": "function"
    },
    {
      "inputs": [
        {
          "internalType": "address",
          "name": "attester",
          "type": "address"
        },
        {
          "internalType": "bytes",
          "name": "signature",
          "type": "bytes"
        },
        {
          "components": [
            {
              "internalType": "uint256",
              "name": "attesterId",
              "type": "uint256"
            },
            {
              "internalType": "uint256",
              "name": "posRep",
              "type": "uint256"
            },
            {
              "internalType": "uint256",
              "name": "negRep",
              "type": "uint256"
            },
            {
              "internalType": "uint256",
              "name": "graffiti",
              "type": "uint256"
            },
            {
              "internalType": "uint256",
              "name": "signUp",
              "type": "uint256"
            }
          ],
          "internalType": "struct DomainObjs.Attestation",
          "name": "attestation",
          "type": "tuple"
        },
        {
          "internalType": "uint256",
          "name": "epochKey",
          "type": "uint256"
        },
        {
          "internalType": "uint256",
          "name": "_proofIndex",
          "type": "uint256"
        }
      ],
      "name": "submitAttestationViaRelayer",
      "outputs": [],
      "stateMutability": "payable",
      "type": "function"
    },
    {
      "inputs": [
        {
          "components": [
            {
              "internalType": "uint256",
              "name": "globalStateTree",
              "type": "uint256"
            },
            {
              "internalType": "uint256",
              "name": "epoch",
              "type": "uint256"
            },
            {
              "internalType": "uint256",
              "name": "epochKey",
              "type": "uint256"
            },
            {
              "internalType": "uint256[8]",
              "name": "proof",
              "type": "uint256[8]"
            }
          ],
          "internalType": "struct UnirepParameters.EpochKeyProofRelated",
          "name": "epochKeyProofData",
          "type": "tuple"
        }
      ],
      "name": "submitEpochKeyProof",
      "outputs": [],
      "stateMutability": "nonpayable",
      "type": "function"
    },
    {
      "inputs": [],
      "name": "treeDepths",
      "outputs": [
        {
          "internalType": "uint8",
          "name": "globalStateTreeDepth",
          "type": "uint8"
        },
        {
          "internalType": "uint8",
          "name": "userStateTreeDepth",
          "type": "uint8"
        },
        {
          "internalType": "uint8",
          "name": "epochTreeDepth",
          "type": "uint8"
        }
      ],
      "stateMutability": "view",
      "type": "function"
    },
    {
      "inputs": [
        {
          "internalType": "uint256[8]",
          "name": "_proof",
          "type": "uint256[8]"
        }
      ],
      "name": "unpackProof",
      "outputs": [
        {
          "internalType": "uint256[2]",
          "name": "",
          "type": "uint256[2]"
        },
        {
          "internalType": "uint256[2][2]",
          "name": "",
          "type": "uint256[2][2]"
        },
        {
          "internalType": "uint256[2]",
          "name": "",
          "type": "uint256[2]"
        }
      ],
      "stateMutability": "pure",
      "type": "function"
    },
    {
      "inputs": [
        {
          "components": [
            {
              "internalType": "uint256",
              "name": "newGlobalStateTreeLeaf",
              "type": "uint256"
            },
            {
              "internalType": "uint256[]",
              "name": "epkNullifiers",
              "type": "uint256[]"
            },
            {
              "internalType": "uint256",
              "name": "transitionFromEpoch",
              "type": "uint256"
            },
            {
              "internalType": "uint256[]",
              "name": "blindedUserStates",
              "type": "uint256[]"
            },
            {
              "internalType": "uint256",
              "name": "fromGlobalStateTree",
              "type": "uint256"
            },
            {
              "internalType": "uint256[]",
              "name": "blindedHashChains",
              "type": "uint256[]"
            },
            {
              "internalType": "uint256",
              "name": "fromEpochTree",
              "type": "uint256"
            },
            {
              "internalType": "uint256[8]",
              "name": "proof",
              "type": "uint256[8]"
            }
          ],
          "internalType": "struct UnirepParameters.UserTransitionedRelated",
          "name": "userTransitionedData",
          "type": "tuple"
        },
        {
          "internalType": "uint256[]",
          "name": "proofIndexRecords",
          "type": "uint256[]"
        }
      ],
      "name": "updateUserStateRoot",
      "outputs": [],
      "stateMutability": "nonpayable",
      "type": "function"
    },
    {
      "inputs": [
        {
          "internalType": "uint256",
          "name": "_identityCommitment",
          "type": "uint256"
        }
      ],
      "name": "userSignUp",
      "outputs": [],
      "stateMutability": "nonpayable",
      "type": "function"
    },
    {
      "inputs": [
        {
          "internalType": "uint256",
          "name": "_globalStateTree",
          "type": "uint256"
        },
        {
          "internalType": "uint256",
          "name": "_epoch",
          "type": "uint256"
        },
        {
          "internalType": "uint256",
          "name": "_epochKey",
          "type": "uint256"
        },
        {
          "internalType": "uint256[8]",
          "name": "_proof",
          "type": "uint256[8]"
        }
      ],
      "name": "verifyEpochKeyValidity",
      "outputs": [
        {
          "internalType": "bool",
          "name": "",
          "type": "bool"
        }
      ],
      "stateMutability": "view",
      "type": "function"
    },
    {
      "inputs": [
        {
          "internalType": "uint256",
          "name": "_outputBlindedUserState",
          "type": "uint256"
        },
        {
          "internalType": "uint256",
          "name": "_outputBlindedHashChain",
          "type": "uint256"
        },
        {
          "internalType": "uint256",
          "name": "_inputBlindedUserState",
          "type": "uint256"
        },
        {
          "internalType": "uint256[8]",
          "name": "_proof",
          "type": "uint256[8]"
        }
      ],
      "name": "verifyProcessAttestationProof",
      "outputs": [
        {
          "internalType": "bool",
          "name": "",
          "type": "bool"
        }
      ],
      "stateMutability": "view",
      "type": "function"
    },
    {
      "inputs": [
        {
          "internalType": "uint256[]",
          "name": "_repNullifiers",
          "type": "uint256[]"
        },
        {
          "internalType": "uint256",
          "name": "_epoch",
          "type": "uint256"
        },
        {
          "internalType": "uint256",
          "name": "_epochKey",
          "type": "uint256"
        },
        {
          "internalType": "uint256",
          "name": "_globalStateTree",
          "type": "uint256"
        },
        {
          "internalType": "uint256",
          "name": "_attesterId",
          "type": "uint256"
        },
        {
          "internalType": "uint256",
          "name": "_proveReputationAmount",
          "type": "uint256"
        },
        {
          "internalType": "uint256",
          "name": "_minRep",
          "type": "uint256"
        },
        {
          "internalType": "uint256",
          "name": "_proveGraffiti",
          "type": "uint256"
        },
        {
          "internalType": "uint256",
          "name": "_graffitiPreImage",
          "type": "uint256"
        },
        {
          "internalType": "uint256[8]",
          "name": "_proof",
          "type": "uint256[8]"
        }
      ],
      "name": "verifyReputation",
      "outputs": [
        {
          "internalType": "bool",
          "name": "",
          "type": "bool"
        }
      ],
      "stateMutability": "view",
      "type": "function"
    },
    {
      "inputs": [
        {
          "internalType": "uint256",
          "name": "_blindedUserState",
          "type": "uint256"
        },
        {
          "internalType": "uint256",
          "name": "_blindedHashChain",
          "type": "uint256"
        },
        {
          "internalType": "uint256",
          "name": "_GSTRoot",
          "type": "uint256"
        },
        {
          "internalType": "uint256[8]",
          "name": "_proof",
          "type": "uint256[8]"
        }
      ],
      "name": "verifyStartTransitionProof",
      "outputs": [
        {
          "internalType": "bool",
          "name": "",
          "type": "bool"
        }
      ],
      "stateMutability": "view",
      "type": "function"
    },
    {
      "inputs": [
        {
          "internalType": "uint256",
          "name": "_epoch",
          "type": "uint256"
        },
        {
          "internalType": "uint256",
          "name": "_epochKey",
          "type": "uint256"
        },
        {
          "internalType": "uint256",
          "name": "_globalStateTree",
          "type": "uint256"
        },
        {
          "internalType": "uint256",
          "name": "_attesterId",
          "type": "uint256"
        },
        {
          "internalType": "uint256",
          "name": "_userHasSignedUp",
          "type": "uint256"
        },
        {
          "internalType": "uint256[8]",
          "name": "_proof",
          "type": "uint256[8]"
        }
      ],
      "name": "verifyUserSignUp",
      "outputs": [
        {
          "internalType": "bool",
          "name": "",
          "type": "bool"
        }
      ],
      "stateMutability": "view",
      "type": "function"
    },
    {
      "inputs": [
        {
          "internalType": "uint256",
          "name": "_newGlobalStateTreeLeaf",
          "type": "uint256"
        },
        {
          "internalType": "uint256[]",
          "name": "_epkNullifiers",
          "type": "uint256[]"
        },
        {
          "internalType": "uint256",
          "name": "_transitionFromEpoch",
          "type": "uint256"
        },
        {
          "internalType": "uint256[]",
          "name": "_blindedUserStates",
          "type": "uint256[]"
        },
        {
          "internalType": "uint256",
          "name": "_fromGlobalStateTree",
          "type": "uint256"
        },
        {
          "internalType": "uint256[]",
          "name": "_blindedHashChains",
          "type": "uint256[]"
        },
        {
          "internalType": "uint256",
          "name": "_fromEpochTree",
          "type": "uint256"
        },
        {
          "internalType": "uint256[8]",
          "name": "_proof",
          "type": "uint256[8]"
        }
      ],
      "name": "verifyUserStateTransition",
      "outputs": [
        {
          "internalType": "bool",
          "name": "",
          "type": "bool"
        }
      ],
      "stateMutability": "view",
      "type": "function"
    }
  ],
  "bytecode": "0x6101606040527f30644e72e131a029b85045b68181585d2833e84879b9709143e1f593f00000016200003361018062000762565b6040516020818303038152906040528051906020012060001c62000058919062000a56565b60005560016007556000600a556001600b5560016011553480156200007c57600080fd5b5060405162005fe738038062005fe78339810160408190526200009f916200061f565b8b601360008201518160000160006101000a81548160ff021916908360ff16021790555060208201518160000160016101000a81548160ff021916908360ff16021790555060408201518160000160026101000a81548160ff021916908360ff16021790555090505089600160006101000a8154816001600160a01b0302191690836001600160a01b0316021790555088600260006101000a8154816001600160a01b0302191690836001600160a01b0316021790555087600360006101000a8154816001600160a01b0302191690836001600160a01b0316021790555086600460006101000a8154816001600160a01b0302191690836001600160a01b0316021790555085600560006101000a8154816001600160a01b0302191690836001600160a01b0316021790555084600660006101000a8154816001600160a01b0302191690836001600160a01b031602179055508360ff1660c08160ff1660f81b815250508260ff1660e08160ff1660f81b81525050816080818152505042600881905550600060018d6000015160026200023a919062000921565b62000246919062000a19565b9050808c600001511115620002785760405162461bcd60e51b81526004016200026f9062000823565b60405180910390fd5b8b516101005260208d01516000906001906200029690600262000921565b620002a2919062000a19565b9050808d602001511115620002cb5760405162461bcd60e51b81526004016200026f906200085a565b6020808e0151610120528e0151620002e3906200030e565b6009558d51620002f39062000390565b60a0525050610140525062000a8d9950505050505050505050565b60006200031a62000585565b60005b60058160ff1610156200036a576000828260ff16600581106200035057634e487b7160e01b600052603260045260246000fd5b602002015280620003618162000a33565b9150506200031d565b5060006200037882620003b4565b90506200038684826200044a565b925050505b919050565b604080518082019091526000808252600954602083015290816200037882620004d2565b604051630926f44b60e31b815260009073__$61800e922196a95eb70dc1bd65191ef757$__90634937a25890620003f0908590600401620007a7565b60206040518083038186803b1580156200040957600080fd5b505af41580156200041e573d6000803e3d6000fd5b505050506040513d601f19601f8201168201806040525081019062000444919062000749565b92915050565b6000808360ff161180156200046457506101008360ff1611155b620004835760405162461bcd60e51b81526004016200026f90620007d1565b8160015b8460ff168160ff161015620004bd576000620004a48380620004e2565b9250819050620004b48162000a33565b91505062000487565b50620004ca8180620004e2565b949350505050565b8051602082015160009162000444915b6000620004ee620005a3565b838152602081018390526040516314d2f97b60e11b815273__$0098a6e9267037f9f6df61985348dda7d9$__906329a5f2f6906200053190849060040162000774565b60206040518083038186803b1580156200054a57600080fd5b505af41580156200055f573d6000803e3d6000fd5b505050506040513d601f19601f82011682018060405250810190620004ca919062000749565b6040518060a001604052806005906020820280368337509192915050565b60405180604001604052806002906020820280368337509192915050565b80516001600160a01b03811681146200038b57600080fd5b600060408284031215620005eb578081fd5b620005f760406200089c565b9050815181526020820151602082015292915050565b805160ff811681146200038b57600080fd5b6000806000806000806000806000806000808c8e036101e081121562000643578889fd5b606081121562000651578889fd5b506200065e60606200089c565b620006698e6200060d565b81526200067960208f016200060d565b60208201526200068c60408f016200060d565b60408201529b50620006a28e60608f01620005d9565b9a50620006b260a08e01620005c1565b9950620006c260c08e01620005c1565b9850620006d260e08e01620005c1565b9750620006e36101008e01620005c1565b9650620006f46101208e01620005c1565b9550620007056101408e01620005c1565b9450620007166101608e016200060d565b9350620007276101808e016200060d565b92506101a08d015191506101c08d015190509295989b509295989b509295989b565b6000602082840312156200075b578081fd5b5051919050565b650556e697265760d41b815260060190565b60408101818360005b60028110156200079e5781518352602092830192909101906001016200077d565b50505092915050565b60a08101818360005b60058110156200079e578151835260209283019290910190600101620007b0565b60208082526032908201527f436f6d70757465526f6f743a205f747265654c6576656c73206d757374206265604082015271103132ba3bb2b2b710181030b73210191a9b60711b606082015260800190565b6020808252601e908201527f556e697265703a20696e76616c6964206d617855736572732076616c75650000604082015260600190565b60208082526022908201527f556e697265703a20696e76616c6964206d61784174746573746572732076616c604082015261756560f01b606082015260800190565b6040518181016001600160401b0381118282101715620008cc57634e487b7160e01b600052604160045260246000fd5b604052919050565b80825b6001808611620008e8575062000918565b818704821115620008fd57620008fd62000a77565b808616156200090b57918102915b9490941c938002620008d7565b94509492505050565b60006200093560001960ff8516846200093c565b9392505050565b6000826200094d5750600162000935565b816200095c5750600062000935565b81600181146200097557600281146200098057620009b4565b600191505062000935565b60ff84111562000994576200099462000a77565b6001841b915084821115620009ad57620009ad62000a77565b5062000935565b5060208310610133831016604e8410600b8410161715620009ec575081810a83811115620009e657620009e662000a77565b62000935565b620009fb8484846001620008d4565b80860482111562000a105762000a1062000a77565b02949350505050565b60008282101562000a2e5762000a2e62000a77565b500390565b600060ff821660ff81141562000a4d5762000a4d62000a77565b60010192915050565b60008262000a7257634e487b7160e01b81526012600452602481fd5b500690565b634e487b7160e01b600052601160045260246000fd5b60805160a05160c05160f81c60e05160f81c61010051610120516101405161542e62000bb960003960008181610a37015281816119c601528181611c8301528181611dc101526126df0152600081816115fa01528181611e960152613021015260008181611145015261296d015260008181610bd601528181610c7101528181610cc301528181610d1c01528181610d7501528181610dce01528181610e2701528181610e8001528181610ed901528181611a0a0152612803015260008181611340015281816113ac01528181612269015281816129b601528181612a6e01528181612b1801528181612b9601528181612c1901528181612c7701528181612ccf01528181612d290152612da401526000612061015260008181611664015261286f015261542e6000f3fe60806040526004361061034f5760003560e01c80639cfced97116101c6578063bff3df41116100f7578063e79e23e911610095578063f5ab0dd61161006f578063f5ab0dd6146108fb578063f73c8ebb1461092a578063fadd942d1461094a578063fc14478a1461095f5761034f565b8063e79e23e9146108a6578063e87101b1146108c6578063f20ca7ff146108db5761034f565b8063cd5032e2116100d1578063cd5032e21461083c578063d3aa645b1461085c578063de7238861461087c578063e1b0e802146108915761034f565b8063bff3df41146107ff578063c263967314610812578063c6e01232146108275761034f565b8063a7c264ca11610164578063ad944e471161013e578063ad944e471461077f578063b530dc8c1461079f578063b876ed71146107bf578063be997571146107df5761034f565b8063a7c264ca14610724578063a7ebaa7514610746578063ac98e5df1461075b5761034f565b8063a27e572a116101a0578063a27e572a146106ba578063a3836b20146106cf578063a5500c30146106e4578063a710d60f146107045761034f565b80639cfced971461065a5780639e2e79dc1461067a578063a14a9fe21461069a5761034f565b806357d775f8116102a0578063766718081161023e57806385c053ae1161021857806385c053ae146105fd5780639109d1eb14610610578063918f0c161461062557806398588c1f1461063a5761034f565b806376671808146105b3578063839beeb8146105c857806383e168ad146105dd5761034f565b8063606736fb1161027a578063606736fb1461054b57806366c0f31f1461055e578063705edd391461057e5780637341ead9146105935761034f565b806357d775f8146104f65780635b3745b51461050b5780635bb939951461052b5761034f565b80632b95f97e1161030d578063417b16e3116102e7578063417b16e314610481578063494e2171146104a15780634edc9ace146104c157806356df4634146104e15761034f565b80632b95f97e146104215780633334dc5b146104415780633acce985146104615761034f565b806292ad661461035457806305d9ab821461036957806307d833081461039f578063131a91ad146103b4578063132331f2146103d45780631c89e8e8146103f4575b600080fd5b610367610362366004613b1b565b61097f565b005b34801561037557600080fd5b50610389610384366004613d9e565b610afc565b604051610396919061459f565b60405180910390f35b3480156103ab57600080fd5b50610389610b43565b3480156103c057600080fd5b506103896103cf366004613ab1565b610b49565b3480156103e057600080fd5b506103896103ef366004613ce5565b610b5b565b34801561040057600080fd5b5061041461040f366004613ce5565b610b6d565b6040516103969190614594565b34801561042d57600080fd5b5061038961043c366004613ce5565b610b82565b34801561044d57600080fd5b5061041461045c366004613c24565b610ba9565b34801561046d57600080fd5b5061038961047c366004614112565b61108e565b34801561048d57600080fd5b5061036761049c366004613ce5565b611114565b3480156104ad57600080fd5b506103676104bc366004613fdb565b6112df565b3480156104cd57600080fd5b506103896104dc3660046141fa565b611557565b3480156104ed57600080fd5b506103676115cb565b34801561050257600080fd5b50610389611662565b34801561051757600080fd5b50610414610526366004614133565b611686565b34801561053757600080fd5b50610389610546366004614112565b611891565b610367610559366004613e08565b61192c565b34801561056a57600080fd5b50610367610579366004613d9e565b611b71565b34801561058a57600080fd5b50610389611c40565b34801561059f57600080fd5b506103896105ae366004613f5c565b611c67565b3480156105bf57600080fd5b50610389611c7b565b3480156105d457600080fd5b50610389611c81565b3480156105e957600080fd5b506103896105f8366004614223565b611ca5565b61036761060b366004613cfd565b611d64565b34801561061c57600080fd5b50610389611e52565b34801561063157600080fd5b50610389611e58565b34801561064657600080fd5b50610367610655366004613acb565b611e5e565b34801561066657600080fd5b50610389610675366004613b92565b611f40565b34801561068657600080fd5b50610389610695366004614173565b611fca565b3480156106a657600080fd5b506103896106b5366004613fa9565b612003565b3480156106c657600080fd5b5061036761203d565b3480156106db57600080fd5b5061038961205f565b3480156106f057600080fd5b506103676106ff366004613ce5565b612083565b34801561071057600080fd5b5061041461071f366004614133565b6120c1565b34801561073057600080fd5b50610739612267565b6040516103969190615223565b34801561075257600080fd5b5061036761228b565b34801561076757600080fd5b506107706122a0565b60405161039693929190615231565b34801561078b57600080fd5b5061038961079a366004613e08565b6122bc565b3480156107ab57600080fd5b506103896107ba366004613ab1565b612302565b3480156107cb57600080fd5b506103676107da366004614133565b612314565b3480156107eb57600080fd5b506104146107fa3660046141a8565b6123dc565b61036761080d366004613ede565b612645565b34801561081e57600080fd5b50610739612801565b34801561083357600080fd5b50610389612825565b34801561084857600080fd5b50610389610857366004613ede565b61282b565b34801561086857600080fd5b50610389610877366004613ab1565b612856565b34801561088857600080fd5b50610367612868565b34801561089d57600080fd5b5061038961296b565b3480156108b257600080fd5b506103896108c1366004614133565b61298f565b3480156108d257600080fd5b506103896129a8565b3480156108e757600080fd5b506104146108f6366004614053565b6129ae565b34801561090757600080fd5b5061091b610916366004613c08565b612ef6565b604051610396939291906144fc565b34801561093657600080fd5b50610367610945366004614133565b612f7f565b34801561095657600080fd5b5061038961301f565b34801561096b57600080fd5b5061041461097a366004614133565b613043565b6109bf8686868080601f0160208091040260200160405190810160405280939291908181526020018383808284376000920191909152506131e992505050565b6001600160a01b0386166000908152601060205260409020546109fd5760405162461bcd60e51b81526004016109f490614883565b60405180910390fd5b6001600160a01b038616600090815260106020526040902054833514610a355760405162461bcd60e51b81526004016109f490614e89565b7f00000000000000000000000000000000000000000000000000000000000000003414610a745760405162461bcd60e51b81526004016109f490614952565b8015801590610a845750600b5481105b610aa05760405162461bcd60e51b81526004016109f490614de2565b600e54610aad9034613276565b600e55610af486610ac336869003860186613d30565b84846040518060400160405280601181526020017039bab136b4ba20ba3a32b9ba30ba34b7b760791b815250613289565b505050505050565b60008160000151826020015183604001518460600151604051602001610b25949392919061446e565b6040516020818303038152906040528051906020012090505b919050565b600e5481565b60106020526000908152604090205481565b600c6020526000908152604090205481565b600d6020526000908152604090205460ff1681565b6000610b8c613747565b828152600160608201819052610ba182611f40565b949350505050565b6040805160128082526102608201909252600091829190602082016102408036833701905050905060005b7f000000000000000000000000000000000000000000000000000000000000000060ff168160ff161015610c6c578d8d8260ff16818110610c2557634e487b7160e01b600052603260045260246000fd5b90506020020135828260ff1681518110610c4f57634e487b7160e01b600052603260045260246000fd5b602090810291909101015280610c6481615342565b915050610bd4565b508a817f000000000000000000000000000000000000000000000000000000000000000060ff1681518110610cb157634e487b7160e01b600052603260045260246000fd5b60209081029190910101528981610ce97f0000000000000000000000000000000000000000000000000000000000000000600161528f565b60ff1681518110610d0a57634e487b7160e01b600052603260045260246000fd5b60209081029190910101528881610d427f0000000000000000000000000000000000000000000000000000000000000000600261528f565b60ff1681518110610d6357634e487b7160e01b600052603260045260246000fd5b60209081029190910101528781610d9b7f0000000000000000000000000000000000000000000000000000000000000000600361528f565b60ff1681518110610dbc57634e487b7160e01b600052603260045260246000fd5b60209081029190910101528681610df47f0000000000000000000000000000000000000000000000000000000000000000600461528f565b60ff1681518110610e1557634e487b7160e01b600052603260045260246000fd5b60209081029190910101528581610e4d7f0000000000000000000000000000000000000000000000000000000000000000600561528f565b60ff1681518110610e6e57634e487b7160e01b600052603260045260246000fd5b60209081029190910101528481610ea67f0000000000000000000000000000000000000000000000000000000000000000600661528f565b60ff1681518110610ec757634e487b7160e01b600052603260045260246000fd5b60209081029190910101528381610eff7f0000000000000000000000000000000000000000000000000000000000000000600761528f565b60ff1681518110610f2057634e487b7160e01b600052603260045260246000fd5b60200260200101818152505060005b81518160ff161015610fa4576000805160206153b9833981519152828260ff1681518110610f6d57634e487b7160e01b600052603260045260246000fd5b602002602001015110610f925760405162461bcd60e51b81526004016109f490614ec0565b80610f9c81615342565b915050610f2f565b50610fad613765565b60408051610100818101909252610fdc9186906008908390839080828437600092019190915250612ef6915050565b60408085018290526020850183905283855260055490516361971b8760e11b81526001600160a01b039091169363c32e370e936110229391929091908890600401614525565b60206040518083038186803b15801561103a57600080fd5b505afa15801561104e573d6000803e3d6000fd5b505050506040513d601f19601f820116820180604052508101906110729190613cc5565b151560609091018190529150509b9a5050505050505050505050565b6000611098613747565b60005b60058160ff1610156110e3576000828260ff16600581106110cc57634e487b7160e01b600052603260045260246000fd5b6020020152806110db81615342565b91505061109b565b5060006110ef82611f40565b60135490915061110990610100900460ff16868684611ca5565b925050505b92915050565b6000818152600d602052604090205460ff16156111435760405162461bcd60e51b81526004016109f490614d4e565b7f0000000000000000000000000000000000000000000000000000000000000000600a54106111845760405162461bcd60e51b81526004016109f490614d94565b6009543360009081526010602090815260408083205460129092529091205481158015906111b25750600081115b156111d25760006111c282610b82565b90506111ce838261108e565b9350505b604080518082019091528481526020810184905260006111f182611c67565b6000878152600d60205260408120805460ff19166001179055600a80549293509061121b83615327565b91905055506007546000805160206153d983398151915260405161123e90614aee565b60405180910390a2600b547fbdcb306569af4b00571f0633c2439c458084e1beac220a28ea9678a2f01ca1e287868660405161127c9392919061520d565b60405180910390a26007547f9d6db97120dc5c5f0a16903f507cbe1b12cb72d2c8d70511a607e36c407f357082600b546040516112ba9291906151db565b60405180910390a2600b80549060006112d283615327565b9190505550505050505050565b60006112ea83612003565b6000818152600c6020526040902054909150156113195760405162461bcd60e51b81526004016109f4906146d2565b60075483604001511061133e5760405162461bcd60e51b81526004016109f490614bbf565b7f000000000000000000000000000000000000000000000000000000000000000060ff16836020015151146113855760405162461bcd60e51b81526004016109f490614f1d565b8260600151516002146113aa5760405162461bcd60e51b81526004016109f4906147ec565b7f000000000000000000000000000000000000000000000000000000000000000060ff168360a0015151146113f15760405162461bcd60e51b81526004016109f490614c7d565b60005b825181101561148b5782818151811061141d57634e487b7160e01b600052603260045260246000fd5b602002602001015160001415801561145d5750600b5483828151811061145357634e487b7160e01b600052603260045260246000fd5b6020026020010151105b6114795760405162461bcd60e51b81526004016109f490614de2565b8061148381615327565b9150506113f4565b50600b546007546040516000805160206153d9833981519152906114ae90614aee565b60405180910390a2807fa3d7129bf8db65e6f71041b8077847055075a4ea01972b05cd7a2794b812fd5985856040516114e892919061510a565b60405180910390a260075484516040517f9d6db97120dc5c5f0a16903f507cbe1b12cb72d2c8d70511a607e36c407f3570916115259185906151db565b60405180910390a26000828152600c60205260408120829055600b80549161154c83615327565b919050555050505050565b6000808360ff1611801561157057506101008360ff1611155b61158c5760405162461bcd60e51b81526004016109f490614900565b8160015b8460ff168160ff1610156115c05760006115aa8384611891565b92508190506115b881615342565b915050611590565b50610ba18182611891565b33600090815260106020526040902054156115f85760405162461bcd60e51b81526004016109f49061468c565b7f0000000000000000000000000000000000000000000000000000000000000000601154106116395760405162461bcd60e51b81526004016109f490614c2b565b6011805433600090815260106020526040812082905590919061165b83615327565b9190505550565b7f000000000000000000000000000000000000000000000000000000000000000081565b604080516003808252608082019092526000918291906020820160608036833701905050905085816000815181106116ce57634e487b7160e01b600052603260045260246000fd5b60200260200101818152505084816001815181106116fc57634e487b7160e01b600052603260045260246000fd5b602002602001018181525050838160028151811061172a57634e487b7160e01b600052603260045260246000fd5b60200260200101818152505060005b81518160ff1610156117ae576000805160206153b9833981519152828260ff168151811061177757634e487b7160e01b600052603260045260246000fd5b60200260200101511061179c5760405162461bcd60e51b81526004016109f490614ec0565b806117a681615342565b915050611739565b506117b7613765565b604080516101008181019092526117e69186906008908390839080828437600092019190915250612ef6915050565b60408085018290526020850183905283855260025490516361971b8760e11b81526001600160a01b039091169363c32e370e9361182c9391929091908890600401614525565b60206040518083038186803b15801561184457600080fd5b505afa158015611858573d6000803e3d6000fd5b505050506040513d601f19601f8201168201806040525081019061187c9190613cc5565b15156060909101819052915050949350505050565b600061189b61379f565b838152602081018390526040516314d2f97b60e11b815273__$0098a6e9267037f9f6df61985348dda7d9$__906329a5f2f6906118dc9084906004016144cb565b60206040518083038186803b1580156118f457600080fd5b505af4158015611908573d6000803e3d6000fd5b505050506040513d601f19601f82011682018060405250810190610ba1919061403b565b6000611937826122bc565b6000818152600c6020526040902054909150156119665760405162461bcd60e51b81526004016109f4906146d2565b336000908152601060205260409020546119925760405162461bcd60e51b81526004016109f490614883565b608082015133600090815260106020526040902054146119c45760405162461bcd60e51b81526004016109f490614e89565b7f00000000000000000000000000000000000000000000000000000000000000003414611a035760405162461bcd60e51b81526004016109f490614952565b81515160ff7f00000000000000000000000000000000000000000000000000000000000000001614611a475760405162461bcd60e51b81526004016109f490614b1a565b600754826020015114611a6c5760405162461bcd60e51b81526004016109f4906149c2565b60808201513360009081526010602052604090205414611a9e5760405162461bcd60e51b81526004016109f490614f65565b600e54611aab9034613276565b600e55611ab66137bd565b336000908152601060205260409081902054825260a084015182820152600b548482015160075492519192909183907f6f4fad105d3b85f479e2759c478e3421a03542bca611355cc4fe1c05f2e709fd90611b12908990615036565b60405180910390a4611b5233838660400151846040518060400160405280600f81526020016e39b832b7322932b83aba30ba34b7b760891b815250613289565b6000838152600c60205260408120829055600b80549161154c83615327565b6000611b7c82610afc565b6000818152600c602052604090205490915015611bab5760405162461bcd60e51b81526004016109f4906146d2565b600754826020015114611bd05760405162461bcd60e51b81526004016109f490614b69565b6000600b5490508260400151600754827f95ee0c01db4292223c6ea48c378c571eb2c446947033fa510deed7b124621ca286604051611c0f9190614ffc565b60405180910390a46000828152600c60205260408120829055600b805491611c3683615327565b9190505550505050565b604080518082019091526000808252600954602083015290611c6181611c67565b91505090565b600061110e82600001518360200151611891565b60075481565b7f000000000000000000000000000000000000000000000000000000000000000081565b6000808560ff16118015611cbe57506101008560ff1611155b611cda5760405162461bcd60e51b81526004016109f490614900565b82828560015b611ceb89600161528f565b60ff168160ff161015611d57576000611d048485611891565b9050611d11600284615362565b611d2657611d1f8585611891565b9450611d33565b611d308486611891565b94505b925082611d416002846152b4565b9250508080611d4f90615342565b915050611ce0565b5091979650505050505050565b33600090815260106020526040902054611d905760405162461bcd60e51b81526004016109f490614883565b33600090815260106020526040902054833514611dbf5760405162461bcd60e51b81526004016109f490614e89565b7f00000000000000000000000000000000000000000000000000000000000000003414611dfe5760405162461bcd60e51b81526004016109f490614952565b8015801590611e0e5750600b5481105b611e2a5760405162461bcd60e51b81526004016109f490614de2565b600e54611e379034613276565b600e55611e4d33610ac336869003860186613d30565b505050565b60115481565b600a5481565b6001600160a01b03831660009081526010602052604090205415611e945760405162461bcd60e51b81526004016109f49061468c565b7f000000000000000000000000000000000000000000000000000000000000000060115410611ed55760405162461bcd60e51b81526004016109f490614c2b565b611f158383838080601f0160208091040260200160405190810160405280939291908181526020018383808284376000920191909152506131e992505050565b601180546001600160a01b0385166000908152601060205260408120829055909190611c3683615327565b604051630926f44b60e31b815260009073__$61800e922196a95eb70dc1bd65191ef757$__90634937a25890611f7a90859060040161456c565b60206040518083038186803b158015611f9257600080fd5b505af4158015611fa6573d6000803e3d6000fd5b505050506040513d601f19601f8201168201806040525081019061110e919061403b565b600084848484604051602001611fe3949392919061446e565b604051602081830303815290604052805190602001209050949350505050565b80516020808301516040808501516060860151608087015160a088015160c089015160e08a01519551600099610b259990989791016143ea565b336000818152600f6020526040812080549190559061205c90826133c3565b50565b7f000000000000000000000000000000000000000000000000000000000000000081565b336000908152601060205260409020546120af5760405162461bcd60e51b81526004016109f490614883565b33600090815260126020526040902055565b6040805160038082526080820190925260009182919060208201606080368337019050509050858160008151811061210957634e487b7160e01b600052603260045260246000fd5b602002602001018181525050848160018151811061213757634e487b7160e01b600052603260045260246000fd5b602002602001018181525050838160028151811061216557634e487b7160e01b600052603260045260246000fd5b60200260200101818152505060005b81518160ff1610156121e9576000805160206153b9833981519152828260ff16815181106121b257634e487b7160e01b600052603260045260246000fd5b6020026020010151106121d75760405162461bcd60e51b81526004016109f490614ec0565b806121e181615342565b915050612174565b506121f2613765565b604080516101008181019092526122219186906008908390839080828437600092019190915250612ef6915050565b60408085018290526020850183905283855260035490516361971b8760e11b81526001600160a01b039091169363c32e370e9361182c9391929091908890600401614525565b7f000000000000000000000000000000000000000000000000000000000000000081565b600e80546000918290559061205c90826133c3565b60135460ff808216916101008104821691620100009091041683565b80516020808301516040808501516060860151608087015160a088015160c089015160e08a01516101008b01516101208c0151975160009b610b259b909a99910161435b565b60126020526000908152604090205481565b600061234b858585856008806020026040519081016040528092919082600860200280828437600092019190915250611fca915050565b6000818152600c60205260409020549091501561237a5760405162461bcd60e51b81526004016109f4906146d2565b6000600b5490508386827f803e193545a0bbe98aa31b4b343e2d224f05453a10cef7f58c6d2408512a5e3b88876040516123b59291906151bf565b60405180910390a46000828152600c60205260408120829055600b8054916112d283615327565b60408051600580825260c082019092526000918291906020820160a080368337019050509050878160008151811061242457634e487b7160e01b600052603260045260246000fd5b602002602001018181525050868160018151811061245257634e487b7160e01b600052603260045260246000fd5b602002602001018181525050858160028151811061248057634e487b7160e01b600052603260045260246000fd5b60200260200101818152505084816003815181106124ae57634e487b7160e01b600052603260045260246000fd5b60200260200101818152505083816004815181106124dc57634e487b7160e01b600052603260045260246000fd5b60200260200101818152505060005b81518160ff161015612560576000805160206153b9833981519152828260ff168151811061252957634e487b7160e01b600052603260045260246000fd5b60200260200101511061254e5760405162461bcd60e51b81526004016109f490614ec0565b8061255881615342565b9150506124eb565b50612569613765565b604080516101008181019092526125989186906008908390839080828437600092019190915250612ef6915050565b60408085018290526020850183905283855260065490516361971b8760e11b81526001600160a01b039091169363c32e370e936125de9391929091908890600401614525565b60206040518083038186803b1580156125f657600080fd5b505afa15801561260a573d6000803e3d6000fd5b505050506040513d601f19601f8201168201806040525081019061262e9190613cc5565b151560609091018190529150509695505050505050565b60006126508261282b565b6000818152600c60205260409020549091501561267f5760405162461bcd60e51b81526004016109f4906146d2565b336000908152601060205260409020546126ab5760405162461bcd60e51b81526004016109f490614883565b606082015133600090815260106020526040902054146126dd5760405162461bcd60e51b81526004016109f490614e89565b7f0000000000000000000000000000000000000000000000000000000000000000341461271c5760405162461bcd60e51b81526004016109f490614952565b60075482511461273e5760405162461bcd60e51b81526004016109f490614798565b600e5461274b9034613276565b600e556127566137bd565b3360008181526010602090815260408083205485529282526012815290829020548382015260016080840152600b549085015160075492519192909183907ff6eb42feca5dff9206113f623b335c7d25abc5130a5f021469108d62c391fd1c906127c19089906150c3565b60405180910390a4611b5233838660200151846040518060400160405280600f81526020016e61697264726f7045706f63684b657960881b815250613289565b7f000000000000000000000000000000000000000000000000000000000000000081565b60095481565b8051602080830151604080850151606086015160a08701519251600096610b25969095949101614499565b600f6020526000908152604090205481565b60005a90507f00000000000000000000000000000000000000000000000000000000000000006008544261289c9190615310565b10156128ba5760405162461bcd60e51b81526004016109f4906148c9565b6007546000805160206153d98339815191526040516128d89061499e565b60405180910390a26007546040517f751bb1ba7b27b3979a32844d4d05aa16a46a771b751593704834a80311e3a9b990600090a2426008556007805490600061292083615327565b919050555060006129325a839061345f565b9050612957612941823a61346b565b336000908152600f602052604090205490613276565b336000908152600f60205260409020555050565b7f000000000000000000000000000000000000000000000000000000000000000081565b600084848484604051602001611fe39493929190614442565b60085481565b6000806129dc7f000000000000000000000000000000000000000000000000000000000000000060026152e7565b6129e790600661528f565b60ff166001600160401b03811115612a0f57634e487b7160e01b600052604160045260246000fd5b604051908082528060200260200182016040528015612a38578160200160208202803683370190505b5090508c81600081518110612a5d57634e487b7160e01b600052603260045260246000fd5b60200260200101818152505060005b7f000000000000000000000000000000000000000000000000000000000000000060ff168160ff161015612b10578c8c8260ff16818110612abd57634e487b7160e01b600052603260045260246000fd5b9050602002013582826001612ad2919061528f565b60ff1681518110612af357634e487b7160e01b600052603260045260246000fd5b602090810291909101015280612b0881615342565b915050612a6c565b508981612b3e7f0000000000000000000000000000000000000000000000000000000000000000600161528f565b60ff1681518110612b5f57634e487b7160e01b600052603260045260246000fd5b60200260200101818152505088886000818110612b8c57634e487b7160e01b600052603260045260246000fd5b90506020020135817f00000000000000000000000000000000000000000000000000000000000000006002612bc1919061528f565b60ff1681518110612be257634e487b7160e01b600052603260045260246000fd5b60200260200101818152505088886001818110612c0f57634e487b7160e01b600052603260045260246000fd5b90506020020135817f00000000000000000000000000000000000000000000000000000000000000006003612c44919061528f565b60ff1681518110612c6557634e487b7160e01b600052603260045260246000fd5b60209081029190910101528681612c9d7f0000000000000000000000000000000000000000000000000000000000000000600461528f565b60ff1681518110612cbe57634e487b7160e01b600052603260045260246000fd5b60200260200101818152505060005b7f000000000000000000000000000000000000000000000000000000000000000060ff168160ff161015612d9c5786868260ff16818110612d1e57634e487b7160e01b600052603260045260246000fd5b9050602002013582827f00000000000000000000000000000000000000000000000000000000000000006005612d54919061528f565b612d5e919061528f565b60ff1681518110612d7f57634e487b7160e01b600052603260045260246000fd5b602090810291909101015280612d9481615342565b915050612ccd565b508381612dca7f000000000000000000000000000000000000000000000000000000000000000060026152e7565b612dd590600561528f565b60ff1681518110612df657634e487b7160e01b600052603260045260246000fd5b60200260200101818152505060005b81518160ff161015612e7a576000805160206153b9833981519152828260ff1681518110612e4357634e487b7160e01b600052603260045260246000fd5b602002602001015110612e685760405162461bcd60e51b81526004016109f490614ec0565b80612e7281615342565b915050612e05565b50612e83613765565b60408051610100818101909252612eb29186906008908390839080828437600092019190915250612ef6915050565b6040808501829052602085018390528385526004805491516361971b8760e11b81526001600160a01b039092169463c32e370e946110229491939092899101614525565b612efe61379f565b612f066137ec565b612f0e61379f565b50506040805180820182528351815260208085015181830152825160808082018552868501518286019081526060808901519084015282528451808601865290870151815260a08701518184015281830152835180850190945260c0860151845260e0909501519083015293909150565b6000612f8d8585858561298f565b6000818152600c602052604090205490915015612fbc5760405162461bcd60e51b81526004016109f4906146d2565b6000600b54905083817ffe2e4029d257513b42218bbe50c55666829722b6f10335bfb0ba2d7cc792fa8c888887604051612ff8939291906151e9565b60405180910390a36000828152600c60205260408120829055600b8054916112d283615327565b7f000000000000000000000000000000000000000000000000000000000000000081565b6040805160038082526080820190925260009182919060208201606080368337019050509050858160008151811061308b57634e487b7160e01b600052603260045260246000fd5b60200260200101818152505084816001815181106130b957634e487b7160e01b600052603260045260246000fd5b60200260200101818152505083816002815181106130e757634e487b7160e01b600052603260045260246000fd5b60200260200101818152505060005b81518160ff16101561316b576000805160206153b9833981519152828260ff168151811061313457634e487b7160e01b600052603260045260246000fd5b6020026020010151106131595760405162461bcd60e51b81526004016109f490614ec0565b8061316381615342565b9150506130f6565b50613174613765565b604080516101008181019092526131a39186906008908390839080828437600092019190915250612ef6915050565b60408085018290526020850183905283855260015490516361971b8760e11b81526001600160a01b039091169363c32e370e9361182c9391929091908890600401614525565b600082306040516020016131fe929190614334565b6040516020818303038152906040528051906020012060405160200161322491906143b6565b604051602081830303815290604052805190602001209050826001600160a01b03166132508284613477565b6001600160a01b031614611e4d5760405162461bcd60e51b81526004016109f490614839565b60006132828284615277565b9392505050565b6000805160206153b98339815191528460200151106132ba5760405162461bcd60e51b81526004016109f490614cca565b6000805160206153b98339815191528460400151106132eb5760405162461bcd60e51b81526004016109f490614e47565b6000805160206153b983398151915284606001511061331c5760405162461bcd60e51b81526004016109f490614754565b83608001516001148061333157506080840151155b61334d5760405162461bcd60e51b81526004016109f490614fba565b6007546000805160206153d983398151915260405161336b90614e19565b60405180910390a2846001600160a01b0316836007547f56e4381873134418db6b4b8819233607063df79c3e5f93378b45919e8ce3d4778488876040516133b4939291906145c6565b60405180910390a45050505050565b804710156133e35760405162461bcd60e51b81526004016109f490614ab7565b6000826001600160a01b0316826040516133fc906143e7565b60006040518083038185875af1925050503d8060008114613439576040519150601f19603f3d011682016040523d82523d6000602084013e61343e565b606091505b5050905080611e4d5760405162461bcd60e51b81526004016109f490614a18565b60006132828284615310565b600061328282846152c8565b6000806000613486858561349b565b915091506134938161350b565b509392505050565b6000808251604114156134d25760208301516040840151606085015160001a6134c687828585613638565b94509450505050613504565b8251604014156134fc57602083015160408401516134f1868383613718565b935093505050613504565b506000905060025b9250929050565b600081600481111561352d57634e487b7160e01b600052602160045260246000fd5b14156135385761205c565b600181600481111561355a57634e487b7160e01b600052602160045260246000fd5b14156135785760405162461bcd60e51b81526004016109f490614655565b600281600481111561359a57634e487b7160e01b600052602160045260246000fd5b14156135b85760405162461bcd60e51b81526004016109f49061471d565b60038160048111156135da57634e487b7160e01b600052602160045260246000fd5b14156135f85760405162461bcd60e51b81526004016109f490614a75565b600481600481111561361a57634e487b7160e01b600052602160045260246000fd5b141561205c5760405162461bcd60e51b81526004016109f490614d0c565b6000807f7fffffffffffffffffffffffffffffff5d576e7357a4501ddfe92f46681b20a083111561366f575060009050600361370f565b8460ff16601b1415801561368757508460ff16601c14155b15613698575060009050600461370f565b6000600187878787604051600081526020016040526040516136bd94939291906145a8565b6020604051602081039080840390855afa1580156136df573d6000803e3d6000fd5b5050604051601f1901519150506001600160a01b0381166137085760006001925092505061370f565b9150600090505b94509492505050565b6000806001600160ff1b03831660ff84901c601b0161373987828885613638565b935093505050935093915050565b6040518060a001604052806005906020820280368337509192915050565b604051806080016040528061377861379f565b81526020016137856137ec565b815260200161379261379f565b8152600060209091015290565b60405180604001604052806002906020820280368337509192915050565b6040518060a0016040528060008152602001600081526020016000815260200160008152602001600081525090565b60405180604001604052806002905b61380361379f565b8152602001906001900390816137fb5790505090565b80356001600160a01b0381168114610b3e57600080fd5b80610100810183101561110e57600080fd5b600082601f830112613852578081fd5b6040516101008082018281106001600160401b0382111715613876576138766153a2565b6040528184828101871015613889578485fd5b8492505b60088310156138ad5780358252600192909201916020918201910161388d565b509195945050505050565b60008083601f8401126138c9578182fd5b5081356001600160401b038111156138df578182fd5b602083019150836020808302850101111561350457600080fd5b600082601f830112613909578081fd5b813560206001600160401b03821115613924576139246153a2565b80820261393282820161524e565b83815282810190868401838801850189101561394c578687fd5b8693505b8584101561396e578035835260019390930192918401918401613950565b50979650505050505050565b60008083601f84011261398b578182fd5b5081356001600160401b038111156139a1578182fd5b60208301915083602082850101111561350457600080fd5b600060a082840312156139ca578081fd5b50919050565b60006101e082840312156139e2578081fd5b6139ed61010061524e565b90508135815260208201356001600160401b0380821115613a0d57600080fd5b613a19858386016138f9565b6020840152604084013560408401526060840135915080821115613a3c57600080fd5b613a48858386016138f9565b60608401526080840135608084015260a0840135915080821115613a6b57600080fd5b50613a78848285016138f9565b60a08301525060c082013560c0820152613a958360e08401613842565b60e082015292915050565b803560ff81168114610b3e57600080fd5b600060208284031215613ac2578081fd5b61328282613819565b600080600060408486031215613adf578182fd5b613ae884613819565b925060208401356001600160401b03811115613b02578283fd5b613b0e8682870161397a565b9497909650939450505050565b6000806000806000806101208789031215613b34578384fd5b613b3d87613819565b955060208701356001600160401b03811115613b57578485fd5b613b6389828a0161397a565b9096509450613b77905088604089016139b9565b925060e0870135915061010087013590509295509295509295565b600060a08284031215613ba3578081fd5b82601f830112613bb1578081fd5b60405160a081018181106001600160401b0382111715613bd357613bd36153a2565b604052808360a08101861015613be7578384fd5b835b60058110156138ad578135835260209283019290910190600101613be9565b60006101008284031215613c1a578081fd5b6132828383613842565b60008060008060008060008060008060006102208c8e031215613c45578889fd5b8b356001600160401b03811115613c5a57898afd5b613c668e828f016138b8565b909c509a505060208c0135985060408c0135975060608c0135965060808c0135955060a08c0135945060c08c0135935060e08c013592506101008c01359150613cb38d6101208e01613830565b90509295989b509295989b9093969950565b600060208284031215613cd6578081fd5b81518015158114613282578182fd5b600060208284031215613cf6578081fd5b5035919050565b600080600060e08486031215613d11578081fd5b613d1b85856139b9565b9560a0850135955060c0909401359392505050565b600060a08284031215613d41578081fd5b60405160a081018181106001600160401b0382111715613d6357613d636153a2565b806040525082358152602083013560208201526040830135604082015260608301356060820152608083013560808201528091505092915050565b60006101608284031215613db0578081fd5b604051608081018181106001600160401b0382111715613dd257613dd26153a2565b8060405250823581526020830135602082015260408301356040820152613dfc8460608501613842565b60608201529392505050565b600060208284031215613e19578081fd5b81356001600160401b0380821115613e2f578283fd5b908301906102208286031215613e43578283fd5b613e4e61014061524e565b823582811115613e5c578485fd5b613e68878286016138f9565b8252506020830135602082015260408301356040820152606083013560608201526080830135608082015260a083013560a082015260c083013560c082015260e083013560e0820152610100915081830135828201526101209150613ecf86838501613842565b91810191909152949350505050565b60006101a08284031215613ef0578081fd5b60405160c081018181106001600160401b0382111715613f1257613f126153a2565b80604052508235815260208301356020820152604083013560408201526060830135606082015260808301356080820152613f508460a08501613842565b60a08201529392505050565b600060408284031215613f6d578081fd5b604051604081018181106001600160401b0382111715613f8f57613f8f6153a2565b604052823581526020928301359281019290925250919050565b600060208284031215613fba578081fd5b81356001600160401b03811115613fcf578182fd5b610ba1848285016139d0565b60008060408385031215613fed578182fd5b82356001600160401b0380821115614003578384fd5b61400f868387016139d0565b93506020850135915080821115614024578283fd5b50614031858286016138f9565b9150509250929050565b60006020828403121561404c578081fd5b5051919050565b60008060008060008060008060008060006101e08c8e031215614074578485fd5b8b359a506001600160401b038060208e01351115614090578586fd5b6140a08e60208f01358f016138b8565b909b50995060408d0135985060608d01358110156140bc578586fd5b6140cc8e60608f01358f016138b8565b909850965060808d0135955060a08d01358110156140e8578485fd5b506140f98d60a08e01358e016138b8565b909450925060c08c01359150613cb38d60e08e01613830565b60008060408385031215614124578182fd5b50508035926020909101359150565b6000806000806101608587031215614149578182fd5b8435935060208501359250604085013591506141688660608701613830565b905092959194509250565b6000806000806101608587031215614189578182fd5b8435935060208501359250604085013591506141688660608701613842565b6000806000806000806101a087890312156141c1578384fd5b86359550602087013594506040870135935060608701359250608087013591506141ee8860a08901613830565b90509295509295509295565b6000806040838503121561420c578182fd5b61421583613aa0565b946020939093013593505050565b60008060008060808587031215614238578182fd5b61424185613aa0565b966020860135965060408601359560600135945092505050565b8060005b60028110156142895761427384835161428f565b604093909301926020919091019060010161425f565b50505050565b8060005b6002811015614289578151845260209384019390910190600101614293565b8060005b60088110156142895781518452602093840193909101906001016142b6565b6000815180845260208085019450808401835b83811015614304578151875295820195908201906001016142e8565b509495945050505050565b80516000906020808401838315614304578151875295820195908201906001016142e8565b6bffffffffffffffffffffffff19606093841b811682529190921b16601482015260280190565b6000614367828d61430f565b8b81528a60208201528960408201528860608201528760808201528660a08201528560c08201528460e08201526143a26101008201856142b2565b610200019c9b505050505050505050505050565b7f19457468657265756d205369676e6564204d6573736167653a0a3332000000008152601c810191909152603c0190565b90565b60008982526143fc602083018a61430f565b88815261440c602082018961430f565b905086815261441e602082018761430f565b905084815261443060208201856142b2565b610120019a9950505050505050505050565b600085825284602083015283604083015261010083606084013761016091909101908152949350505050565b600085825284602083015283604083015261448c60608301846142b2565b5061016001949350505050565b60008682528560208301528460408301528360608301526144bd60808301846142b2565b506101800195945050505050565b60408101818360005b60028110156144f35781518352602092830192909101906001016144d4565b50505092915050565b610100810161450b828661428f565b614518604083018561425b565b610ba160c083018461428f565b6000610120614534838861428f565b614541604084018761425b565b61454e60c084018661428f565b80610100840152614561818401856142d5565b979650505050505050565b60a08101818360005b60058110156144f3578151835260209283019290910190600101614575565b901515815260200190565b90815260200190565b93845260ff9290921660208401526040830152606082015260800190565b600060e0825284518060e0840152815b818110156145f45760208188018101516101008684010152016145d6565b81811115614606578261010083860101525b50610100601f19601f83011684010191505083516020830152602084015160408301526040840151606083015260608401516080830152608084015160a08301528260c0830152949350505050565b60208082526018908201527f45434453413a20696e76616c6964207369676e61747572650000000000000000604082015260600190565b60208082526026908201527f556e697265703a2061747465737465722068617320616c72656164792073696760408201526506e65642075760d41b606082015260800190565b6020808252602b908201527f556e697265703a207468652070726f6f6620686173206265656e207375626d6960408201526a74746564206265666f726560a81b606082015260800190565b6020808252601f908201527f45434453413a20696e76616c6964207369676e6174757265206c656e67746800604082015260600190565b60208082526024908201527f556e697265703a20696e76616c6964206174746573746174696f6e20677261666040820152636669746960e01b606082015260800190565b60208082526034908201527f556e697265703a207375626d697420616e2061697264726f702070726f6f66206040820152730eed2e8d040d2dcc6dee4e4cac6e840cae0dec6d60631b606082015260800190565b6020808252602d908201527f556e697265703a20696e76616c6964206e756d626572206f6620626c696e646560408201526c6420757365722073746174657360981b606082015260800190565b6020808252602a908201527f556e697265703a20696e76616c6964206174746573746572207369676e207570604082015269207369676e617475726560b01b606082015260800190565b60208082526026908201527f556e697265703a20617474657374657220686173206e6f74207369676e6564206040820152651d5c081e595d60d21b606082015260800190565b6020808252601b908201527f556e697265703a2065706f6368206e6f742079657420656e6465640000000000604082015260600190565b60208082526032908201527f436f6d70757465526f6f743a205f747265654c6576656c73206d757374206265604082015271103132ba3bb2b2b710181030b73210191a9b60711b606082015260800190565b6020808252602c908201527f556e697265703a206e6f20617474657374696e6720666565206f7220696e636f60408201526b1c9c9958dd08185b5bdd5b9d60a21b606082015260800190565b6020808252600a9082015269115c1bd8da115b99195960b21b604082015260600190565b60208082526036908201527f556e697265703a207375626d697420612072657075746174696f6e2070726f6f6040820152750cc40eed2e8d040d2dcc6dee4e4cac6e840cae0dec6d60531b606082015260800190565b6020808252603a908201527f416464726573733a20756e61626c6520746f2073656e642076616c75652c207260408201527f6563697069656e74206d61792068617665207265766572746564000000000000606082015260800190565b60208082526022908201527f45434453413a20696e76616c6964207369676e6174757265202773272076616c604082015261756560f01b606082015260800190565b6020808252601d908201527f416464726573733a20696e73756666696369656e742062616c616e6365000000604082015260600190565b60208082526012908201527113995dd1d4d513195859925b9cd95c9d195960721b604082015260600190565b6020808252602f908201527f556e697265703a20696e76616c6964206e756d626572206f662072657075746160408201526e74696f6e206e756c6c69666965727360881b606082015260800190565b60208082526036908201527f556e697265703a207375626d697420616e2065706f6368206b65792070726f6f6040820152750cc40eed2e8d040d2dcc6dee4e4cac6e840cae0dec6d60531b606082015260800190565b60208082526046908201527f43616e206e6f74207472616e736974696f6e2066726f6d2065706f636820746860408201527f617427732067726561746572206f7220657175616c20746f2063757272656e74606082015265040cae0dec6d60d31b608082015260a00190565b60208082526032908201527f556e697265703a206d6178696d756d206e756d626572206f6620617474657374604082015271195c881cda59db9d5c1cc81c995858da195960721b606082015260800190565b6020808252602d908201527f556e697265703a20696e76616c6964206e756d626572206f6620626c696e646560408201526c64206861736820636861696e7360981b606082015260800190565b60208082526022908201527f556e697265703a20696e76616c6964206174746573746174696f6e20706f7352604082015261065760f41b606082015260800190565b60208082526022908201527f45434453413a20696e76616c6964207369676e6174757265202776272076616c604082015261756560f01b606082015260800190565b60208082526026908201527f556e697265703a2074686520757365722068617320616c72656164792073696760408201526506e65642075760d41b606082015260800190565b6020808252602e908201527f556e697265703a206d6178696d756d206e756d626572206f662075736572207360408201526d1a59db9d5c1cc81c995858da195960921b606082015260800190565b6020808252601b908201527f556e697265703a20696e76616c69642070726f6f6620696e6465780000000000604082015260600190565b602080825260149082015273105d1d195cdd185d1a5bdb94dd589b5a5d1d195960621b604082015260600190565b60208082526022908201527f556e697265703a20696e76616c6964206174746573746174696f6e206e656752604082015261065760f41b606082015260800190565b6020808252601d908201527f556e697265703a206d69736d6174636865642061747465737465724964000000604082015260600190565b6020808252603c908201527f556e697265703a2065616368207075626c6963207369676e616c206d7573742060408201527f6265206c742074686520736e61726b207363616c6172206669656c6400000000606082015260800190565b60208082526028908201527f556e697265703a20696e76616c6964206e756d626572206f662065706b206e756040820152676c6c69666965727360c01b606082015260800190565b60208082526035908201527f556e697265703a20696e636f727265637420617474657374657220494420696e604082015274103a3432903932b83aba30ba34b7b710383937b7b360591b606082015260800190565b60208082526022908201527f556e697265703a20696e76616c6964206174746573746174696f6e207369676e604082015261055760f41b606082015260800190565b600061016082019050825182526020830151602083015260408301516040830152606083015161502f60608401826142b2565b5092915050565b600060208252825161022060208401526150546102408401826142d5565b9050602084015160408401526040840151606084015260608401516080840152608084015160a084015260a084015160c084015260c084015160e084015260e08401516101008181860152808601519150506101208181860152808601519150506134936101408501826142b2565b60006101a082019050825182526020830151602083015260408301516040830152606083015160608301526080830151608083015260a083015161502f60a08401826142b2565b6000604082528351604083015260208401516101e060608401526151326102208401826142d5565b9050604085015160808401526060850151603f19808584030160a086015261515a83836142d5565b9250608087015160c086015260a08701519150808584030160e08601525061518282826142d5565b91505060c085015161010084015260e08501516151a36101208501826142b2565b5082810360208401526151b681856142d5565b95945050505050565b8281526101208101610100836020840137600081529392505050565b918252602082015260400190565b83815260208101839052610140810161010083604084013760008152949350505050565b9283526020830191909152604082015260600190565b60ff91909116815260200190565b60ff93841681529183166020830152909116604082015260600190565b6040518181016001600160401b038111828210171561526f5761526f6153a2565b604052919050565b6000821982111561528a5761528a615376565b500190565b600060ff821660ff84168060ff038211156152ac576152ac615376565b019392505050565b6000826152c3576152c361538c565b500490565b60008160001904831182151516156152e2576152e2615376565b500290565b600060ff821660ff84168160ff048111821515161561530857615308615376565b029392505050565b60008282101561532257615322615376565b500390565b600060001982141561533b5761533b615376565b5060010190565b600060ff821660ff81141561535957615359615376565b60010192915050565b6000826153715761537161538c565b500690565b634e487b7160e01b600052601160045260246000fd5b634e487b7160e01b600052601260045260246000fd5b634e487b7160e01b600052604160045260246000fdfe30644e72e131a029b85045b68181585d2833e84879b9709143e1f593f0000001d520dc8edfe278d8221eb9bc1010dbafcff0b692cd5b1a0f7333dc9f228ca660a2646970667358221220d34206a7071076c9bfabd951b47983ad24e7df81c48334d6be5a5a9a9fdbe84364736f6c63430008000033",
  "linkReferences": {
    "@unirep/contracts/contracts/Poseidon.sol": {
      "PoseidonT3": [
        {
          "length": 20,
          "start": 1287
        },
        {
          "length": 20,
          "start": 9325
        }
      ],
      "PoseidonT6": [
        {
          "length": 20,
          "start": 966
        },
        {
          "length": 20,
          "start": 11019
        }
      ]
    }
  },
  "deployedLinkReferences": {
    "@unirep/contracts/contracts/Poseidon.sol": {
      "PoseidonT3": [
        {
          "length": 20,
          "start": 6324
        }
      ],
      "PoseidonT6": [
        {
          "length": 20,
          "start": 8018
        }
      ]
    }
  }
}