{
  "_format": "hh-sol-artifact-1",
  "contractName": "DomainObjs",
  "sourceName": "@unirep/contracts/contracts/DomainObjs.sol",
  "abi": [
    {
      "inputs": [
        {
          "internalType": "uint256[5]",
          "name": "array",
          "type": "uint256[5]"
        }
      ],
      "name": "hash5",
      "outputs": [
        {
          "internalType": "uint256",
          "name": "",
          "type": "uint256"
        }
      ],
      "stateMutability": "pure",
      "type": "function"
    },
    {
      "inputs": [
        {
          "internalType": "uint256",
          "name": "airdropPosRep",
          "type": "uint256"
        }
      ],
      "name": "hashAirdroppedLeaf",
      "outputs": [
        {
          "internalType": "uint256",
          "name": "",
          "type": "uint256"
        }
      ],
      "stateMutability": "pure",
      "type": "function"
    },
    {
      "inputs": [
        {
          "components": [
            {
              "internalType": "uint256",
              "name": "globalStateTree",
              "type": "uint256"
            },
            {
              "internalType": "uint256",
              "name": "epoch",
              "type": "uint256"
            },
            {
              "internalType": "uint256",
              "name": "epochKey",
              "type": "uint256"
            },
            {
              "internalType": "uint256[8]",
              "name": "proof",
              "type": "uint256[8]"
            }
          ],
          "internalType": "struct UnirepParameters.EpochKeyProofRelated",
          "name": "epochKeyProofData",
          "type": "tuple"
        }
      ],
      "name": "hashEpochKeyProof",
      "outputs": [
        {
          "internalType": "bytes32",
          "name": "",
          "type": "bytes32"
        }
      ],
      "stateMutability": "pure",
      "type": "function"
    },
    {
      "inputs": [
        {
          "internalType": "uint256",
          "name": "_left",
          "type": "uint256"
        },
        {
          "internalType": "uint256",
          "name": "_right",
          "type": "uint256"
        }
      ],
      "name": "hashLeftRight",
      "outputs": [
        {
          "internalType": "uint256",
          "name": "",
          "type": "uint256"
        }
      ],
      "stateMutability": "pure",
      "type": "function"
    },
    {
      "inputs": [
        {
          "internalType": "uint256",
          "name": "_outputBlindedUserState",
          "type": "uint256"
        },
        {
          "internalType": "uint256",
          "name": "_outputBlindedHashChain",
          "type": "uint256"
        },
        {
          "internalType": "uint256",
          "name": "_inputBlindedUserState",
          "type": "uint256"
        },
        {
          "internalType": "uint256[8]",
          "name": "_proof",
          "type": "uint256[8]"
        }
      ],
      "name": "hashProcessAttestationsProof",
      "outputs": [
        {
          "internalType": "bytes32",
          "name": "",
          "type": "bytes32"
        }
      ],
      "stateMutability": "pure",
      "type": "function"
    },
    {
      "inputs": [
        {
          "components": [
            {
              "internalType": "uint256[]",
              "name": "repNullifiers",
              "type": "uint256[]"
            },
            {
              "internalType": "uint256",
              "name": "epoch",
              "type": "uint256"
            },
            {
              "internalType": "uint256",
              "name": "epochKey",
              "type": "uint256"
            },
            {
              "internalType": "uint256",
              "name": "globalStateTree",
              "type": "uint256"
            },
            {
              "internalType": "uint256",
              "name": "attesterId",
              "type": "uint256"
            },
            {
              "internalType": "uint256",
              "name": "proveReputationAmount",
              "type": "uint256"
            },
            {
              "internalType": "uint256",
              "name": "minRep",
              "type": "uint256"
            },
            {
              "internalType": "uint256",
              "name": "proveGraffiti",
              "type": "uint256"
            },
            {
              "internalType": "uint256",
              "name": "graffitiPreImage",
              "type": "uint256"
            },
            {
              "internalType": "uint256[8]",
              "name": "proof",
              "type": "uint256[8]"
            }
          ],
          "internalType": "struct UnirepParameters.ReputationProofRelated",
          "name": "reputationProofData",
          "type": "tuple"
        }
      ],
      "name": "hashReputationProof",
      "outputs": [
        {
          "internalType": "bytes32",
          "name": "",
          "type": "bytes32"
        }
      ],
      "stateMutability": "pure",
      "type": "function"
    },
    {
      "inputs": [
        {
          "components": [
            {
              "internalType": "uint256",
              "name": "epoch",
              "type": "uint256"
            },
            {
              "internalType": "uint256",
              "name": "epochKey",
              "type": "uint256"
            },
            {
              "internalType": "uint256",
              "name": "globalStateTree",
              "type": "uint256"
            },
            {
              "internalType": "uint256",
              "name": "attesterId",
              "type": "uint256"
            },
            {
              "internalType": "uint256",
              "name": "userHasSignedUp",
              "type": "uint256"
            },
            {
              "internalType": "uint256[8]",
              "name": "proof",
              "type": "uint256[8]"
            }
          ],
          "internalType": "struct UnirepParameters.SignUpProofRelated",
          "name": "signUpProofData",
          "type": "tuple"
        }
      ],
      "name": "hashSignUpProof",
      "outputs": [
        {
          "internalType": "bytes32",
          "name": "",
          "type": "bytes32"
        }
      ],
      "stateMutability": "pure",
      "type": "function"
    },
    {
      "inputs": [
        {
          "internalType": "uint256",
          "name": "_blindedUserState",
          "type": "uint256"
        },
        {
          "internalType": "uint256",
          "name": "_blindedHashChain",
          "type": "uint256"
        },
        {
          "internalType": "uint256",
          "name": "_globalStateTree",
          "type": "uint256"
        },
        {
          "internalType": "uint256[8]",
          "name": "_proof",
          "type": "uint256[8]"
        }
      ],
      "name": "hashStartTransitionProof",
      "outputs": [
        {
          "internalType": "bytes32",
          "name": "",
          "type": "bytes32"
        }
      ],
      "stateMutability": "pure",
      "type": "function"
    },
    {
      "inputs": [
        {
          "components": [
            {
              "internalType": "uint256",
              "name": "identityCommitment",
              "type": "uint256"
            },
            {
              "internalType": "uint256",
              "name": "userStateRoot",
              "type": "uint256"
            }
          ],
          "internalType": "struct DomainObjs.StateLeaf",
          "name": "_stateLeaf",
          "type": "tuple"
        }
      ],
      "name": "hashStateLeaf",
      "outputs": [
        {
          "internalType": "uint256",
          "name": "",
          "type": "uint256"
        }
      ],
      "stateMutability": "pure",
      "type": "function"
    },
    {
      "inputs": [
        {
          "components": [
            {
              "internalType": "uint256",
              "name": "newGlobalStateTreeLeaf",
              "type": "uint256"
            },
            {
              "internalType": "uint256[]",
              "name": "epkNullifiers",
              "type": "uint256[]"
            },
            {
              "internalType": "uint256",
              "name": "transitionFromEpoch",
              "type": "uint256"
            },
            {
              "internalType": "uint256[]",
              "name": "blindedUserStates",
              "type": "uint256[]"
            },
            {
              "internalType": "uint256",
              "name": "fromGlobalStateTree",
              "type": "uint256"
            },
            {
              "internalType": "uint256[]",
              "name": "blindedHashChains",
              "type": "uint256[]"
            },
            {
              "internalType": "uint256",
              "name": "fromEpochTree",
              "type": "uint256"
            },
            {
              "internalType": "uint256[8]",
              "name": "proof",
              "type": "uint256[8]"
            }
          ],
          "internalType": "struct UnirepParameters.UserTransitionedRelated",
          "name": "userTransitionedData",
          "type": "tuple"
        }
      ],
      "name": "hashUserStateTransitionProof",
      "outputs": [
        {
          "internalType": "bytes32",
          "name": "",
          "type": "bytes32"
        }
      ],
      "stateMutability": "pure",
      "type": "function"
    }
  ],
  "bytecode": "0x608060405234801561001057600080fd5b50610c0d806100206000396000f3fe608060405234801561001057600080fd5b506004361061009e5760003560e01c80639e2e79dc116100665780639e2e79dc14610118578063a14a9fe21461012b578063ad944e471461013e578063cd5032e214610151578063e79e23e9146101645761009e565b806305d9ab82146100a35780632b95f97e146100cc5780635bb93995146100df5780637341ead9146100f25780639cfced9714610105575b600080fd5b6100b66100b13660046105cc565b610177565b6040516100c39190610b8e565b60405180910390f35b6100b66100da3660046108c8565b6101bd565b6100b66100ed3660046108f8565b6101e4565b6100b661010036600461078d565b61027f565b6100b6610113366004610555565b610299565b6100b661012636600461095e565b610323565b6100b66101393660046107db565b61035c565b6100b661014c366004610637565b610396565b6100b661015f36600461070e565b6103dc565b6100b6610172366004610919565b610407565b600081600001518260200151836040015184606001516040516020016101a09493929190610ad8565b604051602081830303815290604052805190602001209050919050565b60006101c7610420565b8281526001606082018190526101dc82610299565b949350505050565b60006101ee61043e565b838152602081018390526040516314d2f97b60e11b815273__$0098a6e9267037f9f6df61985348dda7d9$__906329a5f2f69061022f908490600401610b35565b60206040518083038186803b15801561024757600080fd5b505af415801561025b573d6000803e3d6000fd5b505050506040513d601f19601f820116820180604052508101906101dc91906108e0565b6000610293826000015183602001516101e4565b92915050565b604051630926f44b60e31b815260009073__$61800e922196a95eb70dc1bd65191ef757$__90634937a258906102d3908590600401610b66565b60206040518083038186803b1580156102eb57600080fd5b505af41580156102ff573d6000803e3d6000fd5b505050506040513d601f19601f8201168201806040525081019061029391906108e0565b60008484848460405160200161033c9493929190610ad8565b604051602081830303815290604052805190602001209050949350505050565b80516020808301516040808501516060860151608087015160a088015160c089015160e08a015195516000996101a0999098979101610a54565b80516020808301516040808501516060860151608087015160a088015160c089015160e08a01516101008b01516101208c0151975160009b6101a09b909a9991016109f9565b8051602080830151604080850151606086015160a087015192516000966101a0969095949101610b03565b60008484848460405160200161033c9493929190610aac565b6040518060a001604052806005906020820280368337509192915050565b60405180604001604052806002906020820280368337509192915050565b600082601f83011261046c578081fd5b60405161010080820182811067ffffffffffffffff8211171561049157610491610bc1565b60405281848281018710156104a4578485fd5b8492505b60088310156104c8578035825260019290920191602091820191016104a8565b509195945050505050565b600082601f8301126104e3578081fd5b8135602067ffffffffffffffff8211156104ff576104ff610bc1565b80820261050d828201610b97565b838152828101908684018388018501891015610527578687fd5b8693505b8584101561054957803583526001939093019291840191840161052b565b50979650505050505050565b600060a08284031215610566578081fd5b82601f830112610574578081fd5b60405160a0810181811067ffffffffffffffff8211171561059757610597610bc1565b604052808360a081018610156105ab578384fd5b835b60058110156104c85781358352602092830192909101906001016105ad565b600061016082840312156105de578081fd5b6040516080810181811067ffffffffffffffff8211171561060157610601610bc1565b806040525082358152602083013560208201526040830135604082015261062b846060850161045c565b60608201529392505050565b600060208284031215610648578081fd5b813567ffffffffffffffff8082111561065f578283fd5b908301906102208286031215610673578283fd5b61067e610140610b97565b82358281111561068c578485fd5b610698878286016104d3565b8252506020830135602082015260408301356040820152606083013560608201526080830135608082015260a083013560a082015260c083013560c082015260e083013560e08201526101009150818301358282015261012091506106ff8683850161045c565b91810191909152949350505050565b60006101a08284031215610720578081fd5b60405160c0810181811067ffffffffffffffff8211171561074357610743610bc1565b806040525082358152602083013560208201526040830135604082015260608301356060820152608083013560808201526107818460a0850161045c565b60a08201529392505050565b60006040828403121561079e578081fd5b6040516040810181811067ffffffffffffffff821117156107c1576107c1610bc1565b604052823581526020928301359281019290925250919050565b6000602082840312156107ec578081fd5b813567ffffffffffffffff80821115610803578283fd5b908301906101e08286031215610817578283fd5b610822610100610b97565b82358152602083013582811115610837578485fd5b610843878286016104d3565b60208301525060408301356040820152606083013582811115610864578485fd5b610870878286016104d3565b6060830152506080830135608082015260a083013582811115610891578485fd5b61089d878286016104d3565b60a08301525060c083013560c08201526108ba8660e0850161045c565b60e082015295945050505050565b6000602082840312156108d9578081fd5b5035919050565b6000602082840312156108f1578081fd5b5051919050565b6000806040838503121561090a578081fd5b50508035926020909101359150565b600080600080610160808688031215610930578283fd5b853594506020860135935060408601359250868187011115610950578182fd5b509295919450926060019150565b6000806000806101608587031215610974578182fd5b843593506020850135925060408501359150610993866060870161045c565b905092959194509250565b8060005b60088110156109c15781518452602093840193909101906001016109a2565b50505050565b600081516020808401835b838110156109ee578151875295820195908201906001016109d2565b509495945050505050565b6000610a05828d6109c7565b8b81528a60208201528960408201528860608201528760808201528660a08201528560c08201528460e0820152610a4061010082018561099e565b610200019c9b505050505050505050505050565b6000898252610a66602083018a6109c7565b888152610a7660208201896109c7565b9050868152610a8860208201876109c7565b9050848152610a9a602082018561099e565b610120019a9950505050505050505050565b600085825284602083015283604083015261010083606084013761016091909101908152949350505050565b6000858252846020830152836040830152610af6606083018461099e565b5061016001949350505050565b6000868252856020830152846040830152836060830152610b27608083018461099e565b506101800195945050505050565b60408101818360005b6002811015610b5d578151835260209283019290910190600101610b3e565b50505092915050565b60a08101818360005b6005811015610b5d578151835260209283019290910190600101610b6f565b90815260200190565b60405181810167ffffffffffffffff81118282101715610bb957610bb9610bc1565b604052919050565b634e487b7160e01b600052604160045260246000fdfea264697066735822122047aa79c711dda693625fdb2f68eedc551f3b1f92bca3021279ce249be3977d3964736f6c63430008000033",
  "linkReferences": {
    "@unirep/contracts/contracts/Poseidon.sol": {
      "PoseidonT3": [
        {
          "length": 20,
          "start": 551
        }
      ],
      "PoseidonT6": [
        {
          "length": 20,
          "start": 715
        }
      ]
    }
  },
  "deployedLinkReferences": {
    "@unirep/contracts/contracts/Poseidon.sol": {
      "PoseidonT3": [
        {
          "length": 20,
          "start": 519
        }
      ],
      "PoseidonT6": [
        {
          "length": 20,
          "start": 683
        }
      ]
    }
  }
}